{
	"compilerInput": "{\"language\":\"Solidity\",\"sources\":{\"tangousd.sol\":{\"content\":\"pragma solidity 0.5.16;\\r\\n\\r\\ninterface IBEP20 {\\r\\n  /**\\r\\n   * @dev Returns the amount of tokens in existence.\\r\\n   */\\r\\n  function totalSupply() external view returns (uint256);\\r\\n\\r\\n  /**\\r\\n   * @dev Returns the token decimals.\\r\\n   */\\r\\n  function decimals() external view returns (uint8);\\r\\n\\r\\n  /**\\r\\n   * @dev Returns the token symbol.\\r\\n   */\\r\\n  function symbol() external view returns (string memory);\\r\\n\\r\\n  /**\\r\\n  * @dev Returns the token name.\\r\\n  */\\r\\n  function name() external view returns (string memory);\\r\\n\\r\\n  /**\\r\\n   * @dev Returns the bep token owner.\\r\\n   */\\r\\n  function getOwner() external view returns (address);\\r\\n\\r\\n  /**\\r\\n   * @dev Returns the amount of tokens owned by `account`.\\r\\n   */\\r\\n  function balanceOf(address account) external view returns (uint256);\\r\\n\\r\\n  /**\\r\\n   * @dev Moves `amount` tokens from the caller's account to `recipient`.\\r\\n   *\\r\\n   * Returns a boolean value indicating whether the operation succeeded.\\r\\n   *\\r\\n   * Emits a {Transfer} event.\\r\\n   */\\r\\n  function transfer(address recipient, uint256 amount) external returns (bool);\\r\\n\\r\\n  /**\\r\\n   * @dev Returns the remaining number of tokens that `spender` will be\\r\\n   * allowed to spend on behalf of `owner` through {transferFrom}. This is\\r\\n   * zero by default.\\r\\n   *\\r\\n   * This value changes when {approve} or {transferFrom} are called.\\r\\n   */\\r\\n  function allowance(address _owner, address spender) external view returns (uint256);\\r\\n\\r\\n  /**\\r\\n   * @dev Sets `amount` as the allowance of `spender` over the caller's tokens.\\r\\n   *\\r\\n   * Returns a boolean value indicating whether the operation succeeded.\\r\\n   *\\r\\n   * IMPORTANT: Beware that changing an allowance with this method brings the risk\\r\\n   * that someone may use both the old and the new allowance by unfortunate\\r\\n   * transaction ordering. One possible solution to mitigate this race\\r\\n   * condition is to first reduce the spender's allowance to 0 and set the\\r\\n   * desired value afterwards:\\r\\n   * https://github.com/ethereum/EIPs/issues/20#issuecomment-263524729\\r\\n   *\\r\\n   * Emits an {Approval} event.\\r\\n   */\\r\\n  function approve(address spender, uint256 amount) external returns (bool);\\r\\n\\r\\n  /**\\r\\n   * @dev Moves `amount` tokens from `sender` to `recipient` using the\\r\\n   * allowance mechanism. `amount` is then deducted from the caller's\\r\\n   * allowance.\\r\\n   *\\r\\n   * Returns a boolean value indicating whether the operation succeeded.\\r\\n   *\\r\\n   * Emits a {Transfer} event.\\r\\n   */\\r\\n  function transferFrom(address sender, address recipient, uint256 amount) external returns (bool);\\r\\n\\r\\n  /**\\r\\n   * @dev Emitted when `value` tokens are moved from one account (`from`) to\\r\\n   * another (`to`).\\r\\n   *\\r\\n   * Note that `value` may be zero.\\r\\n   */\\r\\n  event Transfer(address indexed from, address indexed to, uint256 value);\\r\\n\\r\\n  /**\\r\\n   * @dev Emitted when the allowance of a `spender` for an `owner` is set by\\r\\n   * a call to {approve}. `value` is the new allowance.\\r\\n   */\\r\\n  event Approval(address indexed owner, address indexed spender, uint256 value);\\r\\n}\\r\\n\\r\\n/*\\r\\n * @dev Provides information about the current execution context, including the\\r\\n * sender of the transaction and its data. While these are generally available\\r\\n * via msg.sender and msg.data, they should not be accessed in such a direct\\r\\n * manner, since when dealing with GSN meta-transactions the account sending and\\r\\n * paying for execution may not be the actual sender (as far as an application\\r\\n * is concerned).\\r\\n *\\r\\n * This contract is only required for intermediate, library-like contracts.\\r\\n */\\r\\ncontract Context {\\r\\n  // Empty internal constructor, to prevent people from mistakenly deploying\\r\\n  // an instance of this contract, which should be used via inheritance.\\r\\n  constructor () internal { }\\r\\n\\r\\n  function _msgSender() internal view returns (address payable) {\\r\\n    return msg.sender;\\r\\n  }\\r\\n\\r\\n  function _msgData() internal view returns (bytes memory) {\\r\\n    this; // silence state mutability warning without generating bytecode - see https://github.com/ethereum/solidity/issues/2691\\r\\n    return msg.data;\\r\\n  }\\r\\n}\\r\\n\\r\\n/**\\r\\n * @dev Wrappers over Solidity's arithmetic operations with added overflow\\r\\n * checks.\\r\\n *\\r\\n * Arithmetic operations in Solidity wrap on overflow. This can easily result\\r\\n * in bugs, because programmers usually assume that an overflow raises an\\r\\n * error, which is the standard behavior in high level programming languages.\\r\\n * `SafeMath` restores this intuition by reverting the transaction when an\\r\\n * operation overflows.\\r\\n *\\r\\n * Using this library instead of the unchecked operations eliminates an entire\\r\\n * class of bugs, so it's recommended to use it always.\\r\\n */\\r\\nlibrary SafeMath {\\r\\n  /**\\r\\n   * @dev Returns the addition of two unsigned integers, reverting on\\r\\n   * overflow.\\r\\n   *\\r\\n   * Counterpart to Solidity's `+` operator.\\r\\n   *\\r\\n   * Requirements:\\r\\n   * - Addition cannot overflow.\\r\\n   */\\r\\n  function add(uint256 a, uint256 b) internal pure returns (uint256) {\\r\\n    uint256 c = a + b;\\r\\n    require(c >= a, \\\"SafeMath: addition overflow\\\");\\r\\n\\r\\n    return c;\\r\\n  }\\r\\n\\r\\n  /**\\r\\n   * @dev Returns the subtraction of two unsigned integers, reverting on\\r\\n   * overflow (when the result is negative).\\r\\n   *\\r\\n   * Counterpart to Solidity's `-` operator.\\r\\n   *\\r\\n   * Requirements:\\r\\n   * - Subtraction cannot overflow.\\r\\n   */\\r\\n  function sub(uint256 a, uint256 b) internal pure returns (uint256) {\\r\\n    return sub(a, b, \\\"SafeMath: subtraction overflow\\\");\\r\\n  }\\r\\n\\r\\n  /**\\r\\n   * @dev Returns the subtraction of two unsigned integers, reverting with custom message on\\r\\n   * overflow (when the result is negative).\\r\\n   *\\r\\n   * Counterpart to Solidity's `-` operator.\\r\\n   *\\r\\n   * Requirements:\\r\\n   * - Subtraction cannot overflow.\\r\\n   */\\r\\n  function sub(uint256 a, uint256 b, string memory errorMessage) internal pure returns (uint256) {\\r\\n    require(b <= a, errorMessage);\\r\\n    uint256 c = a - b;\\r\\n\\r\\n    return c;\\r\\n  }\\r\\n\\r\\n  /**\\r\\n   * @dev Returns the multiplication of two unsigned integers, reverting on\\r\\n   * overflow.\\r\\n   *\\r\\n   * Counterpart to Solidity's `*` operator.\\r\\n   *\\r\\n   * Requirements:\\r\\n   * - Multiplication cannot overflow.\\r\\n   */\\r\\n  function mul(uint256 a, uint256 b) internal pure returns (uint256) {\\r\\n    // Gas optimization: this is cheaper than requiring 'a' not being zero, but the\\r\\n    // benefit is lost if 'b' is also tested.\\r\\n    // See: https://github.com/OpenZeppelin/openzeppelin-contracts/pull/522\\r\\n    if (a == 0) {\\r\\n      return 0;\\r\\n    }\\r\\n\\r\\n    uint256 c = a * b;\\r\\n    require(c / a == b, \\\"SafeMath: multiplication overflow\\\");\\r\\n\\r\\n    return c;\\r\\n  }\\r\\n\\r\\n  /**\\r\\n   * @dev Returns the integer division of two unsigned integers. Reverts on\\r\\n   * division by zero. The result is rounded towards zero.\\r\\n   *\\r\\n   * Counterpart to Solidity's `/` operator. Note: this function uses a\\r\\n   * `revert` opcode (which leaves remaining gas untouched) while Solidity\\r\\n   * uses an invalid opcode to revert (consuming all remaining gas).\\r\\n   *\\r\\n   * Requirements:\\r\\n   * - The divisor cannot be zero.\\r\\n   */\\r\\n  function div(uint256 a, uint256 b) internal pure returns (uint256) {\\r\\n    return div(a, b, \\\"SafeMath: division by zero\\\");\\r\\n  }\\r\\n\\r\\n  /**\\r\\n   * @dev Returns the integer division of two unsigned integers. Reverts with custom message on\\r\\n   * division by zero. The result is rounded towards zero.\\r\\n   *\\r\\n   * Counterpart to Solidity's `/` operator. Note: this function uses a\\r\\n   * `revert` opcode (which leaves remaining gas untouched) while Solidity\\r\\n   * uses an invalid opcode to revert (consuming all remaining gas).\\r\\n   *\\r\\n   * Requirements:\\r\\n   * - The divisor cannot be zero.\\r\\n   */\\r\\n  function div(uint256 a, uint256 b, string memory errorMessage) internal pure returns (uint256) {\\r\\n    // Solidity only automatically asserts when dividing by 0\\r\\n    require(b > 0, errorMessage);\\r\\n    uint256 c = a / b;\\r\\n    // assert(a == b * c + a % b); // There is no case in which this doesn't hold\\r\\n\\r\\n    return c;\\r\\n  }\\r\\n\\r\\n  /**\\r\\n   * @dev Returns the remainder of dividing two unsigned integers. (unsigned integer modulo),\\r\\n   * Reverts when dividing by zero.\\r\\n   *\\r\\n   * Counterpart to Solidity's `%` operator. This function uses a `revert`\\r\\n   * opcode (which leaves remaining gas untouched) while Solidity uses an\\r\\n   * invalid opcode to revert (consuming all remaining gas).\\r\\n   *\\r\\n   * Requirements:\\r\\n   * - The divisor cannot be zero.\\r\\n   */\\r\\n  function mod(uint256 a, uint256 b) internal pure returns (uint256) {\\r\\n    return mod(a, b, \\\"SafeMath: modulo by zero\\\");\\r\\n  }\\r\\n\\r\\n  /**\\r\\n   * @dev Returns the remainder of dividing two unsigned integers. (unsigned integer modulo),\\r\\n   * Reverts with custom message when dividing by zero.\\r\\n   *\\r\\n   * Counterpart to Solidity's `%` operator. This function uses a `revert`\\r\\n   * opcode (which leaves remaining gas untouched) while Solidity uses an\\r\\n   * invalid opcode to revert (consuming all remaining gas).\\r\\n   *\\r\\n   * Requirements:\\r\\n   * - The divisor cannot be zero.\\r\\n   */\\r\\n  function mod(uint256 a, uint256 b, string memory errorMessage) internal pure returns (uint256) {\\r\\n    require(b != 0, errorMessage);\\r\\n    return a % b;\\r\\n  }\\r\\n}\\r\\n\\r\\n/**\\r\\n * @dev Contract module which provides a basic access control mechanism, where\\r\\n * there is an account (an owner) that can be granted exclusive access to\\r\\n * specific functions.\\r\\n *\\r\\n * By default, the owner account will be the one that deploys the contract. This\\r\\n * can later be changed with {transferOwnership}.\\r\\n *\\r\\n * This module is used through inheritance. It will make available the modifier\\r\\n * `onlyOwner`, which can be applied to your functions to restrict their use to\\r\\n * the owner.\\r\\n */\\r\\ncontract Ownable is Context {\\r\\n  address private _owner;\\r\\n\\r\\n  event OwnershipTransferred(address indexed previousOwner, address indexed newOwner);\\r\\n\\r\\n  /**\\r\\n   * @dev Initializes the contract setting the deployer as the initial owner.\\r\\n   */\\r\\n  constructor () internal {\\r\\n    address msgSender = _msgSender();\\r\\n    _owner = msgSender;\\r\\n    emit OwnershipTransferred(address(0), msgSender);\\r\\n  }\\r\\n\\r\\n  /**\\r\\n   * @dev Returns the address of the current owner.\\r\\n   */\\r\\n  function owner() public view returns (address) {\\r\\n    return _owner;\\r\\n  }\\r\\n\\r\\n  /**\\r\\n   * @dev Throws if called by any account other than the owner.\\r\\n   */\\r\\n  modifier onlyOwner() {\\r\\n    require(_owner == _msgSender(), \\\"Ownable: caller is not the owner\\\");\\r\\n    _;\\r\\n  }\\r\\n\\r\\n  /**\\r\\n   * @dev Leaves the contract without owner. It will not be possible to call\\r\\n   * `onlyOwner` functions anymore. Can only be called by the current owner.\\r\\n   *\\r\\n   * NOTE: Renouncing ownership will leave the contract without an owner,\\r\\n   * thereby removing any functionality that is only available to the owner.\\r\\n   */\\r\\n  function renounceOwnership() public onlyOwner {\\r\\n    emit OwnershipTransferred(_owner, address(0));\\r\\n    _owner = address(0);\\r\\n  }\\r\\n\\r\\n  /**\\r\\n   * @dev Transfers ownership of the contract to a new account (`newOwner`).\\r\\n   * Can only be called by the current owner.\\r\\n   */\\r\\n  function transferOwnership(address newOwner) public onlyOwner {\\r\\n    _transferOwnership(newOwner);\\r\\n  }\\r\\n\\r\\n  /**\\r\\n   * @dev Transfers ownership of the contract to a new account (`newOwner`).\\r\\n   */\\r\\n  function _transferOwnership(address newOwner) internal {\\r\\n    require(newOwner != address(0), \\\"Ownable: new owner is the zero address\\\");\\r\\n    emit OwnershipTransferred(_owner, newOwner);\\r\\n    _owner = newOwner;\\r\\n  }\\r\\n}\\r\\n\\r\\ncontract TangoUSD is Context, IBEP20, Ownable {\\r\\n  using SafeMath for uint256;\\r\\n\\r\\n  mapping (address => uint256) private _balances;\\r\\n\\r\\n  mapping (address => mapping (address => uint256)) private _allowances;\\r\\n\\r\\n  uint256 private _totalSupply;\\r\\n  uint8 public _decimals;\\r\\n  string public _symbol;\\r\\n  string public _name;\\r\\n\\r\\n  constructor() public {\\r\\n    _name = \\\"Tango USD\\\";\\r\\n    _symbol = \\\"USDT\\\";\\r\\n    _decimals = 18;\\r\\n    _totalSupply = 1000000000 * 10 **18;\\r\\n    _balances[msg.sender] = _totalSupply;\\r\\n\\r\\n    emit Transfer(address(0), msg.sender, _totalSupply);\\r\\n  }\\r\\n\\r\\n  /**\\r\\n   * @dev Returns the bep token owner.\\r\\n   */\\r\\n  function getOwner() external view returns (address) {\\r\\n    return owner();\\r\\n  }\\r\\n\\r\\n  /**\\r\\n   * @dev Returns the token decimals.\\r\\n   */\\r\\n  function decimals() external view returns (uint8) {\\r\\n    return _decimals;\\r\\n  }\\r\\n\\r\\n  /**\\r\\n   * @dev Returns the token symbol.\\r\\n   */\\r\\n  function symbol() external view returns (string memory) {\\r\\n    return _symbol;\\r\\n  }\\r\\n\\r\\n  /**\\r\\n  * @dev Returns the token name.\\r\\n  */\\r\\n  function name() external view returns (string memory) {\\r\\n    return _name;\\r\\n  }\\r\\n\\r\\n  /**\\r\\n   * @dev See {BEP20-totalSupply}.\\r\\n   */\\r\\n  function totalSupply() external view returns (uint256) {\\r\\n    return _totalSupply;\\r\\n  }\\r\\n\\r\\n  /**\\r\\n   * @dev See {BEP20-balanceOf}.\\r\\n   */\\r\\n  function balanceOf(address account) external view returns (uint256) {\\r\\n    return _balances[account];\\r\\n  }\\r\\n\\r\\n  /**\\r\\n   * @dev See {BEP20-transfer}.\\r\\n   *\\r\\n   * Requirements:\\r\\n   *\\r\\n   * - `recipient` cannot be the zero address.\\r\\n   * - the caller must have a balance of at least `amount`.\\r\\n   */\\r\\n  function transfer(address recipient, uint256 amount) external returns (bool) {\\r\\n    _transfer(_msgSender(), recipient, amount);\\r\\n    return true;\\r\\n  }\\r\\n\\r\\n  /**\\r\\n   * @dev See {BEP20-allowance}.\\r\\n   */\\r\\n  function allowance(address owner, address spender) external view returns (uint256) {\\r\\n    return _allowances[owner][spender];\\r\\n  }\\r\\n\\r\\n  /**\\r\\n   * @dev See {BEP20-approve}.\\r\\n   *\\r\\n   * Requirements:\\r\\n   *\\r\\n   * - `spender` cannot be the zero address.\\r\\n   */\\r\\n  function approve(address spender, uint256 amount) external returns (bool) {\\r\\n    _approve(_msgSender(), spender, amount);\\r\\n    return true;\\r\\n  }\\r\\n\\r\\n  /**\\r\\n   * @dev See {BEP20-transferFrom}.\\r\\n   *\\r\\n   * Emits an {Approval} event indicating the updated allowance. This is not\\r\\n   * required by the EIP. See the note at the beginning of {BEP20};\\r\\n   *\\r\\n   * Requirements:\\r\\n   * - `sender` and `recipient` cannot be the zero address.\\r\\n   * - `sender` must have a balance of at least `amount`.\\r\\n   * - the caller must have allowance for `sender`'s tokens of at least\\r\\n   * `amount`.\\r\\n   */\\r\\n  function transferFrom(address sender, address recipient, uint256 amount) external returns (bool) {\\r\\n    _transfer(sender, recipient, amount);\\r\\n    _approve(sender, _msgSender(), _allowances[sender][_msgSender()].sub(amount, \\\"BEP20: transfer amount exceeds allowance\\\"));\\r\\n    return true;\\r\\n  }\\r\\n\\r\\n  /**\\r\\n   * @dev Atomically increases the allowance granted to `spender` by the caller.\\r\\n   *\\r\\n   * This is an alternative to {approve} that can be used as a mitigation for\\r\\n   * problems described in {BEP20-approve}.\\r\\n   *\\r\\n   * Emits an {Approval} event indicating the updated allowance.\\r\\n   *\\r\\n   * Requirements:\\r\\n   *\\r\\n   * - `spender` cannot be the zero address.\\r\\n   */\\r\\n  function increaseAllowance(address spender, uint256 addedValue) public returns (bool) {\\r\\n    _approve(_msgSender(), spender, _allowances[_msgSender()][spender].add(addedValue));\\r\\n    return true;\\r\\n  }\\r\\n\\r\\n  /**\\r\\n   * @dev Atomically decreases the allowance granted to `spender` by the caller.\\r\\n   *\\r\\n   * This is an alternative to {approve} that can be used as a mitigation for\\r\\n   * problems described in {BEP20-approve}.\\r\\n   *\\r\\n   * Emits an {Approval} event indicating the updated allowance.\\r\\n   *\\r\\n   * Requirements:\\r\\n   *\\r\\n   * - `spender` cannot be the zero address.\\r\\n   * - `spender` must have allowance for the caller of at least\\r\\n   * `subtractedValue`.\\r\\n   */\\r\\n  function decreaseAllowance(address spender, uint256 subtractedValue) public returns (bool) {\\r\\n    _approve(_msgSender(), spender, _allowances[_msgSender()][spender].sub(subtractedValue, \\\"BEP20: decreased allowance below zero\\\"));\\r\\n    return true;\\r\\n  }\\r\\n\\r\\n  /**\\r\\n   * @dev Creates `amount` tokens and assigns them to `msg.sender`, increasing\\r\\n   * the total supply.\\r\\n   *\\r\\n   * Requirements\\r\\n   *\\r\\n   * - `msg.sender` must be the token owner\\r\\n   */\\r\\n  function mint(uint256 amount) public onlyOwner returns (bool) {\\r\\n    _mint(_msgSender(), amount);\\r\\n    return true;\\r\\n  }\\r\\n\\r\\n  /**\\r\\n   * @dev Burn `amount` tokens and decreasing the total supply.\\r\\n   */\\r\\n  function burn(uint256 amount) public returns (bool) {\\r\\n    _burn(_msgSender(), amount);\\r\\n    return true;\\r\\n  }\\r\\n\\r\\n  /**\\r\\n   * @dev Moves tokens `amount` from `sender` to `recipient`.\\r\\n   *\\r\\n   * This is internal function is equivalent to {transfer}, and can be used to\\r\\n   * e.g. implement automatic token fees, slashing mechanisms, etc.\\r\\n   *\\r\\n   * Emits a {Transfer} event.\\r\\n   *\\r\\n   * Requirements:\\r\\n   *\\r\\n   * - `sender` cannot be the zero address.\\r\\n   * - `recipient` cannot be the zero address.\\r\\n   * - `sender` must have a balance of at least `amount`.\\r\\n   */\\r\\n  function _transfer(address sender, address recipient, uint256 amount) internal {\\r\\n    require(sender != address(0), \\\"BEP20: transfer from the zero address\\\");\\r\\n    require(recipient != address(0), \\\"BEP20: transfer to the zero address\\\");\\r\\n\\r\\n    _balances[sender] = _balances[sender].sub(amount, \\\"BEP20: transfer amount exceeds balance\\\");\\r\\n    _balances[recipient] = _balances[recipient].add(amount);\\r\\n    emit Transfer(sender, recipient, amount);\\r\\n  }\\r\\n\\r\\n  /** @dev Creates `amount` tokens and assigns them to `account`, increasing\\r\\n   * the total supply.\\r\\n   *\\r\\n   * Emits a {Transfer} event with `from` set to the zero address.\\r\\n   *\\r\\n   * Requirements\\r\\n   *\\r\\n   * - `to` cannot be the zero address.\\r\\n   */\\r\\n  function _mint(address account, uint256 amount) internal {\\r\\n    require(account != address(0), \\\"BEP20: mint to the zero address\\\");\\r\\n\\r\\n    _totalSupply = _totalSupply.add(amount);\\r\\n    _balances[account] = _balances[account].add(amount);\\r\\n    emit Transfer(address(0), account, amount);\\r\\n  }\\r\\n\\r\\n  /**\\r\\n   * @dev Destroys `amount` tokens from `account`, reducing the\\r\\n   * total supply.\\r\\n   *\\r\\n   * Emits a {Transfer} event with `to` set to the zero address.\\r\\n   *\\r\\n   * Requirements\\r\\n   *\\r\\n   * - `account` cannot be the zero address.\\r\\n   * - `account` must have at least `amount` tokens.\\r\\n   */\\r\\n  function _burn(address account, uint256 amount) internal {\\r\\n    require(account != address(0), \\\"BEP20: burn from the zero address\\\");\\r\\n\\r\\n    _balances[account] = _balances[account].sub(amount, \\\"BEP20: burn amount exceeds balance\\\");\\r\\n    _totalSupply = _totalSupply.sub(amount);\\r\\n    emit Transfer(account, address(0), amount);\\r\\n  }\\r\\n\\r\\n  /**\\r\\n   * @dev Sets `amount` as the allowance of `spender` over the `owner`s tokens.\\r\\n   *\\r\\n   * This is internal function is equivalent to `approve`, and can be used to\\r\\n   * e.g. set automatic allowances for certain subsystems, etc.\\r\\n   *\\r\\n   * Emits an {Approval} event.\\r\\n   *\\r\\n   * Requirements:\\r\\n   *\\r\\n   * - `owner` cannot be the zero address.\\r\\n   * - `spender` cannot be the zero address.\\r\\n   */\\r\\n  function _approve(address owner, address spender, uint256 amount) internal {\\r\\n    require(owner != address(0), \\\"BEP20: approve from the zero address\\\");\\r\\n    require(spender != address(0), \\\"BEP20: approve to the zero address\\\");\\r\\n\\r\\n    _allowances[owner][spender] = amount;\\r\\n    emit Approval(owner, spender, amount);\\r\\n  }\\r\\n\\r\\n  /**\\r\\n   * @dev Destroys `amount` tokens from `account`.`amount` is then deducted\\r\\n   * from the caller's allowance.\\r\\n   *\\r\\n   * See {_burn} and {_approve}.\\r\\n   */\\r\\n  function _burnFrom(address account, uint256 amount) internal {\\r\\n    _burn(account, amount);\\r\\n    _approve(account, _msgSender(), _allowances[account][_msgSender()].sub(amount, \\\"BEP20: burn amount exceeds allowance\\\"));\\r\\n  }\\r\\n}\"}},\"settings\":{\"optimizer\":{\"enabled\":false,\"runs\":200},\"outputSelection\":{\"*\":{\"\":[\"ast\"],\"*\":[\"abi\",\"metadata\",\"devdoc\",\"userdoc\",\"storageLayout\",\"evm.legacyAssembly\",\"evm.bytecode\",\"evm.deployedBytecode\",\"evm.methodIdentifiers\",\"evm.gasEstimates\",\"evm.assembly\"]}},\"remappings\":[]}}",
	"name": "TangoUSD",
	"bytecode": {
		"linkReferences": {},
		"object": "60806040523480156200001157600080fd5b506000620000246200024160201b60201c565b9050806000806101000a81548173ffffffffffffffffffffffffffffffffffffffff021916908373ffffffffffffffffffffffffffffffffffffffff1602179055508073ffffffffffffffffffffffffffffffffffffffff16600073ffffffffffffffffffffffffffffffffffffffff167f8be0079c531659141344cd1fd0a4f28419497f9722a3daafe3b4186f6b6457e060405160405180910390a3506040518060400160405280600981526020017f54616e676f205553440000000000000000000000000000000000000000000000815250600690805190602001906200010f92919062000249565b506040518060400160405280600481526020017f5553445400000000000000000000000000000000000000000000000000000000815250600590805190602001906200015d92919062000249565b506012600460006101000a81548160ff021916908360ff1602179055506b033b2e3c9fd0803ce8000000600381905550600354600160003373ffffffffffffffffffffffffffffffffffffffff1673ffffffffffffffffffffffffffffffffffffffff168152602001908152602001600020819055503373ffffffffffffffffffffffffffffffffffffffff16600073ffffffffffffffffffffffffffffffffffffffff167fddf252ad1be2c89b69c2b068fc378daa952ba7f163c4a11628f55a4df523b3ef6003546040518082815260200191505060405180910390a3620002f8565b600033905090565b828054600181600116156101000203166002900490600052602060002090601f016020900481019282601f106200028c57805160ff1916838001178555620002bd565b82800160010185558215620002bd579182015b82811115620002bc5782518255916020019190600101906200029f565b5b509050620002cc9190620002d0565b5090565b620002f591905b80821115620002f1576000816000905550600101620002d7565b5090565b90565b611e5380620003086000396000f3fe608060405234801561001057600080fd5b506004361061012c5760003560e01c8063893d20e8116100ad578063a9059cbb11610071578063a9059cbb146105d7578063b09f12661461063d578063d28d8852146106c0578063dd62ed3e14610743578063f2fde38b146107bb5761012c565b8063893d20e8146104145780638da5cb5b1461045e57806395d89b41146104a8578063a0712d681461052b578063a457c2d7146105715761012c565b806332424aa3116100f457806332424aa3146102e2578063395093511461030657806342966c681461036c57806370a08231146103b2578063715018a61461040a5761012c565b806306fdde0314610131578063095ea7b3146101b457806318160ddd1461021a57806323b872dd14610238578063313ce567146102be575b600080fd5b6101396107ff565b6040518080602001828103825283818151815260200191508051906020019080838360005b8381101561017957808201518184015260208101905061015e565b50505050905090810190601f1680156101a65780820380516001836020036101000a031916815260200191505b509250505060405180910390f35b610200600480360360408110156101ca57600080fd5b81019080803573ffffffffffffffffffffffffffffffffffffffff169060200190929190803590602001909291905050506108a1565b604051808215151515815260200191505060405180910390f35b6102226108bf565b6040518082815260200191505060405180910390f35b6102a46004803603606081101561024e57600080fd5b81019080803573ffffffffffffffffffffffffffffffffffffffff169060200190929190803573ffffffffffffffffffffffffffffffffffffffff169060200190929190803590602001909291905050506108c9565b604051808215151515815260200191505060405180910390f35b6102c66109a2565b604051808260ff1660ff16815260200191505060405180910390f35b6102ea6109b9565b604051808260ff1660ff16815260200191505060405180910390f35b6103526004803603604081101561031c57600080fd5b81019080803573ffffffffffffffffffffffffffffffffffffffff169060200190929190803590602001909291905050506109cc565b604051808215151515815260200191505060405180910390f35b6103986004803603602081101561038257600080fd5b8101908080359060200190929190505050610a7f565b604051808215151515815260200191505060405180910390f35b6103f4600480360360208110156103c857600080fd5b81019080803573ffffffffffffffffffffffffffffffffffffffff169060200190929190505050610a9b565b6040518082815260200191505060405180910390f35b610412610ae4565b005b61041c610c6c565b604051808273ffffffffffffffffffffffffffffffffffffffff1673ffffffffffffffffffffffffffffffffffffffff16815260200191505060405180910390f35b610466610c7b565b604051808273ffffffffffffffffffffffffffffffffffffffff1673ffffffffffffffffffffffffffffffffffffffff16815260200191505060405180910390f35b6104b0610ca4565b6040518080602001828103825283818151815260200191508051906020019080838360005b838110156104f05780820151818401526020810190506104d5565b50505050905090810190601f16801561051d5780820380516001836020036101000a031916815260200191505b509250505060405180910390f35b6105576004803603602081101561054157600080fd5b8101908080359060200190929190505050610d46565b604051808215151515815260200191505060405180910390f35b6105bd6004803603604081101561058757600080fd5b81019080803573ffffffffffffffffffffffffffffffffffffffff16906020019092919080359060200190929190505050610e2b565b604051808215151515815260200191505060405180910390f35b610623600480360360408110156105ed57600080fd5b81019080803573ffffffffffffffffffffffffffffffffffffffff16906020019092919080359060200190929190505050610ef8565b604051808215151515815260200191505060405180910390f35b610645610f16565b6040518080602001828103825283818151815260200191508051906020019080838360005b8381101561068557808201518184015260208101905061066a565b50505050905090810190601f1680156106b25780820380516001836020036101000a031916815260200191505b509250505060405180910390f35b6106c8610fb4565b6040518080602001828103825283818151815260200191508051906020019080838360005b838110156107085780820151818401526020810190506106ed565b50505050905090810190601f1680156107355780820380516001836020036101000a031916815260200191505b509250505060405180910390f35b6107a56004803603604081101561075957600080fd5b81019080803573ffffffffffffffffffffffffffffffffffffffff169060200190929190803573ffffffffffffffffffffffffffffffffffffffff169060200190929190505050611052565b6040518082815260200191505060405180910390f35b6107fd600480360360208110156107d157600080fd5b81019080803573ffffffffffffffffffffffffffffffffffffffff1690602001909291905050506110d9565b005b606060068054600181600116156101000203166002900480601f0160208091040260200160405190810160405280929190818152602001828054600181600116156101000203166002900480156108975780601f1061086c57610100808354040283529160200191610897565b820191906000526020600020905b81548152906001019060200180831161087a57829003601f168201915b5050505050905090565b60006108b56108ae6111ae565b84846111b6565b6001905092915050565b6000600354905090565b60006108d68484846113ad565b610997846108e26111ae565b61099285604051806060016040528060288152602001611d2460289139600260008b73ffffffffffffffffffffffffffffffffffffffff1673ffffffffffffffffffffffffffffffffffffffff16815260200190815260200160002060006109486111ae565b73ffffffffffffffffffffffffffffffffffffffff1673ffffffffffffffffffffffffffffffffffffffff168152602001908152602001600020546116679092919063ffffffff16565b6111b6565b600190509392505050565b6000600460009054906101000a900460ff16905090565b600460009054906101000a900460ff1681565b6000610a756109d96111ae565b84610a7085600260006109ea6111ae565b73ffffffffffffffffffffffffffffffffffffffff1673ffffffffffffffffffffffffffffffffffffffff16815260200190815260200160002060008973ffffffffffffffffffffffffffffffffffffffff1673ffffffffffffffffffffffffffffffffffffffff1681526020019081526020016000205461172790919063ffffffff16565b6111b6565b6001905092915050565b6000610a92610a8c6111ae565b836117af565b60019050919050565b6000600160008373ffffffffffffffffffffffffffffffffffffffff1673ffffffffffffffffffffffffffffffffffffffff168152602001908152602001600020549050919050565b610aec6111ae565b73ffffffffffffffffffffffffffffffffffffffff166000809054906101000a900473ffffffffffffffffffffffffffffffffffffffff1673ffffffffffffffffffffffffffffffffffffffff1614610bad576040517f08c379a00000000000000000000000000000000000000000000000000000000081526004018080602001828103825260208152602001807f4f776e61626c653a2063616c6c6572206973206e6f7420746865206f776e657281525060200191505060405180910390fd5b600073ffffffffffffffffffffffffffffffffffffffff166000809054906101000a900473ffffffffffffffffffffffffffffffffffffffff1673ffffffffffffffffffffffffffffffffffffffff167f8be0079c531659141344cd1fd0a4f28419497f9722a3daafe3b4186f6b6457e060405160405180910390a360008060006101000a81548173ffffffffffffffffffffffffffffffffffffffff021916908373ffffffffffffffffffffffffffffffffffffffff160217905550565b6000610c76610c7b565b905090565b60008060009054906101000a900473ffffffffffffffffffffffffffffffffffffffff16905090565b606060058054600181600116156101000203166002900480601f016020809104026020016040519081016040528092919081815260200182805460018160011615610100020316600290048015610d3c5780601f10610d1157610100808354040283529160200191610d3c565b820191906000526020600020905b815481529060010190602001808311610d1f57829003601f168201915b5050505050905090565b6000610d506111ae565b73ffffffffffffffffffffffffffffffffffffffff166000809054906101000a900473ffffffffffffffffffffffffffffffffffffffff1673ffffffffffffffffffffffffffffffffffffffff1614610e11576040517f08c379a00000000000000000000000000000000000000000000000000000000081526004018080602001828103825260208152602001807f4f776e61626c653a2063616c6c6572206973206e6f7420746865206f776e657281525060200191505060405180910390fd5b610e22610e1c6111ae565b83611969565b60019050919050565b6000610eee610e386111ae565b84610ee985604051806060016040528060258152602001611d956025913960026000610e626111ae565b73ffffffffffffffffffffffffffffffffffffffff1673ffffffffffffffffffffffffffffffffffffffff16815260200190815260200160002060008a73ffffffffffffffffffffffffffffffffffffffff1673ffffffffffffffffffffffffffffffffffffffff168152602001908152602001600020546116679092919063ffffffff16565b6111b6565b6001905092915050565b6000610f0c610f056111ae565b84846113ad565b6001905092915050565b60058054600181600116156101000203166002900480601f016020809104026020016040519081016040528092919081815260200182805460018160011615610100020316600290048015610fac5780601f10610f8157610100808354040283529160200191610fac565b820191906000526020600020905b815481529060010190602001808311610f8f57829003601f168201915b505050505081565b60068054600181600116156101000203166002900480601f01602080910402602001604051908101604052809291908181526020018280546001816001161561010002031660029004801561104a5780601f1061101f5761010080835404028352916020019161104a565b820191906000526020600020905b81548152906001019060200180831161102d57829003601f168201915b505050505081565b6000600260008473ffffffffffffffffffffffffffffffffffffffff1673ffffffffffffffffffffffffffffffffffffffff16815260200190815260200160002060008373ffffffffffffffffffffffffffffffffffffffff1673ffffffffffffffffffffffffffffffffffffffff16815260200190815260200160002054905092915050565b6110e16111ae565b73ffffffffffffffffffffffffffffffffffffffff166000809054906101000a900473ffffffffffffffffffffffffffffffffffffffff1673ffffffffffffffffffffffffffffffffffffffff16146111a2576040517f08c379a00000000000000000000000000000000000000000000000000000000081526004018080602001828103825260208152602001807f4f776e61626c653a2063616c6c6572206973206e6f7420746865206f776e657281525060200191505060405180910390fd5b6111ab81611b26565b50565b600033905090565b600073ffffffffffffffffffffffffffffffffffffffff168373ffffffffffffffffffffffffffffffffffffffff16141561123c576040517f08c379a0000000000000000000000000000000000000000000000000000000008152600401808060200182810382526024815260200180611cda6024913960400191505060405180910390fd5b600073ffffffffffffffffffffffffffffffffffffffff168273ffffffffffffffffffffffffffffffffffffffff1614156112c2576040517f08c379a0000000000000000000000000000000000000000000000000000000008152600401808060200182810382526022815260200180611dfd6022913960400191505060405180910390fd5b80600260008573ffffffffffffffffffffffffffffffffffffffff1673ffffffffffffffffffffffffffffffffffffffff16815260200190815260200160002060008473ffffffffffffffffffffffffffffffffffffffff1673ffffffffffffffffffffffffffffffffffffffff168152602001908152602001600020819055508173ffffffffffffffffffffffffffffffffffffffff168373ffffffffffffffffffffffffffffffffffffffff167f8c5be1e5ebec7d5bd14f71427d1e84f3dd0314c0f7b2291e5b200ac8c7c3b925836040518082815260200191505060405180910390a3505050565b600073ffffffffffffffffffffffffffffffffffffffff168373ffffffffffffffffffffffffffffffffffffffff161415611433576040517f08c379a0000000000000000000000000000000000000000000000000000000008152600401808060200182810382526025815260200180611cb56025913960400191505060405180910390fd5b600073ffffffffffffffffffffffffffffffffffffffff168273ffffffffffffffffffffffffffffffffffffffff1614156114b9576040517f08c379a0000000000000000000000000000000000000000000000000000000008152600401808060200182810382526023815260200180611d726023913960400191505060405180910390fd5b61152581604051806060016040528060268152602001611d4c60269139600160008773ffffffffffffffffffffffffffffffffffffffff1673ffffffffffffffffffffffffffffffffffffffff168152602001908152602001600020546116679092919063ffffffff16565b600160008573ffffffffffffffffffffffffffffffffffffffff1673ffffffffffffffffffffffffffffffffffffffff168152602001908152602001600020819055506115ba81600160008573ffffffffffffffffffffffffffffffffffffffff1673ffffffffffffffffffffffffffffffffffffffff1681526020019081526020016000205461172790919063ffffffff16565b600160008473ffffffffffffffffffffffffffffffffffffffff1673ffffffffffffffffffffffffffffffffffffffff168152602001908152602001600020819055508173ffffffffffffffffffffffffffffffffffffffff168373ffffffffffffffffffffffffffffffffffffffff167fddf252ad1be2c89b69c2b068fc378daa952ba7f163c4a11628f55a4df523b3ef836040518082815260200191505060405180910390a3505050565b6000838311158290611714576040517f08c379a00000000000000000000000000000000000000000000000000000000081526004018080602001828103825283818151815260200191508051906020019080838360005b838110156116d95780820151818401526020810190506116be565b50505050905090810190601f1680156117065780820380516001836020036101000a031916815260200191505b509250505060405180910390fd5b5060008385039050809150509392505050565b6000808284019050838110156117a5576040517f08c379a000000000000000000000000000000000000000000000000000000000815260040180806020018281038252601b8152602001807f536166654d6174683a206164646974696f6e206f766572666c6f77000000000081525060200191505060405180910390fd5b8091505092915050565b600073ffffffffffffffffffffffffffffffffffffffff168273ffffffffffffffffffffffffffffffffffffffff161415611835576040517f08c379a0000000000000000000000000000000000000000000000000000000008152600401808060200182810382526021815260200180611dba6021913960400191505060405180910390fd5b6118a181604051806060016040528060228152602001611ddb60229139600160008673ffffffffffffffffffffffffffffffffffffffff1673ffffffffffffffffffffffffffffffffffffffff168152602001908152602001600020546116679092919063ffffffff16565b600160008473ffffffffffffffffffffffffffffffffffffffff1673ffffffffffffffffffffffffffffffffffffffff168152602001908152602001600020819055506118f981600354611c6a90919063ffffffff16565b600381905550600073ffffffffffffffffffffffffffffffffffffffff168273ffffffffffffffffffffffffffffffffffffffff167fddf252ad1be2c89b69c2b068fc378daa952ba7f163c4a11628f55a4df523b3ef836040518082815260200191505060405180910390a35050565b600073ffffffffffffffffffffffffffffffffffffffff168273ffffffffffffffffffffffffffffffffffffffff161415611a0c576040517f08c379a000000000000000000000000000000000000000000000000000000000815260040180806020018281038252601f8152602001807f42455032303a206d696e7420746f20746865207a65726f20616464726573730081525060200191505060405180910390fd5b611a218160035461172790919063ffffffff16565b600381905550611a7981600160008573ffffffffffffffffffffffffffffffffffffffff1673ffffffffffffffffffffffffffffffffffffffff1681526020019081526020016000205461172790919063ffffffff16565b600160008473ffffffffffffffffffffffffffffffffffffffff1673ffffffffffffffffffffffffffffffffffffffff168152602001908152602001600020819055508173ffffffffffffffffffffffffffffffffffffffff16600073ffffffffffffffffffffffffffffffffffffffff167fddf252ad1be2c89b69c2b068fc378daa952ba7f163c4a11628f55a4df523b3ef836040518082815260200191505060405180910390a35050565b600073ffffffffffffffffffffffffffffffffffffffff168173ffffffffffffffffffffffffffffffffffffffff161415611bac576040517f08c379a0000000000000000000000000000000000000000000000000000000008152600401808060200182810382526026815260200180611cfe6026913960400191505060405180910390fd5b8073ffffffffffffffffffffffffffffffffffffffff166000809054906101000a900473ffffffffffffffffffffffffffffffffffffffff1673ffffffffffffffffffffffffffffffffffffffff167f8be0079c531659141344cd1fd0a4f28419497f9722a3daafe3b4186f6b6457e060405160405180910390a3806000806101000a81548173ffffffffffffffffffffffffffffffffffffffff021916908373ffffffffffffffffffffffffffffffffffffffff16021790555050565b6000611cac83836040518060400160405280601e81526020017f536166654d6174683a207375627472616374696f6e206f766572666c6f770000815250611667565b90509291505056fe42455032303a207472616e736665722066726f6d20746865207a65726f206164647265737342455032303a20617070726f76652066726f6d20746865207a65726f20616464726573734f776e61626c653a206e6577206f776e657220697320746865207a65726f206164647265737342455032303a207472616e7366657220616d6f756e74206578636565647320616c6c6f77616e636542455032303a207472616e7366657220616d6f756e7420657863656564732062616c616e636542455032303a207472616e7366657220746f20746865207a65726f206164647265737342455032303a2064656372656173656420616c6c6f77616e63652062656c6f77207a65726f42455032303a206275726e2066726f6d20746865207a65726f206164647265737342455032303a206275726e20616d6f756e7420657863656564732062616c616e636542455032303a20617070726f766520746f20746865207a65726f2061646472657373a265627a7a723158204126904aa5b7d39738bd88c2f071ba1b806c37be33bb535cd3cc93ac9977734164736f6c63430005100032",
		"opcodes": "PUSH1 0x80 PUSH1 0x40 MSTORE CALLVALUE DUP1 ISZERO PUSH3 0x11 JUMPI PUSH1 0x0 DUP1 REVERT JUMPDEST POP PUSH1 0x0 PUSH3 0x24 PUSH3 0x241 PUSH1 0x20 SHL PUSH1 0x20 SHR JUMP JUMPDEST SWAP1 POP DUP1 PUSH1 0x0 DUP1 PUSH2 0x100 EXP DUP2 SLOAD DUP2 PUSH20 0xFFFFFFFFFFFFFFFFFFFFFFFFFFFFFFFFFFFFFFFF MUL NOT AND SWAP1 DUP4 PUSH20 0xFFFFFFFFFFFFFFFFFFFFFFFFFFFFFFFFFFFFFFFF AND MUL OR SWAP1 SSTORE POP DUP1 PUSH20 0xFFFFFFFFFFFFFFFFFFFFFFFFFFFFFFFFFFFFFFFF AND PUSH1 0x0 PUSH20 0xFFFFFFFFFFFFFFFFFFFFFFFFFFFFFFFFFFFFFFFF AND PUSH32 0x8BE0079C531659141344CD1FD0A4F28419497F9722A3DAAFE3B4186F6B6457E0 PUSH1 0x40 MLOAD PUSH1 0x40 MLOAD DUP1 SWAP2 SUB SWAP1 LOG3 POP PUSH1 0x40 MLOAD DUP1 PUSH1 0x40 ADD PUSH1 0x40 MSTORE DUP1 PUSH1 0x9 DUP2 MSTORE PUSH1 0x20 ADD PUSH32 0x54616E676F205553440000000000000000000000000000000000000000000000 DUP2 MSTORE POP PUSH1 0x6 SWAP1 DUP1 MLOAD SWAP1 PUSH1 0x20 ADD SWAP1 PUSH3 0x10F SWAP3 SWAP2 SWAP1 PUSH3 0x249 JUMP JUMPDEST POP PUSH1 0x40 MLOAD DUP1 PUSH1 0x40 ADD PUSH1 0x40 MSTORE DUP1 PUSH1 0x4 DUP2 MSTORE PUSH1 0x20 ADD PUSH32 0x5553445400000000000000000000000000000000000000000000000000000000 DUP2 MSTORE POP PUSH1 0x5 SWAP1 DUP1 MLOAD SWAP1 PUSH1 0x20 ADD SWAP1 PUSH3 0x15D SWAP3 SWAP2 SWAP1 PUSH3 0x249 JUMP JUMPDEST POP PUSH1 0x12 PUSH1 0x4 PUSH1 0x0 PUSH2 0x100 EXP DUP2 SLOAD DUP2 PUSH1 0xFF MUL NOT AND SWAP1 DUP4 PUSH1 0xFF AND MUL OR SWAP1 SSTORE POP PUSH12 0x33B2E3C9FD0803CE8000000 PUSH1 0x3 DUP2 SWAP1 SSTORE POP PUSH1 0x3 SLOAD PUSH1 0x1 PUSH1 0x0 CALLER PUSH20 0xFFFFFFFFFFFFFFFFFFFFFFFFFFFFFFFFFFFFFFFF AND PUSH20 0xFFFFFFFFFFFFFFFFFFFFFFFFFFFFFFFFFFFFFFFF AND DUP2 MSTORE PUSH1 0x20 ADD SWAP1 DUP2 MSTORE PUSH1 0x20 ADD PUSH1 0x0 KECCAK256 DUP2 SWAP1 SSTORE POP CALLER PUSH20 0xFFFFFFFFFFFFFFFFFFFFFFFFFFFFFFFFFFFFFFFF AND PUSH1 0x0 PUSH20 0xFFFFFFFFFFFFFFFFFFFFFFFFFFFFFFFFFFFFFFFF AND PUSH32 0xDDF252AD1BE2C89B69C2B068FC378DAA952BA7F163C4A11628F55A4DF523B3EF PUSH1 0x3 SLOAD PUSH1 0x40 MLOAD DUP1 DUP3 DUP2 MSTORE PUSH1 0x20 ADD SWAP2 POP POP PUSH1 0x40 MLOAD DUP1 SWAP2 SUB SWAP1 LOG3 PUSH3 0x2F8 JUMP JUMPDEST PUSH1 0x0 CALLER SWAP1 POP SWAP1 JUMP JUMPDEST DUP3 DUP1 SLOAD PUSH1 0x1 DUP2 PUSH1 0x1 AND ISZERO PUSH2 0x100 MUL SUB AND PUSH1 0x2 SWAP1 DIV SWAP1 PUSH1 0x0 MSTORE PUSH1 0x20 PUSH1 0x0 KECCAK256 SWAP1 PUSH1 0x1F ADD PUSH1 0x20 SWAP1 DIV DUP2 ADD SWAP3 DUP3 PUSH1 0x1F LT PUSH3 0x28C JUMPI DUP1 MLOAD PUSH1 0xFF NOT AND DUP4 DUP1 ADD OR DUP6 SSTORE PUSH3 0x2BD JUMP JUMPDEST DUP3 DUP1 ADD PUSH1 0x1 ADD DUP6 SSTORE DUP3 ISZERO PUSH3 0x2BD JUMPI SWAP2 DUP3 ADD JUMPDEST DUP3 DUP2 GT ISZERO PUSH3 0x2BC JUMPI DUP3 MLOAD DUP3 SSTORE SWAP2 PUSH1 0x20 ADD SWAP2 SWAP1 PUSH1 0x1 ADD SWAP1 PUSH3 0x29F JUMP JUMPDEST JUMPDEST POP SWAP1 POP PUSH3 0x2CC SWAP2 SWAP1 PUSH3 0x2D0 JUMP JUMPDEST POP SWAP1 JUMP JUMPDEST PUSH3 0x2F5 SWAP2 SWAP1 JUMPDEST DUP1 DUP3 GT ISZERO PUSH3 0x2F1 JUMPI PUSH1 0x0 DUP2 PUSH1 0x0 SWAP1 SSTORE POP PUSH1 0x1 ADD PUSH3 0x2D7 JUMP JUMPDEST POP SWAP1 JUMP JUMPDEST SWAP1 JUMP JUMPDEST PUSH2 0x1E53 DUP1 PUSH3 0x308 PUSH1 0x0 CODECOPY PUSH1 0x0 RETURN INVALID PUSH1 0x80 PUSH1 0x40 MSTORE CALLVALUE DUP1 ISZERO PUSH2 0x10 JUMPI PUSH1 0x0 DUP1 REVERT JUMPDEST POP PUSH1 0x4 CALLDATASIZE LT PUSH2 0x12C JUMPI PUSH1 0x0 CALLDATALOAD PUSH1 0xE0 SHR DUP1 PUSH4 0x893D20E8 GT PUSH2 0xAD JUMPI DUP1 PUSH4 0xA9059CBB GT PUSH2 0x71 JUMPI DUP1 PUSH4 0xA9059CBB EQ PUSH2 0x5D7 JUMPI DUP1 PUSH4 0xB09F1266 EQ PUSH2 0x63D JUMPI DUP1 PUSH4 0xD28D8852 EQ PUSH2 0x6C0 JUMPI DUP1 PUSH4 0xDD62ED3E EQ PUSH2 0x743 JUMPI DUP1 PUSH4 0xF2FDE38B EQ PUSH2 0x7BB JUMPI PUSH2 0x12C JUMP JUMPDEST DUP1 PUSH4 0x893D20E8 EQ PUSH2 0x414 JUMPI DUP1 PUSH4 0x8DA5CB5B EQ PUSH2 0x45E JUMPI DUP1 PUSH4 0x95D89B41 EQ PUSH2 0x4A8 JUMPI DUP1 PUSH4 0xA0712D68 EQ PUSH2 0x52B JUMPI DUP1 PUSH4 0xA457C2D7 EQ PUSH2 0x571 JUMPI PUSH2 0x12C JUMP JUMPDEST DUP1 PUSH4 0x32424AA3 GT PUSH2 0xF4 JUMPI DUP1 PUSH4 0x32424AA3 EQ PUSH2 0x2E2 JUMPI DUP1 PUSH4 0x39509351 EQ PUSH2 0x306 JUMPI DUP1 PUSH4 0x42966C68 EQ PUSH2 0x36C JUMPI DUP1 PUSH4 0x70A08231 EQ PUSH2 0x3B2 JUMPI DUP1 PUSH4 0x715018A6 EQ PUSH2 0x40A JUMPI PUSH2 0x12C JUMP JUMPDEST DUP1 PUSH4 0x6FDDE03 EQ PUSH2 0x131 JUMPI DUP1 PUSH4 0x95EA7B3 EQ PUSH2 0x1B4 JUMPI DUP1 PUSH4 0x18160DDD EQ PUSH2 0x21A JUMPI DUP1 PUSH4 0x23B872DD EQ PUSH2 0x238 JUMPI DUP1 PUSH4 0x313CE567 EQ PUSH2 0x2BE JUMPI JUMPDEST PUSH1 0x0 DUP1 REVERT JUMPDEST PUSH2 0x139 PUSH2 0x7FF JUMP JUMPDEST PUSH1 0x40 MLOAD DUP1 DUP1 PUSH1 0x20 ADD DUP3 DUP2 SUB DUP3 MSTORE DUP4 DUP2 DUP2 MLOAD DUP2 MSTORE PUSH1 0x20 ADD SWAP2 POP DUP1 MLOAD SWAP1 PUSH1 0x20 ADD SWAP1 DUP1 DUP4 DUP4 PUSH1 0x0 JUMPDEST DUP4 DUP2 LT ISZERO PUSH2 0x179 JUMPI DUP1 DUP3 ADD MLOAD DUP2 DUP5 ADD MSTORE PUSH1 0x20 DUP2 ADD SWAP1 POP PUSH2 0x15E JUMP JUMPDEST POP POP POP POP SWAP1 POP SWAP1 DUP2 ADD SWAP1 PUSH1 0x1F AND DUP1 ISZERO PUSH2 0x1A6 JUMPI DUP1 DUP3 SUB DUP1 MLOAD PUSH1 0x1 DUP4 PUSH1 0x20 SUB PUSH2 0x100 EXP SUB NOT AND DUP2 MSTORE PUSH1 0x20 ADD SWAP2 POP JUMPDEST POP SWAP3 POP POP POP PUSH1 0x40 MLOAD DUP1 SWAP2 SUB SWAP1 RETURN JUMPDEST PUSH2 0x200 PUSH1 0x4 DUP1 CALLDATASIZE SUB PUSH1 0x40 DUP2 LT ISZERO PUSH2 0x1CA JUMPI PUSH1 0x0 DUP1 REVERT JUMPDEST DUP2 ADD SWAP1 DUP1 DUP1 CALLDATALOAD PUSH20 0xFFFFFFFFFFFFFFFFFFFFFFFFFFFFFFFFFFFFFFFF AND SWAP1 PUSH1 0x20 ADD SWAP1 SWAP3 SWAP2 SWAP1 DUP1 CALLDATALOAD SWAP1 PUSH1 0x20 ADD SWAP1 SWAP3 SWAP2 SWAP1 POP POP POP PUSH2 0x8A1 JUMP JUMPDEST PUSH1 0x40 MLOAD DUP1 DUP3 ISZERO ISZERO ISZERO ISZERO DUP2 MSTORE PUSH1 0x20 ADD SWAP2 POP POP PUSH1 0x40 MLOAD DUP1 SWAP2 SUB SWAP1 RETURN JUMPDEST PUSH2 0x222 PUSH2 0x8BF JUMP JUMPDEST PUSH1 0x40 MLOAD DUP1 DUP3 DUP2 MSTORE PUSH1 0x20 ADD SWAP2 POP POP PUSH1 0x40 MLOAD DUP1 SWAP2 SUB SWAP1 RETURN JUMPDEST PUSH2 0x2A4 PUSH1 0x4 DUP1 CALLDATASIZE SUB PUSH1 0x60 DUP2 LT ISZERO PUSH2 0x24E JUMPI PUSH1 0x0 DUP1 REVERT JUMPDEST DUP2 ADD SWAP1 DUP1 DUP1 CALLDATALOAD PUSH20 0xFFFFFFFFFFFFFFFFFFFFFFFFFFFFFFFFFFFFFFFF AND SWAP1 PUSH1 0x20 ADD SWAP1 SWAP3 SWAP2 SWAP1 DUP1 CALLDATALOAD PUSH20 0xFFFFFFFFFFFFFFFFFFFFFFFFFFFFFFFFFFFFFFFF AND SWAP1 PUSH1 0x20 ADD SWAP1 SWAP3 SWAP2 SWAP1 DUP1 CALLDATALOAD SWAP1 PUSH1 0x20 ADD SWAP1 SWAP3 SWAP2 SWAP1 POP POP POP PUSH2 0x8C9 JUMP JUMPDEST PUSH1 0x40 MLOAD DUP1 DUP3 ISZERO ISZERO ISZERO ISZERO DUP2 MSTORE PUSH1 0x20 ADD SWAP2 POP POP PUSH1 0x40 MLOAD DUP1 SWAP2 SUB SWAP1 RETURN JUMPDEST PUSH2 0x2C6 PUSH2 0x9A2 JUMP JUMPDEST PUSH1 0x40 MLOAD DUP1 DUP3 PUSH1 0xFF AND PUSH1 0xFF AND DUP2 MSTORE PUSH1 0x20 ADD SWAP2 POP POP PUSH1 0x40 MLOAD DUP1 SWAP2 SUB SWAP1 RETURN JUMPDEST PUSH2 0x2EA PUSH2 0x9B9 JUMP JUMPDEST PUSH1 0x40 MLOAD DUP1 DUP3 PUSH1 0xFF AND PUSH1 0xFF AND DUP2 MSTORE PUSH1 0x20 ADD SWAP2 POP POP PUSH1 0x40 MLOAD DUP1 SWAP2 SUB SWAP1 RETURN JUMPDEST PUSH2 0x352 PUSH1 0x4 DUP1 CALLDATASIZE SUB PUSH1 0x40 DUP2 LT ISZERO PUSH2 0x31C JUMPI PUSH1 0x0 DUP1 REVERT JUMPDEST DUP2 ADD SWAP1 DUP1 DUP1 CALLDATALOAD PUSH20 0xFFFFFFFFFFFFFFFFFFFFFFFFFFFFFFFFFFFFFFFF AND SWAP1 PUSH1 0x20 ADD SWAP1 SWAP3 SWAP2 SWAP1 DUP1 CALLDATALOAD SWAP1 PUSH1 0x20 ADD SWAP1 SWAP3 SWAP2 SWAP1 POP POP POP PUSH2 0x9CC JUMP JUMPDEST PUSH1 0x40 MLOAD DUP1 DUP3 ISZERO ISZERO ISZERO ISZERO DUP2 MSTORE PUSH1 0x20 ADD SWAP2 POP POP PUSH1 0x40 MLOAD DUP1 SWAP2 SUB SWAP1 RETURN JUMPDEST PUSH2 0x398 PUSH1 0x4 DUP1 CALLDATASIZE SUB PUSH1 0x20 DUP2 LT ISZERO PUSH2 0x382 JUMPI PUSH1 0x0 DUP1 REVERT JUMPDEST DUP2 ADD SWAP1 DUP1 DUP1 CALLDATALOAD SWAP1 PUSH1 0x20 ADD SWAP1 SWAP3 SWAP2 SWAP1 POP POP POP PUSH2 0xA7F JUMP JUMPDEST PUSH1 0x40 MLOAD DUP1 DUP3 ISZERO ISZERO ISZERO ISZERO DUP2 MSTORE PUSH1 0x20 ADD SWAP2 POP POP PUSH1 0x40 MLOAD DUP1 SWAP2 SUB SWAP1 RETURN JUMPDEST PUSH2 0x3F4 PUSH1 0x4 DUP1 CALLDATASIZE SUB PUSH1 0x20 DUP2 LT ISZERO PUSH2 0x3C8 JUMPI PUSH1 0x0 DUP1 REVERT JUMPDEST DUP2 ADD SWAP1 DUP1 DUP1 CALLDATALOAD PUSH20 0xFFFFFFFFFFFFFFFFFFFFFFFFFFFFFFFFFFFFFFFF AND SWAP1 PUSH1 0x20 ADD SWAP1 SWAP3 SWAP2 SWAP1 POP POP POP PUSH2 0xA9B JUMP JUMPDEST PUSH1 0x40 MLOAD DUP1 DUP3 DUP2 MSTORE PUSH1 0x20 ADD SWAP2 POP POP PUSH1 0x40 MLOAD DUP1 SWAP2 SUB SWAP1 RETURN JUMPDEST PUSH2 0x412 PUSH2 0xAE4 JUMP JUMPDEST STOP JUMPDEST PUSH2 0x41C PUSH2 0xC6C JUMP JUMPDEST PUSH1 0x40 MLOAD DUP1 DUP3 PUSH20 0xFFFFFFFFFFFFFFFFFFFFFFFFFFFFFFFFFFFFFFFF AND PUSH20 0xFFFFFFFFFFFFFFFFFFFFFFFFFFFFFFFFFFFFFFFF AND DUP2 MSTORE PUSH1 0x20 ADD SWAP2 POP POP PUSH1 0x40 MLOAD DUP1 SWAP2 SUB SWAP1 RETURN JUMPDEST PUSH2 0x466 PUSH2 0xC7B JUMP JUMPDEST PUSH1 0x40 MLOAD DUP1 DUP3 PUSH20 0xFFFFFFFFFFFFFFFFFFFFFFFFFFFFFFFFFFFFFFFF AND PUSH20 0xFFFFFFFFFFFFFFFFFFFFFFFFFFFFFFFFFFFFFFFF AND DUP2 MSTORE PUSH1 0x20 ADD SWAP2 POP POP PUSH1 0x40 MLOAD DUP1 SWAP2 SUB SWAP1 RETURN JUMPDEST PUSH2 0x4B0 PUSH2 0xCA4 JUMP JUMPDEST PUSH1 0x40 MLOAD DUP1 DUP1 PUSH1 0x20 ADD DUP3 DUP2 SUB DUP3 MSTORE DUP4 DUP2 DUP2 MLOAD DUP2 MSTORE PUSH1 0x20 ADD SWAP2 POP DUP1 MLOAD SWAP1 PUSH1 0x20 ADD SWAP1 DUP1 DUP4 DUP4 PUSH1 0x0 JUMPDEST DUP4 DUP2 LT ISZERO PUSH2 0x4F0 JUMPI DUP1 DUP3 ADD MLOAD DUP2 DUP5 ADD MSTORE PUSH1 0x20 DUP2 ADD SWAP1 POP PUSH2 0x4D5 JUMP JUMPDEST POP POP POP POP SWAP1 POP SWAP1 DUP2 ADD SWAP1 PUSH1 0x1F AND DUP1 ISZERO PUSH2 0x51D JUMPI DUP1 DUP3 SUB DUP1 MLOAD PUSH1 0x1 DUP4 PUSH1 0x20 SUB PUSH2 0x100 EXP SUB NOT AND DUP2 MSTORE PUSH1 0x20 ADD SWAP2 POP JUMPDEST POP SWAP3 POP POP POP PUSH1 0x40 MLOAD DUP1 SWAP2 SUB SWAP1 RETURN JUMPDEST PUSH2 0x557 PUSH1 0x4 DUP1 CALLDATASIZE SUB PUSH1 0x20 DUP2 LT ISZERO PUSH2 0x541 JUMPI PUSH1 0x0 DUP1 REVERT JUMPDEST DUP2 ADD SWAP1 DUP1 DUP1 CALLDATALOAD SWAP1 PUSH1 0x20 ADD SWAP1 SWAP3 SWAP2 SWAP1 POP POP POP PUSH2 0xD46 JUMP JUMPDEST PUSH1 0x40 MLOAD DUP1 DUP3 ISZERO ISZERO ISZERO ISZERO DUP2 MSTORE PUSH1 0x20 ADD SWAP2 POP POP PUSH1 0x40 MLOAD DUP1 SWAP2 SUB SWAP1 RETURN JUMPDEST PUSH2 0x5BD PUSH1 0x4 DUP1 CALLDATASIZE SUB PUSH1 0x40 DUP2 LT ISZERO PUSH2 0x587 JUMPI PUSH1 0x0 DUP1 REVERT JUMPDEST DUP2 ADD SWAP1 DUP1 DUP1 CALLDATALOAD PUSH20 0xFFFFFFFFFFFFFFFFFFFFFFFFFFFFFFFFFFFFFFFF AND SWAP1 PUSH1 0x20 ADD SWAP1 SWAP3 SWAP2 SWAP1 DUP1 CALLDATALOAD SWAP1 PUSH1 0x20 ADD SWAP1 SWAP3 SWAP2 SWAP1 POP POP POP PUSH2 0xE2B JUMP JUMPDEST PUSH1 0x40 MLOAD DUP1 DUP3 ISZERO ISZERO ISZERO ISZERO DUP2 MSTORE PUSH1 0x20 ADD SWAP2 POP POP PUSH1 0x40 MLOAD DUP1 SWAP2 SUB SWAP1 RETURN JUMPDEST PUSH2 0x623 PUSH1 0x4 DUP1 CALLDATASIZE SUB PUSH1 0x40 DUP2 LT ISZERO PUSH2 0x5ED JUMPI PUSH1 0x0 DUP1 REVERT JUMPDEST DUP2 ADD SWAP1 DUP1 DUP1 CALLDATALOAD PUSH20 0xFFFFFFFFFFFFFFFFFFFFFFFFFFFFFFFFFFFFFFFF AND SWAP1 PUSH1 0x20 ADD SWAP1 SWAP3 SWAP2 SWAP1 DUP1 CALLDATALOAD SWAP1 PUSH1 0x20 ADD SWAP1 SWAP3 SWAP2 SWAP1 POP POP POP PUSH2 0xEF8 JUMP JUMPDEST PUSH1 0x40 MLOAD DUP1 DUP3 ISZERO ISZERO ISZERO ISZERO DUP2 MSTORE PUSH1 0x20 ADD SWAP2 POP POP PUSH1 0x40 MLOAD DUP1 SWAP2 SUB SWAP1 RETURN JUMPDEST PUSH2 0x645 PUSH2 0xF16 JUMP JUMPDEST PUSH1 0x40 MLOAD DUP1 DUP1 PUSH1 0x20 ADD DUP3 DUP2 SUB DUP3 MSTORE DUP4 DUP2 DUP2 MLOAD DUP2 MSTORE PUSH1 0x20 ADD SWAP2 POP DUP1 MLOAD SWAP1 PUSH1 0x20 ADD SWAP1 DUP1 DUP4 DUP4 PUSH1 0x0 JUMPDEST DUP4 DUP2 LT ISZERO PUSH2 0x685 JUMPI DUP1 DUP3 ADD MLOAD DUP2 DUP5 ADD MSTORE PUSH1 0x20 DUP2 ADD SWAP1 POP PUSH2 0x66A JUMP JUMPDEST POP POP POP POP SWAP1 POP SWAP1 DUP2 ADD SWAP1 PUSH1 0x1F AND DUP1 ISZERO PUSH2 0x6B2 JUMPI DUP1 DUP3 SUB DUP1 MLOAD PUSH1 0x1 DUP4 PUSH1 0x20 SUB PUSH2 0x100 EXP SUB NOT AND DUP2 MSTORE PUSH1 0x20 ADD SWAP2 POP JUMPDEST POP SWAP3 POP POP POP PUSH1 0x40 MLOAD DUP1 SWAP2 SUB SWAP1 RETURN JUMPDEST PUSH2 0x6C8 PUSH2 0xFB4 JUMP JUMPDEST PUSH1 0x40 MLOAD DUP1 DUP1 PUSH1 0x20 ADD DUP3 DUP2 SUB DUP3 MSTORE DUP4 DUP2 DUP2 MLOAD DUP2 MSTORE PUSH1 0x20 ADD SWAP2 POP DUP1 MLOAD SWAP1 PUSH1 0x20 ADD SWAP1 DUP1 DUP4 DUP4 PUSH1 0x0 JUMPDEST DUP4 DUP2 LT ISZERO PUSH2 0x708 JUMPI DUP1 DUP3 ADD MLOAD DUP2 DUP5 ADD MSTORE PUSH1 0x20 DUP2 ADD SWAP1 POP PUSH2 0x6ED JUMP JUMPDEST POP POP POP POP SWAP1 POP SWAP1 DUP2 ADD SWAP1 PUSH1 0x1F AND DUP1 ISZERO PUSH2 0x735 JUMPI DUP1 DUP3 SUB DUP1 MLOAD PUSH1 0x1 DUP4 PUSH1 0x20 SUB PUSH2 0x100 EXP SUB NOT AND DUP2 MSTORE PUSH1 0x20 ADD SWAP2 POP JUMPDEST POP SWAP3 POP POP POP PUSH1 0x40 MLOAD DUP1 SWAP2 SUB SWAP1 RETURN JUMPDEST PUSH2 0x7A5 PUSH1 0x4 DUP1 CALLDATASIZE SUB PUSH1 0x40 DUP2 LT ISZERO PUSH2 0x759 JUMPI PUSH1 0x0 DUP1 REVERT JUMPDEST DUP2 ADD SWAP1 DUP1 DUP1 CALLDATALOAD PUSH20 0xFFFFFFFFFFFFFFFFFFFFFFFFFFFFFFFFFFFFFFFF AND SWAP1 PUSH1 0x20 ADD SWAP1 SWAP3 SWAP2 SWAP1 DUP1 CALLDATALOAD PUSH20 0xFFFFFFFFFFFFFFFFFFFFFFFFFFFFFFFFFFFFFFFF AND SWAP1 PUSH1 0x20 ADD SWAP1 SWAP3 SWAP2 SWAP1 POP POP POP PUSH2 0x1052 JUMP JUMPDEST PUSH1 0x40 MLOAD DUP1 DUP3 DUP2 MSTORE PUSH1 0x20 ADD SWAP2 POP POP PUSH1 0x40 MLOAD DUP1 SWAP2 SUB SWAP1 RETURN JUMPDEST PUSH2 0x7FD PUSH1 0x4 DUP1 CALLDATASIZE SUB PUSH1 0x20 DUP2 LT ISZERO PUSH2 0x7D1 JUMPI PUSH1 0x0 DUP1 REVERT JUMPDEST DUP2 ADD SWAP1 DUP1 DUP1 CALLDATALOAD PUSH20 0xFFFFFFFFFFFFFFFFFFFFFFFFFFFFFFFFFFFFFFFF AND SWAP1 PUSH1 0x20 ADD SWAP1 SWAP3 SWAP2 SWAP1 POP POP POP PUSH2 0x10D9 JUMP JUMPDEST STOP JUMPDEST PUSH1 0x60 PUSH1 0x6 DUP1 SLOAD PUSH1 0x1 DUP2 PUSH1 0x1 AND ISZERO PUSH2 0x100 MUL SUB AND PUSH1 0x2 SWAP1 DIV DUP1 PUSH1 0x1F ADD PUSH1 0x20 DUP1 SWAP2 DIV MUL PUSH1 0x20 ADD PUSH1 0x40 MLOAD SWAP1 DUP2 ADD PUSH1 0x40 MSTORE DUP1 SWAP3 SWAP2 SWAP1 DUP2 DUP2 MSTORE PUSH1 0x20 ADD DUP3 DUP1 SLOAD PUSH1 0x1 DUP2 PUSH1 0x1 AND ISZERO PUSH2 0x100 MUL SUB AND PUSH1 0x2 SWAP1 DIV DUP1 ISZERO PUSH2 0x897 JUMPI DUP1 PUSH1 0x1F LT PUSH2 0x86C JUMPI PUSH2 0x100 DUP1 DUP4 SLOAD DIV MUL DUP4 MSTORE SWAP2 PUSH1 0x20 ADD SWAP2 PUSH2 0x897 JUMP JUMPDEST DUP3 ADD SWAP2 SWAP1 PUSH1 0x0 MSTORE PUSH1 0x20 PUSH1 0x0 KECCAK256 SWAP1 JUMPDEST DUP2 SLOAD DUP2 MSTORE SWAP1 PUSH1 0x1 ADD SWAP1 PUSH1 0x20 ADD DUP1 DUP4 GT PUSH2 0x87A JUMPI DUP3 SWAP1 SUB PUSH1 0x1F AND DUP3 ADD SWAP2 JUMPDEST POP POP POP POP POP SWAP1 POP SWAP1 JUMP JUMPDEST PUSH1 0x0 PUSH2 0x8B5 PUSH2 0x8AE PUSH2 0x11AE JUMP JUMPDEST DUP5 DUP5 PUSH2 0x11B6 JUMP JUMPDEST PUSH1 0x1 SWAP1 POP SWAP3 SWAP2 POP POP JUMP JUMPDEST PUSH1 0x0 PUSH1 0x3 SLOAD SWAP1 POP SWAP1 JUMP JUMPDEST PUSH1 0x0 PUSH2 0x8D6 DUP5 DUP5 DUP5 PUSH2 0x13AD JUMP JUMPDEST PUSH2 0x997 DUP5 PUSH2 0x8E2 PUSH2 0x11AE JUMP JUMPDEST PUSH2 0x992 DUP6 PUSH1 0x40 MLOAD DUP1 PUSH1 0x60 ADD PUSH1 0x40 MSTORE DUP1 PUSH1 0x28 DUP2 MSTORE PUSH1 0x20 ADD PUSH2 0x1D24 PUSH1 0x28 SWAP2 CODECOPY PUSH1 0x2 PUSH1 0x0 DUP12 PUSH20 0xFFFFFFFFFFFFFFFFFFFFFFFFFFFFFFFFFFFFFFFF AND PUSH20 0xFFFFFFFFFFFFFFFFFFFFFFFFFFFFFFFFFFFFFFFF AND DUP2 MSTORE PUSH1 0x20 ADD SWAP1 DUP2 MSTORE PUSH1 0x20 ADD PUSH1 0x0 KECCAK256 PUSH1 0x0 PUSH2 0x948 PUSH2 0x11AE JUMP JUMPDEST PUSH20 0xFFFFFFFFFFFFFFFFFFFFFFFFFFFFFFFFFFFFFFFF AND PUSH20 0xFFFFFFFFFFFFFFFFFFFFFFFFFFFFFFFFFFFFFFFF AND DUP2 MSTORE PUSH1 0x20 ADD SWAP1 DUP2 MSTORE PUSH1 0x20 ADD PUSH1 0x0 KECCAK256 SLOAD PUSH2 0x1667 SWAP1 SWAP3 SWAP2 SWAP1 PUSH4 0xFFFFFFFF AND JUMP JUMPDEST PUSH2 0x11B6 JUMP JUMPDEST PUSH1 0x1 SWAP1 POP SWAP4 SWAP3 POP POP POP JUMP JUMPDEST PUSH1 0x0 PUSH1 0x4 PUSH1 0x0 SWAP1 SLOAD SWAP1 PUSH2 0x100 EXP SWAP1 DIV PUSH1 0xFF AND SWAP1 POP SWAP1 JUMP JUMPDEST PUSH1 0x4 PUSH1 0x0 SWAP1 SLOAD SWAP1 PUSH2 0x100 EXP SWAP1 DIV PUSH1 0xFF AND DUP2 JUMP JUMPDEST PUSH1 0x0 PUSH2 0xA75 PUSH2 0x9D9 PUSH2 0x11AE JUMP JUMPDEST DUP5 PUSH2 0xA70 DUP6 PUSH1 0x2 PUSH1 0x0 PUSH2 0x9EA PUSH2 0x11AE JUMP JUMPDEST PUSH20 0xFFFFFFFFFFFFFFFFFFFFFFFFFFFFFFFFFFFFFFFF AND PUSH20 0xFFFFFFFFFFFFFFFFFFFFFFFFFFFFFFFFFFFFFFFF AND DUP2 MSTORE PUSH1 0x20 ADD SWAP1 DUP2 MSTORE PUSH1 0x20 ADD PUSH1 0x0 KECCAK256 PUSH1 0x0 DUP10 PUSH20 0xFFFFFFFFFFFFFFFFFFFFFFFFFFFFFFFFFFFFFFFF AND PUSH20 0xFFFFFFFFFFFFFFFFFFFFFFFFFFFFFFFFFFFFFFFF AND DUP2 MSTORE PUSH1 0x20 ADD SWAP1 DUP2 MSTORE PUSH1 0x20 ADD PUSH1 0x0 KECCAK256 SLOAD PUSH2 0x1727 SWAP1 SWAP2 SWAP1 PUSH4 0xFFFFFFFF AND JUMP JUMPDEST PUSH2 0x11B6 JUMP JUMPDEST PUSH1 0x1 SWAP1 POP SWAP3 SWAP2 POP POP JUMP JUMPDEST PUSH1 0x0 PUSH2 0xA92 PUSH2 0xA8C PUSH2 0x11AE JUMP JUMPDEST DUP4 PUSH2 0x17AF JUMP JUMPDEST PUSH1 0x1 SWAP1 POP SWAP2 SWAP1 POP JUMP JUMPDEST PUSH1 0x0 PUSH1 0x1 PUSH1 0x0 DUP4 PUSH20 0xFFFFFFFFFFFFFFFFFFFFFFFFFFFFFFFFFFFFFFFF AND PUSH20 0xFFFFFFFFFFFFFFFFFFFFFFFFFFFFFFFFFFFFFFFF AND DUP2 MSTORE PUSH1 0x20 ADD SWAP1 DUP2 MSTORE PUSH1 0x20 ADD PUSH1 0x0 KECCAK256 SLOAD SWAP1 POP SWAP2 SWAP1 POP JUMP JUMPDEST PUSH2 0xAEC PUSH2 0x11AE JUMP JUMPDEST PUSH20 0xFFFFFFFFFFFFFFFFFFFFFFFFFFFFFFFFFFFFFFFF AND PUSH1 0x0 DUP1 SWAP1 SLOAD SWAP1 PUSH2 0x100 EXP SWAP1 DIV PUSH20 0xFFFFFFFFFFFFFFFFFFFFFFFFFFFFFFFFFFFFFFFF AND PUSH20 0xFFFFFFFFFFFFFFFFFFFFFFFFFFFFFFFFFFFFFFFF AND EQ PUSH2 0xBAD JUMPI PUSH1 0x40 MLOAD PUSH32 0x8C379A000000000000000000000000000000000000000000000000000000000 DUP2 MSTORE PUSH1 0x4 ADD DUP1 DUP1 PUSH1 0x20 ADD DUP3 DUP2 SUB DUP3 MSTORE PUSH1 0x20 DUP2 MSTORE PUSH1 0x20 ADD DUP1 PUSH32 0x4F776E61626C653A2063616C6C6572206973206E6F7420746865206F776E6572 DUP2 MSTORE POP PUSH1 0x20 ADD SWAP2 POP POP PUSH1 0x40 MLOAD DUP1 SWAP2 SUB SWAP1 REVERT JUMPDEST PUSH1 0x0 PUSH20 0xFFFFFFFFFFFFFFFFFFFFFFFFFFFFFFFFFFFFFFFF AND PUSH1 0x0 DUP1 SWAP1 SLOAD SWAP1 PUSH2 0x100 EXP SWAP1 DIV PUSH20 0xFFFFFFFFFFFFFFFFFFFFFFFFFFFFFFFFFFFFFFFF AND PUSH20 0xFFFFFFFFFFFFFFFFFFFFFFFFFFFFFFFFFFFFFFFF AND PUSH32 0x8BE0079C531659141344CD1FD0A4F28419497F9722A3DAAFE3B4186F6B6457E0 PUSH1 0x40 MLOAD PUSH1 0x40 MLOAD DUP1 SWAP2 SUB SWAP1 LOG3 PUSH1 0x0 DUP1 PUSH1 0x0 PUSH2 0x100 EXP DUP2 SLOAD DUP2 PUSH20 0xFFFFFFFFFFFFFFFFFFFFFFFFFFFFFFFFFFFFFFFF MUL NOT AND SWAP1 DUP4 PUSH20 0xFFFFFFFFFFFFFFFFFFFFFFFFFFFFFFFFFFFFFFFF AND MUL OR SWAP1 SSTORE POP JUMP JUMPDEST PUSH1 0x0 PUSH2 0xC76 PUSH2 0xC7B JUMP JUMPDEST SWAP1 POP SWAP1 JUMP JUMPDEST PUSH1 0x0 DUP1 PUSH1 0x0 SWAP1 SLOAD SWAP1 PUSH2 0x100 EXP SWAP1 DIV PUSH20 0xFFFFFFFFFFFFFFFFFFFFFFFFFFFFFFFFFFFFFFFF AND SWAP1 POP SWAP1 JUMP JUMPDEST PUSH1 0x60 PUSH1 0x5 DUP1 SLOAD PUSH1 0x1 DUP2 PUSH1 0x1 AND ISZERO PUSH2 0x100 MUL SUB AND PUSH1 0x2 SWAP1 DIV DUP1 PUSH1 0x1F ADD PUSH1 0x20 DUP1 SWAP2 DIV MUL PUSH1 0x20 ADD PUSH1 0x40 MLOAD SWAP1 DUP2 ADD PUSH1 0x40 MSTORE DUP1 SWAP3 SWAP2 SWAP1 DUP2 DUP2 MSTORE PUSH1 0x20 ADD DUP3 DUP1 SLOAD PUSH1 0x1 DUP2 PUSH1 0x1 AND ISZERO PUSH2 0x100 MUL SUB AND PUSH1 0x2 SWAP1 DIV DUP1 ISZERO PUSH2 0xD3C JUMPI DUP1 PUSH1 0x1F LT PUSH2 0xD11 JUMPI PUSH2 0x100 DUP1 DUP4 SLOAD DIV MUL DUP4 MSTORE SWAP2 PUSH1 0x20 ADD SWAP2 PUSH2 0xD3C JUMP JUMPDEST DUP3 ADD SWAP2 SWAP1 PUSH1 0x0 MSTORE PUSH1 0x20 PUSH1 0x0 KECCAK256 SWAP1 JUMPDEST DUP2 SLOAD DUP2 MSTORE SWAP1 PUSH1 0x1 ADD SWAP1 PUSH1 0x20 ADD DUP1 DUP4 GT PUSH2 0xD1F JUMPI DUP3 SWAP1 SUB PUSH1 0x1F AND DUP3 ADD SWAP2 JUMPDEST POP POP POP POP POP SWAP1 POP SWAP1 JUMP JUMPDEST PUSH1 0x0 PUSH2 0xD50 PUSH2 0x11AE JUMP JUMPDEST PUSH20 0xFFFFFFFFFFFFFFFFFFFFFFFFFFFFFFFFFFFFFFFF AND PUSH1 0x0 DUP1 SWAP1 SLOAD SWAP1 PUSH2 0x100 EXP SWAP1 DIV PUSH20 0xFFFFFFFFFFFFFFFFFFFFFFFFFFFFFFFFFFFFFFFF AND PUSH20 0xFFFFFFFFFFFFFFFFFFFFFFFFFFFFFFFFFFFFFFFF AND EQ PUSH2 0xE11 JUMPI PUSH1 0x40 MLOAD PUSH32 0x8C379A000000000000000000000000000000000000000000000000000000000 DUP2 MSTORE PUSH1 0x4 ADD DUP1 DUP1 PUSH1 0x20 ADD DUP3 DUP2 SUB DUP3 MSTORE PUSH1 0x20 DUP2 MSTORE PUSH1 0x20 ADD DUP1 PUSH32 0x4F776E61626C653A2063616C6C6572206973206E6F7420746865206F776E6572 DUP2 MSTORE POP PUSH1 0x20 ADD SWAP2 POP POP PUSH1 0x40 MLOAD DUP1 SWAP2 SUB SWAP1 REVERT JUMPDEST PUSH2 0xE22 PUSH2 0xE1C PUSH2 0x11AE JUMP JUMPDEST DUP4 PUSH2 0x1969 JUMP JUMPDEST PUSH1 0x1 SWAP1 POP SWAP2 SWAP1 POP JUMP JUMPDEST PUSH1 0x0 PUSH2 0xEEE PUSH2 0xE38 PUSH2 0x11AE JUMP JUMPDEST DUP5 PUSH2 0xEE9 DUP6 PUSH1 0x40 MLOAD DUP1 PUSH1 0x60 ADD PUSH1 0x40 MSTORE DUP1 PUSH1 0x25 DUP2 MSTORE PUSH1 0x20 ADD PUSH2 0x1D95 PUSH1 0x25 SWAP2 CODECOPY PUSH1 0x2 PUSH1 0x0 PUSH2 0xE62 PUSH2 0x11AE JUMP JUMPDEST PUSH20 0xFFFFFFFFFFFFFFFFFFFFFFFFFFFFFFFFFFFFFFFF AND PUSH20 0xFFFFFFFFFFFFFFFFFFFFFFFFFFFFFFFFFFFFFFFF AND DUP2 MSTORE PUSH1 0x20 ADD SWAP1 DUP2 MSTORE PUSH1 0x20 ADD PUSH1 0x0 KECCAK256 PUSH1 0x0 DUP11 PUSH20 0xFFFFFFFFFFFFFFFFFFFFFFFFFFFFFFFFFFFFFFFF AND PUSH20 0xFFFFFFFFFFFFFFFFFFFFFFFFFFFFFFFFFFFFFFFF AND DUP2 MSTORE PUSH1 0x20 ADD SWAP1 DUP2 MSTORE PUSH1 0x20 ADD PUSH1 0x0 KECCAK256 SLOAD PUSH2 0x1667 SWAP1 SWAP3 SWAP2 SWAP1 PUSH4 0xFFFFFFFF AND JUMP JUMPDEST PUSH2 0x11B6 JUMP JUMPDEST PUSH1 0x1 SWAP1 POP SWAP3 SWAP2 POP POP JUMP JUMPDEST PUSH1 0x0 PUSH2 0xF0C PUSH2 0xF05 PUSH2 0x11AE JUMP JUMPDEST DUP5 DUP5 PUSH2 0x13AD JUMP JUMPDEST PUSH1 0x1 SWAP1 POP SWAP3 SWAP2 POP POP JUMP JUMPDEST PUSH1 0x5 DUP1 SLOAD PUSH1 0x1 DUP2 PUSH1 0x1 AND ISZERO PUSH2 0x100 MUL SUB AND PUSH1 0x2 SWAP1 DIV DUP1 PUSH1 0x1F ADD PUSH1 0x20 DUP1 SWAP2 DIV MUL PUSH1 0x20 ADD PUSH1 0x40 MLOAD SWAP1 DUP2 ADD PUSH1 0x40 MSTORE DUP1 SWAP3 SWAP2 SWAP1 DUP2 DUP2 MSTORE PUSH1 0x20 ADD DUP3 DUP1 SLOAD PUSH1 0x1 DUP2 PUSH1 0x1 AND ISZERO PUSH2 0x100 MUL SUB AND PUSH1 0x2 SWAP1 DIV DUP1 ISZERO PUSH2 0xFAC JUMPI DUP1 PUSH1 0x1F LT PUSH2 0xF81 JUMPI PUSH2 0x100 DUP1 DUP4 SLOAD DIV MUL DUP4 MSTORE SWAP2 PUSH1 0x20 ADD SWAP2 PUSH2 0xFAC JUMP JUMPDEST DUP3 ADD SWAP2 SWAP1 PUSH1 0x0 MSTORE PUSH1 0x20 PUSH1 0x0 KECCAK256 SWAP1 JUMPDEST DUP2 SLOAD DUP2 MSTORE SWAP1 PUSH1 0x1 ADD SWAP1 PUSH1 0x20 ADD DUP1 DUP4 GT PUSH2 0xF8F JUMPI DUP3 SWAP1 SUB PUSH1 0x1F AND DUP3 ADD SWAP2 JUMPDEST POP POP POP POP POP DUP2 JUMP JUMPDEST PUSH1 0x6 DUP1 SLOAD PUSH1 0x1 DUP2 PUSH1 0x1 AND ISZERO PUSH2 0x100 MUL SUB AND PUSH1 0x2 SWAP1 DIV DUP1 PUSH1 0x1F ADD PUSH1 0x20 DUP1 SWAP2 DIV MUL PUSH1 0x20 ADD PUSH1 0x40 MLOAD SWAP1 DUP2 ADD PUSH1 0x40 MSTORE DUP1 SWAP3 SWAP2 SWAP1 DUP2 DUP2 MSTORE PUSH1 0x20 ADD DUP3 DUP1 SLOAD PUSH1 0x1 DUP2 PUSH1 0x1 AND ISZERO PUSH2 0x100 MUL SUB AND PUSH1 0x2 SWAP1 DIV DUP1 ISZERO PUSH2 0x104A JUMPI DUP1 PUSH1 0x1F LT PUSH2 0x101F JUMPI PUSH2 0x100 DUP1 DUP4 SLOAD DIV MUL DUP4 MSTORE SWAP2 PUSH1 0x20 ADD SWAP2 PUSH2 0x104A JUMP JUMPDEST DUP3 ADD SWAP2 SWAP1 PUSH1 0x0 MSTORE PUSH1 0x20 PUSH1 0x0 KECCAK256 SWAP1 JUMPDEST DUP2 SLOAD DUP2 MSTORE SWAP1 PUSH1 0x1 ADD SWAP1 PUSH1 0x20 ADD DUP1 DUP4 GT PUSH2 0x102D JUMPI DUP3 SWAP1 SUB PUSH1 0x1F AND DUP3 ADD SWAP2 JUMPDEST POP POP POP POP POP DUP2 JUMP JUMPDEST PUSH1 0x0 PUSH1 0x2 PUSH1 0x0 DUP5 PUSH20 0xFFFFFFFFFFFFFFFFFFFFFFFFFFFFFFFFFFFFFFFF AND PUSH20 0xFFFFFFFFFFFFFFFFFFFFFFFFFFFFFFFFFFFFFFFF AND DUP2 MSTORE PUSH1 0x20 ADD SWAP1 DUP2 MSTORE PUSH1 0x20 ADD PUSH1 0x0 KECCAK256 PUSH1 0x0 DUP4 PUSH20 0xFFFFFFFFFFFFFFFFFFFFFFFFFFFFFFFFFFFFFFFF AND PUSH20 0xFFFFFFFFFFFFFFFFFFFFFFFFFFFFFFFFFFFFFFFF AND DUP2 MSTORE PUSH1 0x20 ADD SWAP1 DUP2 MSTORE PUSH1 0x20 ADD PUSH1 0x0 KECCAK256 SLOAD SWAP1 POP SWAP3 SWAP2 POP POP JUMP JUMPDEST PUSH2 0x10E1 PUSH2 0x11AE JUMP JUMPDEST PUSH20 0xFFFFFFFFFFFFFFFFFFFFFFFFFFFFFFFFFFFFFFFF AND PUSH1 0x0 DUP1 SWAP1 SLOAD SWAP1 PUSH2 0x100 EXP SWAP1 DIV PUSH20 0xFFFFFFFFFFFFFFFFFFFFFFFFFFFFFFFFFFFFFFFF AND PUSH20 0xFFFFFFFFFFFFFFFFFFFFFFFFFFFFFFFFFFFFFFFF AND EQ PUSH2 0x11A2 JUMPI PUSH1 0x40 MLOAD PUSH32 0x8C379A000000000000000000000000000000000000000000000000000000000 DUP2 MSTORE PUSH1 0x4 ADD DUP1 DUP1 PUSH1 0x20 ADD DUP3 DUP2 SUB DUP3 MSTORE PUSH1 0x20 DUP2 MSTORE PUSH1 0x20 ADD DUP1 PUSH32 0x4F776E61626C653A2063616C6C6572206973206E6F7420746865206F776E6572 DUP2 MSTORE POP PUSH1 0x20 ADD SWAP2 POP POP PUSH1 0x40 MLOAD DUP1 SWAP2 SUB SWAP1 REVERT JUMPDEST PUSH2 0x11AB DUP2 PUSH2 0x1B26 JUMP JUMPDEST POP JUMP JUMPDEST PUSH1 0x0 CALLER SWAP1 POP SWAP1 JUMP JUMPDEST PUSH1 0x0 PUSH20 0xFFFFFFFFFFFFFFFFFFFFFFFFFFFFFFFFFFFFFFFF AND DUP4 PUSH20 0xFFFFFFFFFFFFFFFFFFFFFFFFFFFFFFFFFFFFFFFF AND EQ ISZERO PUSH2 0x123C JUMPI PUSH1 0x40 MLOAD PUSH32 0x8C379A000000000000000000000000000000000000000000000000000000000 DUP2 MSTORE PUSH1 0x4 ADD DUP1 DUP1 PUSH1 0x20 ADD DUP3 DUP2 SUB DUP3 MSTORE PUSH1 0x24 DUP2 MSTORE PUSH1 0x20 ADD DUP1 PUSH2 0x1CDA PUSH1 0x24 SWAP2 CODECOPY PUSH1 0x40 ADD SWAP2 POP POP PUSH1 0x40 MLOAD DUP1 SWAP2 SUB SWAP1 REVERT JUMPDEST PUSH1 0x0 PUSH20 0xFFFFFFFFFFFFFFFFFFFFFFFFFFFFFFFFFFFFFFFF AND DUP3 PUSH20 0xFFFFFFFFFFFFFFFFFFFFFFFFFFFFFFFFFFFFFFFF AND EQ ISZERO PUSH2 0x12C2 JUMPI PUSH1 0x40 MLOAD PUSH32 0x8C379A000000000000000000000000000000000000000000000000000000000 DUP2 MSTORE PUSH1 0x4 ADD DUP1 DUP1 PUSH1 0x20 ADD DUP3 DUP2 SUB DUP3 MSTORE PUSH1 0x22 DUP2 MSTORE PUSH1 0x20 ADD DUP1 PUSH2 0x1DFD PUSH1 0x22 SWAP2 CODECOPY PUSH1 0x40 ADD SWAP2 POP POP PUSH1 0x40 MLOAD DUP1 SWAP2 SUB SWAP1 REVERT JUMPDEST DUP1 PUSH1 0x2 PUSH1 0x0 DUP6 PUSH20 0xFFFFFFFFFFFFFFFFFFFFFFFFFFFFFFFFFFFFFFFF AND PUSH20 0xFFFFFFFFFFFFFFFFFFFFFFFFFFFFFFFFFFFFFFFF AND DUP2 MSTORE PUSH1 0x20 ADD SWAP1 DUP2 MSTORE PUSH1 0x20 ADD PUSH1 0x0 KECCAK256 PUSH1 0x0 DUP5 PUSH20 0xFFFFFFFFFFFFFFFFFFFFFFFFFFFFFFFFFFFFFFFF AND PUSH20 0xFFFFFFFFFFFFFFFFFFFFFFFFFFFFFFFFFFFFFFFF AND DUP2 MSTORE PUSH1 0x20 ADD SWAP1 DUP2 MSTORE PUSH1 0x20 ADD PUSH1 0x0 KECCAK256 DUP2 SWAP1 SSTORE POP DUP2 PUSH20 0xFFFFFFFFFFFFFFFFFFFFFFFFFFFFFFFFFFFFFFFF AND DUP4 PUSH20 0xFFFFFFFFFFFFFFFFFFFFFFFFFFFFFFFFFFFFFFFF AND PUSH32 0x8C5BE1E5EBEC7D5BD14F71427D1E84F3DD0314C0F7B2291E5B200AC8C7C3B925 DUP4 PUSH1 0x40 MLOAD DUP1 DUP3 DUP2 MSTORE PUSH1 0x20 ADD SWAP2 POP POP PUSH1 0x40 MLOAD DUP1 SWAP2 SUB SWAP1 LOG3 POP POP POP JUMP JUMPDEST PUSH1 0x0 PUSH20 0xFFFFFFFFFFFFFFFFFFFFFFFFFFFFFFFFFFFFFFFF AND DUP4 PUSH20 0xFFFFFFFFFFFFFFFFFFFFFFFFFFFFFFFFFFFFFFFF AND EQ ISZERO PUSH2 0x1433 JUMPI PUSH1 0x40 MLOAD PUSH32 0x8C379A000000000000000000000000000000000000000000000000000000000 DUP2 MSTORE PUSH1 0x4 ADD DUP1 DUP1 PUSH1 0x20 ADD DUP3 DUP2 SUB DUP3 MSTORE PUSH1 0x25 DUP2 MSTORE PUSH1 0x20 ADD DUP1 PUSH2 0x1CB5 PUSH1 0x25 SWAP2 CODECOPY PUSH1 0x40 ADD SWAP2 POP POP PUSH1 0x40 MLOAD DUP1 SWAP2 SUB SWAP1 REVERT JUMPDEST PUSH1 0x0 PUSH20 0xFFFFFFFFFFFFFFFFFFFFFFFFFFFFFFFFFFFFFFFF AND DUP3 PUSH20 0xFFFFFFFFFFFFFFFFFFFFFFFFFFFFFFFFFFFFFFFF AND EQ ISZERO PUSH2 0x14B9 JUMPI PUSH1 0x40 MLOAD PUSH32 0x8C379A000000000000000000000000000000000000000000000000000000000 DUP2 MSTORE PUSH1 0x4 ADD DUP1 DUP1 PUSH1 0x20 ADD DUP3 DUP2 SUB DUP3 MSTORE PUSH1 0x23 DUP2 MSTORE PUSH1 0x20 ADD DUP1 PUSH2 0x1D72 PUSH1 0x23 SWAP2 CODECOPY PUSH1 0x40 ADD SWAP2 POP POP PUSH1 0x40 MLOAD DUP1 SWAP2 SUB SWAP1 REVERT JUMPDEST PUSH2 0x1525 DUP2 PUSH1 0x40 MLOAD DUP1 PUSH1 0x60 ADD PUSH1 0x40 MSTORE DUP1 PUSH1 0x26 DUP2 MSTORE PUSH1 0x20 ADD PUSH2 0x1D4C PUSH1 0x26 SWAP2 CODECOPY PUSH1 0x1 PUSH1 0x0 DUP8 PUSH20 0xFFFFFFFFFFFFFFFFFFFFFFFFFFFFFFFFFFFFFFFF AND PUSH20 0xFFFFFFFFFFFFFFFFFFFFFFFFFFFFFFFFFFFFFFFF AND DUP2 MSTORE PUSH1 0x20 ADD SWAP1 DUP2 MSTORE PUSH1 0x20 ADD PUSH1 0x0 KECCAK256 SLOAD PUSH2 0x1667 SWAP1 SWAP3 SWAP2 SWAP1 PUSH4 0xFFFFFFFF AND JUMP JUMPDEST PUSH1 0x1 PUSH1 0x0 DUP6 PUSH20 0xFFFFFFFFFFFFFFFFFFFFFFFFFFFFFFFFFFFFFFFF AND PUSH20 0xFFFFFFFFFFFFFFFFFFFFFFFFFFFFFFFFFFFFFFFF AND DUP2 MSTORE PUSH1 0x20 ADD SWAP1 DUP2 MSTORE PUSH1 0x20 ADD PUSH1 0x0 KECCAK256 DUP2 SWAP1 SSTORE POP PUSH2 0x15BA DUP2 PUSH1 0x1 PUSH1 0x0 DUP6 PUSH20 0xFFFFFFFFFFFFFFFFFFFFFFFFFFFFFFFFFFFFFFFF AND PUSH20 0xFFFFFFFFFFFFFFFFFFFFFFFFFFFFFFFFFFFFFFFF AND DUP2 MSTORE PUSH1 0x20 ADD SWAP1 DUP2 MSTORE PUSH1 0x20 ADD PUSH1 0x0 KECCAK256 SLOAD PUSH2 0x1727 SWAP1 SWAP2 SWAP1 PUSH4 0xFFFFFFFF AND JUMP JUMPDEST PUSH1 0x1 PUSH1 0x0 DUP5 PUSH20 0xFFFFFFFFFFFFFFFFFFFFFFFFFFFFFFFFFFFFFFFF AND PUSH20 0xFFFFFFFFFFFFFFFFFFFFFFFFFFFFFFFFFFFFFFFF AND DUP2 MSTORE PUSH1 0x20 ADD SWAP1 DUP2 MSTORE PUSH1 0x20 ADD PUSH1 0x0 KECCAK256 DUP2 SWAP1 SSTORE POP DUP2 PUSH20 0xFFFFFFFFFFFFFFFFFFFFFFFFFFFFFFFFFFFFFFFF AND DUP4 PUSH20 0xFFFFFFFFFFFFFFFFFFFFFFFFFFFFFFFFFFFFFFFF AND PUSH32 0xDDF252AD1BE2C89B69C2B068FC378DAA952BA7F163C4A11628F55A4DF523B3EF DUP4 PUSH1 0x40 MLOAD DUP1 DUP3 DUP2 MSTORE PUSH1 0x20 ADD SWAP2 POP POP PUSH1 0x40 MLOAD DUP1 SWAP2 SUB SWAP1 LOG3 POP POP POP JUMP JUMPDEST PUSH1 0x0 DUP4 DUP4 GT ISZERO DUP3 SWAP1 PUSH2 0x1714 JUMPI PUSH1 0x40 MLOAD PUSH32 0x8C379A000000000000000000000000000000000000000000000000000000000 DUP2 MSTORE PUSH1 0x4 ADD DUP1 DUP1 PUSH1 0x20 ADD DUP3 DUP2 SUB DUP3 MSTORE DUP4 DUP2 DUP2 MLOAD DUP2 MSTORE PUSH1 0x20 ADD SWAP2 POP DUP1 MLOAD SWAP1 PUSH1 0x20 ADD SWAP1 DUP1 DUP4 DUP4 PUSH1 0x0 JUMPDEST DUP4 DUP2 LT ISZERO PUSH2 0x16D9 JUMPI DUP1 DUP3 ADD MLOAD DUP2 DUP5 ADD MSTORE PUSH1 0x20 DUP2 ADD SWAP1 POP PUSH2 0x16BE JUMP JUMPDEST POP POP POP POP SWAP1 POP SWAP1 DUP2 ADD SWAP1 PUSH1 0x1F AND DUP1 ISZERO PUSH2 0x1706 JUMPI DUP1 DUP3 SUB DUP1 MLOAD PUSH1 0x1 DUP4 PUSH1 0x20 SUB PUSH2 0x100 EXP SUB NOT AND DUP2 MSTORE PUSH1 0x20 ADD SWAP2 POP JUMPDEST POP SWAP3 POP POP POP PUSH1 0x40 MLOAD DUP1 SWAP2 SUB SWAP1 REVERT JUMPDEST POP PUSH1 0x0 DUP4 DUP6 SUB SWAP1 POP DUP1 SWAP2 POP POP SWAP4 SWAP3 POP POP POP JUMP JUMPDEST PUSH1 0x0 DUP1 DUP3 DUP5 ADD SWAP1 POP DUP4 DUP2 LT ISZERO PUSH2 0x17A5 JUMPI PUSH1 0x40 MLOAD PUSH32 0x8C379A000000000000000000000000000000000000000000000000000000000 DUP2 MSTORE PUSH1 0x4 ADD DUP1 DUP1 PUSH1 0x20 ADD DUP3 DUP2 SUB DUP3 MSTORE PUSH1 0x1B DUP2 MSTORE PUSH1 0x20 ADD DUP1 PUSH32 0x536166654D6174683A206164646974696F6E206F766572666C6F770000000000 DUP2 MSTORE POP PUSH1 0x20 ADD SWAP2 POP POP PUSH1 0x40 MLOAD DUP1 SWAP2 SUB SWAP1 REVERT JUMPDEST DUP1 SWAP2 POP POP SWAP3 SWAP2 POP POP JUMP JUMPDEST PUSH1 0x0 PUSH20 0xFFFFFFFFFFFFFFFFFFFFFFFFFFFFFFFFFFFFFFFF AND DUP3 PUSH20 0xFFFFFFFFFFFFFFFFFFFFFFFFFFFFFFFFFFFFFFFF AND EQ ISZERO PUSH2 0x1835 JUMPI PUSH1 0x40 MLOAD PUSH32 0x8C379A000000000000000000000000000000000000000000000000000000000 DUP2 MSTORE PUSH1 0x4 ADD DUP1 DUP1 PUSH1 0x20 ADD DUP3 DUP2 SUB DUP3 MSTORE PUSH1 0x21 DUP2 MSTORE PUSH1 0x20 ADD DUP1 PUSH2 0x1DBA PUSH1 0x21 SWAP2 CODECOPY PUSH1 0x40 ADD SWAP2 POP POP PUSH1 0x40 MLOAD DUP1 SWAP2 SUB SWAP1 REVERT JUMPDEST PUSH2 0x18A1 DUP2 PUSH1 0x40 MLOAD DUP1 PUSH1 0x60 ADD PUSH1 0x40 MSTORE DUP1 PUSH1 0x22 DUP2 MSTORE PUSH1 0x20 ADD PUSH2 0x1DDB PUSH1 0x22 SWAP2 CODECOPY PUSH1 0x1 PUSH1 0x0 DUP7 PUSH20 0xFFFFFFFFFFFFFFFFFFFFFFFFFFFFFFFFFFFFFFFF AND PUSH20 0xFFFFFFFFFFFFFFFFFFFFFFFFFFFFFFFFFFFFFFFF AND DUP2 MSTORE PUSH1 0x20 ADD SWAP1 DUP2 MSTORE PUSH1 0x20 ADD PUSH1 0x0 KECCAK256 SLOAD PUSH2 0x1667 SWAP1 SWAP3 SWAP2 SWAP1 PUSH4 0xFFFFFFFF AND JUMP JUMPDEST PUSH1 0x1 PUSH1 0x0 DUP5 PUSH20 0xFFFFFFFFFFFFFFFFFFFFFFFFFFFFFFFFFFFFFFFF AND PUSH20 0xFFFFFFFFFFFFFFFFFFFFFFFFFFFFFFFFFFFFFFFF AND DUP2 MSTORE PUSH1 0x20 ADD SWAP1 DUP2 MSTORE PUSH1 0x20 ADD PUSH1 0x0 KECCAK256 DUP2 SWAP1 SSTORE POP PUSH2 0x18F9 DUP2 PUSH1 0x3 SLOAD PUSH2 0x1C6A SWAP1 SWAP2 SWAP1 PUSH4 0xFFFFFFFF AND JUMP JUMPDEST PUSH1 0x3 DUP2 SWAP1 SSTORE POP PUSH1 0x0 PUSH20 0xFFFFFFFFFFFFFFFFFFFFFFFFFFFFFFFFFFFFFFFF AND DUP3 PUSH20 0xFFFFFFFFFFFFFFFFFFFFFFFFFFFFFFFFFFFFFFFF AND PUSH32 0xDDF252AD1BE2C89B69C2B068FC378DAA952BA7F163C4A11628F55A4DF523B3EF DUP4 PUSH1 0x40 MLOAD DUP1 DUP3 DUP2 MSTORE PUSH1 0x20 ADD SWAP2 POP POP PUSH1 0x40 MLOAD DUP1 SWAP2 SUB SWAP1 LOG3 POP POP JUMP JUMPDEST PUSH1 0x0 PUSH20 0xFFFFFFFFFFFFFFFFFFFFFFFFFFFFFFFFFFFFFFFF AND DUP3 PUSH20 0xFFFFFFFFFFFFFFFFFFFFFFFFFFFFFFFFFFFFFFFF AND EQ ISZERO PUSH2 0x1A0C JUMPI PUSH1 0x40 MLOAD PUSH32 0x8C379A000000000000000000000000000000000000000000000000000000000 DUP2 MSTORE PUSH1 0x4 ADD DUP1 DUP1 PUSH1 0x20 ADD DUP3 DUP2 SUB DUP3 MSTORE PUSH1 0x1F DUP2 MSTORE PUSH1 0x20 ADD DUP1 PUSH32 0x42455032303A206D696E7420746F20746865207A65726F206164647265737300 DUP2 MSTORE POP PUSH1 0x20 ADD SWAP2 POP POP PUSH1 0x40 MLOAD DUP1 SWAP2 SUB SWAP1 REVERT JUMPDEST PUSH2 0x1A21 DUP2 PUSH1 0x3 SLOAD PUSH2 0x1727 SWAP1 SWAP2 SWAP1 PUSH4 0xFFFFFFFF AND JUMP JUMPDEST PUSH1 0x3 DUP2 SWAP1 SSTORE POP PUSH2 0x1A79 DUP2 PUSH1 0x1 PUSH1 0x0 DUP6 PUSH20 0xFFFFFFFFFFFFFFFFFFFFFFFFFFFFFFFFFFFFFFFF AND PUSH20 0xFFFFFFFFFFFFFFFFFFFFFFFFFFFFFFFFFFFFFFFF AND DUP2 MSTORE PUSH1 0x20 ADD SWAP1 DUP2 MSTORE PUSH1 0x20 ADD PUSH1 0x0 KECCAK256 SLOAD PUSH2 0x1727 SWAP1 SWAP2 SWAP1 PUSH4 0xFFFFFFFF AND JUMP JUMPDEST PUSH1 0x1 PUSH1 0x0 DUP5 PUSH20 0xFFFFFFFFFFFFFFFFFFFFFFFFFFFFFFFFFFFFFFFF AND PUSH20 0xFFFFFFFFFFFFFFFFFFFFFFFFFFFFFFFFFFFFFFFF AND DUP2 MSTORE PUSH1 0x20 ADD SWAP1 DUP2 MSTORE PUSH1 0x20 ADD PUSH1 0x0 KECCAK256 DUP2 SWAP1 SSTORE POP DUP2 PUSH20 0xFFFFFFFFFFFFFFFFFFFFFFFFFFFFFFFFFFFFFFFF AND PUSH1 0x0 PUSH20 0xFFFFFFFFFFFFFFFFFFFFFFFFFFFFFFFFFFFFFFFF AND PUSH32 0xDDF252AD1BE2C89B69C2B068FC378DAA952BA7F163C4A11628F55A4DF523B3EF DUP4 PUSH1 0x40 MLOAD DUP1 DUP3 DUP2 MSTORE PUSH1 0x20 ADD SWAP2 POP POP PUSH1 0x40 MLOAD DUP1 SWAP2 SUB SWAP1 LOG3 POP POP JUMP JUMPDEST PUSH1 0x0 PUSH20 0xFFFFFFFFFFFFFFFFFFFFFFFFFFFFFFFFFFFFFFFF AND DUP2 PUSH20 0xFFFFFFFFFFFFFFFFFFFFFFFFFFFFFFFFFFFFFFFF AND EQ ISZERO PUSH2 0x1BAC JUMPI PUSH1 0x40 MLOAD PUSH32 0x8C379A000000000000000000000000000000000000000000000000000000000 DUP2 MSTORE PUSH1 0x4 ADD DUP1 DUP1 PUSH1 0x20 ADD DUP3 DUP2 SUB DUP3 MSTORE PUSH1 0x26 DUP2 MSTORE PUSH1 0x20 ADD DUP1 PUSH2 0x1CFE PUSH1 0x26 SWAP2 CODECOPY PUSH1 0x40 ADD SWAP2 POP POP PUSH1 0x40 MLOAD DUP1 SWAP2 SUB SWAP1 REVERT JUMPDEST DUP1 PUSH20 0xFFFFFFFFFFFFFFFFFFFFFFFFFFFFFFFFFFFFFFFF AND PUSH1 0x0 DUP1 SWAP1 SLOAD SWAP1 PUSH2 0x100 EXP SWAP1 DIV PUSH20 0xFFFFFFFFFFFFFFFFFFFFFFFFFFFFFFFFFFFFFFFF AND PUSH20 0xFFFFFFFFFFFFFFFFFFFFFFFFFFFFFFFFFFFFFFFF AND PUSH32 0x8BE0079C531659141344CD1FD0A4F28419497F9722A3DAAFE3B4186F6B6457E0 PUSH1 0x40 MLOAD PUSH1 0x40 MLOAD DUP1 SWAP2 SUB SWAP1 LOG3 DUP1 PUSH1 0x0 DUP1 PUSH2 0x100 EXP DUP2 SLOAD DUP2 PUSH20 0xFFFFFFFFFFFFFFFFFFFFFFFFFFFFFFFFFFFFFFFF MUL NOT AND SWAP1 DUP4 PUSH20 0xFFFFFFFFFFFFFFFFFFFFFFFFFFFFFFFFFFFFFFFF AND MUL OR SWAP1 SSTORE POP POP JUMP JUMPDEST PUSH1 0x0 PUSH2 0x1CAC DUP4 DUP4 PUSH1 0x40 MLOAD DUP1 PUSH1 0x40 ADD PUSH1 0x40 MSTORE DUP1 PUSH1 0x1E DUP2 MSTORE PUSH1 0x20 ADD PUSH32 0x536166654D6174683A207375627472616374696F6E206F766572666C6F770000 DUP2 MSTORE POP PUSH2 0x1667 JUMP JUMPDEST SWAP1 POP SWAP3 SWAP2 POP POP JUMP INVALID TIMESTAMP GASLIMIT POP ORIGIN ADDRESS GASPRICE KECCAK256 PUSH21 0x72616E736665722066726F6D20746865207A65726F KECCAK256 PUSH2 0x6464 PUSH19 0x65737342455032303A20617070726F76652066 PUSH19 0x6F6D20746865207A65726F2061646472657373 0x4F PUSH24 0x6E61626C653A206E6577206F776E65722069732074686520 PUSH27 0x65726F206164647265737342455032303A207472616E7366657220 PUSH2 0x6D6F PUSH22 0x6E74206578636565647320616C6C6F77616E63654245 POP ORIGIN ADDRESS GASPRICE KECCAK256 PUSH21 0x72616E7366657220616D6F756E7420657863656564 PUSH20 0x2062616C616E636542455032303A207472616E73 PUSH7 0x657220746F2074 PUSH9 0x65207A65726F206164 PUSH5 0x7265737342 GASLIMIT POP ORIGIN ADDRESS GASPRICE KECCAK256 PUSH5 0x6563726561 PUSH20 0x656420616C6C6F77616E63652062656C6F77207A PUSH6 0x726F42455032 ADDRESS GASPRICE KECCAK256 PUSH3 0x75726E KECCAK256 PUSH7 0x726F6D20746865 KECCAK256 PUSH27 0x65726F206164647265737342455032303A206275726E20616D6F75 PUSH15 0x7420657863656564732062616C616E PUSH4 0x65424550 ORIGIN ADDRESS GASPRICE KECCAK256 PUSH2 0x7070 PUSH19 0x6F766520746F20746865207A65726F20616464 PUSH19 0x657373A265627A7A723158204126904AA5B7D3 SWAP8 CODESIZE 0xBD DUP9 0xC2 CREATE PUSH18 0xBA1B806C37BE33BB535CD3CC93AC99777341 PUSH5 0x736F6C6343 STOP SDIV LT STOP ORIGIN "
	},
	"abi": [
		{
			"inputs": [],
			"payable": false,
			"stateMutability": "nonpayable",
			"type": "constructor"
		},
		{
			"anonymous": false,
			"inputs": [
				{
					"indexed": true,
					"internalType": "address",
					"name": "owner",
					"type": "address"
				},
				{
					"indexed": true,
					"internalType": "address",
					"name": "spender",
					"type": "address"
				},
				{
					"indexed": false,
					"internalType": "uint256",
					"name": "value",
					"type": "uint256"
				}
			],
			"name": "Approval",
			"type": "event"
		},
		{
			"anonymous": false,
			"inputs": [
				{
					"indexed": true,
					"internalType": "address",
					"name": "previousOwner",
					"type": "address"
				},
				{
					"indexed": true,
					"internalType": "address",
					"name": "newOwner",
					"type": "address"
				}
			],
			"name": "OwnershipTransferred",
			"type": "event"
		},
		{
			"anonymous": false,
			"inputs": [
				{
					"indexed": true,
					"internalType": "address",
					"name": "from",
					"type": "address"
				},
				{
					"indexed": true,
					"internalType": "address",
					"name": "to",
					"type": "address"
				},
				{
					"indexed": false,
					"internalType": "uint256",
					"name": "value",
					"type": "uint256"
				}
			],
			"name": "Transfer",
			"type": "event"
		},
		{
			"constant": true,
			"inputs": [],
			"name": "_decimals",
			"outputs": [
				{
					"internalType": "uint8",
					"name": "",
					"type": "uint8"
				}
			],
			"payable": false,
			"stateMutability": "view",
			"type": "function"
		},
		{
			"constant": true,
			"inputs": [],
			"name": "_name",
			"outputs": [
				{
					"internalType": "string",
					"name": "",
					"type": "string"
				}
			],
			"payable": false,
			"stateMutability": "view",
			"type": "function"
		},
		{
			"constant": true,
			"inputs": [],
			"name": "_symbol",
			"outputs": [
				{
					"internalType": "string",
					"name": "",
					"type": "string"
				}
			],
			"payable": false,
			"stateMutability": "view",
			"type": "function"
		},
		{
			"constant": true,
			"inputs": [
				{
					"internalType": "address",
					"name": "owner",
					"type": "address"
				},
				{
					"internalType": "address",
					"name": "spender",
					"type": "address"
				}
			],
			"name": "allowance",
			"outputs": [
				{
					"internalType": "uint256",
					"name": "",
					"type": "uint256"
				}
			],
			"payable": false,
			"stateMutability": "view",
			"type": "function"
		},
		{
			"constant": false,
			"inputs": [
				{
					"internalType": "address",
					"name": "spender",
					"type": "address"
				},
				{
					"internalType": "uint256",
					"name": "amount",
					"type": "uint256"
				}
			],
			"name": "approve",
			"outputs": [
				{
					"internalType": "bool",
					"name": "",
					"type": "bool"
				}
			],
			"payable": false,
			"stateMutability": "nonpayable",
			"type": "function"
		},
		{
			"constant": true,
			"inputs": [
				{
					"internalType": "address",
					"name": "account",
					"type": "address"
				}
			],
			"name": "balanceOf",
			"outputs": [
				{
					"internalType": "uint256",
					"name": "",
					"type": "uint256"
				}
			],
			"payable": false,
			"stateMutability": "view",
			"type": "function"
		},
		{
			"constant": false,
			"inputs": [
				{
					"internalType": "uint256",
					"name": "amount",
					"type": "uint256"
				}
			],
			"name": "burn",
			"outputs": [
				{
					"internalType": "bool",
					"name": "",
					"type": "bool"
				}
			],
			"payable": false,
			"stateMutability": "nonpayable",
			"type": "function"
		},
		{
			"constant": true,
			"inputs": [],
			"name": "decimals",
			"outputs": [
				{
					"internalType": "uint8",
					"name": "",
					"type": "uint8"
				}
			],
			"payable": false,
			"stateMutability": "view",
			"type": "function"
		},
		{
			"constant": false,
			"inputs": [
				{
					"internalType": "address",
					"name": "spender",
					"type": "address"
				},
				{
					"internalType": "uint256",
					"name": "subtractedValue",
					"type": "uint256"
				}
			],
			"name": "decreaseAllowance",
			"outputs": [
				{
					"internalType": "bool",
					"name": "",
					"type": "bool"
				}
			],
			"payable": false,
			"stateMutability": "nonpayable",
			"type": "function"
		},
		{
			"constant": true,
			"inputs": [],
			"name": "getOwner",
			"outputs": [
				{
					"internalType": "address",
					"name": "",
					"type": "address"
				}
			],
			"payable": false,
			"stateMutability": "view",
			"type": "function"
		},
		{
			"constant": false,
			"inputs": [
				{
					"internalType": "address",
					"name": "spender",
					"type": "address"
				},
				{
					"internalType": "uint256",
					"name": "addedValue",
					"type": "uint256"
				}
			],
			"name": "increaseAllowance",
			"outputs": [
				{
					"internalType": "bool",
					"name": "",
					"type": "bool"
				}
			],
			"payable": false,
			"stateMutability": "nonpayable",
			"type": "function"
		},
		{
			"constant": false,
			"inputs": [
				{
					"internalType": "uint256",
					"name": "amount",
					"type": "uint256"
				}
			],
			"name": "mint",
			"outputs": [
				{
					"internalType": "bool",
					"name": "",
					"type": "bool"
				}
			],
			"payable": false,
			"stateMutability": "nonpayable",
			"type": "function"
		},
		{
			"constant": true,
			"inputs": [],
			"name": "name",
			"outputs": [
				{
					"internalType": "string",
					"name": "",
					"type": "string"
				}
			],
			"payable": false,
			"stateMutability": "view",
			"type": "function"
		},
		{
			"constant": true,
			"inputs": [],
			"name": "owner",
			"outputs": [
				{
					"internalType": "address",
					"name": "",
					"type": "address"
				}
			],
			"payable": false,
			"stateMutability": "view",
			"type": "function"
		},
		{
			"constant": false,
			"inputs": [],
			"name": "renounceOwnership",
			"outputs": [],
			"payable": false,
			"stateMutability": "nonpayable",
			"type": "function"
		},
		{
			"constant": true,
			"inputs": [],
			"name": "symbol",
			"outputs": [
				{
					"internalType": "string",
					"name": "",
					"type": "string"
				}
			],
			"payable": false,
			"stateMutability": "view",
			"type": "function"
		},
		{
			"constant": true,
			"inputs": [],
			"name": "totalSupply",
			"outputs": [
				{
					"internalType": "uint256",
					"name": "",
					"type": "uint256"
				}
			],
			"payable": false,
			"stateMutability": "view",
			"type": "function"
		},
		{
			"constant": false,
			"inputs": [
				{
					"internalType": "address",
					"name": "recipient",
					"type": "address"
				},
				{
					"internalType": "uint256",
					"name": "amount",
					"type": "uint256"
				}
			],
			"name": "transfer",
			"outputs": [
				{
					"internalType": "bool",
					"name": "",
					"type": "bool"
				}
			],
			"payable": false,
			"stateMutability": "nonpayable",
			"type": "function"
		},
		{
			"constant": false,
			"inputs": [
				{
					"internalType": "address",
					"name": "sender",
					"type": "address"
				},
				{
					"internalType": "address",
					"name": "recipient",
					"type": "address"
				},
				{
					"internalType": "uint256",
					"name": "amount",
					"type": "uint256"
				}
			],
			"name": "transferFrom",
			"outputs": [
				{
					"internalType": "bool",
					"name": "",
					"type": "bool"
				}
			],
			"payable": false,
			"stateMutability": "nonpayable",
			"type": "function"
		},
		{
			"constant": false,
			"inputs": [
				{
					"internalType": "address",
					"name": "newOwner",
					"type": "address"
				}
			],
			"name": "transferOwnership",
			"outputs": [],
			"payable": false,
			"stateMutability": "nonpayable",
			"type": "function"
		}
	],
	"storageLayout": {
		"storage": [
			{
				"astId": 302,
				"contract": "tangousd.sol:TangoUSD",
				"label": "_owner",
				"offset": 0,
				"slot": "0",
				"type": "t_address"
			},
			{
				"astId": 417,
				"contract": "tangousd.sol:TangoUSD",
				"label": "_balances",
				"offset": 0,
				"slot": "1",
				"type": "t_mapping(t_address,t_uint256)"
			},
			{
				"astId": 423,
				"contract": "tangousd.sol:TangoUSD",
				"label": "_allowances",
				"offset": 0,
				"slot": "2",
				"type": "t_mapping(t_address,t_mapping(t_address,t_uint256))"
			},
			{
				"astId": 425,
				"contract": "tangousd.sol:TangoUSD",
				"label": "_totalSupply",
				"offset": 0,
				"slot": "3",
				"type": "t_uint256"
			},
			{
				"astId": 427,
				"contract": "tangousd.sol:TangoUSD",
				"label": "_decimals",
				"offset": 0,
				"slot": "4",
				"type": "t_uint8"
			},
			{
				"astId": 429,
				"contract": "tangousd.sol:TangoUSD",
				"label": "_symbol",
				"offset": 0,
				"slot": "5",
				"type": "t_string_storage"
			},
			{
				"astId": 431,
				"contract": "tangousd.sol:TangoUSD",
				"label": "_name",
				"offset": 0,
				"slot": "6",
				"type": "t_string_storage"
			}
		],
		"types": {
			"t_address": {
				"encoding": "inplace",
				"label": "address",
				"numberOfBytes": "20"
			},
			"t_mapping(t_address,t_mapping(t_address,t_uint256))": {
				"encoding": "mapping",
				"key": "t_address",
				"label": "mapping(address => mapping(address => uint256))",
				"numberOfBytes": "32",
				"value": "t_mapping(t_address,t_uint256)"
			},
			"t_mapping(t_address,t_uint256)": {
				"encoding": "mapping",
				"key": "t_address",
				"label": "mapping(address => uint256)",
				"numberOfBytes": "32",
				"value": "t_uint256"
			},
			"t_string_storage": {
				"encoding": "bytes",
				"label": "string",
				"numberOfBytes": "32"
			},
			"t_uint256": {
				"encoding": "inplace",
				"label": "uint256",
				"numberOfBytes": "32"
			},
			"t_uint8": {
				"encoding": "inplace",
				"label": "uint8",
				"numberOfBytes": "1"
			}
		}
	},
	"web3Deploy": "var tangousdContract = new web3.eth.Contract([{\"inputs\":[],\"payable\":false,\"stateMutability\":\"nonpayable\",\"type\":\"constructor\"},{\"anonymous\":false,\"inputs\":[{\"indexed\":true,\"internalType\":\"address\",\"name\":\"owner\",\"type\":\"address\"},{\"indexed\":true,\"internalType\":\"address\",\"name\":\"spender\",\"type\":\"address\"},{\"indexed\":false,\"internalType\":\"uint256\",\"name\":\"value\",\"type\":\"uint256\"}],\"name\":\"Approval\",\"type\":\"event\"},{\"anonymous\":false,\"inputs\":[{\"indexed\":true,\"internalType\":\"address\",\"name\":\"previousOwner\",\"type\":\"address\"},{\"indexed\":true,\"internalType\":\"address\",\"name\":\"newOwner\",\"type\":\"address\"}],\"name\":\"OwnershipTransferred\",\"type\":\"event\"},{\"anonymous\":false,\"inputs\":[{\"indexed\":true,\"internalType\":\"address\",\"name\":\"from\",\"type\":\"address\"},{\"indexed\":true,\"internalType\":\"address\",\"name\":\"to\",\"type\":\"address\"},{\"indexed\":false,\"internalType\":\"uint256\",\"name\":\"value\",\"type\":\"uint256\"}],\"name\":\"Transfer\",\"type\":\"event\"},{\"constant\":true,\"inputs\":[],\"name\":\"_decimals\",\"outputs\":[{\"internalType\":\"uint8\",\"name\":\"\",\"type\":\"uint8\"}],\"payable\":false,\"stateMutability\":\"view\",\"type\":\"function\"},{\"constant\":true,\"inputs\":[],\"name\":\"_name\",\"outputs\":[{\"internalType\":\"string\",\"name\":\"\",\"type\":\"string\"}],\"payable\":false,\"stateMutability\":\"view\",\"type\":\"function\"},{\"constant\":true,\"inputs\":[],\"name\":\"_symbol\",\"outputs\":[{\"internalType\":\"string\",\"name\":\"\",\"type\":\"string\"}],\"payable\":false,\"stateMutability\":\"view\",\"type\":\"function\"},{\"constant\":true,\"inputs\":[{\"internalType\":\"address\",\"name\":\"owner\",\"type\":\"address\"},{\"internalType\":\"address\",\"name\":\"spender\",\"type\":\"address\"}],\"name\":\"allowance\",\"outputs\":[{\"internalType\":\"uint256\",\"name\":\"\",\"type\":\"uint256\"}],\"payable\":false,\"stateMutability\":\"view\",\"type\":\"function\"},{\"constant\":false,\"inputs\":[{\"internalType\":\"address\",\"name\":\"spender\",\"type\":\"address\"},{\"internalType\":\"uint256\",\"name\":\"amount\",\"type\":\"uint256\"}],\"name\":\"approve\",\"outputs\":[{\"internalType\":\"bool\",\"name\":\"\",\"type\":\"bool\"}],\"payable\":false,\"stateMutability\":\"nonpayable\",\"type\":\"function\"},{\"constant\":true,\"inputs\":[{\"internalType\":\"address\",\"name\":\"account\",\"type\":\"address\"}],\"name\":\"balanceOf\",\"outputs\":[{\"internalType\":\"uint256\",\"name\":\"\",\"type\":\"uint256\"}],\"payable\":false,\"stateMutability\":\"view\",\"type\":\"function\"},{\"constant\":false,\"inputs\":[{\"internalType\":\"uint256\",\"name\":\"amount\",\"type\":\"uint256\"}],\"name\":\"burn\",\"outputs\":[{\"internalType\":\"bool\",\"name\":\"\",\"type\":\"bool\"}],\"payable\":false,\"stateMutability\":\"nonpayable\",\"type\":\"function\"},{\"constant\":true,\"inputs\":[],\"name\":\"decimals\",\"outputs\":[{\"internalType\":\"uint8\",\"name\":\"\",\"type\":\"uint8\"}],\"payable\":false,\"stateMutability\":\"view\",\"type\":\"function\"},{\"constant\":false,\"inputs\":[{\"internalType\":\"address\",\"name\":\"spender\",\"type\":\"address\"},{\"internalType\":\"uint256\",\"name\":\"subtractedValue\",\"type\":\"uint256\"}],\"name\":\"decreaseAllowance\",\"outputs\":[{\"internalType\":\"bool\",\"name\":\"\",\"type\":\"bool\"}],\"payable\":false,\"stateMutability\":\"nonpayable\",\"type\":\"function\"},{\"constant\":true,\"inputs\":[],\"name\":\"getOwner\",\"outputs\":[{\"internalType\":\"address\",\"name\":\"\",\"type\":\"address\"}],\"payable\":false,\"stateMutability\":\"view\",\"type\":\"function\"},{\"constant\":false,\"inputs\":[{\"internalType\":\"address\",\"name\":\"spender\",\"type\":\"address\"},{\"internalType\":\"uint256\",\"name\":\"addedValue\",\"type\":\"uint256\"}],\"name\":\"increaseAllowance\",\"outputs\":[{\"internalType\":\"bool\",\"name\":\"\",\"type\":\"bool\"}],\"payable\":false,\"stateMutability\":\"nonpayable\",\"type\":\"function\"},{\"constant\":false,\"inputs\":[{\"internalType\":\"uint256\",\"name\":\"amount\",\"type\":\"uint256\"}],\"name\":\"mint\",\"outputs\":[{\"internalType\":\"bool\",\"name\":\"\",\"type\":\"bool\"}],\"payable\":false,\"stateMutability\":\"nonpayable\",\"type\":\"function\"},{\"constant\":true,\"inputs\":[],\"name\":\"name\",\"outputs\":[{\"internalType\":\"string\",\"name\":\"\",\"type\":\"string\"}],\"payable\":false,\"stateMutability\":\"view\",\"type\":\"function\"},{\"constant\":true,\"inputs\":[],\"name\":\"owner\",\"outputs\":[{\"internalType\":\"address\",\"name\":\"\",\"type\":\"address\"}],\"payable\":false,\"stateMutability\":\"view\",\"type\":\"function\"},{\"constant\":false,\"inputs\":[],\"name\":\"renounceOwnership\",\"outputs\":[],\"payable\":false,\"stateMutability\":\"nonpayable\",\"type\":\"function\"},{\"constant\":true,\"inputs\":[],\"name\":\"symbol\",\"outputs\":[{\"internalType\":\"string\",\"name\":\"\",\"type\":\"string\"}],\"payable\":false,\"stateMutability\":\"view\",\"type\":\"function\"},{\"constant\":true,\"inputs\":[],\"name\":\"totalSupply\",\"outputs\":[{\"internalType\":\"uint256\",\"name\":\"\",\"type\":\"uint256\"}],\"payable\":false,\"stateMutability\":\"view\",\"type\":\"function\"},{\"constant\":false,\"inputs\":[{\"internalType\":\"address\",\"name\":\"recipient\",\"type\":\"address\"},{\"internalType\":\"uint256\",\"name\":\"amount\",\"type\":\"uint256\"}],\"name\":\"transfer\",\"outputs\":[{\"internalType\":\"bool\",\"name\":\"\",\"type\":\"bool\"}],\"payable\":false,\"stateMutability\":\"nonpayable\",\"type\":\"function\"},{\"constant\":false,\"inputs\":[{\"internalType\":\"address\",\"name\":\"sender\",\"type\":\"address\"},{\"internalType\":\"address\",\"name\":\"recipient\",\"type\":\"address\"},{\"internalType\":\"uint256\",\"name\":\"amount\",\"type\":\"uint256\"}],\"name\":\"transferFrom\",\"outputs\":[{\"internalType\":\"bool\",\"name\":\"\",\"type\":\"bool\"}],\"payable\":false,\"stateMutability\":\"nonpayable\",\"type\":\"function\"},{\"constant\":false,\"inputs\":[{\"internalType\":\"address\",\"name\":\"newOwner\",\"type\":\"address\"}],\"name\":\"transferOwnership\",\"outputs\":[],\"payable\":false,\"stateMutability\":\"nonpayable\",\"type\":\"function\"}]);\nvar tangousd = tangousdContract.deploy({\n     data: '0x60806040523480156200001157600080fd5b506000620000246200024160201b60201c565b9050806000806101000a81548173ffffffffffffffffffffffffffffffffffffffff021916908373ffffffffffffffffffffffffffffffffffffffff1602179055508073ffffffffffffffffffffffffffffffffffffffff16600073ffffffffffffffffffffffffffffffffffffffff167f8be0079c531659141344cd1fd0a4f28419497f9722a3daafe3b4186f6b6457e060405160405180910390a3506040518060400160405280600981526020017f54616e676f205553440000000000000000000000000000000000000000000000815250600690805190602001906200010f92919062000249565b506040518060400160405280600481526020017f5553445400000000000000000000000000000000000000000000000000000000815250600590805190602001906200015d92919062000249565b506012600460006101000a81548160ff021916908360ff1602179055506b033b2e3c9fd0803ce8000000600381905550600354600160003373ffffffffffffffffffffffffffffffffffffffff1673ffffffffffffffffffffffffffffffffffffffff168152602001908152602001600020819055503373ffffffffffffffffffffffffffffffffffffffff16600073ffffffffffffffffffffffffffffffffffffffff167fddf252ad1be2c89b69c2b068fc378daa952ba7f163c4a11628f55a4df523b3ef6003546040518082815260200191505060405180910390a3620002f8565b600033905090565b828054600181600116156101000203166002900490600052602060002090601f016020900481019282601f106200028c57805160ff1916838001178555620002bd565b82800160010185558215620002bd579182015b82811115620002bc5782518255916020019190600101906200029f565b5b509050620002cc9190620002d0565b5090565b620002f591905b80821115620002f1576000816000905550600101620002d7565b5090565b90565b611e5380620003086000396000f3fe608060405234801561001057600080fd5b506004361061012c5760003560e01c8063893d20e8116100ad578063a9059cbb11610071578063a9059cbb146105d7578063b09f12661461063d578063d28d8852146106c0578063dd62ed3e14610743578063f2fde38b146107bb5761012c565b8063893d20e8146104145780638da5cb5b1461045e57806395d89b41146104a8578063a0712d681461052b578063a457c2d7146105715761012c565b806332424aa3116100f457806332424aa3146102e2578063395093511461030657806342966c681461036c57806370a08231146103b2578063715018a61461040a5761012c565b806306fdde0314610131578063095ea7b3146101b457806318160ddd1461021a57806323b872dd14610238578063313ce567146102be575b600080fd5b6101396107ff565b6040518080602001828103825283818151815260200191508051906020019080838360005b8381101561017957808201518184015260208101905061015e565b50505050905090810190601f1680156101a65780820380516001836020036101000a031916815260200191505b509250505060405180910390f35b610200600480360360408110156101ca57600080fd5b81019080803573ffffffffffffffffffffffffffffffffffffffff169060200190929190803590602001909291905050506108a1565b604051808215151515815260200191505060405180910390f35b6102226108bf565b6040518082815260200191505060405180910390f35b6102a46004803603606081101561024e57600080fd5b81019080803573ffffffffffffffffffffffffffffffffffffffff169060200190929190803573ffffffffffffffffffffffffffffffffffffffff169060200190929190803590602001909291905050506108c9565b604051808215151515815260200191505060405180910390f35b6102c66109a2565b604051808260ff1660ff16815260200191505060405180910390f35b6102ea6109b9565b604051808260ff1660ff16815260200191505060405180910390f35b6103526004803603604081101561031c57600080fd5b81019080803573ffffffffffffffffffffffffffffffffffffffff169060200190929190803590602001909291905050506109cc565b604051808215151515815260200191505060405180910390f35b6103986004803603602081101561038257600080fd5b8101908080359060200190929190505050610a7f565b604051808215151515815260200191505060405180910390f35b6103f4600480360360208110156103c857600080fd5b81019080803573ffffffffffffffffffffffffffffffffffffffff169060200190929190505050610a9b565b6040518082815260200191505060405180910390f35b610412610ae4565b005b61041c610c6c565b604051808273ffffffffffffffffffffffffffffffffffffffff1673ffffffffffffffffffffffffffffffffffffffff16815260200191505060405180910390f35b610466610c7b565b604051808273ffffffffffffffffffffffffffffffffffffffff1673ffffffffffffffffffffffffffffffffffffffff16815260200191505060405180910390f35b6104b0610ca4565b6040518080602001828103825283818151815260200191508051906020019080838360005b838110156104f05780820151818401526020810190506104d5565b50505050905090810190601f16801561051d5780820380516001836020036101000a031916815260200191505b509250505060405180910390f35b6105576004803603602081101561054157600080fd5b8101908080359060200190929190505050610d46565b604051808215151515815260200191505060405180910390f35b6105bd6004803603604081101561058757600080fd5b81019080803573ffffffffffffffffffffffffffffffffffffffff16906020019092919080359060200190929190505050610e2b565b604051808215151515815260200191505060405180910390f35b610623600480360360408110156105ed57600080fd5b81019080803573ffffffffffffffffffffffffffffffffffffffff16906020019092919080359060200190929190505050610ef8565b604051808215151515815260200191505060405180910390f35b610645610f16565b6040518080602001828103825283818151815260200191508051906020019080838360005b8381101561068557808201518184015260208101905061066a565b50505050905090810190601f1680156106b25780820380516001836020036101000a031916815260200191505b509250505060405180910390f35b6106c8610fb4565b6040518080602001828103825283818151815260200191508051906020019080838360005b838110156107085780820151818401526020810190506106ed565b50505050905090810190601f1680156107355780820380516001836020036101000a031916815260200191505b509250505060405180910390f35b6107a56004803603604081101561075957600080fd5b81019080803573ffffffffffffffffffffffffffffffffffffffff169060200190929190803573ffffffffffffffffffffffffffffffffffffffff169060200190929190505050611052565b6040518082815260200191505060405180910390f35b6107fd600480360360208110156107d157600080fd5b81019080803573ffffffffffffffffffffffffffffffffffffffff1690602001909291905050506110d9565b005b606060068054600181600116156101000203166002900480601f0160208091040260200160405190810160405280929190818152602001828054600181600116156101000203166002900480156108975780601f1061086c57610100808354040283529160200191610897565b820191906000526020600020905b81548152906001019060200180831161087a57829003601f168201915b5050505050905090565b60006108b56108ae6111ae565b84846111b6565b6001905092915050565b6000600354905090565b60006108d68484846113ad565b610997846108e26111ae565b61099285604051806060016040528060288152602001611d2460289139600260008b73ffffffffffffffffffffffffffffffffffffffff1673ffffffffffffffffffffffffffffffffffffffff16815260200190815260200160002060006109486111ae565b73ffffffffffffffffffffffffffffffffffffffff1673ffffffffffffffffffffffffffffffffffffffff168152602001908152602001600020546116679092919063ffffffff16565b6111b6565b600190509392505050565b6000600460009054906101000a900460ff16905090565b600460009054906101000a900460ff1681565b6000610a756109d96111ae565b84610a7085600260006109ea6111ae565b73ffffffffffffffffffffffffffffffffffffffff1673ffffffffffffffffffffffffffffffffffffffff16815260200190815260200160002060008973ffffffffffffffffffffffffffffffffffffffff1673ffffffffffffffffffffffffffffffffffffffff1681526020019081526020016000205461172790919063ffffffff16565b6111b6565b6001905092915050565b6000610a92610a8c6111ae565b836117af565b60019050919050565b6000600160008373ffffffffffffffffffffffffffffffffffffffff1673ffffffffffffffffffffffffffffffffffffffff168152602001908152602001600020549050919050565b610aec6111ae565b73ffffffffffffffffffffffffffffffffffffffff166000809054906101000a900473ffffffffffffffffffffffffffffffffffffffff1673ffffffffffffffffffffffffffffffffffffffff1614610bad576040517f08c379a00000000000000000000000000000000000000000000000000000000081526004018080602001828103825260208152602001807f4f776e61626c653a2063616c6c6572206973206e6f7420746865206f776e657281525060200191505060405180910390fd5b600073ffffffffffffffffffffffffffffffffffffffff166000809054906101000a900473ffffffffffffffffffffffffffffffffffffffff1673ffffffffffffffffffffffffffffffffffffffff167f8be0079c531659141344cd1fd0a4f28419497f9722a3daafe3b4186f6b6457e060405160405180910390a360008060006101000a81548173ffffffffffffffffffffffffffffffffffffffff021916908373ffffffffffffffffffffffffffffffffffffffff160217905550565b6000610c76610c7b565b905090565b60008060009054906101000a900473ffffffffffffffffffffffffffffffffffffffff16905090565b606060058054600181600116156101000203166002900480601f016020809104026020016040519081016040528092919081815260200182805460018160011615610100020316600290048015610d3c5780601f10610d1157610100808354040283529160200191610d3c565b820191906000526020600020905b815481529060010190602001808311610d1f57829003601f168201915b5050505050905090565b6000610d506111ae565b73ffffffffffffffffffffffffffffffffffffffff166000809054906101000a900473ffffffffffffffffffffffffffffffffffffffff1673ffffffffffffffffffffffffffffffffffffffff1614610e11576040517f08c379a00000000000000000000000000000000000000000000000000000000081526004018080602001828103825260208152602001807f4f776e61626c653a2063616c6c6572206973206e6f7420746865206f776e657281525060200191505060405180910390fd5b610e22610e1c6111ae565b83611969565b60019050919050565b6000610eee610e386111ae565b84610ee985604051806060016040528060258152602001611d956025913960026000610e626111ae565b73ffffffffffffffffffffffffffffffffffffffff1673ffffffffffffffffffffffffffffffffffffffff16815260200190815260200160002060008a73ffffffffffffffffffffffffffffffffffffffff1673ffffffffffffffffffffffffffffffffffffffff168152602001908152602001600020546116679092919063ffffffff16565b6111b6565b6001905092915050565b6000610f0c610f056111ae565b84846113ad565b6001905092915050565b60058054600181600116156101000203166002900480601f016020809104026020016040519081016040528092919081815260200182805460018160011615610100020316600290048015610fac5780601f10610f8157610100808354040283529160200191610fac565b820191906000526020600020905b815481529060010190602001808311610f8f57829003601f168201915b505050505081565b60068054600181600116156101000203166002900480601f01602080910402602001604051908101604052809291908181526020018280546001816001161561010002031660029004801561104a5780601f1061101f5761010080835404028352916020019161104a565b820191906000526020600020905b81548152906001019060200180831161102d57829003601f168201915b505050505081565b6000600260008473ffffffffffffffffffffffffffffffffffffffff1673ffffffffffffffffffffffffffffffffffffffff16815260200190815260200160002060008373ffffffffffffffffffffffffffffffffffffffff1673ffffffffffffffffffffffffffffffffffffffff16815260200190815260200160002054905092915050565b6110e16111ae565b73ffffffffffffffffffffffffffffffffffffffff166000809054906101000a900473ffffffffffffffffffffffffffffffffffffffff1673ffffffffffffffffffffffffffffffffffffffff16146111a2576040517f08c379a00000000000000000000000000000000000000000000000000000000081526004018080602001828103825260208152602001807f4f776e61626c653a2063616c6c6572206973206e6f7420746865206f776e657281525060200191505060405180910390fd5b6111ab81611b26565b50565b600033905090565b600073ffffffffffffffffffffffffffffffffffffffff168373ffffffffffffffffffffffffffffffffffffffff16141561123c576040517f08c379a0000000000000000000000000000000000000000000000000000000008152600401808060200182810382526024815260200180611cda6024913960400191505060405180910390fd5b600073ffffffffffffffffffffffffffffffffffffffff168273ffffffffffffffffffffffffffffffffffffffff1614156112c2576040517f08c379a0000000000000000000000000000000000000000000000000000000008152600401808060200182810382526022815260200180611dfd6022913960400191505060405180910390fd5b80600260008573ffffffffffffffffffffffffffffffffffffffff1673ffffffffffffffffffffffffffffffffffffffff16815260200190815260200160002060008473ffffffffffffffffffffffffffffffffffffffff1673ffffffffffffffffffffffffffffffffffffffff168152602001908152602001600020819055508173ffffffffffffffffffffffffffffffffffffffff168373ffffffffffffffffffffffffffffffffffffffff167f8c5be1e5ebec7d5bd14f71427d1e84f3dd0314c0f7b2291e5b200ac8c7c3b925836040518082815260200191505060405180910390a3505050565b600073ffffffffffffffffffffffffffffffffffffffff168373ffffffffffffffffffffffffffffffffffffffff161415611433576040517f08c379a0000000000000000000000000000000000000000000000000000000008152600401808060200182810382526025815260200180611cb56025913960400191505060405180910390fd5b600073ffffffffffffffffffffffffffffffffffffffff168273ffffffffffffffffffffffffffffffffffffffff1614156114b9576040517f08c379a0000000000000000000000000000000000000000000000000000000008152600401808060200182810382526023815260200180611d726023913960400191505060405180910390fd5b61152581604051806060016040528060268152602001611d4c60269139600160008773ffffffffffffffffffffffffffffffffffffffff1673ffffffffffffffffffffffffffffffffffffffff168152602001908152602001600020546116679092919063ffffffff16565b600160008573ffffffffffffffffffffffffffffffffffffffff1673ffffffffffffffffffffffffffffffffffffffff168152602001908152602001600020819055506115ba81600160008573ffffffffffffffffffffffffffffffffffffffff1673ffffffffffffffffffffffffffffffffffffffff1681526020019081526020016000205461172790919063ffffffff16565b600160008473ffffffffffffffffffffffffffffffffffffffff1673ffffffffffffffffffffffffffffffffffffffff168152602001908152602001600020819055508173ffffffffffffffffffffffffffffffffffffffff168373ffffffffffffffffffffffffffffffffffffffff167fddf252ad1be2c89b69c2b068fc378daa952ba7f163c4a11628f55a4df523b3ef836040518082815260200191505060405180910390a3505050565b6000838311158290611714576040517f08c379a00000000000000000000000000000000000000000000000000000000081526004018080602001828103825283818151815260200191508051906020019080838360005b838110156116d95780820151818401526020810190506116be565b50505050905090810190601f1680156117065780820380516001836020036101000a031916815260200191505b509250505060405180910390fd5b5060008385039050809150509392505050565b6000808284019050838110156117a5576040517f08c379a000000000000000000000000000000000000000000000000000000000815260040180806020018281038252601b8152602001807f536166654d6174683a206164646974696f6e206f766572666c6f77000000000081525060200191505060405180910390fd5b8091505092915050565b600073ffffffffffffffffffffffffffffffffffffffff168273ffffffffffffffffffffffffffffffffffffffff161415611835576040517f08c379a0000000000000000000000000000000000000000000000000000000008152600401808060200182810382526021815260200180611dba6021913960400191505060405180910390fd5b6118a181604051806060016040528060228152602001611ddb60229139600160008673ffffffffffffffffffffffffffffffffffffffff1673ffffffffffffffffffffffffffffffffffffffff168152602001908152602001600020546116679092919063ffffffff16565b600160008473ffffffffffffffffffffffffffffffffffffffff1673ffffffffffffffffffffffffffffffffffffffff168152602001908152602001600020819055506118f981600354611c6a90919063ffffffff16565b600381905550600073ffffffffffffffffffffffffffffffffffffffff168273ffffffffffffffffffffffffffffffffffffffff167fddf252ad1be2c89b69c2b068fc378daa952ba7f163c4a11628f55a4df523b3ef836040518082815260200191505060405180910390a35050565b600073ffffffffffffffffffffffffffffffffffffffff168273ffffffffffffffffffffffffffffffffffffffff161415611a0c576040517f08c379a000000000000000000000000000000000000000000000000000000000815260040180806020018281038252601f8152602001807f42455032303a206d696e7420746f20746865207a65726f20616464726573730081525060200191505060405180910390fd5b611a218160035461172790919063ffffffff16565b600381905550611a7981600160008573ffffffffffffffffffffffffffffffffffffffff1673ffffffffffffffffffffffffffffffffffffffff1681526020019081526020016000205461172790919063ffffffff16565b600160008473ffffffffffffffffffffffffffffffffffffffff1673ffffffffffffffffffffffffffffffffffffffff168152602001908152602001600020819055508173ffffffffffffffffffffffffffffffffffffffff16600073ffffffffffffffffffffffffffffffffffffffff167fddf252ad1be2c89b69c2b068fc378daa952ba7f163c4a11628f55a4df523b3ef836040518082815260200191505060405180910390a35050565b600073ffffffffffffffffffffffffffffffffffffffff168173ffffffffffffffffffffffffffffffffffffffff161415611bac576040517f08c379a0000000000000000000000000000000000000000000000000000000008152600401808060200182810382526026815260200180611cfe6026913960400191505060405180910390fd5b8073ffffffffffffffffffffffffffffffffffffffff166000809054906101000a900473ffffffffffffffffffffffffffffffffffffffff1673ffffffffffffffffffffffffffffffffffffffff167f8be0079c531659141344cd1fd0a4f28419497f9722a3daafe3b4186f6b6457e060405160405180910390a3806000806101000a81548173ffffffffffffffffffffffffffffffffffffffff021916908373ffffffffffffffffffffffffffffffffffffffff16021790555050565b6000611cac83836040518060400160405280601e81526020017f536166654d6174683a207375627472616374696f6e206f766572666c6f770000815250611667565b90509291505056fe42455032303a207472616e736665722066726f6d20746865207a65726f206164647265737342455032303a20617070726f76652066726f6d20746865207a65726f20616464726573734f776e61626c653a206e6577206f776e657220697320746865207a65726f206164647265737342455032303a207472616e7366657220616d6f756e74206578636565647320616c6c6f77616e636542455032303a207472616e7366657220616d6f756e7420657863656564732062616c616e636542455032303a207472616e7366657220746f20746865207a65726f206164647265737342455032303a2064656372656173656420616c6c6f77616e63652062656c6f77207a65726f42455032303a206275726e2066726f6d20746865207a65726f206164647265737342455032303a206275726e20616d6f756e7420657863656564732062616c616e636542455032303a20617070726f766520746f20746865207a65726f2061646472657373a265627a7a723158204126904aa5b7d39738bd88c2f071ba1b806c37be33bb535cd3cc93ac9977734164736f6c63430005100032', \n     arguments: [\n     ]\n}).send({\n     from: web3.eth.accounts[0], \n     gas: '4700000'\n   }, function (e, contract){\n    console.log(e, contract);\n    if (typeof contract.address !== 'undefined') {\n         console.log('Contract mined! address: ' + contract.address + ' transactionHash: ' + contract.transactionHash);\n    }\n })",
	"functionHashes": {
		"39509351": "increaseAllowance(address,uint256)",
		"32424aa3": "_decimals()",
		"d28d8852": "_name()",
		"b09f1266": "_symbol()",
		"dd62ed3e": "allowance(address,address)",
		"095ea7b3": "approve(address,uint256)",
		"70a08231": "balanceOf(address)",
		"42966c68": "burn(uint256)",
		"313ce567": "decimals()",
		"a457c2d7": "decreaseAllowance(address,uint256)",
		"893d20e8": "getOwner()",
		"a0712d68": "mint(uint256)",
		"06fdde03": "name()",
		"8da5cb5b": "owner()",
		"715018a6": "renounceOwnership()",
		"95d89b41": "symbol()",
		"18160ddd": "totalSupply()",
		"a9059cbb": "transfer(address,uint256)",
		"23b872dd": "transferFrom(address,address,uint256)",
		"f2fde38b": "transferOwnership(address)"
	},
	"gasEstimates": {
		"Creation": {
			"codeDepositCost": "1552600",
			"executionCost": "infinite",
			"totalCost": "infinite"
		},
		"External": {
			"_decimals()": "1076",
			"_name()": "infinite",
			"_symbol()": "infinite",
			"allowance(address,address)": "1409",
			"approve(address,uint256)": "infinite",
			"balanceOf(address)": "1285",
			"burn(uint256)": "infinite",
			"decimals()": "1173",
			"decreaseAllowance(address,uint256)": "infinite",
			"getOwner()": "1119",
			"increaseAllowance(address,uint256)": "infinite",
			"mint(uint256)": "infinite",
			"name()": "infinite",
			"owner()": "1106",
			"renounceOwnership()": "24408",
			"symbol()": "infinite",
			"totalSupply()": "1081",
			"transfer(address,uint256)": "infinite",
			"transferFrom(address,address,uint256)": "infinite",
			"transferOwnership(address)": "infinite"
		},
		"Internal": {
			"_approve(address,address,uint256)": "infinite",
			"_burn(address,uint256)": "infinite",
			"_burnFrom(address,uint256)": "infinite",
			"_mint(address,uint256)": "infinite",
			"_transfer(address,address,uint256)": "infinite"
		}
	},
	"devdoc": {
		"methods": {
			"allowance(address,address)": {
				"details": "See {BEP20-allowance}."
			},
			"approve(address,uint256)": {
				"details": "See {BEP20-approve}.    * Requirements:    * - `spender` cannot be the zero address."
			},
			"balanceOf(address)": {
				"details": "See {BEP20-balanceOf}."
			},
			"burn(uint256)": {
				"details": "Burn `amount` tokens and decreasing the total supply."
			},
			"decimals()": {
				"details": "Returns the token decimals."
			},
			"decreaseAllowance(address,uint256)": {
				"details": "Atomically decreases the allowance granted to `spender` by the caller.    * This is an alternative to {approve} that can be used as a mitigation for problems described in {BEP20-approve}.    * Emits an {Approval} event indicating the updated allowance.    * Requirements:    * - `spender` cannot be the zero address. - `spender` must have allowance for the caller of at least `subtractedValue`."
			},
			"getOwner()": {
				"details": "Returns the bep token owner."
			},
			"increaseAllowance(address,uint256)": {
				"details": "Atomically increases the allowance granted to `spender` by the caller.    * This is an alternative to {approve} that can be used as a mitigation for problems described in {BEP20-approve}.    * Emits an {Approval} event indicating the updated allowance.    * Requirements:    * - `spender` cannot be the zero address."
			},
			"mint(uint256)": {
				"details": "Creates `amount` tokens and assigns them to `msg.sender`, increasing the total supply.    * Requirements    * - `msg.sender` must be the token owner"
			},
			"name()": {
				"details": "Returns the token name."
			},
			"owner()": {
				"details": "Returns the address of the current owner."
			},
			"renounceOwnership()": {
				"details": "Leaves the contract without owner. It will not be possible to call `onlyOwner` functions anymore. Can only be called by the current owner.    * NOTE: Renouncing ownership will leave the contract without an owner, thereby removing any functionality that is only available to the owner."
			},
			"symbol()": {
				"details": "Returns the token symbol."
			},
			"totalSupply()": {
				"details": "See {BEP20-totalSupply}."
			},
			"transfer(address,uint256)": {
				"details": "See {BEP20-transfer}.    * Requirements:    * - `recipient` cannot be the zero address. - the caller must have a balance of at least `amount`."
			},
			"transferFrom(address,address,uint256)": {
				"details": "See {BEP20-transferFrom}.    * Emits an {Approval} event indicating the updated allowance. This is not required by the EIP. See the note at the beginning of {BEP20};    * Requirements: - `sender` and `recipient` cannot be the zero address. - `sender` must have a balance of at least `amount`. - the caller must have allowance for `sender`'s tokens of at least `amount`."
			},
			"transferOwnership(address)": {
				"details": "Transfers ownership of the contract to a new account (`newOwner`). Can only be called by the current owner."
			}
		}
	},
	"userdoc": {
		"methods": {}
	},
	"Runtime Bytecode": {
		"linkReferences": {},
		"object": "608060405234801561001057600080fd5b506004361061012c5760003560e01c8063893d20e8116100ad578063a9059cbb11610071578063a9059cbb146105d7578063b09f12661461063d578063d28d8852146106c0578063dd62ed3e14610743578063f2fde38b146107bb5761012c565b8063893d20e8146104145780638da5cb5b1461045e57806395d89b41146104a8578063a0712d681461052b578063a457c2d7146105715761012c565b806332424aa3116100f457806332424aa3146102e2578063395093511461030657806342966c681461036c57806370a08231146103b2578063715018a61461040a5761012c565b806306fdde0314610131578063095ea7b3146101b457806318160ddd1461021a57806323b872dd14610238578063313ce567146102be575b600080fd5b6101396107ff565b6040518080602001828103825283818151815260200191508051906020019080838360005b8381101561017957808201518184015260208101905061015e565b50505050905090810190601f1680156101a65780820380516001836020036101000a031916815260200191505b509250505060405180910390f35b610200600480360360408110156101ca57600080fd5b81019080803573ffffffffffffffffffffffffffffffffffffffff169060200190929190803590602001909291905050506108a1565b604051808215151515815260200191505060405180910390f35b6102226108bf565b6040518082815260200191505060405180910390f35b6102a46004803603606081101561024e57600080fd5b81019080803573ffffffffffffffffffffffffffffffffffffffff169060200190929190803573ffffffffffffffffffffffffffffffffffffffff169060200190929190803590602001909291905050506108c9565b604051808215151515815260200191505060405180910390f35b6102c66109a2565b604051808260ff1660ff16815260200191505060405180910390f35b6102ea6109b9565b604051808260ff1660ff16815260200191505060405180910390f35b6103526004803603604081101561031c57600080fd5b81019080803573ffffffffffffffffffffffffffffffffffffffff169060200190929190803590602001909291905050506109cc565b604051808215151515815260200191505060405180910390f35b6103986004803603602081101561038257600080fd5b8101908080359060200190929190505050610a7f565b604051808215151515815260200191505060405180910390f35b6103f4600480360360208110156103c857600080fd5b81019080803573ffffffffffffffffffffffffffffffffffffffff169060200190929190505050610a9b565b6040518082815260200191505060405180910390f35b610412610ae4565b005b61041c610c6c565b604051808273ffffffffffffffffffffffffffffffffffffffff1673ffffffffffffffffffffffffffffffffffffffff16815260200191505060405180910390f35b610466610c7b565b604051808273ffffffffffffffffffffffffffffffffffffffff1673ffffffffffffffffffffffffffffffffffffffff16815260200191505060405180910390f35b6104b0610ca4565b6040518080602001828103825283818151815260200191508051906020019080838360005b838110156104f05780820151818401526020810190506104d5565b50505050905090810190601f16801561051d5780820380516001836020036101000a031916815260200191505b509250505060405180910390f35b6105576004803603602081101561054157600080fd5b8101908080359060200190929190505050610d46565b604051808215151515815260200191505060405180910390f35b6105bd6004803603604081101561058757600080fd5b81019080803573ffffffffffffffffffffffffffffffffffffffff16906020019092919080359060200190929190505050610e2b565b604051808215151515815260200191505060405180910390f35b610623600480360360408110156105ed57600080fd5b81019080803573ffffffffffffffffffffffffffffffffffffffff16906020019092919080359060200190929190505050610ef8565b604051808215151515815260200191505060405180910390f35b610645610f16565b6040518080602001828103825283818151815260200191508051906020019080838360005b8381101561068557808201518184015260208101905061066a565b50505050905090810190601f1680156106b25780820380516001836020036101000a031916815260200191505b509250505060405180910390f35b6106c8610fb4565b6040518080602001828103825283818151815260200191508051906020019080838360005b838110156107085780820151818401526020810190506106ed565b50505050905090810190601f1680156107355780820380516001836020036101000a031916815260200191505b509250505060405180910390f35b6107a56004803603604081101561075957600080fd5b81019080803573ffffffffffffffffffffffffffffffffffffffff169060200190929190803573ffffffffffffffffffffffffffffffffffffffff169060200190929190505050611052565b6040518082815260200191505060405180910390f35b6107fd600480360360208110156107d157600080fd5b81019080803573ffffffffffffffffffffffffffffffffffffffff1690602001909291905050506110d9565b005b606060068054600181600116156101000203166002900480601f0160208091040260200160405190810160405280929190818152602001828054600181600116156101000203166002900480156108975780601f1061086c57610100808354040283529160200191610897565b820191906000526020600020905b81548152906001019060200180831161087a57829003601f168201915b5050505050905090565b60006108b56108ae6111ae565b84846111b6565b6001905092915050565b6000600354905090565b60006108d68484846113ad565b610997846108e26111ae565b61099285604051806060016040528060288152602001611d2460289139600260008b73ffffffffffffffffffffffffffffffffffffffff1673ffffffffffffffffffffffffffffffffffffffff16815260200190815260200160002060006109486111ae565b73ffffffffffffffffffffffffffffffffffffffff1673ffffffffffffffffffffffffffffffffffffffff168152602001908152602001600020546116679092919063ffffffff16565b6111b6565b600190509392505050565b6000600460009054906101000a900460ff16905090565b600460009054906101000a900460ff1681565b6000610a756109d96111ae565b84610a7085600260006109ea6111ae565b73ffffffffffffffffffffffffffffffffffffffff1673ffffffffffffffffffffffffffffffffffffffff16815260200190815260200160002060008973ffffffffffffffffffffffffffffffffffffffff1673ffffffffffffffffffffffffffffffffffffffff1681526020019081526020016000205461172790919063ffffffff16565b6111b6565b6001905092915050565b6000610a92610a8c6111ae565b836117af565b60019050919050565b6000600160008373ffffffffffffffffffffffffffffffffffffffff1673ffffffffffffffffffffffffffffffffffffffff168152602001908152602001600020549050919050565b610aec6111ae565b73ffffffffffffffffffffffffffffffffffffffff166000809054906101000a900473ffffffffffffffffffffffffffffffffffffffff1673ffffffffffffffffffffffffffffffffffffffff1614610bad576040517f08c379a00000000000000000000000000000000000000000000000000000000081526004018080602001828103825260208152602001807f4f776e61626c653a2063616c6c6572206973206e6f7420746865206f776e657281525060200191505060405180910390fd5b600073ffffffffffffffffffffffffffffffffffffffff166000809054906101000a900473ffffffffffffffffffffffffffffffffffffffff1673ffffffffffffffffffffffffffffffffffffffff167f8be0079c531659141344cd1fd0a4f28419497f9722a3daafe3b4186f6b6457e060405160405180910390a360008060006101000a81548173ffffffffffffffffffffffffffffffffffffffff021916908373ffffffffffffffffffffffffffffffffffffffff160217905550565b6000610c76610c7b565b905090565b60008060009054906101000a900473ffffffffffffffffffffffffffffffffffffffff16905090565b606060058054600181600116156101000203166002900480601f016020809104026020016040519081016040528092919081815260200182805460018160011615610100020316600290048015610d3c5780601f10610d1157610100808354040283529160200191610d3c565b820191906000526020600020905b815481529060010190602001808311610d1f57829003601f168201915b5050505050905090565b6000610d506111ae565b73ffffffffffffffffffffffffffffffffffffffff166000809054906101000a900473ffffffffffffffffffffffffffffffffffffffff1673ffffffffffffffffffffffffffffffffffffffff1614610e11576040517f08c379a00000000000000000000000000000000000000000000000000000000081526004018080602001828103825260208152602001807f4f776e61626c653a2063616c6c6572206973206e6f7420746865206f776e657281525060200191505060405180910390fd5b610e22610e1c6111ae565b83611969565b60019050919050565b6000610eee610e386111ae565b84610ee985604051806060016040528060258152602001611d956025913960026000610e626111ae565b73ffffffffffffffffffffffffffffffffffffffff1673ffffffffffffffffffffffffffffffffffffffff16815260200190815260200160002060008a73ffffffffffffffffffffffffffffffffffffffff1673ffffffffffffffffffffffffffffffffffffffff168152602001908152602001600020546116679092919063ffffffff16565b6111b6565b6001905092915050565b6000610f0c610f056111ae565b84846113ad565b6001905092915050565b60058054600181600116156101000203166002900480601f016020809104026020016040519081016040528092919081815260200182805460018160011615610100020316600290048015610fac5780601f10610f8157610100808354040283529160200191610fac565b820191906000526020600020905b815481529060010190602001808311610f8f57829003601f168201915b505050505081565b60068054600181600116156101000203166002900480601f01602080910402602001604051908101604052809291908181526020018280546001816001161561010002031660029004801561104a5780601f1061101f5761010080835404028352916020019161104a565b820191906000526020600020905b81548152906001019060200180831161102d57829003601f168201915b505050505081565b6000600260008473ffffffffffffffffffffffffffffffffffffffff1673ffffffffffffffffffffffffffffffffffffffff16815260200190815260200160002060008373ffffffffffffffffffffffffffffffffffffffff1673ffffffffffffffffffffffffffffffffffffffff16815260200190815260200160002054905092915050565b6110e16111ae565b73ffffffffffffffffffffffffffffffffffffffff166000809054906101000a900473ffffffffffffffffffffffffffffffffffffffff1673ffffffffffffffffffffffffffffffffffffffff16146111a2576040517f08c379a00000000000000000000000000000000000000000000000000000000081526004018080602001828103825260208152602001807f4f776e61626c653a2063616c6c6572206973206e6f7420746865206f776e657281525060200191505060405180910390fd5b6111ab81611b26565b50565b600033905090565b600073ffffffffffffffffffffffffffffffffffffffff168373ffffffffffffffffffffffffffffffffffffffff16141561123c576040517f08c379a0000000000000000000000000000000000000000000000000000000008152600401808060200182810382526024815260200180611cda6024913960400191505060405180910390fd5b600073ffffffffffffffffffffffffffffffffffffffff168273ffffffffffffffffffffffffffffffffffffffff1614156112c2576040517f08c379a0000000000000000000000000000000000000000000000000000000008152600401808060200182810382526022815260200180611dfd6022913960400191505060405180910390fd5b80600260008573ffffffffffffffffffffffffffffffffffffffff1673ffffffffffffffffffffffffffffffffffffffff16815260200190815260200160002060008473ffffffffffffffffffffffffffffffffffffffff1673ffffffffffffffffffffffffffffffffffffffff168152602001908152602001600020819055508173ffffffffffffffffffffffffffffffffffffffff168373ffffffffffffffffffffffffffffffffffffffff167f8c5be1e5ebec7d5bd14f71427d1e84f3dd0314c0f7b2291e5b200ac8c7c3b925836040518082815260200191505060405180910390a3505050565b600073ffffffffffffffffffffffffffffffffffffffff168373ffffffffffffffffffffffffffffffffffffffff161415611433576040517f08c379a0000000000000000000000000000000000000000000000000000000008152600401808060200182810382526025815260200180611cb56025913960400191505060405180910390fd5b600073ffffffffffffffffffffffffffffffffffffffff168273ffffffffffffffffffffffffffffffffffffffff1614156114b9576040517f08c379a0000000000000000000000000000000000000000000000000000000008152600401808060200182810382526023815260200180611d726023913960400191505060405180910390fd5b61152581604051806060016040528060268152602001611d4c60269139600160008773ffffffffffffffffffffffffffffffffffffffff1673ffffffffffffffffffffffffffffffffffffffff168152602001908152602001600020546116679092919063ffffffff16565b600160008573ffffffffffffffffffffffffffffffffffffffff1673ffffffffffffffffffffffffffffffffffffffff168152602001908152602001600020819055506115ba81600160008573ffffffffffffffffffffffffffffffffffffffff1673ffffffffffffffffffffffffffffffffffffffff1681526020019081526020016000205461172790919063ffffffff16565b600160008473ffffffffffffffffffffffffffffffffffffffff1673ffffffffffffffffffffffffffffffffffffffff168152602001908152602001600020819055508173ffffffffffffffffffffffffffffffffffffffff168373ffffffffffffffffffffffffffffffffffffffff167fddf252ad1be2c89b69c2b068fc378daa952ba7f163c4a11628f55a4df523b3ef836040518082815260200191505060405180910390a3505050565b6000838311158290611714576040517f08c379a00000000000000000000000000000000000000000000000000000000081526004018080602001828103825283818151815260200191508051906020019080838360005b838110156116d95780820151818401526020810190506116be565b50505050905090810190601f1680156117065780820380516001836020036101000a031916815260200191505b509250505060405180910390fd5b5060008385039050809150509392505050565b6000808284019050838110156117a5576040517f08c379a000000000000000000000000000000000000000000000000000000000815260040180806020018281038252601b8152602001807f536166654d6174683a206164646974696f6e206f766572666c6f77000000000081525060200191505060405180910390fd5b8091505092915050565b600073ffffffffffffffffffffffffffffffffffffffff168273ffffffffffffffffffffffffffffffffffffffff161415611835576040517f08c379a0000000000000000000000000000000000000000000000000000000008152600401808060200182810382526021815260200180611dba6021913960400191505060405180910390fd5b6118a181604051806060016040528060228152602001611ddb60229139600160008673ffffffffffffffffffffffffffffffffffffffff1673ffffffffffffffffffffffffffffffffffffffff168152602001908152602001600020546116679092919063ffffffff16565b600160008473ffffffffffffffffffffffffffffffffffffffff1673ffffffffffffffffffffffffffffffffffffffff168152602001908152602001600020819055506118f981600354611c6a90919063ffffffff16565b600381905550600073ffffffffffffffffffffffffffffffffffffffff168273ffffffffffffffffffffffffffffffffffffffff167fddf252ad1be2c89b69c2b068fc378daa952ba7f163c4a11628f55a4df523b3ef836040518082815260200191505060405180910390a35050565b600073ffffffffffffffffffffffffffffffffffffffff168273ffffffffffffffffffffffffffffffffffffffff161415611a0c576040517f08c379a000000000000000000000000000000000000000000000000000000000815260040180806020018281038252601f8152602001807f42455032303a206d696e7420746f20746865207a65726f20616464726573730081525060200191505060405180910390fd5b611a218160035461172790919063ffffffff16565b600381905550611a7981600160008573ffffffffffffffffffffffffffffffffffffffff1673ffffffffffffffffffffffffffffffffffffffff1681526020019081526020016000205461172790919063ffffffff16565b600160008473ffffffffffffffffffffffffffffffffffffffff1673ffffffffffffffffffffffffffffffffffffffff168152602001908152602001600020819055508173ffffffffffffffffffffffffffffffffffffffff16600073ffffffffffffffffffffffffffffffffffffffff167fddf252ad1be2c89b69c2b068fc378daa952ba7f163c4a11628f55a4df523b3ef836040518082815260200191505060405180910390a35050565b600073ffffffffffffffffffffffffffffffffffffffff168173ffffffffffffffffffffffffffffffffffffffff161415611bac576040517f08c379a0000000000000000000000000000000000000000000000000000000008152600401808060200182810382526026815260200180611cfe6026913960400191505060405180910390fd5b8073ffffffffffffffffffffffffffffffffffffffff166000809054906101000a900473ffffffffffffffffffffffffffffffffffffffff1673ffffffffffffffffffffffffffffffffffffffff167f8be0079c531659141344cd1fd0a4f28419497f9722a3daafe3b4186f6b6457e060405160405180910390a3806000806101000a81548173ffffffffffffffffffffffffffffffffffffffff021916908373ffffffffffffffffffffffffffffffffffffffff16021790555050565b6000611cac83836040518060400160405280601e81526020017f536166654d6174683a207375627472616374696f6e206f766572666c6f770000815250611667565b90509291505056fe42455032303a207472616e736665722066726f6d20746865207a65726f206164647265737342455032303a20617070726f76652066726f6d20746865207a65726f20616464726573734f776e61626c653a206e6577206f776e657220697320746865207a65726f206164647265737342455032303a207472616e7366657220616d6f756e74206578636565647320616c6c6f77616e636542455032303a207472616e7366657220616d6f756e7420657863656564732062616c616e636542455032303a207472616e7366657220746f20746865207a65726f206164647265737342455032303a2064656372656173656420616c6c6f77616e63652062656c6f77207a65726f42455032303a206275726e2066726f6d20746865207a65726f206164647265737342455032303a206275726e20616d6f756e7420657863656564732062616c616e636542455032303a20617070726f766520746f20746865207a65726f2061646472657373a265627a7a723158204126904aa5b7d39738bd88c2f071ba1b806c37be33bb535cd3cc93ac9977734164736f6c63430005100032",
		"opcodes": "PUSH1 0x80 PUSH1 0x40 MSTORE CALLVALUE DUP1 ISZERO PUSH2 0x10 JUMPI PUSH1 0x0 DUP1 REVERT JUMPDEST POP PUSH1 0x4 CALLDATASIZE LT PUSH2 0x12C JUMPI PUSH1 0x0 CALLDATALOAD PUSH1 0xE0 SHR DUP1 PUSH4 0x893D20E8 GT PUSH2 0xAD JUMPI DUP1 PUSH4 0xA9059CBB GT PUSH2 0x71 JUMPI DUP1 PUSH4 0xA9059CBB EQ PUSH2 0x5D7 JUMPI DUP1 PUSH4 0xB09F1266 EQ PUSH2 0x63D JUMPI DUP1 PUSH4 0xD28D8852 EQ PUSH2 0x6C0 JUMPI DUP1 PUSH4 0xDD62ED3E EQ PUSH2 0x743 JUMPI DUP1 PUSH4 0xF2FDE38B EQ PUSH2 0x7BB JUMPI PUSH2 0x12C JUMP JUMPDEST DUP1 PUSH4 0x893D20E8 EQ PUSH2 0x414 JUMPI DUP1 PUSH4 0x8DA5CB5B EQ PUSH2 0x45E JUMPI DUP1 PUSH4 0x95D89B41 EQ PUSH2 0x4A8 JUMPI DUP1 PUSH4 0xA0712D68 EQ PUSH2 0x52B JUMPI DUP1 PUSH4 0xA457C2D7 EQ PUSH2 0x571 JUMPI PUSH2 0x12C JUMP JUMPDEST DUP1 PUSH4 0x32424AA3 GT PUSH2 0xF4 JUMPI DUP1 PUSH4 0x32424AA3 EQ PUSH2 0x2E2 JUMPI DUP1 PUSH4 0x39509351 EQ PUSH2 0x306 JUMPI DUP1 PUSH4 0x42966C68 EQ PUSH2 0x36C JUMPI DUP1 PUSH4 0x70A08231 EQ PUSH2 0x3B2 JUMPI DUP1 PUSH4 0x715018A6 EQ PUSH2 0x40A JUMPI PUSH2 0x12C JUMP JUMPDEST DUP1 PUSH4 0x6FDDE03 EQ PUSH2 0x131 JUMPI DUP1 PUSH4 0x95EA7B3 EQ PUSH2 0x1B4 JUMPI DUP1 PUSH4 0x18160DDD EQ PUSH2 0x21A JUMPI DUP1 PUSH4 0x23B872DD EQ PUSH2 0x238 JUMPI DUP1 PUSH4 0x313CE567 EQ PUSH2 0x2BE JUMPI JUMPDEST PUSH1 0x0 DUP1 REVERT JUMPDEST PUSH2 0x139 PUSH2 0x7FF JUMP JUMPDEST PUSH1 0x40 MLOAD DUP1 DUP1 PUSH1 0x20 ADD DUP3 DUP2 SUB DUP3 MSTORE DUP4 DUP2 DUP2 MLOAD DUP2 MSTORE PUSH1 0x20 ADD SWAP2 POP DUP1 MLOAD SWAP1 PUSH1 0x20 ADD SWAP1 DUP1 DUP4 DUP4 PUSH1 0x0 JUMPDEST DUP4 DUP2 LT ISZERO PUSH2 0x179 JUMPI DUP1 DUP3 ADD MLOAD DUP2 DUP5 ADD MSTORE PUSH1 0x20 DUP2 ADD SWAP1 POP PUSH2 0x15E JUMP JUMPDEST POP POP POP POP SWAP1 POP SWAP1 DUP2 ADD SWAP1 PUSH1 0x1F AND DUP1 ISZERO PUSH2 0x1A6 JUMPI DUP1 DUP3 SUB DUP1 MLOAD PUSH1 0x1 DUP4 PUSH1 0x20 SUB PUSH2 0x100 EXP SUB NOT AND DUP2 MSTORE PUSH1 0x20 ADD SWAP2 POP JUMPDEST POP SWAP3 POP POP POP PUSH1 0x40 MLOAD DUP1 SWAP2 SUB SWAP1 RETURN JUMPDEST PUSH2 0x200 PUSH1 0x4 DUP1 CALLDATASIZE SUB PUSH1 0x40 DUP2 LT ISZERO PUSH2 0x1CA JUMPI PUSH1 0x0 DUP1 REVERT JUMPDEST DUP2 ADD SWAP1 DUP1 DUP1 CALLDATALOAD PUSH20 0xFFFFFFFFFFFFFFFFFFFFFFFFFFFFFFFFFFFFFFFF AND SWAP1 PUSH1 0x20 ADD SWAP1 SWAP3 SWAP2 SWAP1 DUP1 CALLDATALOAD SWAP1 PUSH1 0x20 ADD SWAP1 SWAP3 SWAP2 SWAP1 POP POP POP PUSH2 0x8A1 JUMP JUMPDEST PUSH1 0x40 MLOAD DUP1 DUP3 ISZERO ISZERO ISZERO ISZERO DUP2 MSTORE PUSH1 0x20 ADD SWAP2 POP POP PUSH1 0x40 MLOAD DUP1 SWAP2 SUB SWAP1 RETURN JUMPDEST PUSH2 0x222 PUSH2 0x8BF JUMP JUMPDEST PUSH1 0x40 MLOAD DUP1 DUP3 DUP2 MSTORE PUSH1 0x20 ADD SWAP2 POP POP PUSH1 0x40 MLOAD DUP1 SWAP2 SUB SWAP1 RETURN JUMPDEST PUSH2 0x2A4 PUSH1 0x4 DUP1 CALLDATASIZE SUB PUSH1 0x60 DUP2 LT ISZERO PUSH2 0x24E JUMPI PUSH1 0x0 DUP1 REVERT JUMPDEST DUP2 ADD SWAP1 DUP1 DUP1 CALLDATALOAD PUSH20 0xFFFFFFFFFFFFFFFFFFFFFFFFFFFFFFFFFFFFFFFF AND SWAP1 PUSH1 0x20 ADD SWAP1 SWAP3 SWAP2 SWAP1 DUP1 CALLDATALOAD PUSH20 0xFFFFFFFFFFFFFFFFFFFFFFFFFFFFFFFFFFFFFFFF AND SWAP1 PUSH1 0x20 ADD SWAP1 SWAP3 SWAP2 SWAP1 DUP1 CALLDATALOAD SWAP1 PUSH1 0x20 ADD SWAP1 SWAP3 SWAP2 SWAP1 POP POP POP PUSH2 0x8C9 JUMP JUMPDEST PUSH1 0x40 MLOAD DUP1 DUP3 ISZERO ISZERO ISZERO ISZERO DUP2 MSTORE PUSH1 0x20 ADD SWAP2 POP POP PUSH1 0x40 MLOAD DUP1 SWAP2 SUB SWAP1 RETURN JUMPDEST PUSH2 0x2C6 PUSH2 0x9A2 JUMP JUMPDEST PUSH1 0x40 MLOAD DUP1 DUP3 PUSH1 0xFF AND PUSH1 0xFF AND DUP2 MSTORE PUSH1 0x20 ADD SWAP2 POP POP PUSH1 0x40 MLOAD DUP1 SWAP2 SUB SWAP1 RETURN JUMPDEST PUSH2 0x2EA PUSH2 0x9B9 JUMP JUMPDEST PUSH1 0x40 MLOAD DUP1 DUP3 PUSH1 0xFF AND PUSH1 0xFF AND DUP2 MSTORE PUSH1 0x20 ADD SWAP2 POP POP PUSH1 0x40 MLOAD DUP1 SWAP2 SUB SWAP1 RETURN JUMPDEST PUSH2 0x352 PUSH1 0x4 DUP1 CALLDATASIZE SUB PUSH1 0x40 DUP2 LT ISZERO PUSH2 0x31C JUMPI PUSH1 0x0 DUP1 REVERT JUMPDEST DUP2 ADD SWAP1 DUP1 DUP1 CALLDATALOAD PUSH20 0xFFFFFFFFFFFFFFFFFFFFFFFFFFFFFFFFFFFFFFFF AND SWAP1 PUSH1 0x20 ADD SWAP1 SWAP3 SWAP2 SWAP1 DUP1 CALLDATALOAD SWAP1 PUSH1 0x20 ADD SWAP1 SWAP3 SWAP2 SWAP1 POP POP POP PUSH2 0x9CC JUMP JUMPDEST PUSH1 0x40 MLOAD DUP1 DUP3 ISZERO ISZERO ISZERO ISZERO DUP2 MSTORE PUSH1 0x20 ADD SWAP2 POP POP PUSH1 0x40 MLOAD DUP1 SWAP2 SUB SWAP1 RETURN JUMPDEST PUSH2 0x398 PUSH1 0x4 DUP1 CALLDATASIZE SUB PUSH1 0x20 DUP2 LT ISZERO PUSH2 0x382 JUMPI PUSH1 0x0 DUP1 REVERT JUMPDEST DUP2 ADD SWAP1 DUP1 DUP1 CALLDATALOAD SWAP1 PUSH1 0x20 ADD SWAP1 SWAP3 SWAP2 SWAP1 POP POP POP PUSH2 0xA7F JUMP JUMPDEST PUSH1 0x40 MLOAD DUP1 DUP3 ISZERO ISZERO ISZERO ISZERO DUP2 MSTORE PUSH1 0x20 ADD SWAP2 POP POP PUSH1 0x40 MLOAD DUP1 SWAP2 SUB SWAP1 RETURN JUMPDEST PUSH2 0x3F4 PUSH1 0x4 DUP1 CALLDATASIZE SUB PUSH1 0x20 DUP2 LT ISZERO PUSH2 0x3C8 JUMPI PUSH1 0x0 DUP1 REVERT JUMPDEST DUP2 ADD SWAP1 DUP1 DUP1 CALLDATALOAD PUSH20 0xFFFFFFFFFFFFFFFFFFFFFFFFFFFFFFFFFFFFFFFF AND SWAP1 PUSH1 0x20 ADD SWAP1 SWAP3 SWAP2 SWAP1 POP POP POP PUSH2 0xA9B JUMP JUMPDEST PUSH1 0x40 MLOAD DUP1 DUP3 DUP2 MSTORE PUSH1 0x20 ADD SWAP2 POP POP PUSH1 0x40 MLOAD DUP1 SWAP2 SUB SWAP1 RETURN JUMPDEST PUSH2 0x412 PUSH2 0xAE4 JUMP JUMPDEST STOP JUMPDEST PUSH2 0x41C PUSH2 0xC6C JUMP JUMPDEST PUSH1 0x40 MLOAD DUP1 DUP3 PUSH20 0xFFFFFFFFFFFFFFFFFFFFFFFFFFFFFFFFFFFFFFFF AND PUSH20 0xFFFFFFFFFFFFFFFFFFFFFFFFFFFFFFFFFFFFFFFF AND DUP2 MSTORE PUSH1 0x20 ADD SWAP2 POP POP PUSH1 0x40 MLOAD DUP1 SWAP2 SUB SWAP1 RETURN JUMPDEST PUSH2 0x466 PUSH2 0xC7B JUMP JUMPDEST PUSH1 0x40 MLOAD DUP1 DUP3 PUSH20 0xFFFFFFFFFFFFFFFFFFFFFFFFFFFFFFFFFFFFFFFF AND PUSH20 0xFFFFFFFFFFFFFFFFFFFFFFFFFFFFFFFFFFFFFFFF AND DUP2 MSTORE PUSH1 0x20 ADD SWAP2 POP POP PUSH1 0x40 MLOAD DUP1 SWAP2 SUB SWAP1 RETURN JUMPDEST PUSH2 0x4B0 PUSH2 0xCA4 JUMP JUMPDEST PUSH1 0x40 MLOAD DUP1 DUP1 PUSH1 0x20 ADD DUP3 DUP2 SUB DUP3 MSTORE DUP4 DUP2 DUP2 MLOAD DUP2 MSTORE PUSH1 0x20 ADD SWAP2 POP DUP1 MLOAD SWAP1 PUSH1 0x20 ADD SWAP1 DUP1 DUP4 DUP4 PUSH1 0x0 JUMPDEST DUP4 DUP2 LT ISZERO PUSH2 0x4F0 JUMPI DUP1 DUP3 ADD MLOAD DUP2 DUP5 ADD MSTORE PUSH1 0x20 DUP2 ADD SWAP1 POP PUSH2 0x4D5 JUMP JUMPDEST POP POP POP POP SWAP1 POP SWAP1 DUP2 ADD SWAP1 PUSH1 0x1F AND DUP1 ISZERO PUSH2 0x51D JUMPI DUP1 DUP3 SUB DUP1 MLOAD PUSH1 0x1 DUP4 PUSH1 0x20 SUB PUSH2 0x100 EXP SUB NOT AND DUP2 MSTORE PUSH1 0x20 ADD SWAP2 POP JUMPDEST POP SWAP3 POP POP POP PUSH1 0x40 MLOAD DUP1 SWAP2 SUB SWAP1 RETURN JUMPDEST PUSH2 0x557 PUSH1 0x4 DUP1 CALLDATASIZE SUB PUSH1 0x20 DUP2 LT ISZERO PUSH2 0x541 JUMPI PUSH1 0x0 DUP1 REVERT JUMPDEST DUP2 ADD SWAP1 DUP1 DUP1 CALLDATALOAD SWAP1 PUSH1 0x20 ADD SWAP1 SWAP3 SWAP2 SWAP1 POP POP POP PUSH2 0xD46 JUMP JUMPDEST PUSH1 0x40 MLOAD DUP1 DUP3 ISZERO ISZERO ISZERO ISZERO DUP2 MSTORE PUSH1 0x20 ADD SWAP2 POP POP PUSH1 0x40 MLOAD DUP1 SWAP2 SUB SWAP1 RETURN JUMPDEST PUSH2 0x5BD PUSH1 0x4 DUP1 CALLDATASIZE SUB PUSH1 0x40 DUP2 LT ISZERO PUSH2 0x587 JUMPI PUSH1 0x0 DUP1 REVERT JUMPDEST DUP2 ADD SWAP1 DUP1 DUP1 CALLDATALOAD PUSH20 0xFFFFFFFFFFFFFFFFFFFFFFFFFFFFFFFFFFFFFFFF AND SWAP1 PUSH1 0x20 ADD SWAP1 SWAP3 SWAP2 SWAP1 DUP1 CALLDATALOAD SWAP1 PUSH1 0x20 ADD SWAP1 SWAP3 SWAP2 SWAP1 POP POP POP PUSH2 0xE2B JUMP JUMPDEST PUSH1 0x40 MLOAD DUP1 DUP3 ISZERO ISZERO ISZERO ISZERO DUP2 MSTORE PUSH1 0x20 ADD SWAP2 POP POP PUSH1 0x40 MLOAD DUP1 SWAP2 SUB SWAP1 RETURN JUMPDEST PUSH2 0x623 PUSH1 0x4 DUP1 CALLDATASIZE SUB PUSH1 0x40 DUP2 LT ISZERO PUSH2 0x5ED JUMPI PUSH1 0x0 DUP1 REVERT JUMPDEST DUP2 ADD SWAP1 DUP1 DUP1 CALLDATALOAD PUSH20 0xFFFFFFFFFFFFFFFFFFFFFFFFFFFFFFFFFFFFFFFF AND SWAP1 PUSH1 0x20 ADD SWAP1 SWAP3 SWAP2 SWAP1 DUP1 CALLDATALOAD SWAP1 PUSH1 0x20 ADD SWAP1 SWAP3 SWAP2 SWAP1 POP POP POP PUSH2 0xEF8 JUMP JUMPDEST PUSH1 0x40 MLOAD DUP1 DUP3 ISZERO ISZERO ISZERO ISZERO DUP2 MSTORE PUSH1 0x20 ADD SWAP2 POP POP PUSH1 0x40 MLOAD DUP1 SWAP2 SUB SWAP1 RETURN JUMPDEST PUSH2 0x645 PUSH2 0xF16 JUMP JUMPDEST PUSH1 0x40 MLOAD DUP1 DUP1 PUSH1 0x20 ADD DUP3 DUP2 SUB DUP3 MSTORE DUP4 DUP2 DUP2 MLOAD DUP2 MSTORE PUSH1 0x20 ADD SWAP2 POP DUP1 MLOAD SWAP1 PUSH1 0x20 ADD SWAP1 DUP1 DUP4 DUP4 PUSH1 0x0 JUMPDEST DUP4 DUP2 LT ISZERO PUSH2 0x685 JUMPI DUP1 DUP3 ADD MLOAD DUP2 DUP5 ADD MSTORE PUSH1 0x20 DUP2 ADD SWAP1 POP PUSH2 0x66A JUMP JUMPDEST POP POP POP POP SWAP1 POP SWAP1 DUP2 ADD SWAP1 PUSH1 0x1F AND DUP1 ISZERO PUSH2 0x6B2 JUMPI DUP1 DUP3 SUB DUP1 MLOAD PUSH1 0x1 DUP4 PUSH1 0x20 SUB PUSH2 0x100 EXP SUB NOT AND DUP2 MSTORE PUSH1 0x20 ADD SWAP2 POP JUMPDEST POP SWAP3 POP POP POP PUSH1 0x40 MLOAD DUP1 SWAP2 SUB SWAP1 RETURN JUMPDEST PUSH2 0x6C8 PUSH2 0xFB4 JUMP JUMPDEST PUSH1 0x40 MLOAD DUP1 DUP1 PUSH1 0x20 ADD DUP3 DUP2 SUB DUP3 MSTORE DUP4 DUP2 DUP2 MLOAD DUP2 MSTORE PUSH1 0x20 ADD SWAP2 POP DUP1 MLOAD SWAP1 PUSH1 0x20 ADD SWAP1 DUP1 DUP4 DUP4 PUSH1 0x0 JUMPDEST DUP4 DUP2 LT ISZERO PUSH2 0x708 JUMPI DUP1 DUP3 ADD MLOAD DUP2 DUP5 ADD MSTORE PUSH1 0x20 DUP2 ADD SWAP1 POP PUSH2 0x6ED JUMP JUMPDEST POP POP POP POP SWAP1 POP SWAP1 DUP2 ADD SWAP1 PUSH1 0x1F AND DUP1 ISZERO PUSH2 0x735 JUMPI DUP1 DUP3 SUB DUP1 MLOAD PUSH1 0x1 DUP4 PUSH1 0x20 SUB PUSH2 0x100 EXP SUB NOT AND DUP2 MSTORE PUSH1 0x20 ADD SWAP2 POP JUMPDEST POP SWAP3 POP POP POP PUSH1 0x40 MLOAD DUP1 SWAP2 SUB SWAP1 RETURN JUMPDEST PUSH2 0x7A5 PUSH1 0x4 DUP1 CALLDATASIZE SUB PUSH1 0x40 DUP2 LT ISZERO PUSH2 0x759 JUMPI PUSH1 0x0 DUP1 REVERT JUMPDEST DUP2 ADD SWAP1 DUP1 DUP1 CALLDATALOAD PUSH20 0xFFFFFFFFFFFFFFFFFFFFFFFFFFFFFFFFFFFFFFFF AND SWAP1 PUSH1 0x20 ADD SWAP1 SWAP3 SWAP2 SWAP1 DUP1 CALLDATALOAD PUSH20 0xFFFFFFFFFFFFFFFFFFFFFFFFFFFFFFFFFFFFFFFF AND SWAP1 PUSH1 0x20 ADD SWAP1 SWAP3 SWAP2 SWAP1 POP POP POP PUSH2 0x1052 JUMP JUMPDEST PUSH1 0x40 MLOAD DUP1 DUP3 DUP2 MSTORE PUSH1 0x20 ADD SWAP2 POP POP PUSH1 0x40 MLOAD DUP1 SWAP2 SUB SWAP1 RETURN JUMPDEST PUSH2 0x7FD PUSH1 0x4 DUP1 CALLDATASIZE SUB PUSH1 0x20 DUP2 LT ISZERO PUSH2 0x7D1 JUMPI PUSH1 0x0 DUP1 REVERT JUMPDEST DUP2 ADD SWAP1 DUP1 DUP1 CALLDATALOAD PUSH20 0xFFFFFFFFFFFFFFFFFFFFFFFFFFFFFFFFFFFFFFFF AND SWAP1 PUSH1 0x20 ADD SWAP1 SWAP3 SWAP2 SWAP1 POP POP POP PUSH2 0x10D9 JUMP JUMPDEST STOP JUMPDEST PUSH1 0x60 PUSH1 0x6 DUP1 SLOAD PUSH1 0x1 DUP2 PUSH1 0x1 AND ISZERO PUSH2 0x100 MUL SUB AND PUSH1 0x2 SWAP1 DIV DUP1 PUSH1 0x1F ADD PUSH1 0x20 DUP1 SWAP2 DIV MUL PUSH1 0x20 ADD PUSH1 0x40 MLOAD SWAP1 DUP2 ADD PUSH1 0x40 MSTORE DUP1 SWAP3 SWAP2 SWAP1 DUP2 DUP2 MSTORE PUSH1 0x20 ADD DUP3 DUP1 SLOAD PUSH1 0x1 DUP2 PUSH1 0x1 AND ISZERO PUSH2 0x100 MUL SUB AND PUSH1 0x2 SWAP1 DIV DUP1 ISZERO PUSH2 0x897 JUMPI DUP1 PUSH1 0x1F LT PUSH2 0x86C JUMPI PUSH2 0x100 DUP1 DUP4 SLOAD DIV MUL DUP4 MSTORE SWAP2 PUSH1 0x20 ADD SWAP2 PUSH2 0x897 JUMP JUMPDEST DUP3 ADD SWAP2 SWAP1 PUSH1 0x0 MSTORE PUSH1 0x20 PUSH1 0x0 KECCAK256 SWAP1 JUMPDEST DUP2 SLOAD DUP2 MSTORE SWAP1 PUSH1 0x1 ADD SWAP1 PUSH1 0x20 ADD DUP1 DUP4 GT PUSH2 0x87A JUMPI DUP3 SWAP1 SUB PUSH1 0x1F AND DUP3 ADD SWAP2 JUMPDEST POP POP POP POP POP SWAP1 POP SWAP1 JUMP JUMPDEST PUSH1 0x0 PUSH2 0x8B5 PUSH2 0x8AE PUSH2 0x11AE JUMP JUMPDEST DUP5 DUP5 PUSH2 0x11B6 JUMP JUMPDEST PUSH1 0x1 SWAP1 POP SWAP3 SWAP2 POP POP JUMP JUMPDEST PUSH1 0x0 PUSH1 0x3 SLOAD SWAP1 POP SWAP1 JUMP JUMPDEST PUSH1 0x0 PUSH2 0x8D6 DUP5 DUP5 DUP5 PUSH2 0x13AD JUMP JUMPDEST PUSH2 0x997 DUP5 PUSH2 0x8E2 PUSH2 0x11AE JUMP JUMPDEST PUSH2 0x992 DUP6 PUSH1 0x40 MLOAD DUP1 PUSH1 0x60 ADD PUSH1 0x40 MSTORE DUP1 PUSH1 0x28 DUP2 MSTORE PUSH1 0x20 ADD PUSH2 0x1D24 PUSH1 0x28 SWAP2 CODECOPY PUSH1 0x2 PUSH1 0x0 DUP12 PUSH20 0xFFFFFFFFFFFFFFFFFFFFFFFFFFFFFFFFFFFFFFFF AND PUSH20 0xFFFFFFFFFFFFFFFFFFFFFFFFFFFFFFFFFFFFFFFF AND DUP2 MSTORE PUSH1 0x20 ADD SWAP1 DUP2 MSTORE PUSH1 0x20 ADD PUSH1 0x0 KECCAK256 PUSH1 0x0 PUSH2 0x948 PUSH2 0x11AE JUMP JUMPDEST PUSH20 0xFFFFFFFFFFFFFFFFFFFFFFFFFFFFFFFFFFFFFFFF AND PUSH20 0xFFFFFFFFFFFFFFFFFFFFFFFFFFFFFFFFFFFFFFFF AND DUP2 MSTORE PUSH1 0x20 ADD SWAP1 DUP2 MSTORE PUSH1 0x20 ADD PUSH1 0x0 KECCAK256 SLOAD PUSH2 0x1667 SWAP1 SWAP3 SWAP2 SWAP1 PUSH4 0xFFFFFFFF AND JUMP JUMPDEST PUSH2 0x11B6 JUMP JUMPDEST PUSH1 0x1 SWAP1 POP SWAP4 SWAP3 POP POP POP JUMP JUMPDEST PUSH1 0x0 PUSH1 0x4 PUSH1 0x0 SWAP1 SLOAD SWAP1 PUSH2 0x100 EXP SWAP1 DIV PUSH1 0xFF AND SWAP1 POP SWAP1 JUMP JUMPDEST PUSH1 0x4 PUSH1 0x0 SWAP1 SLOAD SWAP1 PUSH2 0x100 EXP SWAP1 DIV PUSH1 0xFF AND DUP2 JUMP JUMPDEST PUSH1 0x0 PUSH2 0xA75 PUSH2 0x9D9 PUSH2 0x11AE JUMP JUMPDEST DUP5 PUSH2 0xA70 DUP6 PUSH1 0x2 PUSH1 0x0 PUSH2 0x9EA PUSH2 0x11AE JUMP JUMPDEST PUSH20 0xFFFFFFFFFFFFFFFFFFFFFFFFFFFFFFFFFFFFFFFF AND PUSH20 0xFFFFFFFFFFFFFFFFFFFFFFFFFFFFFFFFFFFFFFFF AND DUP2 MSTORE PUSH1 0x20 ADD SWAP1 DUP2 MSTORE PUSH1 0x20 ADD PUSH1 0x0 KECCAK256 PUSH1 0x0 DUP10 PUSH20 0xFFFFFFFFFFFFFFFFFFFFFFFFFFFFFFFFFFFFFFFF AND PUSH20 0xFFFFFFFFFFFFFFFFFFFFFFFFFFFFFFFFFFFFFFFF AND DUP2 MSTORE PUSH1 0x20 ADD SWAP1 DUP2 MSTORE PUSH1 0x20 ADD PUSH1 0x0 KECCAK256 SLOAD PUSH2 0x1727 SWAP1 SWAP2 SWAP1 PUSH4 0xFFFFFFFF AND JUMP JUMPDEST PUSH2 0x11B6 JUMP JUMPDEST PUSH1 0x1 SWAP1 POP SWAP3 SWAP2 POP POP JUMP JUMPDEST PUSH1 0x0 PUSH2 0xA92 PUSH2 0xA8C PUSH2 0x11AE JUMP JUMPDEST DUP4 PUSH2 0x17AF JUMP JUMPDEST PUSH1 0x1 SWAP1 POP SWAP2 SWAP1 POP JUMP JUMPDEST PUSH1 0x0 PUSH1 0x1 PUSH1 0x0 DUP4 PUSH20 0xFFFFFFFFFFFFFFFFFFFFFFFFFFFFFFFFFFFFFFFF AND PUSH20 0xFFFFFFFFFFFFFFFFFFFFFFFFFFFFFFFFFFFFFFFF AND DUP2 MSTORE PUSH1 0x20 ADD SWAP1 DUP2 MSTORE PUSH1 0x20 ADD PUSH1 0x0 KECCAK256 SLOAD SWAP1 POP SWAP2 SWAP1 POP JUMP JUMPDEST PUSH2 0xAEC PUSH2 0x11AE JUMP JUMPDEST PUSH20 0xFFFFFFFFFFFFFFFFFFFFFFFFFFFFFFFFFFFFFFFF AND PUSH1 0x0 DUP1 SWAP1 SLOAD SWAP1 PUSH2 0x100 EXP SWAP1 DIV PUSH20 0xFFFFFFFFFFFFFFFFFFFFFFFFFFFFFFFFFFFFFFFF AND PUSH20 0xFFFFFFFFFFFFFFFFFFFFFFFFFFFFFFFFFFFFFFFF AND EQ PUSH2 0xBAD JUMPI PUSH1 0x40 MLOAD PUSH32 0x8C379A000000000000000000000000000000000000000000000000000000000 DUP2 MSTORE PUSH1 0x4 ADD DUP1 DUP1 PUSH1 0x20 ADD DUP3 DUP2 SUB DUP3 MSTORE PUSH1 0x20 DUP2 MSTORE PUSH1 0x20 ADD DUP1 PUSH32 0x4F776E61626C653A2063616C6C6572206973206E6F7420746865206F776E6572 DUP2 MSTORE POP PUSH1 0x20 ADD SWAP2 POP POP PUSH1 0x40 MLOAD DUP1 SWAP2 SUB SWAP1 REVERT JUMPDEST PUSH1 0x0 PUSH20 0xFFFFFFFFFFFFFFFFFFFFFFFFFFFFFFFFFFFFFFFF AND PUSH1 0x0 DUP1 SWAP1 SLOAD SWAP1 PUSH2 0x100 EXP SWAP1 DIV PUSH20 0xFFFFFFFFFFFFFFFFFFFFFFFFFFFFFFFFFFFFFFFF AND PUSH20 0xFFFFFFFFFFFFFFFFFFFFFFFFFFFFFFFFFFFFFFFF AND PUSH32 0x8BE0079C531659141344CD1FD0A4F28419497F9722A3DAAFE3B4186F6B6457E0 PUSH1 0x40 MLOAD PUSH1 0x40 MLOAD DUP1 SWAP2 SUB SWAP1 LOG3 PUSH1 0x0 DUP1 PUSH1 0x0 PUSH2 0x100 EXP DUP2 SLOAD DUP2 PUSH20 0xFFFFFFFFFFFFFFFFFFFFFFFFFFFFFFFFFFFFFFFF MUL NOT AND SWAP1 DUP4 PUSH20 0xFFFFFFFFFFFFFFFFFFFFFFFFFFFFFFFFFFFFFFFF AND MUL OR SWAP1 SSTORE POP JUMP JUMPDEST PUSH1 0x0 PUSH2 0xC76 PUSH2 0xC7B JUMP JUMPDEST SWAP1 POP SWAP1 JUMP JUMPDEST PUSH1 0x0 DUP1 PUSH1 0x0 SWAP1 SLOAD SWAP1 PUSH2 0x100 EXP SWAP1 DIV PUSH20 0xFFFFFFFFFFFFFFFFFFFFFFFFFFFFFFFFFFFFFFFF AND SWAP1 POP SWAP1 JUMP JUMPDEST PUSH1 0x60 PUSH1 0x5 DUP1 SLOAD PUSH1 0x1 DUP2 PUSH1 0x1 AND ISZERO PUSH2 0x100 MUL SUB AND PUSH1 0x2 SWAP1 DIV DUP1 PUSH1 0x1F ADD PUSH1 0x20 DUP1 SWAP2 DIV MUL PUSH1 0x20 ADD PUSH1 0x40 MLOAD SWAP1 DUP2 ADD PUSH1 0x40 MSTORE DUP1 SWAP3 SWAP2 SWAP1 DUP2 DUP2 MSTORE PUSH1 0x20 ADD DUP3 DUP1 SLOAD PUSH1 0x1 DUP2 PUSH1 0x1 AND ISZERO PUSH2 0x100 MUL SUB AND PUSH1 0x2 SWAP1 DIV DUP1 ISZERO PUSH2 0xD3C JUMPI DUP1 PUSH1 0x1F LT PUSH2 0xD11 JUMPI PUSH2 0x100 DUP1 DUP4 SLOAD DIV MUL DUP4 MSTORE SWAP2 PUSH1 0x20 ADD SWAP2 PUSH2 0xD3C JUMP JUMPDEST DUP3 ADD SWAP2 SWAP1 PUSH1 0x0 MSTORE PUSH1 0x20 PUSH1 0x0 KECCAK256 SWAP1 JUMPDEST DUP2 SLOAD DUP2 MSTORE SWAP1 PUSH1 0x1 ADD SWAP1 PUSH1 0x20 ADD DUP1 DUP4 GT PUSH2 0xD1F JUMPI DUP3 SWAP1 SUB PUSH1 0x1F AND DUP3 ADD SWAP2 JUMPDEST POP POP POP POP POP SWAP1 POP SWAP1 JUMP JUMPDEST PUSH1 0x0 PUSH2 0xD50 PUSH2 0x11AE JUMP JUMPDEST PUSH20 0xFFFFFFFFFFFFFFFFFFFFFFFFFFFFFFFFFFFFFFFF AND PUSH1 0x0 DUP1 SWAP1 SLOAD SWAP1 PUSH2 0x100 EXP SWAP1 DIV PUSH20 0xFFFFFFFFFFFFFFFFFFFFFFFFFFFFFFFFFFFFFFFF AND PUSH20 0xFFFFFFFFFFFFFFFFFFFFFFFFFFFFFFFFFFFFFFFF AND EQ PUSH2 0xE11 JUMPI PUSH1 0x40 MLOAD PUSH32 0x8C379A000000000000000000000000000000000000000000000000000000000 DUP2 MSTORE PUSH1 0x4 ADD DUP1 DUP1 PUSH1 0x20 ADD DUP3 DUP2 SUB DUP3 MSTORE PUSH1 0x20 DUP2 MSTORE PUSH1 0x20 ADD DUP1 PUSH32 0x4F776E61626C653A2063616C6C6572206973206E6F7420746865206F776E6572 DUP2 MSTORE POP PUSH1 0x20 ADD SWAP2 POP POP PUSH1 0x40 MLOAD DUP1 SWAP2 SUB SWAP1 REVERT JUMPDEST PUSH2 0xE22 PUSH2 0xE1C PUSH2 0x11AE JUMP JUMPDEST DUP4 PUSH2 0x1969 JUMP JUMPDEST PUSH1 0x1 SWAP1 POP SWAP2 SWAP1 POP JUMP JUMPDEST PUSH1 0x0 PUSH2 0xEEE PUSH2 0xE38 PUSH2 0x11AE JUMP JUMPDEST DUP5 PUSH2 0xEE9 DUP6 PUSH1 0x40 MLOAD DUP1 PUSH1 0x60 ADD PUSH1 0x40 MSTORE DUP1 PUSH1 0x25 DUP2 MSTORE PUSH1 0x20 ADD PUSH2 0x1D95 PUSH1 0x25 SWAP2 CODECOPY PUSH1 0x2 PUSH1 0x0 PUSH2 0xE62 PUSH2 0x11AE JUMP JUMPDEST PUSH20 0xFFFFFFFFFFFFFFFFFFFFFFFFFFFFFFFFFFFFFFFF AND PUSH20 0xFFFFFFFFFFFFFFFFFFFFFFFFFFFFFFFFFFFFFFFF AND DUP2 MSTORE PUSH1 0x20 ADD SWAP1 DUP2 MSTORE PUSH1 0x20 ADD PUSH1 0x0 KECCAK256 PUSH1 0x0 DUP11 PUSH20 0xFFFFFFFFFFFFFFFFFFFFFFFFFFFFFFFFFFFFFFFF AND PUSH20 0xFFFFFFFFFFFFFFFFFFFFFFFFFFFFFFFFFFFFFFFF AND DUP2 MSTORE PUSH1 0x20 ADD SWAP1 DUP2 MSTORE PUSH1 0x20 ADD PUSH1 0x0 KECCAK256 SLOAD PUSH2 0x1667 SWAP1 SWAP3 SWAP2 SWAP1 PUSH4 0xFFFFFFFF AND JUMP JUMPDEST PUSH2 0x11B6 JUMP JUMPDEST PUSH1 0x1 SWAP1 POP SWAP3 SWAP2 POP POP JUMP JUMPDEST PUSH1 0x0 PUSH2 0xF0C PUSH2 0xF05 PUSH2 0x11AE JUMP JUMPDEST DUP5 DUP5 PUSH2 0x13AD JUMP JUMPDEST PUSH1 0x1 SWAP1 POP SWAP3 SWAP2 POP POP JUMP JUMPDEST PUSH1 0x5 DUP1 SLOAD PUSH1 0x1 DUP2 PUSH1 0x1 AND ISZERO PUSH2 0x100 MUL SUB AND PUSH1 0x2 SWAP1 DIV DUP1 PUSH1 0x1F ADD PUSH1 0x20 DUP1 SWAP2 DIV MUL PUSH1 0x20 ADD PUSH1 0x40 MLOAD SWAP1 DUP2 ADD PUSH1 0x40 MSTORE DUP1 SWAP3 SWAP2 SWAP1 DUP2 DUP2 MSTORE PUSH1 0x20 ADD DUP3 DUP1 SLOAD PUSH1 0x1 DUP2 PUSH1 0x1 AND ISZERO PUSH2 0x100 MUL SUB AND PUSH1 0x2 SWAP1 DIV DUP1 ISZERO PUSH2 0xFAC JUMPI DUP1 PUSH1 0x1F LT PUSH2 0xF81 JUMPI PUSH2 0x100 DUP1 DUP4 SLOAD DIV MUL DUP4 MSTORE SWAP2 PUSH1 0x20 ADD SWAP2 PUSH2 0xFAC JUMP JUMPDEST DUP3 ADD SWAP2 SWAP1 PUSH1 0x0 MSTORE PUSH1 0x20 PUSH1 0x0 KECCAK256 SWAP1 JUMPDEST DUP2 SLOAD DUP2 MSTORE SWAP1 PUSH1 0x1 ADD SWAP1 PUSH1 0x20 ADD DUP1 DUP4 GT PUSH2 0xF8F JUMPI DUP3 SWAP1 SUB PUSH1 0x1F AND DUP3 ADD SWAP2 JUMPDEST POP POP POP POP POP DUP2 JUMP JUMPDEST PUSH1 0x6 DUP1 SLOAD PUSH1 0x1 DUP2 PUSH1 0x1 AND ISZERO PUSH2 0x100 MUL SUB AND PUSH1 0x2 SWAP1 DIV DUP1 PUSH1 0x1F ADD PUSH1 0x20 DUP1 SWAP2 DIV MUL PUSH1 0x20 ADD PUSH1 0x40 MLOAD SWAP1 DUP2 ADD PUSH1 0x40 MSTORE DUP1 SWAP3 SWAP2 SWAP1 DUP2 DUP2 MSTORE PUSH1 0x20 ADD DUP3 DUP1 SLOAD PUSH1 0x1 DUP2 PUSH1 0x1 AND ISZERO PUSH2 0x100 MUL SUB AND PUSH1 0x2 SWAP1 DIV DUP1 ISZERO PUSH2 0x104A JUMPI DUP1 PUSH1 0x1F LT PUSH2 0x101F JUMPI PUSH2 0x100 DUP1 DUP4 SLOAD DIV MUL DUP4 MSTORE SWAP2 PUSH1 0x20 ADD SWAP2 PUSH2 0x104A JUMP JUMPDEST DUP3 ADD SWAP2 SWAP1 PUSH1 0x0 MSTORE PUSH1 0x20 PUSH1 0x0 KECCAK256 SWAP1 JUMPDEST DUP2 SLOAD DUP2 MSTORE SWAP1 PUSH1 0x1 ADD SWAP1 PUSH1 0x20 ADD DUP1 DUP4 GT PUSH2 0x102D JUMPI DUP3 SWAP1 SUB PUSH1 0x1F AND DUP3 ADD SWAP2 JUMPDEST POP POP POP POP POP DUP2 JUMP JUMPDEST PUSH1 0x0 PUSH1 0x2 PUSH1 0x0 DUP5 PUSH20 0xFFFFFFFFFFFFFFFFFFFFFFFFFFFFFFFFFFFFFFFF AND PUSH20 0xFFFFFFFFFFFFFFFFFFFFFFFFFFFFFFFFFFFFFFFF AND DUP2 MSTORE PUSH1 0x20 ADD SWAP1 DUP2 MSTORE PUSH1 0x20 ADD PUSH1 0x0 KECCAK256 PUSH1 0x0 DUP4 PUSH20 0xFFFFFFFFFFFFFFFFFFFFFFFFFFFFFFFFFFFFFFFF AND PUSH20 0xFFFFFFFFFFFFFFFFFFFFFFFFFFFFFFFFFFFFFFFF AND DUP2 MSTORE PUSH1 0x20 ADD SWAP1 DUP2 MSTORE PUSH1 0x20 ADD PUSH1 0x0 KECCAK256 SLOAD SWAP1 POP SWAP3 SWAP2 POP POP JUMP JUMPDEST PUSH2 0x10E1 PUSH2 0x11AE JUMP JUMPDEST PUSH20 0xFFFFFFFFFFFFFFFFFFFFFFFFFFFFFFFFFFFFFFFF AND PUSH1 0x0 DUP1 SWAP1 SLOAD SWAP1 PUSH2 0x100 EXP SWAP1 DIV PUSH20 0xFFFFFFFFFFFFFFFFFFFFFFFFFFFFFFFFFFFFFFFF AND PUSH20 0xFFFFFFFFFFFFFFFFFFFFFFFFFFFFFFFFFFFFFFFF AND EQ PUSH2 0x11A2 JUMPI PUSH1 0x40 MLOAD PUSH32 0x8C379A000000000000000000000000000000000000000000000000000000000 DUP2 MSTORE PUSH1 0x4 ADD DUP1 DUP1 PUSH1 0x20 ADD DUP3 DUP2 SUB DUP3 MSTORE PUSH1 0x20 DUP2 MSTORE PUSH1 0x20 ADD DUP1 PUSH32 0x4F776E61626C653A2063616C6C6572206973206E6F7420746865206F776E6572 DUP2 MSTORE POP PUSH1 0x20 ADD SWAP2 POP POP PUSH1 0x40 MLOAD DUP1 SWAP2 SUB SWAP1 REVERT JUMPDEST PUSH2 0x11AB DUP2 PUSH2 0x1B26 JUMP JUMPDEST POP JUMP JUMPDEST PUSH1 0x0 CALLER SWAP1 POP SWAP1 JUMP JUMPDEST PUSH1 0x0 PUSH20 0xFFFFFFFFFFFFFFFFFFFFFFFFFFFFFFFFFFFFFFFF AND DUP4 PUSH20 0xFFFFFFFFFFFFFFFFFFFFFFFFFFFFFFFFFFFFFFFF AND EQ ISZERO PUSH2 0x123C JUMPI PUSH1 0x40 MLOAD PUSH32 0x8C379A000000000000000000000000000000000000000000000000000000000 DUP2 MSTORE PUSH1 0x4 ADD DUP1 DUP1 PUSH1 0x20 ADD DUP3 DUP2 SUB DUP3 MSTORE PUSH1 0x24 DUP2 MSTORE PUSH1 0x20 ADD DUP1 PUSH2 0x1CDA PUSH1 0x24 SWAP2 CODECOPY PUSH1 0x40 ADD SWAP2 POP POP PUSH1 0x40 MLOAD DUP1 SWAP2 SUB SWAP1 REVERT JUMPDEST PUSH1 0x0 PUSH20 0xFFFFFFFFFFFFFFFFFFFFFFFFFFFFFFFFFFFFFFFF AND DUP3 PUSH20 0xFFFFFFFFFFFFFFFFFFFFFFFFFFFFFFFFFFFFFFFF AND EQ ISZERO PUSH2 0x12C2 JUMPI PUSH1 0x40 MLOAD PUSH32 0x8C379A000000000000000000000000000000000000000000000000000000000 DUP2 MSTORE PUSH1 0x4 ADD DUP1 DUP1 PUSH1 0x20 ADD DUP3 DUP2 SUB DUP3 MSTORE PUSH1 0x22 DUP2 MSTORE PUSH1 0x20 ADD DUP1 PUSH2 0x1DFD PUSH1 0x22 SWAP2 CODECOPY PUSH1 0x40 ADD SWAP2 POP POP PUSH1 0x40 MLOAD DUP1 SWAP2 SUB SWAP1 REVERT JUMPDEST DUP1 PUSH1 0x2 PUSH1 0x0 DUP6 PUSH20 0xFFFFFFFFFFFFFFFFFFFFFFFFFFFFFFFFFFFFFFFF AND PUSH20 0xFFFFFFFFFFFFFFFFFFFFFFFFFFFFFFFFFFFFFFFF AND DUP2 MSTORE PUSH1 0x20 ADD SWAP1 DUP2 MSTORE PUSH1 0x20 ADD PUSH1 0x0 KECCAK256 PUSH1 0x0 DUP5 PUSH20 0xFFFFFFFFFFFFFFFFFFFFFFFFFFFFFFFFFFFFFFFF AND PUSH20 0xFFFFFFFFFFFFFFFFFFFFFFFFFFFFFFFFFFFFFFFF AND DUP2 MSTORE PUSH1 0x20 ADD SWAP1 DUP2 MSTORE PUSH1 0x20 ADD PUSH1 0x0 KECCAK256 DUP2 SWAP1 SSTORE POP DUP2 PUSH20 0xFFFFFFFFFFFFFFFFFFFFFFFFFFFFFFFFFFFFFFFF AND DUP4 PUSH20 0xFFFFFFFFFFFFFFFFFFFFFFFFFFFFFFFFFFFFFFFF AND PUSH32 0x8C5BE1E5EBEC7D5BD14F71427D1E84F3DD0314C0F7B2291E5B200AC8C7C3B925 DUP4 PUSH1 0x40 MLOAD DUP1 DUP3 DUP2 MSTORE PUSH1 0x20 ADD SWAP2 POP POP PUSH1 0x40 MLOAD DUP1 SWAP2 SUB SWAP1 LOG3 POP POP POP JUMP JUMPDEST PUSH1 0x0 PUSH20 0xFFFFFFFFFFFFFFFFFFFFFFFFFFFFFFFFFFFFFFFF AND DUP4 PUSH20 0xFFFFFFFFFFFFFFFFFFFFFFFFFFFFFFFFFFFFFFFF AND EQ ISZERO PUSH2 0x1433 JUMPI PUSH1 0x40 MLOAD PUSH32 0x8C379A000000000000000000000000000000000000000000000000000000000 DUP2 MSTORE PUSH1 0x4 ADD DUP1 DUP1 PUSH1 0x20 ADD DUP3 DUP2 SUB DUP3 MSTORE PUSH1 0x25 DUP2 MSTORE PUSH1 0x20 ADD DUP1 PUSH2 0x1CB5 PUSH1 0x25 SWAP2 CODECOPY PUSH1 0x40 ADD SWAP2 POP POP PUSH1 0x40 MLOAD DUP1 SWAP2 SUB SWAP1 REVERT JUMPDEST PUSH1 0x0 PUSH20 0xFFFFFFFFFFFFFFFFFFFFFFFFFFFFFFFFFFFFFFFF AND DUP3 PUSH20 0xFFFFFFFFFFFFFFFFFFFFFFFFFFFFFFFFFFFFFFFF AND EQ ISZERO PUSH2 0x14B9 JUMPI PUSH1 0x40 MLOAD PUSH32 0x8C379A000000000000000000000000000000000000000000000000000000000 DUP2 MSTORE PUSH1 0x4 ADD DUP1 DUP1 PUSH1 0x20 ADD DUP3 DUP2 SUB DUP3 MSTORE PUSH1 0x23 DUP2 MSTORE PUSH1 0x20 ADD DUP1 PUSH2 0x1D72 PUSH1 0x23 SWAP2 CODECOPY PUSH1 0x40 ADD SWAP2 POP POP PUSH1 0x40 MLOAD DUP1 SWAP2 SUB SWAP1 REVERT JUMPDEST PUSH2 0x1525 DUP2 PUSH1 0x40 MLOAD DUP1 PUSH1 0x60 ADD PUSH1 0x40 MSTORE DUP1 PUSH1 0x26 DUP2 MSTORE PUSH1 0x20 ADD PUSH2 0x1D4C PUSH1 0x26 SWAP2 CODECOPY PUSH1 0x1 PUSH1 0x0 DUP8 PUSH20 0xFFFFFFFFFFFFFFFFFFFFFFFFFFFFFFFFFFFFFFFF AND PUSH20 0xFFFFFFFFFFFFFFFFFFFFFFFFFFFFFFFFFFFFFFFF AND DUP2 MSTORE PUSH1 0x20 ADD SWAP1 DUP2 MSTORE PUSH1 0x20 ADD PUSH1 0x0 KECCAK256 SLOAD PUSH2 0x1667 SWAP1 SWAP3 SWAP2 SWAP1 PUSH4 0xFFFFFFFF AND JUMP JUMPDEST PUSH1 0x1 PUSH1 0x0 DUP6 PUSH20 0xFFFFFFFFFFFFFFFFFFFFFFFFFFFFFFFFFFFFFFFF AND PUSH20 0xFFFFFFFFFFFFFFFFFFFFFFFFFFFFFFFFFFFFFFFF AND DUP2 MSTORE PUSH1 0x20 ADD SWAP1 DUP2 MSTORE PUSH1 0x20 ADD PUSH1 0x0 KECCAK256 DUP2 SWAP1 SSTORE POP PUSH2 0x15BA DUP2 PUSH1 0x1 PUSH1 0x0 DUP6 PUSH20 0xFFFFFFFFFFFFFFFFFFFFFFFFFFFFFFFFFFFFFFFF AND PUSH20 0xFFFFFFFFFFFFFFFFFFFFFFFFFFFFFFFFFFFFFFFF AND DUP2 MSTORE PUSH1 0x20 ADD SWAP1 DUP2 MSTORE PUSH1 0x20 ADD PUSH1 0x0 KECCAK256 SLOAD PUSH2 0x1727 SWAP1 SWAP2 SWAP1 PUSH4 0xFFFFFFFF AND JUMP JUMPDEST PUSH1 0x1 PUSH1 0x0 DUP5 PUSH20 0xFFFFFFFFFFFFFFFFFFFFFFFFFFFFFFFFFFFFFFFF AND PUSH20 0xFFFFFFFFFFFFFFFFFFFFFFFFFFFFFFFFFFFFFFFF AND DUP2 MSTORE PUSH1 0x20 ADD SWAP1 DUP2 MSTORE PUSH1 0x20 ADD PUSH1 0x0 KECCAK256 DUP2 SWAP1 SSTORE POP DUP2 PUSH20 0xFFFFFFFFFFFFFFFFFFFFFFFFFFFFFFFFFFFFFFFF AND DUP4 PUSH20 0xFFFFFFFFFFFFFFFFFFFFFFFFFFFFFFFFFFFFFFFF AND PUSH32 0xDDF252AD1BE2C89B69C2B068FC378DAA952BA7F163C4A11628F55A4DF523B3EF DUP4 PUSH1 0x40 MLOAD DUP1 DUP3 DUP2 MSTORE PUSH1 0x20 ADD SWAP2 POP POP PUSH1 0x40 MLOAD DUP1 SWAP2 SUB SWAP1 LOG3 POP POP POP JUMP JUMPDEST PUSH1 0x0 DUP4 DUP4 GT ISZERO DUP3 SWAP1 PUSH2 0x1714 JUMPI PUSH1 0x40 MLOAD PUSH32 0x8C379A000000000000000000000000000000000000000000000000000000000 DUP2 MSTORE PUSH1 0x4 ADD DUP1 DUP1 PUSH1 0x20 ADD DUP3 DUP2 SUB DUP3 MSTORE DUP4 DUP2 DUP2 MLOAD DUP2 MSTORE PUSH1 0x20 ADD SWAP2 POP DUP1 MLOAD SWAP1 PUSH1 0x20 ADD SWAP1 DUP1 DUP4 DUP4 PUSH1 0x0 JUMPDEST DUP4 DUP2 LT ISZERO PUSH2 0x16D9 JUMPI DUP1 DUP3 ADD MLOAD DUP2 DUP5 ADD MSTORE PUSH1 0x20 DUP2 ADD SWAP1 POP PUSH2 0x16BE JUMP JUMPDEST POP POP POP POP SWAP1 POP SWAP1 DUP2 ADD SWAP1 PUSH1 0x1F AND DUP1 ISZERO PUSH2 0x1706 JUMPI DUP1 DUP3 SUB DUP1 MLOAD PUSH1 0x1 DUP4 PUSH1 0x20 SUB PUSH2 0x100 EXP SUB NOT AND DUP2 MSTORE PUSH1 0x20 ADD SWAP2 POP JUMPDEST POP SWAP3 POP POP POP PUSH1 0x40 MLOAD DUP1 SWAP2 SUB SWAP1 REVERT JUMPDEST POP PUSH1 0x0 DUP4 DUP6 SUB SWAP1 POP DUP1 SWAP2 POP POP SWAP4 SWAP3 POP POP POP JUMP JUMPDEST PUSH1 0x0 DUP1 DUP3 DUP5 ADD SWAP1 POP DUP4 DUP2 LT ISZERO PUSH2 0x17A5 JUMPI PUSH1 0x40 MLOAD PUSH32 0x8C379A000000000000000000000000000000000000000000000000000000000 DUP2 MSTORE PUSH1 0x4 ADD DUP1 DUP1 PUSH1 0x20 ADD DUP3 DUP2 SUB DUP3 MSTORE PUSH1 0x1B DUP2 MSTORE PUSH1 0x20 ADD DUP1 PUSH32 0x536166654D6174683A206164646974696F6E206F766572666C6F770000000000 DUP2 MSTORE POP PUSH1 0x20 ADD SWAP2 POP POP PUSH1 0x40 MLOAD DUP1 SWAP2 SUB SWAP1 REVERT JUMPDEST DUP1 SWAP2 POP POP SWAP3 SWAP2 POP POP JUMP JUMPDEST PUSH1 0x0 PUSH20 0xFFFFFFFFFFFFFFFFFFFFFFFFFFFFFFFFFFFFFFFF AND DUP3 PUSH20 0xFFFFFFFFFFFFFFFFFFFFFFFFFFFFFFFFFFFFFFFF AND EQ ISZERO PUSH2 0x1835 JUMPI PUSH1 0x40 MLOAD PUSH32 0x8C379A000000000000000000000000000000000000000000000000000000000 DUP2 MSTORE PUSH1 0x4 ADD DUP1 DUP1 PUSH1 0x20 ADD DUP3 DUP2 SUB DUP3 MSTORE PUSH1 0x21 DUP2 MSTORE PUSH1 0x20 ADD DUP1 PUSH2 0x1DBA PUSH1 0x21 SWAP2 CODECOPY PUSH1 0x40 ADD SWAP2 POP POP PUSH1 0x40 MLOAD DUP1 SWAP2 SUB SWAP1 REVERT JUMPDEST PUSH2 0x18A1 DUP2 PUSH1 0x40 MLOAD DUP1 PUSH1 0x60 ADD PUSH1 0x40 MSTORE DUP1 PUSH1 0x22 DUP2 MSTORE PUSH1 0x20 ADD PUSH2 0x1DDB PUSH1 0x22 SWAP2 CODECOPY PUSH1 0x1 PUSH1 0x0 DUP7 PUSH20 0xFFFFFFFFFFFFFFFFFFFFFFFFFFFFFFFFFFFFFFFF AND PUSH20 0xFFFFFFFFFFFFFFFFFFFFFFFFFFFFFFFFFFFFFFFF AND DUP2 MSTORE PUSH1 0x20 ADD SWAP1 DUP2 MSTORE PUSH1 0x20 ADD PUSH1 0x0 KECCAK256 SLOAD PUSH2 0x1667 SWAP1 SWAP3 SWAP2 SWAP1 PUSH4 0xFFFFFFFF AND JUMP JUMPDEST PUSH1 0x1 PUSH1 0x0 DUP5 PUSH20 0xFFFFFFFFFFFFFFFFFFFFFFFFFFFFFFFFFFFFFFFF AND PUSH20 0xFFFFFFFFFFFFFFFFFFFFFFFFFFFFFFFFFFFFFFFF AND DUP2 MSTORE PUSH1 0x20 ADD SWAP1 DUP2 MSTORE PUSH1 0x20 ADD PUSH1 0x0 KECCAK256 DUP2 SWAP1 SSTORE POP PUSH2 0x18F9 DUP2 PUSH1 0x3 SLOAD PUSH2 0x1C6A SWAP1 SWAP2 SWAP1 PUSH4 0xFFFFFFFF AND JUMP JUMPDEST PUSH1 0x3 DUP2 SWAP1 SSTORE POP PUSH1 0x0 PUSH20 0xFFFFFFFFFFFFFFFFFFFFFFFFFFFFFFFFFFFFFFFF AND DUP3 PUSH20 0xFFFFFFFFFFFFFFFFFFFFFFFFFFFFFFFFFFFFFFFF AND PUSH32 0xDDF252AD1BE2C89B69C2B068FC378DAA952BA7F163C4A11628F55A4DF523B3EF DUP4 PUSH1 0x40 MLOAD DUP1 DUP3 DUP2 MSTORE PUSH1 0x20 ADD SWAP2 POP POP PUSH1 0x40 MLOAD DUP1 SWAP2 SUB SWAP1 LOG3 POP POP JUMP JUMPDEST PUSH1 0x0 PUSH20 0xFFFFFFFFFFFFFFFFFFFFFFFFFFFFFFFFFFFFFFFF AND DUP3 PUSH20 0xFFFFFFFFFFFFFFFFFFFFFFFFFFFFFFFFFFFFFFFF AND EQ ISZERO PUSH2 0x1A0C JUMPI PUSH1 0x40 MLOAD PUSH32 0x8C379A000000000000000000000000000000000000000000000000000000000 DUP2 MSTORE PUSH1 0x4 ADD DUP1 DUP1 PUSH1 0x20 ADD DUP3 DUP2 SUB DUP3 MSTORE PUSH1 0x1F DUP2 MSTORE PUSH1 0x20 ADD DUP1 PUSH32 0x42455032303A206D696E7420746F20746865207A65726F206164647265737300 DUP2 MSTORE POP PUSH1 0x20 ADD SWAP2 POP POP PUSH1 0x40 MLOAD DUP1 SWAP2 SUB SWAP1 REVERT JUMPDEST PUSH2 0x1A21 DUP2 PUSH1 0x3 SLOAD PUSH2 0x1727 SWAP1 SWAP2 SWAP1 PUSH4 0xFFFFFFFF AND JUMP JUMPDEST PUSH1 0x3 DUP2 SWAP1 SSTORE POP PUSH2 0x1A79 DUP2 PUSH1 0x1 PUSH1 0x0 DUP6 PUSH20 0xFFFFFFFFFFFFFFFFFFFFFFFFFFFFFFFFFFFFFFFF AND PUSH20 0xFFFFFFFFFFFFFFFFFFFFFFFFFFFFFFFFFFFFFFFF AND DUP2 MSTORE PUSH1 0x20 ADD SWAP1 DUP2 MSTORE PUSH1 0x20 ADD PUSH1 0x0 KECCAK256 SLOAD PUSH2 0x1727 SWAP1 SWAP2 SWAP1 PUSH4 0xFFFFFFFF AND JUMP JUMPDEST PUSH1 0x1 PUSH1 0x0 DUP5 PUSH20 0xFFFFFFFFFFFFFFFFFFFFFFFFFFFFFFFFFFFFFFFF AND PUSH20 0xFFFFFFFFFFFFFFFFFFFFFFFFFFFFFFFFFFFFFFFF AND DUP2 MSTORE PUSH1 0x20 ADD SWAP1 DUP2 MSTORE PUSH1 0x20 ADD PUSH1 0x0 KECCAK256 DUP2 SWAP1 SSTORE POP DUP2 PUSH20 0xFFFFFFFFFFFFFFFFFFFFFFFFFFFFFFFFFFFFFFFF AND PUSH1 0x0 PUSH20 0xFFFFFFFFFFFFFFFFFFFFFFFFFFFFFFFFFFFFFFFF AND PUSH32 0xDDF252AD1BE2C89B69C2B068FC378DAA952BA7F163C4A11628F55A4DF523B3EF DUP4 PUSH1 0x40 MLOAD DUP1 DUP3 DUP2 MSTORE PUSH1 0x20 ADD SWAP2 POP POP PUSH1 0x40 MLOAD DUP1 SWAP2 SUB SWAP1 LOG3 POP POP JUMP JUMPDEST PUSH1 0x0 PUSH20 0xFFFFFFFFFFFFFFFFFFFFFFFFFFFFFFFFFFFFFFFF AND DUP2 PUSH20 0xFFFFFFFFFFFFFFFFFFFFFFFFFFFFFFFFFFFFFFFF AND EQ ISZERO PUSH2 0x1BAC JUMPI PUSH1 0x40 MLOAD PUSH32 0x8C379A000000000000000000000000000000000000000000000000000000000 DUP2 MSTORE PUSH1 0x4 ADD DUP1 DUP1 PUSH1 0x20 ADD DUP3 DUP2 SUB DUP3 MSTORE PUSH1 0x26 DUP2 MSTORE PUSH1 0x20 ADD DUP1 PUSH2 0x1CFE PUSH1 0x26 SWAP2 CODECOPY PUSH1 0x40 ADD SWAP2 POP POP PUSH1 0x40 MLOAD DUP1 SWAP2 SUB SWAP1 REVERT JUMPDEST DUP1 PUSH20 0xFFFFFFFFFFFFFFFFFFFFFFFFFFFFFFFFFFFFFFFF AND PUSH1 0x0 DUP1 SWAP1 SLOAD SWAP1 PUSH2 0x100 EXP SWAP1 DIV PUSH20 0xFFFFFFFFFFFFFFFFFFFFFFFFFFFFFFFFFFFFFFFF AND PUSH20 0xFFFFFFFFFFFFFFFFFFFFFFFFFFFFFFFFFFFFFFFF AND PUSH32 0x8BE0079C531659141344CD1FD0A4F28419497F9722A3DAAFE3B4186F6B6457E0 PUSH1 0x40 MLOAD PUSH1 0x40 MLOAD DUP1 SWAP2 SUB SWAP1 LOG3 DUP1 PUSH1 0x0 DUP1 PUSH2 0x100 EXP DUP2 SLOAD DUP2 PUSH20 0xFFFFFFFFFFFFFFFFFFFFFFFFFFFFFFFFFFFFFFFF MUL NOT AND SWAP1 DUP4 PUSH20 0xFFFFFFFFFFFFFFFFFFFFFFFFFFFFFFFFFFFFFFFF AND MUL OR SWAP1 SSTORE POP POP JUMP JUMPDEST PUSH1 0x0 PUSH2 0x1CAC DUP4 DUP4 PUSH1 0x40 MLOAD DUP1 PUSH1 0x40 ADD PUSH1 0x40 MSTORE DUP1 PUSH1 0x1E DUP2 MSTORE PUSH1 0x20 ADD PUSH32 0x536166654D6174683A207375627472616374696F6E206F766572666C6F770000 DUP2 MSTORE POP PUSH2 0x1667 JUMP JUMPDEST SWAP1 POP SWAP3 SWAP2 POP POP JUMP INVALID TIMESTAMP GASLIMIT POP ORIGIN ADDRESS GASPRICE KECCAK256 PUSH21 0x72616E736665722066726F6D20746865207A65726F KECCAK256 PUSH2 0x6464 PUSH19 0x65737342455032303A20617070726F76652066 PUSH19 0x6F6D20746865207A65726F2061646472657373 0x4F PUSH24 0x6E61626C653A206E6577206F776E65722069732074686520 PUSH27 0x65726F206164647265737342455032303A207472616E7366657220 PUSH2 0x6D6F PUSH22 0x6E74206578636565647320616C6C6F77616E63654245 POP ORIGIN ADDRESS GASPRICE KECCAK256 PUSH21 0x72616E7366657220616D6F756E7420657863656564 PUSH20 0x2062616C616E636542455032303A207472616E73 PUSH7 0x657220746F2074 PUSH9 0x65207A65726F206164 PUSH5 0x7265737342 GASLIMIT POP ORIGIN ADDRESS GASPRICE KECCAK256 PUSH5 0x6563726561 PUSH20 0x656420616C6C6F77616E63652062656C6F77207A PUSH6 0x726F42455032 ADDRESS GASPRICE KECCAK256 PUSH3 0x75726E KECCAK256 PUSH7 0x726F6D20746865 KECCAK256 PUSH27 0x65726F206164647265737342455032303A206275726E20616D6F75 PUSH15 0x7420657863656564732062616C616E PUSH4 0x65424550 ORIGIN ADDRESS GASPRICE KECCAK256 PUSH2 0x7070 PUSH19 0x6F766520746F20746865207A65726F20616464 PUSH19 0x657373A265627A7A723158204126904AA5B7D3 SWAP8 CODESIZE 0xBD DUP9 0xC2 CREATE PUSH18 0xBA1B806C37BE33BB535CD3CC93AC99777341 PUSH5 0x736F6C6343 STOP SDIV LT STOP ORIGIN "
	},
	"Assembly": ".code\n  PUSH 80\t\t\tcontract TangoUSD is Context, ...\n  PUSH 40\t\t\tcontract TangoUSD is Context, ...\n  MSTORE \t\t\tcontract TangoUSD is Context, ...\n  CALLVALUE \t\t\tconstructor() public {\\r\\n    ...\n  DUP1 \t\t\tolidity 0\n  ISZERO \t\t\ta \n  PUSH [tag] 1\t\t\ta \n  JUMPI \t\t\ta \n  PUSH 0\t\t\te\n  DUP1 \t\t\ti\n  REVERT \t\t\t16;\\r\\n\\r\\ninter\ntag 1\t\t\ta \n  JUMPDEST \t\t\ta \n  POP \t\t\tconstructor() public {\\r\\n    ...\n  PUSH 0\t\t\taddress msgSender\n  PUSH [tag] 7\t\t\t_msgSender()\n  PUSH [tag] 8\t\t\t_msgSender\n  PUSH 20\t\t\t_msgSender\n  SHL \t\t\t_msgSender\n  PUSH 20\t\t\t_msgSender()\n  SHR \t\t\t_msgSender()\n  JUMP [in]\t\t\t_msgSender()\ntag 7\t\t\t_msgSender()\n  JUMPDEST \t\t\t_msgSender()\n  SWAP1 \t\t\taddress msgSender = _msgSender...\n  POP \t\t\taddress msgSender = _msgSender...\n  DUP1 \t\t\tmsgSender\n  PUSH 0\t\t\t_owner\n  DUP1 \t\t\t_owner\n  PUSH 100\t\t\t_owner = msgSender\n  EXP \t\t\t_owner = msgSender\n  DUP2 \t\t\t_owner = msgSender\n  SLOAD \t\t\t_owner = msgSender\n  DUP2 \t\t\t_owner = msgSender\n  PUSH FFFFFFFFFFFFFFFFFFFFFFFFFFFFFFFFFFFFFFFF\t\t\t_owner = msgSender\n  MUL \t\t\t_owner = msgSender\n  NOT \t\t\t_owner = msgSender\n  AND \t\t\t_owner = msgSender\n  SWAP1 \t\t\t_owner = msgSender\n  DUP4 \t\t\t_owner = msgSender\n  PUSH FFFFFFFFFFFFFFFFFFFFFFFFFFFFFFFFFFFFFFFF\t\t\t_owner = msgSender\n  AND \t\t\t_owner = msgSender\n  MUL \t\t\t_owner = msgSender\n  OR \t\t\t_owner = msgSender\n  SWAP1 \t\t\t_owner = msgSender\n  SSTORE \t\t\t_owner = msgSender\n  POP \t\t\t_owner = msgSender\n  DUP1 \t\t\tmsgSender\n  PUSH FFFFFFFFFFFFFFFFFFFFFFFFFFFFFFFFFFFFFFFF\t\t\tOwnershipTransferred(address(0...\n  AND \t\t\tOwnershipTransferred(address(0...\n  PUSH 0\t\t\t0\n  PUSH FFFFFFFFFFFFFFFFFFFFFFFFFFFFFFFFFFFFFFFF\t\t\tOwnershipTransferred(address(0...\n  AND \t\t\tOwnershipTransferred(address(0...\n  PUSH 8BE0079C531659141344CD1FD0A4F28419497F9722A3DAAFE3B4186F6B6457E0\t\t\tOwnershipTransferred(address(0...\n  PUSH 40\t\t\tOwnershipTransferred(address(0...\n  MLOAD \t\t\tOwnershipTransferred(address(0...\n  PUSH 40\t\t\tOwnershipTransferred(address(0...\n  MLOAD \t\t\tOwnershipTransferred(address(0...\n  DUP1 \t\t\tOwnershipTransferred(address(0...\n  SWAP2 \t\t\tOwnershipTransferred(address(0...\n  SUB \t\t\tOwnershipTransferred(address(0...\n  SWAP1 \t\t\tOwnershipTransferred(address(0...\n  LOG3 \t\t\tOwnershipTransferred(address(0...\n  POP \t\t\tconstructor () internal {\\r\\n ...\n  PUSH 40\t\t\t_name = \"Tango USD\"\n  MLOAD \t\t\t_name = \"Tango USD\"\n  DUP1 \t\t\t_name = \"Tango USD\"\n  PUSH 40\t\t\t_name = \"Tango USD\"\n  ADD \t\t\t_name = \"Tango USD\"\n  PUSH 40\t\t\t_name = \"Tango USD\"\n  MSTORE \t\t\t_name = \"Tango USD\"\n  DUP1 \t\t\t_name = \"Tango USD\"\n  PUSH 9\t\t\t_name = \"Tango USD\"\n  DUP2 \t\t\t_name = \"Tango USD\"\n  MSTORE \t\t\t_name = \"Tango USD\"\n  PUSH 20\t\t\t_name = \"Tango USD\"\n  ADD \t\t\t_name = \"Tango USD\"\n  PUSH 54616E676F205553440000000000000000000000000000000000000000000000\t\t\t_name = \"Tango USD\"\n  DUP2 \t\t\t_name = \"Tango USD\"\n  MSTORE \t\t\t_name = \"Tango USD\"\n  POP \t\t\t_name = \"Tango USD\"\n  PUSH 6\t\t\t_name\n  SWAP1 \t\t\t_name = \"Tango USD\"\n  DUP1 \t\t\t_name = \"Tango USD\"\n  MLOAD \t\t\t_name = \"Tango USD\"\n  SWAP1 \t\t\t_name = \"Tango USD\"\n  PUSH 20\t\t\t_name = \"Tango USD\"\n  ADD \t\t\t_name = \"Tango USD\"\n  SWAP1 \t\t\t_name = \"Tango USD\"\n  PUSH [tag] 10\t\t\t_name = \"Tango USD\"\n  SWAP3 \t\t\t_name = \"Tango USD\"\n  SWAP2 \t\t\t_name = \"Tango USD\"\n  SWAP1 \t\t\t_name = \"Tango USD\"\n  PUSH [tag] 11\t\t\t_name = \"Tango USD\"\n  JUMP [in]\t\t\t_name = \"Tango USD\"\ntag 10\t\t\t_name = \"Tango USD\"\n  JUMPDEST \t\t\t_name = \"Tango USD\"\n  POP \t\t\t_name = \"Tango USD\"\n  PUSH 40\t\t\t_symbol = \"USDT\"\n  MLOAD \t\t\t_symbol = \"USDT\"\n  DUP1 \t\t\t_symbol = \"USDT\"\n  PUSH 40\t\t\t_symbol = \"USDT\"\n  ADD \t\t\t_symbol = \"USDT\"\n  PUSH 40\t\t\t_symbol = \"USDT\"\n  MSTORE \t\t\t_symbol = \"USDT\"\n  DUP1 \t\t\t_symbol = \"USDT\"\n  PUSH 4\t\t\t_symbol = \"USDT\"\n  DUP2 \t\t\t_symbol = \"USDT\"\n  MSTORE \t\t\t_symbol = \"USDT\"\n  PUSH 20\t\t\t_symbol = \"USDT\"\n  ADD \t\t\t_symbol = \"USDT\"\n  PUSH 5553445400000000000000000000000000000000000000000000000000000000\t\t\t_symbol = \"USDT\"\n  DUP2 \t\t\t_symbol = \"USDT\"\n  MSTORE \t\t\t_symbol = \"USDT\"\n  POP \t\t\t_symbol = \"USDT\"\n  PUSH 5\t\t\t_symbol\n  SWAP1 \t\t\t_symbol = \"USDT\"\n  DUP1 \t\t\t_symbol = \"USDT\"\n  MLOAD \t\t\t_symbol = \"USDT\"\n  SWAP1 \t\t\t_symbol = \"USDT\"\n  PUSH 20\t\t\t_symbol = \"USDT\"\n  ADD \t\t\t_symbol = \"USDT\"\n  SWAP1 \t\t\t_symbol = \"USDT\"\n  PUSH [tag] 12\t\t\t_symbol = \"USDT\"\n  SWAP3 \t\t\t_symbol = \"USDT\"\n  SWAP2 \t\t\t_symbol = \"USDT\"\n  SWAP1 \t\t\t_symbol = \"USDT\"\n  PUSH [tag] 11\t\t\t_symbol = \"USDT\"\n  JUMP [in]\t\t\t_symbol = \"USDT\"\ntag 12\t\t\t_symbol = \"USDT\"\n  JUMPDEST \t\t\t_symbol = \"USDT\"\n  POP \t\t\t_symbol = \"USDT\"\n  PUSH 12\t\t\t18\n  PUSH 4\t\t\t_decimals\n  PUSH 0\t\t\t_decimals\n  PUSH 100\t\t\t_decimals = 18\n  EXP \t\t\t_decimals = 18\n  DUP2 \t\t\t_decimals = 18\n  SLOAD \t\t\t_decimals = 18\n  DUP2 \t\t\t_decimals = 18\n  PUSH FF\t\t\t_decimals = 18\n  MUL \t\t\t_decimals = 18\n  NOT \t\t\t_decimals = 18\n  AND \t\t\t_decimals = 18\n  SWAP1 \t\t\t_decimals = 18\n  DUP4 \t\t\t_decimals = 18\n  PUSH FF\t\t\t_decimals = 18\n  AND \t\t\t_decimals = 18\n  MUL \t\t\t_decimals = 18\n  OR \t\t\t_decimals = 18\n  SWAP1 \t\t\t_decimals = 18\n  SSTORE \t\t\t_decimals = 18\n  POP \t\t\t_decimals = 18\n  PUSH 33B2E3C9FD0803CE8000000\t\t\t1000000000 * 10 **18\n  PUSH 3\t\t\t_totalSupply\n  DUP2 \t\t\t_totalSupply = 1000000000 * 10...\n  SWAP1 \t\t\t_totalSupply = 1000000000 * 10...\n  SSTORE \t\t\t_totalSupply = 1000000000 * 10...\n  POP \t\t\t_totalSupply = 1000000000 * 10...\n  PUSH 3\t\t\t_totalSupply\n  SLOAD \t\t\t_totalSupply\n  PUSH 1\t\t\t_balances\n  PUSH 0\t\t\t_balances[msg.sender]\n  CALLER \t\t\tmsg.sender\n  PUSH FFFFFFFFFFFFFFFFFFFFFFFFFFFFFFFFFFFFFFFF\t\t\t_balances[msg.sender]\n  AND \t\t\t_balances[msg.sender]\n  PUSH FFFFFFFFFFFFFFFFFFFFFFFFFFFFFFFFFFFFFFFF\t\t\t_balances[msg.sender]\n  AND \t\t\t_balances[msg.sender]\n  DUP2 \t\t\t_balances[msg.sender]\n  MSTORE \t\t\t_balances[msg.sender]\n  PUSH 20\t\t\t_balances[msg.sender]\n  ADD \t\t\t_balances[msg.sender]\n  SWAP1 \t\t\t_balances[msg.sender]\n  DUP2 \t\t\t_balances[msg.sender]\n  MSTORE \t\t\t_balances[msg.sender]\n  PUSH 20\t\t\t_balances[msg.sender]\n  ADD \t\t\t_balances[msg.sender]\n  PUSH 0\t\t\t_balances[msg.sender]\n  KECCAK256 \t\t\t_balances[msg.sender]\n  DUP2 \t\t\t_balances[msg.sender] = _total...\n  SWAP1 \t\t\t_balances[msg.sender] = _total...\n  SSTORE \t\t\t_balances[msg.sender] = _total...\n  POP \t\t\t_balances[msg.sender] = _total...\n  CALLER \t\t\tmsg.sender\n  PUSH FFFFFFFFFFFFFFFFFFFFFFFFFFFFFFFFFFFFFFFF\t\t\tTransfer(address(0), msg.sende...\n  AND \t\t\tTransfer(address(0), msg.sende...\n  PUSH 0\t\t\t0\n  PUSH FFFFFFFFFFFFFFFFFFFFFFFFFFFFFFFFFFFFFFFF\t\t\tTransfer(address(0), msg.sende...\n  AND \t\t\tTransfer(address(0), msg.sende...\n  PUSH DDF252AD1BE2C89B69C2B068FC378DAA952BA7F163C4A11628F55A4DF523B3EF\t\t\tTransfer(address(0), msg.sende...\n  PUSH 3\t\t\t_totalSupply\n  SLOAD \t\t\t_totalSupply\n  PUSH 40\t\t\tTransfer(address(0), msg.sende...\n  MLOAD \t\t\tTransfer(address(0), msg.sende...\n  DUP1 \t\t\tTransfer(address(0), msg.sende...\n  DUP3 \t\t\tTransfer(address(0), msg.sende...\n  DUP2 \t\t\tTransfer(address(0), msg.sende...\n  MSTORE \t\t\tTransfer(address(0), msg.sende...\n  PUSH 20\t\t\tTransfer(address(0), msg.sende...\n  ADD \t\t\tTransfer(address(0), msg.sende...\n  SWAP2 \t\t\tTransfer(address(0), msg.sende...\n  POP \t\t\tTransfer(address(0), msg.sende...\n  POP \t\t\tTransfer(address(0), msg.sende...\n  PUSH 40\t\t\tTransfer(address(0), msg.sende...\n  MLOAD \t\t\tTransfer(address(0), msg.sende...\n  DUP1 \t\t\tTransfer(address(0), msg.sende...\n  SWAP2 \t\t\tTransfer(address(0), msg.sende...\n  SUB \t\t\tTransfer(address(0), msg.sende...\n  SWAP1 \t\t\tTransfer(address(0), msg.sende...\n  LOG3 \t\t\tTransfer(address(0), msg.sende...\n  PUSH [tag] 13\t\t\tcontract TangoUSD is Context, ...\n  JUMP \t\t\tcontract TangoUSD is Context, ...\ntag 8\t\t\tfunction _msgSender() internal...\n  JUMPDEST \t\t\tfunction _msgSender() internal...\n  PUSH 0\t\t\taddress payable\n  CALLER \t\t\tmsg.sender\n  SWAP1 \t\t\treturn msg.sender\n  POP \t\t\treturn msg.sender\n  SWAP1 \t\t\tfunction _msgSender() internal...\n  JUMP [out]\t\t\tfunction _msgSender() internal...\ntag 11\t\t\tcontract TangoUSD is Context, ...\n  JUMPDEST \t\t\tcontract TangoUSD is Context, ...\n  DUP3 \t\t\tcontract TangoUSD is Context, ...\n  DUP1 \t\t\tcontract TangoUSD is Context, ...\n  SLOAD \t\t\tcontract TangoUSD is Context, ...\n  PUSH 1\t\t\tcontract TangoUSD is Context, ...\n  DUP2 \t\t\tcontract TangoUSD is Context, ...\n  PUSH 1\t\t\tcontract TangoUSD is Context, ...\n  AND \t\t\tcontract TangoUSD is Context, ...\n  ISZERO \t\t\tcontract TangoUSD is Context, ...\n  PUSH 100\t\t\tcontract TangoUSD is Context, ...\n  MUL \t\t\tcontract TangoUSD is Context, ...\n  SUB \t\t\tcontract TangoUSD is Context, ...\n  AND \t\t\tcontract TangoUSD is Context, ...\n  PUSH 2\t\t\tcontract TangoUSD is Context, ...\n  SWAP1 \t\t\tcontract TangoUSD is Context, ...\n  DIV \t\t\tcontract TangoUSD is Context, ...\n  SWAP1 \t\t\tcontract TangoUSD is Context, ...\n  PUSH 0\t\t\tcontract TangoUSD is Context, ...\n  MSTORE \t\t\tcontract TangoUSD is Context, ...\n  PUSH 20\t\t\tcontract TangoUSD is Context, ...\n  PUSH 0\t\t\tcontract TangoUSD is Context, ...\n  KECCAK256 \t\t\tcontract TangoUSD is Context, ...\n  SWAP1 \t\t\tcontract TangoUSD is Context, ...\n  PUSH 1F\t\t\tcontract TangoUSD is Context, ...\n  ADD \t\t\tcontract TangoUSD is Context, ...\n  PUSH 20\t\t\tcontract TangoUSD is Context, ...\n  SWAP1 \t\t\tcontract TangoUSD is Context, ...\n  DIV \t\t\tcontract TangoUSD is Context, ...\n  DUP2 \t\t\tcontract TangoUSD is Context, ...\n  ADD \t\t\tcontract TangoUSD is Context, ...\n  SWAP3 \t\t\tcontract TangoUSD is Context, ...\n  DUP3 \t\t\tcontract TangoUSD is Context, ...\n  PUSH 1F\t\t\tcontract TangoUSD is Context, ...\n  LT \t\t\tcontract TangoUSD is Context, ...\n  PUSH [tag] 16\t\t\tcontract TangoUSD is Context, ...\n  JUMPI \t\t\tcontract TangoUSD is Context, ...\n  DUP1 \t\t\tcontract TangoUSD is Context, ...\n  MLOAD \t\t\tcontract TangoUSD is Context, ...\n  PUSH FF\t\t\tcontract TangoUSD is Context, ...\n  NOT \t\t\tcontract TangoUSD is Context, ...\n  AND \t\t\tcontract TangoUSD is Context, ...\n  DUP4 \t\t\tcontract TangoUSD is Context, ...\n  DUP1 \t\t\tcontract TangoUSD is Context, ...\n  ADD \t\t\tcontract TangoUSD is Context, ...\n  OR \t\t\tcontract TangoUSD is Context, ...\n  DUP6 \t\t\tcontract TangoUSD is Context, ...\n  SSTORE \t\t\tcontract TangoUSD is Context, ...\n  PUSH [tag] 15\t\t\tcontract TangoUSD is Context, ...\n  JUMP \t\t\tcontract TangoUSD is Context, ...\ntag 16\t\t\tcontract TangoUSD is Context, ...\n  JUMPDEST \t\t\tcontract TangoUSD is Context, ...\n  DUP3 \t\t\tcontract TangoUSD is Context, ...\n  DUP1 \t\t\tcontract TangoUSD is Context, ...\n  ADD \t\t\tcontract TangoUSD is Context, ...\n  PUSH 1\t\t\tcontract TangoUSD is Context, ...\n  ADD \t\t\tcontract TangoUSD is Context, ...\n  DUP6 \t\t\tcontract TangoUSD is Context, ...\n  SSTORE \t\t\tcontract TangoUSD is Context, ...\n  DUP3 \t\t\tcontract TangoUSD is Context, ...\n  ISZERO \t\t\tcontract TangoUSD is Context, ...\n  PUSH [tag] 15\t\t\tcontract TangoUSD is Context, ...\n  JUMPI \t\t\tcontract TangoUSD is Context, ...\n  SWAP2 \t\t\tcontract TangoUSD is Context, ...\n  DUP3 \t\t\tcontract TangoUSD is Context, ...\n  ADD \t\t\tcontract TangoUSD is Context, ...\ntag 17\t\t\tcontract TangoUSD is Context, ...\n  JUMPDEST \t\t\tcontract TangoUSD is Context, ...\n  DUP3 \t\t\tcontract TangoUSD is Context, ...\n  DUP2 \t\t\tcontract TangoUSD is Context, ...\n  GT \t\t\tcontract TangoUSD is Context, ...\n  ISZERO \t\t\tcontract TangoUSD is Context, ...\n  PUSH [tag] 18\t\t\tcontract TangoUSD is Context, ...\n  JUMPI \t\t\tcontract TangoUSD is Context, ...\n  DUP3 \t\t\tcontract TangoUSD is Context, ...\n  MLOAD \t\t\tcontract TangoUSD is Context, ...\n  DUP3 \t\t\tcontract TangoUSD is Context, ...\n  SSTORE \t\t\tcontract TangoUSD is Context, ...\n  SWAP2 \t\t\tcontract TangoUSD is Context, ...\n  PUSH 20\t\t\tcontract TangoUSD is Context, ...\n  ADD \t\t\tcontract TangoUSD is Context, ...\n  SWAP2 \t\t\tcontract TangoUSD is Context, ...\n  SWAP1 \t\t\tcontract TangoUSD is Context, ...\n  PUSH 1\t\t\tcontract TangoUSD is Context, ...\n  ADD \t\t\tcontract TangoUSD is Context, ...\n  SWAP1 \t\t\tcontract TangoUSD is Context, ...\n  PUSH [tag] 17\t\t\tcontract TangoUSD is Context, ...\n  JUMP \t\t\tcontract TangoUSD is Context, ...\ntag 18\t\t\tcontract TangoUSD is Context, ...\n  JUMPDEST \t\t\tcontract TangoUSD is Context, ...\ntag 15\t\t\tcontract TangoUSD is Context, ...\n  JUMPDEST \t\t\tcontract TangoUSD is Context, ...\n  POP \t\t\tcontract TangoUSD is Context, ...\n  SWAP1 \t\t\tcontract TangoUSD is Context, ...\n  POP \t\t\tcontract TangoUSD is Context, ...\n  PUSH [tag] 19\t\t\tcontract TangoUSD is Context, ...\n  SWAP2 \t\t\tcontract TangoUSD is Context, ...\n  SWAP1 \t\t\tcontract TangoUSD is Context, ...\n  PUSH [tag] 20\t\t\tcontract TangoUSD is Context, ...\n  JUMP [in]\t\t\tcontract TangoUSD is Context, ...\ntag 19\t\t\tcontract TangoUSD is Context, ...\n  JUMPDEST \t\t\tcontract TangoUSD is Context, ...\n  POP \t\t\tcontract TangoUSD is Context, ...\n  SWAP1 \t\t\tcontract TangoUSD is Context, ...\n  JUMP [out]\t\t\tcontract TangoUSD is Context, ...\ntag 20\t\t\tcontract TangoUSD is Context, ...\n  JUMPDEST \t\t\tcontract TangoUSD is Context, ...\n  PUSH [tag] 21\t\t\tcontract TangoUSD is Context, ...\n  SWAP2 \t\t\tcontract TangoUSD is Context, ...\n  SWAP1 \t\t\tcontract TangoUSD is Context, ...\ntag 22\t\t\tcontract TangoUSD is Context, ...\n  JUMPDEST \t\t\tcontract TangoUSD is Context, ...\n  DUP1 \t\t\tcontract TangoUSD is Context, ...\n  DUP3 \t\t\tcontract TangoUSD is Context, ...\n  GT \t\t\tcontract TangoUSD is Context, ...\n  ISZERO \t\t\tcontract TangoUSD is Context, ...\n  PUSH [tag] 23\t\t\tcontract TangoUSD is Context, ...\n  JUMPI \t\t\tcontract TangoUSD is Context, ...\n  PUSH 0\t\t\tcontract TangoUSD is Context, ...\n  DUP2 \t\t\tcontract TangoUSD is Context, ...\n  PUSH 0\t\t\tcontract TangoUSD is Context, ...\n  SWAP1 \t\t\tcontract TangoUSD is Context, ...\n  SSTORE \t\t\tcontract TangoUSD is Context, ...\n  POP \t\t\tcontract TangoUSD is Context, ...\n  PUSH 1\t\t\tcontract TangoUSD is Context, ...\n  ADD \t\t\tcontract TangoUSD is Context, ...\n  PUSH [tag] 22\t\t\tcontract TangoUSD is Context, ...\n  JUMP \t\t\tcontract TangoUSD is Context, ...\ntag 23\t\t\tcontract TangoUSD is Context, ...\n  JUMPDEST \t\t\tcontract TangoUSD is Context, ...\n  POP \t\t\tcontract TangoUSD is Context, ...\n  SWAP1 \t\t\tcontract TangoUSD is Context, ...\n  JUMP \t\t\tcontract TangoUSD is Context, ...\ntag 21\t\t\tcontract TangoUSD is Context, ...\n  JUMPDEST \t\t\tcontract TangoUSD is Context, ...\n  SWAP1 \t\t\tcontract TangoUSD is Context, ...\n  JUMP [out]\t\t\tcontract TangoUSD is Context, ...\ntag 13\t\t\tcontract TangoUSD is Context, ...\n  JUMPDEST \t\t\tcontract TangoUSD is Context, ...\n  PUSH #[$] 0000000000000000000000000000000000000000000000000000000000000000\t\t\tcontract TangoUSD is Context, ...\n  DUP1 \t\t\tcontract TangoUSD is Context, ...\n  PUSH [$] 0000000000000000000000000000000000000000000000000000000000000000\t\t\tcontract TangoUSD is Context, ...\n  PUSH 0\t\t\tcontract TangoUSD is Context, ...\n  CODECOPY \t\t\tcontract TangoUSD is Context, ...\n  PUSH 0\t\t\tcontract TangoUSD is Context, ...\n  RETURN \t\t\tcontract TangoUSD is Context, ...\n.data\n  0:\n    .code\n      PUSH 80\t\t\tcontract TangoUSD is Context, ...\n      PUSH 40\t\t\tcontract TangoUSD is Context, ...\n      MSTORE \t\t\tcontract TangoUSD is Context, ...\n      CALLVALUE \t\t\tcontract TangoUSD is Context, ...\n      DUP1 \t\t\tolidity 0\n      ISZERO \t\t\ta \n      PUSH [tag] 1\t\t\ta \n      JUMPI \t\t\ta \n      PUSH 0\t\t\te\n      DUP1 \t\t\ti\n      REVERT \t\t\t16;\\r\\n\\r\\ninter\n    tag 1\t\t\ta \n      JUMPDEST \t\t\ta \n      POP \t\t\tcontract TangoUSD is Context, ...\n      PUSH 4\t\t\tcontract TangoUSD is Context, ...\n      CALLDATASIZE \t\t\tcontract TangoUSD is Context, ...\n      LT \t\t\tcontract TangoUSD is Context, ...\n      PUSH [tag] 2\t\t\tcontract TangoUSD is Context, ...\n      JUMPI \t\t\tcontract TangoUSD is Context, ...\n      PUSH 0\t\t\tcontract TangoUSD is Context, ...\n      CALLDATALOAD \t\t\tcontract TangoUSD is Context, ...\n      PUSH E0\t\t\tcontract TangoUSD is Context, ...\n      SHR \t\t\tcontract TangoUSD is Context, ...\n      DUP1 \t\t\tcontract TangoUSD is Context, ...\n      PUSH 893D20E8\t\t\tcontract TangoUSD is Context, ...\n      GT \t\t\tcontract TangoUSD is Context, ...\n      PUSH [tag] 23\t\t\tcontract TangoUSD is Context, ...\n      JUMPI \t\t\tcontract TangoUSD is Context, ...\n      DUP1 \t\t\tcontract TangoUSD is Context, ...\n      PUSH A9059CBB\t\t\tcontract TangoUSD is Context, ...\n      GT \t\t\tcontract TangoUSD is Context, ...\n      PUSH [tag] 24\t\t\tcontract TangoUSD is Context, ...\n      JUMPI \t\t\tcontract TangoUSD is Context, ...\n      DUP1 \t\t\tcontract TangoUSD is Context, ...\n      PUSH A9059CBB\t\t\tcontract TangoUSD is Context, ...\n      EQ \t\t\tcontract TangoUSD is Context, ...\n      PUSH [tag] 18\t\t\tcontract TangoUSD is Context, ...\n      JUMPI \t\t\tcontract TangoUSD is Context, ...\n      DUP1 \t\t\tcontract TangoUSD is Context, ...\n      PUSH B09F1266\t\t\tcontract TangoUSD is Context, ...\n      EQ \t\t\tcontract TangoUSD is Context, ...\n      PUSH [tag] 19\t\t\tcontract TangoUSD is Context, ...\n      JUMPI \t\t\tcontract TangoUSD is Context, ...\n      DUP1 \t\t\tcontract TangoUSD is Context, ...\n      PUSH D28D8852\t\t\tcontract TangoUSD is Context, ...\n      EQ \t\t\tcontract TangoUSD is Context, ...\n      PUSH [tag] 20\t\t\tcontract TangoUSD is Context, ...\n      JUMPI \t\t\tcontract TangoUSD is Context, ...\n      DUP1 \t\t\tcontract TangoUSD is Context, ...\n      PUSH DD62ED3E\t\t\tcontract TangoUSD is Context, ...\n      EQ \t\t\tcontract TangoUSD is Context, ...\n      PUSH [tag] 21\t\t\tcontract TangoUSD is Context, ...\n      JUMPI \t\t\tcontract TangoUSD is Context, ...\n      DUP1 \t\t\tcontract TangoUSD is Context, ...\n      PUSH F2FDE38B\t\t\tcontract TangoUSD is Context, ...\n      EQ \t\t\tcontract TangoUSD is Context, ...\n      PUSH [tag] 22\t\t\tcontract TangoUSD is Context, ...\n      JUMPI \t\t\tcontract TangoUSD is Context, ...\n      PUSH [tag] 2\t\t\tcontract TangoUSD is Context, ...\n      JUMP \t\t\tcontract TangoUSD is Context, ...\n    tag 24\t\t\tcontract TangoUSD is Context, ...\n      JUMPDEST \t\t\tcontract TangoUSD is Context, ...\n      DUP1 \t\t\tcontract TangoUSD is Context, ...\n      PUSH 893D20E8\t\t\tcontract TangoUSD is Context, ...\n      EQ \t\t\tcontract TangoUSD is Context, ...\n      PUSH [tag] 13\t\t\tcontract TangoUSD is Context, ...\n      JUMPI \t\t\tcontract TangoUSD is Context, ...\n      DUP1 \t\t\tcontract TangoUSD is Context, ...\n      PUSH 8DA5CB5B\t\t\tcontract TangoUSD is Context, ...\n      EQ \t\t\tcontract TangoUSD is Context, ...\n      PUSH [tag] 14\t\t\tcontract TangoUSD is Context, ...\n      JUMPI \t\t\tcontract TangoUSD is Context, ...\n      DUP1 \t\t\tcontract TangoUSD is Context, ...\n      PUSH 95D89B41\t\t\tcontract TangoUSD is Context, ...\n      EQ \t\t\tcontract TangoUSD is Context, ...\n      PUSH [tag] 15\t\t\tcontract TangoUSD is Context, ...\n      JUMPI \t\t\tcontract TangoUSD is Context, ...\n      DUP1 \t\t\tcontract TangoUSD is Context, ...\n      PUSH A0712D68\t\t\tcontract TangoUSD is Context, ...\n      EQ \t\t\tcontract TangoUSD is Context, ...\n      PUSH [tag] 16\t\t\tcontract TangoUSD is Context, ...\n      JUMPI \t\t\tcontract TangoUSD is Context, ...\n      DUP1 \t\t\tcontract TangoUSD is Context, ...\n      PUSH A457C2D7\t\t\tcontract TangoUSD is Context, ...\n      EQ \t\t\tcontract TangoUSD is Context, ...\n      PUSH [tag] 17\t\t\tcontract TangoUSD is Context, ...\n      JUMPI \t\t\tcontract TangoUSD is Context, ...\n      PUSH [tag] 2\t\t\tcontract TangoUSD is Context, ...\n      JUMP \t\t\tcontract TangoUSD is Context, ...\n    tag 23\t\t\tcontract TangoUSD is Context, ...\n      JUMPDEST \t\t\tcontract TangoUSD is Context, ...\n      DUP1 \t\t\tcontract TangoUSD is Context, ...\n      PUSH 32424AA3\t\t\tcontract TangoUSD is Context, ...\n      GT \t\t\tcontract TangoUSD is Context, ...\n      PUSH [tag] 25\t\t\tcontract TangoUSD is Context, ...\n      JUMPI \t\t\tcontract TangoUSD is Context, ...\n      DUP1 \t\t\tcontract TangoUSD is Context, ...\n      PUSH 32424AA3\t\t\tcontract TangoUSD is Context, ...\n      EQ \t\t\tcontract TangoUSD is Context, ...\n      PUSH [tag] 8\t\t\tcontract TangoUSD is Context, ...\n      JUMPI \t\t\tcontract TangoUSD is Context, ...\n      DUP1 \t\t\tcontract TangoUSD is Context, ...\n      PUSH 39509351\t\t\tcontract TangoUSD is Context, ...\n      EQ \t\t\tcontract TangoUSD is Context, ...\n      PUSH [tag] 9\t\t\tcontract TangoUSD is Context, ...\n      JUMPI \t\t\tcontract TangoUSD is Context, ...\n      DUP1 \t\t\tcontract TangoUSD is Context, ...\n      PUSH 42966C68\t\t\tcontract TangoUSD is Context, ...\n      EQ \t\t\tcontract TangoUSD is Context, ...\n      PUSH [tag] 10\t\t\tcontract TangoUSD is Context, ...\n      JUMPI \t\t\tcontract TangoUSD is Context, ...\n      DUP1 \t\t\tcontract TangoUSD is Context, ...\n      PUSH 70A08231\t\t\tcontract TangoUSD is Context, ...\n      EQ \t\t\tcontract TangoUSD is Context, ...\n      PUSH [tag] 11\t\t\tcontract TangoUSD is Context, ...\n      JUMPI \t\t\tcontract TangoUSD is Context, ...\n      DUP1 \t\t\tcontract TangoUSD is Context, ...\n      PUSH 715018A6\t\t\tcontract TangoUSD is Context, ...\n      EQ \t\t\tcontract TangoUSD is Context, ...\n      PUSH [tag] 12\t\t\tcontract TangoUSD is Context, ...\n      JUMPI \t\t\tcontract TangoUSD is Context, ...\n      PUSH [tag] 2\t\t\tcontract TangoUSD is Context, ...\n      JUMP \t\t\tcontract TangoUSD is Context, ...\n    tag 25\t\t\tcontract TangoUSD is Context, ...\n      JUMPDEST \t\t\tcontract TangoUSD is Context, ...\n      DUP1 \t\t\tcontract TangoUSD is Context, ...\n      PUSH 6FDDE03\t\t\tcontract TangoUSD is Context, ...\n      EQ \t\t\tcontract TangoUSD is Context, ...\n      PUSH [tag] 3\t\t\tcontract TangoUSD is Context, ...\n      JUMPI \t\t\tcontract TangoUSD is Context, ...\n      DUP1 \t\t\tcontract TangoUSD is Context, ...\n      PUSH 95EA7B3\t\t\tcontract TangoUSD is Context, ...\n      EQ \t\t\tcontract TangoUSD is Context, ...\n      PUSH [tag] 4\t\t\tcontract TangoUSD is Context, ...\n      JUMPI \t\t\tcontract TangoUSD is Context, ...\n      DUP1 \t\t\tcontract TangoUSD is Context, ...\n      PUSH 18160DDD\t\t\tcontract TangoUSD is Context, ...\n      EQ \t\t\tcontract TangoUSD is Context, ...\n      PUSH [tag] 5\t\t\tcontract TangoUSD is Context, ...\n      JUMPI \t\t\tcontract TangoUSD is Context, ...\n      DUP1 \t\t\tcontract TangoUSD is Context, ...\n      PUSH 23B872DD\t\t\tcontract TangoUSD is Context, ...\n      EQ \t\t\tcontract TangoUSD is Context, ...\n      PUSH [tag] 6\t\t\tcontract TangoUSD is Context, ...\n      JUMPI \t\t\tcontract TangoUSD is Context, ...\n      DUP1 \t\t\tcontract TangoUSD is Context, ...\n      PUSH 313CE567\t\t\tcontract TangoUSD is Context, ...\n      EQ \t\t\tcontract TangoUSD is Context, ...\n      PUSH [tag] 7\t\t\tcontract TangoUSD is Context, ...\n      JUMPI \t\t\tcontract TangoUSD is Context, ...\n    tag 2\t\t\tcontract TangoUSD is Context, ...\n      JUMPDEST \t\t\tcontract TangoUSD is Context, ...\n      PUSH 0\t\t\tcontract TangoUSD is Context, ...\n      DUP1 \t\t\tcontract TangoUSD is Context, ...\n      REVERT \t\t\tcontract TangoUSD is Context, ...\n    tag 3\t\t\tfunction name() external view ...\n      JUMPDEST \t\t\tfunction name() external view ...\n      PUSH [tag] 26\t\t\tfunction name() external view ...\n      PUSH [tag] 27\t\t\tfunction name() external view ...\n      JUMP [in]\t\t\tfunction name() external view ...\n    tag 26\t\t\tfunction name() external view ...\n      JUMPDEST \t\t\tfunction name() external view ...\n      PUSH 40\t\t\tfunction name() external view ...\n      MLOAD \t\t\tfunction name() external view ...\n      DUP1 \t\t\tfunction name() external view ...\n      DUP1 \t\t\tfunction name() external view ...\n      PUSH 20\t\t\tfunction name() external view ...\n      ADD \t\t\tfunction name() external view ...\n      DUP3 \t\t\tfunction name() external view ...\n      DUP2 \t\t\tfunction name() external view ...\n      SUB \t\t\tfunction name() external view ...\n      DUP3 \t\t\tfunction name() external view ...\n      MSTORE \t\t\tfunction name() external view ...\n      DUP4 \t\t\tfunction name() external view ...\n      DUP2 \t\t\tfunction name() external view ...\n      DUP2 \t\t\tfunction name() external view ...\n      MLOAD \t\t\tfunction name() external view ...\n      DUP2 \t\t\tfunction name() external view ...\n      MSTORE \t\t\tfunction name() external view ...\n      PUSH 20\t\t\tfunction name() external view ...\n      ADD \t\t\tfunction name() external view ...\n      SWAP2 \t\t\tfunction name() external view ...\n      POP \t\t\tfunction name() external view ...\n      DUP1 \t\t\tfunction name() external view ...\n      MLOAD \t\t\tfunction name() external view ...\n      SWAP1 \t\t\tfunction name() external view ...\n      PUSH 20\t\t\tfunction name() external view ...\n      ADD \t\t\tfunction name() external view ...\n      SWAP1 \t\t\tfunction name() external view ...\n      DUP1 \t\t\tfunction name() external view ...\n      DUP4 \t\t\tfunction name() external view ...\n      DUP4 \t\t\tfunction name() external view ...\n      PUSH 0\t\t\t\\r\n    tag 28\t\t\tolidity 0.5.16;\\r\\n\\r\\ninterfa...\n      JUMPDEST \t\t\tolidity 0.5.16;\\r\\n\\r\\ninterfa...\n      DUP4 \t\t\tace\n      DUP2 \t\t\te\n      LT \t\t\tinterface \n      ISZERO \t\t\tolidity 0.5.16;\\r\\n\\r\\ninterfa...\n      PUSH [tag] 30\t\t\tolidity 0.5.16;\\r\\n\\r\\ninterfa...\n      JUMPI \t\t\tolidity 0.5.16;\\r\\n\\r\\ninterfa...\n      DUP1 \t\t\ts\n      DUP3 \t\t\tn e\n      ADD \t\t\tns in exist\n      MLOAD \t\t\tf tokens in existe\n      DUP2 \t\t\tn\n      DUP5 \t\t\t am\n      ADD \t\t\t the amount\n      MSTORE \t\t\tReturns the amount of tokens i...\n      PUSH 20\t\t\t\\r\\n\n      DUP2 \t\t\t/\n      ADD \t\t\t\\r\\n  /**\\r\\n \n      SWAP1 \t\t\tP20 {\\r\\n  /**\\r\\n \n      POP \t\t\tP20 {\\r\\n  /**\\r\\n \n      PUSH [tag] 28\t\t\tolidity 0.5.16;\\r\\n\\r\\ninterfa...\n      JUMP \t\t\tolidity 0.5.16;\\r\\n\\r\\ninterfa...\n    tag 30\t\t\tolidity 0.5.16;\\r\\n\\r\\ninterfa...\n      JUMPDEST \t\t\tolidity 0.5.16;\\r\\n\\r\\ninterfa...\n      POP \t\t\tity 0.5.16;\\r\\n\\r\n      POP \t\t\tfunction name() external view ...\n      POP \t\t\tfunction name() external view ...\n      POP \t\t\tfunction name() external view ...\n      SWAP1 \t\t\tfunction name() external view ...\n      POP \t\t\tfunction name() external view ...\n      SWAP1 \t\t\tfunction name() external view ...\n      DUP2 \t\t\tfunction name() external view ...\n      ADD \t\t\tfunction name() external view ...\n      SWAP1 \t\t\tfunction name() external view ...\n      PUSH 1F\t\t\tfunction name() external view ...\n      AND \t\t\tfunction name() external view ...\n      DUP1 \t\t\tfunction name() external view ...\n      ISZERO \t\t\tfunction name() external view ...\n      PUSH [tag] 31\t\t\tfunction name() external view ...\n      JUMPI \t\t\tfunction name() external view ...\n      DUP1 \t\t\tfunction name() external view ...\n      DUP3 \t\t\tfunction name() external view ...\n      SUB \t\t\tfunction name() external view ...\n      DUP1 \t\t\tfunction name() external view ...\n      MLOAD \t\t\tfunction name() external view ...\n      PUSH 1\t\t\tfunction name() external view ...\n      DUP4 \t\t\tfunction name() external view ...\n      PUSH 20\t\t\tfunction name() external view ...\n      SUB \t\t\tfunction name() external view ...\n      PUSH 100\t\t\tfunction name() external view ...\n      EXP \t\t\tfunction name() external view ...\n      SUB \t\t\tfunction name() external view ...\n      NOT \t\t\tfunction name() external view ...\n      AND \t\t\tfunction name() external view ...\n      DUP2 \t\t\tfunction name() external view ...\n      MSTORE \t\t\tfunction name() external view ...\n      PUSH 20\t\t\tfunction name() external view ...\n      ADD \t\t\tfunction name() external view ...\n      SWAP2 \t\t\tfunction name() external view ...\n      POP \t\t\tfunction name() external view ...\n    tag 31\t\t\tfunction name() external view ...\n      JUMPDEST \t\t\tfunction name() external view ...\n      POP \t\t\tfunction name() external view ...\n      SWAP3 \t\t\tfunction name() external view ...\n      POP \t\t\tfunction name() external view ...\n      POP \t\t\tfunction name() external view ...\n      POP \t\t\tfunction name() external view ...\n      PUSH 40\t\t\tfunction name() external view ...\n      MLOAD \t\t\tfunction name() external view ...\n      DUP1 \t\t\tfunction name() external view ...\n      SWAP2 \t\t\tfunction name() external view ...\n      SUB \t\t\tfunction name() external view ...\n      SWAP1 \t\t\tfunction name() external view ...\n      RETURN \t\t\tfunction name() external view ...\n    tag 4\t\t\tfunction approve(address spend...\n      JUMPDEST \t\t\tfunction approve(address spend...\n      PUSH [tag] 32\t\t\tfunction approve(address spend...\n      PUSH 4\t\t\tfunction approve(address spend...\n      DUP1 \t\t\tfunction approve(address spend...\n      CALLDATASIZE \t\t\tfunction approve(address spend...\n      SUB \t\t\tfunction approve(address spend...\n      PUSH 40\t\t\tty\n      DUP2 \t\t\toli\n      LT \t\t\ta solidity \n      ISZERO \t\t\tag\n      PUSH [tag] 33\t\t\tag\n      JUMPI \t\t\tag\n      PUSH 0\t\t\tt\n      DUP1 \t\t\t\\n\n      REVERT \t\t\t.16;\\r\\n\\r\\ninte\n    tag 33\t\t\tag\n      JUMPDEST \t\t\tag\n      DUP2 \t\t\tfunction approve(address spend...\n      ADD \t\t\tfunction approve(address spend...\n      SWAP1 \t\t\tfunction approve(address spend...\n      DUP1 \t\t\tfunction approve(address spend...\n      DUP1 \t\t\tfunction approve(address spend...\n      CALLDATALOAD \t\t\tfunction approve(address spend...\n      PUSH FFFFFFFFFFFFFFFFFFFFFFFFFFFFFFFFFFFFFFFF\t\t\tfunction approve(address spend...\n      AND \t\t\tfunction approve(address spend...\n      SWAP1 \t\t\tfunction approve(address spend...\n      PUSH 20\t\t\tfunction approve(address spend...\n      ADD \t\t\tfunction approve(address spend...\n      SWAP1 \t\t\tfunction approve(address spend...\n      SWAP3 \t\t\tfunction approve(address spend...\n      SWAP2 \t\t\tfunction approve(address spend...\n      SWAP1 \t\t\tfunction approve(address spend...\n      DUP1 \t\t\tfunction approve(address spend...\n      CALLDATALOAD \t\t\tfunction approve(address spend...\n      SWAP1 \t\t\tfunction approve(address spend...\n      PUSH 20\t\t\tfunction approve(address spend...\n      ADD \t\t\tfunction approve(address spend...\n      SWAP1 \t\t\tfunction approve(address spend...\n      SWAP3 \t\t\tfunction approve(address spend...\n      SWAP2 \t\t\tfunction approve(address spend...\n      SWAP1 \t\t\tfunction approve(address spend...\n      POP \t\t\tfunction approve(address spend...\n      POP \t\t\tfunction approve(address spend...\n      POP \t\t\tfunction approve(address spend...\n      PUSH [tag] 34\t\t\tfunction approve(address spend...\n      JUMP [in]\t\t\tfunction approve(address spend...\n    tag 32\t\t\tfunction approve(address spend...\n      JUMPDEST \t\t\tfunction approve(address spend...\n      PUSH 40\t\t\tfunction approve(address spend...\n      MLOAD \t\t\tfunction approve(address spend...\n      DUP1 \t\t\tfunction approve(address spend...\n      DUP3 \t\t\tfunction approve(address spend...\n      ISZERO \t\t\tfunction approve(address spend...\n      ISZERO \t\t\tfunction approve(address spend...\n      ISZERO \t\t\tfunction approve(address spend...\n      ISZERO \t\t\tfunction approve(address spend...\n      DUP2 \t\t\tfunction approve(address spend...\n      MSTORE \t\t\tfunction approve(address spend...\n      PUSH 20\t\t\tfunction approve(address spend...\n      ADD \t\t\tfunction approve(address spend...\n      SWAP2 \t\t\tfunction approve(address spend...\n      POP \t\t\tfunction approve(address spend...\n      POP \t\t\tfunction approve(address spend...\n      PUSH 40\t\t\tfunction approve(address spend...\n      MLOAD \t\t\tfunction approve(address spend...\n      DUP1 \t\t\tfunction approve(address spend...\n      SWAP2 \t\t\tfunction approve(address spend...\n      SUB \t\t\tfunction approve(address spend...\n      SWAP1 \t\t\tfunction approve(address spend...\n      RETURN \t\t\tfunction approve(address spend...\n    tag 5\t\t\tfunction totalSupply() externa...\n      JUMPDEST \t\t\tfunction totalSupply() externa...\n      PUSH [tag] 35\t\t\tfunction totalSupply() externa...\n      PUSH [tag] 36\t\t\tfunction totalSupply() externa...\n      JUMP [in]\t\t\tfunction totalSupply() externa...\n    tag 35\t\t\tfunction totalSupply() externa...\n      JUMPDEST \t\t\tfunction totalSupply() externa...\n      PUSH 40\t\t\tfunction totalSupply() externa...\n      MLOAD \t\t\tfunction totalSupply() externa...\n      DUP1 \t\t\tfunction totalSupply() externa...\n      DUP3 \t\t\tfunction totalSupply() externa...\n      DUP2 \t\t\tfunction totalSupply() externa...\n      MSTORE \t\t\tfunction totalSupply() externa...\n      PUSH 20\t\t\tfunction totalSupply() externa...\n      ADD \t\t\tfunction totalSupply() externa...\n      SWAP2 \t\t\tfunction totalSupply() externa...\n      POP \t\t\tfunction totalSupply() externa...\n      POP \t\t\tfunction totalSupply() externa...\n      PUSH 40\t\t\tfunction totalSupply() externa...\n      MLOAD \t\t\tfunction totalSupply() externa...\n      DUP1 \t\t\tfunction totalSupply() externa...\n      SWAP2 \t\t\tfunction totalSupply() externa...\n      SUB \t\t\tfunction totalSupply() externa...\n      SWAP1 \t\t\tfunction totalSupply() externa...\n      RETURN \t\t\tfunction totalSupply() externa...\n    tag 6\t\t\tfunction transferFrom(address ...\n      JUMPDEST \t\t\tfunction transferFrom(address ...\n      PUSH [tag] 37\t\t\tfunction transferFrom(address ...\n      PUSH 4\t\t\tfunction transferFrom(address ...\n      DUP1 \t\t\tfunction transferFrom(address ...\n      CALLDATASIZE \t\t\tfunction transferFrom(address ...\n      SUB \t\t\tfunction transferFrom(address ...\n      PUSH 60\t\t\tty\n      DUP2 \t\t\toli\n      LT \t\t\ta solidity \n      ISZERO \t\t\tag\n      PUSH [tag] 38\t\t\tag\n      JUMPI \t\t\tag\n      PUSH 0\t\t\tt\n      DUP1 \t\t\t\\n\n      REVERT \t\t\t.16;\\r\\n\\r\\ninte\n    tag 38\t\t\tag\n      JUMPDEST \t\t\tag\n      DUP2 \t\t\tfunction transferFrom(address ...\n      ADD \t\t\tfunction transferFrom(address ...\n      SWAP1 \t\t\tfunction transferFrom(address ...\n      DUP1 \t\t\tfunction transferFrom(address ...\n      DUP1 \t\t\tfunction transferFrom(address ...\n      CALLDATALOAD \t\t\tfunction transferFrom(address ...\n      PUSH FFFFFFFFFFFFFFFFFFFFFFFFFFFFFFFFFFFFFFFF\t\t\tfunction transferFrom(address ...\n      AND \t\t\tfunction transferFrom(address ...\n      SWAP1 \t\t\tfunction transferFrom(address ...\n      PUSH 20\t\t\tfunction transferFrom(address ...\n      ADD \t\t\tfunction transferFrom(address ...\n      SWAP1 \t\t\tfunction transferFrom(address ...\n      SWAP3 \t\t\tfunction transferFrom(address ...\n      SWAP2 \t\t\tfunction transferFrom(address ...\n      SWAP1 \t\t\tfunction transferFrom(address ...\n      DUP1 \t\t\tfunction transferFrom(address ...\n      CALLDATALOAD \t\t\tfunction transferFrom(address ...\n      PUSH FFFFFFFFFFFFFFFFFFFFFFFFFFFFFFFFFFFFFFFF\t\t\tfunction transferFrom(address ...\n      AND \t\t\tfunction transferFrom(address ...\n      SWAP1 \t\t\tfunction transferFrom(address ...\n      PUSH 20\t\t\tfunction transferFrom(address ...\n      ADD \t\t\tfunction transferFrom(address ...\n      SWAP1 \t\t\tfunction transferFrom(address ...\n      SWAP3 \t\t\tfunction transferFrom(address ...\n      SWAP2 \t\t\tfunction transferFrom(address ...\n      SWAP1 \t\t\tfunction transferFrom(address ...\n      DUP1 \t\t\tfunction transferFrom(address ...\n      CALLDATALOAD \t\t\tfunction transferFrom(address ...\n      SWAP1 \t\t\tfunction transferFrom(address ...\n      PUSH 20\t\t\tfunction transferFrom(address ...\n      ADD \t\t\tfunction transferFrom(address ...\n      SWAP1 \t\t\tfunction transferFrom(address ...\n      SWAP3 \t\t\tfunction transferFrom(address ...\n      SWAP2 \t\t\tfunction transferFrom(address ...\n      SWAP1 \t\t\tfunction transferFrom(address ...\n      POP \t\t\tfunction transferFrom(address ...\n      POP \t\t\tfunction transferFrom(address ...\n      POP \t\t\tfunction transferFrom(address ...\n      PUSH [tag] 39\t\t\tfunction transferFrom(address ...\n      JUMP [in]\t\t\tfunction transferFrom(address ...\n    tag 37\t\t\tfunction transferFrom(address ...\n      JUMPDEST \t\t\tfunction transferFrom(address ...\n      PUSH 40\t\t\tfunction transferFrom(address ...\n      MLOAD \t\t\tfunction transferFrom(address ...\n      DUP1 \t\t\tfunction transferFrom(address ...\n      DUP3 \t\t\tfunction transferFrom(address ...\n      ISZERO \t\t\tfunction transferFrom(address ...\n      ISZERO \t\t\tfunction transferFrom(address ...\n      ISZERO \t\t\tfunction transferFrom(address ...\n      ISZERO \t\t\tfunction transferFrom(address ...\n      DUP2 \t\t\tfunction transferFrom(address ...\n      MSTORE \t\t\tfunction transferFrom(address ...\n      PUSH 20\t\t\tfunction transferFrom(address ...\n      ADD \t\t\tfunction transferFrom(address ...\n      SWAP2 \t\t\tfunction transferFrom(address ...\n      POP \t\t\tfunction transferFrom(address ...\n      POP \t\t\tfunction transferFrom(address ...\n      PUSH 40\t\t\tfunction transferFrom(address ...\n      MLOAD \t\t\tfunction transferFrom(address ...\n      DUP1 \t\t\tfunction transferFrom(address ...\n      SWAP2 \t\t\tfunction transferFrom(address ...\n      SUB \t\t\tfunction transferFrom(address ...\n      SWAP1 \t\t\tfunction transferFrom(address ...\n      RETURN \t\t\tfunction transferFrom(address ...\n    tag 7\t\t\tfunction decimals() external v...\n      JUMPDEST \t\t\tfunction decimals() external v...\n      PUSH [tag] 40\t\t\tfunction decimals() external v...\n      PUSH [tag] 41\t\t\tfunction decimals() external v...\n      JUMP [in]\t\t\tfunction decimals() external v...\n    tag 40\t\t\tfunction decimals() external v...\n      JUMPDEST \t\t\tfunction decimals() external v...\n      PUSH 40\t\t\tfunction decimals() external v...\n      MLOAD \t\t\tfunction decimals() external v...\n      DUP1 \t\t\tfunction decimals() external v...\n      DUP3 \t\t\tfunction decimals() external v...\n      PUSH FF\t\t\tfunction decimals() external v...\n      AND \t\t\tfunction decimals() external v...\n      PUSH FF\t\t\tfunction decimals() external v...\n      AND \t\t\tfunction decimals() external v...\n      DUP2 \t\t\tfunction decimals() external v...\n      MSTORE \t\t\tfunction decimals() external v...\n      PUSH 20\t\t\tfunction decimals() external v...\n      ADD \t\t\tfunction decimals() external v...\n      SWAP2 \t\t\tfunction decimals() external v...\n      POP \t\t\tfunction decimals() external v...\n      POP \t\t\tfunction decimals() external v...\n      PUSH 40\t\t\tfunction decimals() external v...\n      MLOAD \t\t\tfunction decimals() external v...\n      DUP1 \t\t\tfunction decimals() external v...\n      SWAP2 \t\t\tfunction decimals() external v...\n      SUB \t\t\tfunction decimals() external v...\n      SWAP1 \t\t\tfunction decimals() external v...\n      RETURN \t\t\tfunction decimals() external v...\n    tag 8\t\t\tuint8 public _decimals\n      JUMPDEST \t\t\tuint8 public _decimals\n      PUSH [tag] 42\t\t\tuint8 public _decimals\n      PUSH [tag] 43\t\t\tuint8 public _decimals\n      JUMP [in]\t\t\tuint8 public _decimals\n    tag 42\t\t\tuint8 public _decimals\n      JUMPDEST \t\t\tuint8 public _decimals\n      PUSH 40\t\t\tuint8 public _decimals\n      MLOAD \t\t\tuint8 public _decimals\n      DUP1 \t\t\tuint8 public _decimals\n      DUP3 \t\t\tuint8 public _decimals\n      PUSH FF\t\t\tuint8 public _decimals\n      AND \t\t\tuint8 public _decimals\n      PUSH FF\t\t\tuint8 public _decimals\n      AND \t\t\tuint8 public _decimals\n      DUP2 \t\t\tuint8 public _decimals\n      MSTORE \t\t\tuint8 public _decimals\n      PUSH 20\t\t\tuint8 public _decimals\n      ADD \t\t\tuint8 public _decimals\n      SWAP2 \t\t\tuint8 public _decimals\n      POP \t\t\tuint8 public _decimals\n      POP \t\t\tuint8 public _decimals\n      PUSH 40\t\t\tuint8 public _decimals\n      MLOAD \t\t\tuint8 public _decimals\n      DUP1 \t\t\tuint8 public _decimals\n      SWAP2 \t\t\tuint8 public _decimals\n      SUB \t\t\tuint8 public _decimals\n      SWAP1 \t\t\tuint8 public _decimals\n      RETURN \t\t\tuint8 public _decimals\n    tag 9\t\t\tfunction increaseAllowance(add...\n      JUMPDEST \t\t\tfunction increaseAllowance(add...\n      PUSH [tag] 44\t\t\tfunction increaseAllowance(add...\n      PUSH 4\t\t\tfunction increaseAllowance(add...\n      DUP1 \t\t\tfunction increaseAllowance(add...\n      CALLDATASIZE \t\t\tfunction increaseAllowance(add...\n      SUB \t\t\tfunction increaseAllowance(add...\n      PUSH 40\t\t\tty\n      DUP2 \t\t\toli\n      LT \t\t\ta solidity \n      ISZERO \t\t\tag\n      PUSH [tag] 45\t\t\tag\n      JUMPI \t\t\tag\n      PUSH 0\t\t\tt\n      DUP1 \t\t\t\\n\n      REVERT \t\t\t.16;\\r\\n\\r\\ninte\n    tag 45\t\t\tag\n      JUMPDEST \t\t\tag\n      DUP2 \t\t\tfunction increaseAllowance(add...\n      ADD \t\t\tfunction increaseAllowance(add...\n      SWAP1 \t\t\tfunction increaseAllowance(add...\n      DUP1 \t\t\tfunction increaseAllowance(add...\n      DUP1 \t\t\tfunction increaseAllowance(add...\n      CALLDATALOAD \t\t\tfunction increaseAllowance(add...\n      PUSH FFFFFFFFFFFFFFFFFFFFFFFFFFFFFFFFFFFFFFFF\t\t\tfunction increaseAllowance(add...\n      AND \t\t\tfunction increaseAllowance(add...\n      SWAP1 \t\t\tfunction increaseAllowance(add...\n      PUSH 20\t\t\tfunction increaseAllowance(add...\n      ADD \t\t\tfunction increaseAllowance(add...\n      SWAP1 \t\t\tfunction increaseAllowance(add...\n      SWAP3 \t\t\tfunction increaseAllowance(add...\n      SWAP2 \t\t\tfunction increaseAllowance(add...\n      SWAP1 \t\t\tfunction increaseAllowance(add...\n      DUP1 \t\t\tfunction increaseAllowance(add...\n      CALLDATALOAD \t\t\tfunction increaseAllowance(add...\n      SWAP1 \t\t\tfunction increaseAllowance(add...\n      PUSH 20\t\t\tfunction increaseAllowance(add...\n      ADD \t\t\tfunction increaseAllowance(add...\n      SWAP1 \t\t\tfunction increaseAllowance(add...\n      SWAP3 \t\t\tfunction increaseAllowance(add...\n      SWAP2 \t\t\tfunction increaseAllowance(add...\n      SWAP1 \t\t\tfunction increaseAllowance(add...\n      POP \t\t\tfunction increaseAllowance(add...\n      POP \t\t\tfunction increaseAllowance(add...\n      POP \t\t\tfunction increaseAllowance(add...\n      PUSH [tag] 46\t\t\tfunction increaseAllowance(add...\n      JUMP [in]\t\t\tfunction increaseAllowance(add...\n    tag 44\t\t\tfunction increaseAllowance(add...\n      JUMPDEST \t\t\tfunction increaseAllowance(add...\n      PUSH 40\t\t\tfunction increaseAllowance(add...\n      MLOAD \t\t\tfunction increaseAllowance(add...\n      DUP1 \t\t\tfunction increaseAllowance(add...\n      DUP3 \t\t\tfunction increaseAllowance(add...\n      ISZERO \t\t\tfunction increaseAllowance(add...\n      ISZERO \t\t\tfunction increaseAllowance(add...\n      ISZERO \t\t\tfunction increaseAllowance(add...\n      ISZERO \t\t\tfunction increaseAllowance(add...\n      DUP2 \t\t\tfunction increaseAllowance(add...\n      MSTORE \t\t\tfunction increaseAllowance(add...\n      PUSH 20\t\t\tfunction increaseAllowance(add...\n      ADD \t\t\tfunction increaseAllowance(add...\n      SWAP2 \t\t\tfunction increaseAllowance(add...\n      POP \t\t\tfunction increaseAllowance(add...\n      POP \t\t\tfunction increaseAllowance(add...\n      PUSH 40\t\t\tfunction increaseAllowance(add...\n      MLOAD \t\t\tfunction increaseAllowance(add...\n      DUP1 \t\t\tfunction increaseAllowance(add...\n      SWAP2 \t\t\tfunction increaseAllowance(add...\n      SUB \t\t\tfunction increaseAllowance(add...\n      SWAP1 \t\t\tfunction increaseAllowance(add...\n      RETURN \t\t\tfunction increaseAllowance(add...\n    tag 10\t\t\tfunction burn(uint256 amount) ...\n      JUMPDEST \t\t\tfunction burn(uint256 amount) ...\n      PUSH [tag] 47\t\t\tfunction burn(uint256 amount) ...\n      PUSH 4\t\t\tfunction burn(uint256 amount) ...\n      DUP1 \t\t\tfunction burn(uint256 amount) ...\n      CALLDATASIZE \t\t\tfunction burn(uint256 amount) ...\n      SUB \t\t\tfunction burn(uint256 amount) ...\n      PUSH 20\t\t\tty\n      DUP2 \t\t\toli\n      LT \t\t\ta solidity \n      ISZERO \t\t\tag\n      PUSH [tag] 48\t\t\tag\n      JUMPI \t\t\tag\n      PUSH 0\t\t\tt\n      DUP1 \t\t\t\\n\n      REVERT \t\t\t.16;\\r\\n\\r\\ninte\n    tag 48\t\t\tag\n      JUMPDEST \t\t\tag\n      DUP2 \t\t\tfunction burn(uint256 amount) ...\n      ADD \t\t\tfunction burn(uint256 amount) ...\n      SWAP1 \t\t\tfunction burn(uint256 amount) ...\n      DUP1 \t\t\tfunction burn(uint256 amount) ...\n      DUP1 \t\t\tfunction burn(uint256 amount) ...\n      CALLDATALOAD \t\t\tfunction burn(uint256 amount) ...\n      SWAP1 \t\t\tfunction burn(uint256 amount) ...\n      PUSH 20\t\t\tfunction burn(uint256 amount) ...\n      ADD \t\t\tfunction burn(uint256 amount) ...\n      SWAP1 \t\t\tfunction burn(uint256 amount) ...\n      SWAP3 \t\t\tfunction burn(uint256 amount) ...\n      SWAP2 \t\t\tfunction burn(uint256 amount) ...\n      SWAP1 \t\t\tfunction burn(uint256 amount) ...\n      POP \t\t\tfunction burn(uint256 amount) ...\n      POP \t\t\tfunction burn(uint256 amount) ...\n      POP \t\t\tfunction burn(uint256 amount) ...\n      PUSH [tag] 49\t\t\tfunction burn(uint256 amount) ...\n      JUMP [in]\t\t\tfunction burn(uint256 amount) ...\n    tag 47\t\t\tfunction burn(uint256 amount) ...\n      JUMPDEST \t\t\tfunction burn(uint256 amount) ...\n      PUSH 40\t\t\tfunction burn(uint256 amount) ...\n      MLOAD \t\t\tfunction burn(uint256 amount) ...\n      DUP1 \t\t\tfunction burn(uint256 amount) ...\n      DUP3 \t\t\tfunction burn(uint256 amount) ...\n      ISZERO \t\t\tfunction burn(uint256 amount) ...\n      ISZERO \t\t\tfunction burn(uint256 amount) ...\n      ISZERO \t\t\tfunction burn(uint256 amount) ...\n      ISZERO \t\t\tfunction burn(uint256 amount) ...\n      DUP2 \t\t\tfunction burn(uint256 amount) ...\n      MSTORE \t\t\tfunction burn(uint256 amount) ...\n      PUSH 20\t\t\tfunction burn(uint256 amount) ...\n      ADD \t\t\tfunction burn(uint256 amount) ...\n      SWAP2 \t\t\tfunction burn(uint256 amount) ...\n      POP \t\t\tfunction burn(uint256 amount) ...\n      POP \t\t\tfunction burn(uint256 amount) ...\n      PUSH 40\t\t\tfunction burn(uint256 amount) ...\n      MLOAD \t\t\tfunction burn(uint256 amount) ...\n      DUP1 \t\t\tfunction burn(uint256 amount) ...\n      SWAP2 \t\t\tfunction burn(uint256 amount) ...\n      SUB \t\t\tfunction burn(uint256 amount) ...\n      SWAP1 \t\t\tfunction burn(uint256 amount) ...\n      RETURN \t\t\tfunction burn(uint256 amount) ...\n    tag 11\t\t\tfunction balanceOf(address acc...\n      JUMPDEST \t\t\tfunction balanceOf(address acc...\n      PUSH [tag] 50\t\t\tfunction balanceOf(address acc...\n      PUSH 4\t\t\tfunction balanceOf(address acc...\n      DUP1 \t\t\tfunction balanceOf(address acc...\n      CALLDATASIZE \t\t\tfunction balanceOf(address acc...\n      SUB \t\t\tfunction balanceOf(address acc...\n      PUSH 20\t\t\tty\n      DUP2 \t\t\toli\n      LT \t\t\ta solidity \n      ISZERO \t\t\tag\n      PUSH [tag] 51\t\t\tag\n      JUMPI \t\t\tag\n      PUSH 0\t\t\tt\n      DUP1 \t\t\t\\n\n      REVERT \t\t\t.16;\\r\\n\\r\\ninte\n    tag 51\t\t\tag\n      JUMPDEST \t\t\tag\n      DUP2 \t\t\tfunction balanceOf(address acc...\n      ADD \t\t\tfunction balanceOf(address acc...\n      SWAP1 \t\t\tfunction balanceOf(address acc...\n      DUP1 \t\t\tfunction balanceOf(address acc...\n      DUP1 \t\t\tfunction balanceOf(address acc...\n      CALLDATALOAD \t\t\tfunction balanceOf(address acc...\n      PUSH FFFFFFFFFFFFFFFFFFFFFFFFFFFFFFFFFFFFFFFF\t\t\tfunction balanceOf(address acc...\n      AND \t\t\tfunction balanceOf(address acc...\n      SWAP1 \t\t\tfunction balanceOf(address acc...\n      PUSH 20\t\t\tfunction balanceOf(address acc...\n      ADD \t\t\tfunction balanceOf(address acc...\n      SWAP1 \t\t\tfunction balanceOf(address acc...\n      SWAP3 \t\t\tfunction balanceOf(address acc...\n      SWAP2 \t\t\tfunction balanceOf(address acc...\n      SWAP1 \t\t\tfunction balanceOf(address acc...\n      POP \t\t\tfunction balanceOf(address acc...\n      POP \t\t\tfunction balanceOf(address acc...\n      POP \t\t\tfunction balanceOf(address acc...\n      PUSH [tag] 52\t\t\tfunction balanceOf(address acc...\n      JUMP [in]\t\t\tfunction balanceOf(address acc...\n    tag 50\t\t\tfunction balanceOf(address acc...\n      JUMPDEST \t\t\tfunction balanceOf(address acc...\n      PUSH 40\t\t\tfunction balanceOf(address acc...\n      MLOAD \t\t\tfunction balanceOf(address acc...\n      DUP1 \t\t\tfunction balanceOf(address acc...\n      DUP3 \t\t\tfunction balanceOf(address acc...\n      DUP2 \t\t\tfunction balanceOf(address acc...\n      MSTORE \t\t\tfunction balanceOf(address acc...\n      PUSH 20\t\t\tfunction balanceOf(address acc...\n      ADD \t\t\tfunction balanceOf(address acc...\n      SWAP2 \t\t\tfunction balanceOf(address acc...\n      POP \t\t\tfunction balanceOf(address acc...\n      POP \t\t\tfunction balanceOf(address acc...\n      PUSH 40\t\t\tfunction balanceOf(address acc...\n      MLOAD \t\t\tfunction balanceOf(address acc...\n      DUP1 \t\t\tfunction balanceOf(address acc...\n      SWAP2 \t\t\tfunction balanceOf(address acc...\n      SUB \t\t\tfunction balanceOf(address acc...\n      SWAP1 \t\t\tfunction balanceOf(address acc...\n      RETURN \t\t\tfunction balanceOf(address acc...\n    tag 12\t\t\tfunction renounceOwnership() p...\n      JUMPDEST \t\t\tfunction renounceOwnership() p...\n      PUSH [tag] 53\t\t\tfunction renounceOwnership() p...\n      PUSH [tag] 54\t\t\tfunction renounceOwnership() p...\n      JUMP [in]\t\t\tfunction renounceOwnership() p...\n    tag 53\t\t\tfunction renounceOwnership() p...\n      JUMPDEST \t\t\tfunction renounceOwnership() p...\n      STOP \t\t\tfunction renounceOwnership() p...\n    tag 13\t\t\tfunction getOwner() external v...\n      JUMPDEST \t\t\tfunction getOwner() external v...\n      PUSH [tag] 55\t\t\tfunction getOwner() external v...\n      PUSH [tag] 56\t\t\tfunction getOwner() external v...\n      JUMP [in]\t\t\tfunction getOwner() external v...\n    tag 55\t\t\tfunction getOwner() external v...\n      JUMPDEST \t\t\tfunction getOwner() external v...\n      PUSH 40\t\t\tfunction getOwner() external v...\n      MLOAD \t\t\tfunction getOwner() external v...\n      DUP1 \t\t\tfunction getOwner() external v...\n      DUP3 \t\t\tfunction getOwner() external v...\n      PUSH FFFFFFFFFFFFFFFFFFFFFFFFFFFFFFFFFFFFFFFF\t\t\tfunction getOwner() external v...\n      AND \t\t\tfunction getOwner() external v...\n      PUSH FFFFFFFFFFFFFFFFFFFFFFFFFFFFFFFFFFFFFFFF\t\t\tfunction getOwner() external v...\n      AND \t\t\tfunction getOwner() external v...\n      DUP2 \t\t\tfunction getOwner() external v...\n      MSTORE \t\t\tfunction getOwner() external v...\n      PUSH 20\t\t\tfunction getOwner() external v...\n      ADD \t\t\tfunction getOwner() external v...\n      SWAP2 \t\t\tfunction getOwner() external v...\n      POP \t\t\tfunction getOwner() external v...\n      POP \t\t\tfunction getOwner() external v...\n      PUSH 40\t\t\tfunction getOwner() external v...\n      MLOAD \t\t\tfunction getOwner() external v...\n      DUP1 \t\t\tfunction getOwner() external v...\n      SWAP2 \t\t\tfunction getOwner() external v...\n      SUB \t\t\tfunction getOwner() external v...\n      SWAP1 \t\t\tfunction getOwner() external v...\n      RETURN \t\t\tfunction getOwner() external v...\n    tag 14\t\t\tfunction owner() public view r...\n      JUMPDEST \t\t\tfunction owner() public view r...\n      PUSH [tag] 57\t\t\tfunction owner() public view r...\n      PUSH [tag] 58\t\t\tfunction owner() public view r...\n      JUMP [in]\t\t\tfunction owner() public view r...\n    tag 57\t\t\tfunction owner() public view r...\n      JUMPDEST \t\t\tfunction owner() public view r...\n      PUSH 40\t\t\tfunction owner() public view r...\n      MLOAD \t\t\tfunction owner() public view r...\n      DUP1 \t\t\tfunction owner() public view r...\n      DUP3 \t\t\tfunction owner() public view r...\n      PUSH FFFFFFFFFFFFFFFFFFFFFFFFFFFFFFFFFFFFFFFF\t\t\tfunction owner() public view r...\n      AND \t\t\tfunction owner() public view r...\n      PUSH FFFFFFFFFFFFFFFFFFFFFFFFFFFFFFFFFFFFFFFF\t\t\tfunction owner() public view r...\n      AND \t\t\tfunction owner() public view r...\n      DUP2 \t\t\tfunction owner() public view r...\n      MSTORE \t\t\tfunction owner() public view r...\n      PUSH 20\t\t\tfunction owner() public view r...\n      ADD \t\t\tfunction owner() public view r...\n      SWAP2 \t\t\tfunction owner() public view r...\n      POP \t\t\tfunction owner() public view r...\n      POP \t\t\tfunction owner() public view r...\n      PUSH 40\t\t\tfunction owner() public view r...\n      MLOAD \t\t\tfunction owner() public view r...\n      DUP1 \t\t\tfunction owner() public view r...\n      SWAP2 \t\t\tfunction owner() public view r...\n      SUB \t\t\tfunction owner() public view r...\n      SWAP1 \t\t\tfunction owner() public view r...\n      RETURN \t\t\tfunction owner() public view r...\n    tag 15\t\t\tfunction symbol() external vie...\n      JUMPDEST \t\t\tfunction symbol() external vie...\n      PUSH [tag] 59\t\t\tfunction symbol() external vie...\n      PUSH [tag] 60\t\t\tfunction symbol() external vie...\n      JUMP [in]\t\t\tfunction symbol() external vie...\n    tag 59\t\t\tfunction symbol() external vie...\n      JUMPDEST \t\t\tfunction symbol() external vie...\n      PUSH 40\t\t\tfunction symbol() external vie...\n      MLOAD \t\t\tfunction symbol() external vie...\n      DUP1 \t\t\tfunction symbol() external vie...\n      DUP1 \t\t\tfunction symbol() external vie...\n      PUSH 20\t\t\tfunction symbol() external vie...\n      ADD \t\t\tfunction symbol() external vie...\n      DUP3 \t\t\tfunction symbol() external vie...\n      DUP2 \t\t\tfunction symbol() external vie...\n      SUB \t\t\tfunction symbol() external vie...\n      DUP3 \t\t\tfunction symbol() external vie...\n      MSTORE \t\t\tfunction symbol() external vie...\n      DUP4 \t\t\tfunction symbol() external vie...\n      DUP2 \t\t\tfunction symbol() external vie...\n      DUP2 \t\t\tfunction symbol() external vie...\n      MLOAD \t\t\tfunction symbol() external vie...\n      DUP2 \t\t\tfunction symbol() external vie...\n      MSTORE \t\t\tfunction symbol() external vie...\n      PUSH 20\t\t\tfunction symbol() external vie...\n      ADD \t\t\tfunction symbol() external vie...\n      SWAP2 \t\t\tfunction symbol() external vie...\n      POP \t\t\tfunction symbol() external vie...\n      DUP1 \t\t\tfunction symbol() external vie...\n      MLOAD \t\t\tfunction symbol() external vie...\n      SWAP1 \t\t\tfunction symbol() external vie...\n      PUSH 20\t\t\tfunction symbol() external vie...\n      ADD \t\t\tfunction symbol() external vie...\n      SWAP1 \t\t\tfunction symbol() external vie...\n      DUP1 \t\t\tfunction symbol() external vie...\n      DUP4 \t\t\tfunction symbol() external vie...\n      DUP4 \t\t\tfunction symbol() external vie...\n      PUSH 0\t\t\t\\r\n    tag 61\t\t\tolidity 0.5.16;\\r\\n\\r\\ninterfa...\n      JUMPDEST \t\t\tolidity 0.5.16;\\r\\n\\r\\ninterfa...\n      DUP4 \t\t\tace\n      DUP2 \t\t\te\n      LT \t\t\tinterface \n      ISZERO \t\t\tolidity 0.5.16;\\r\\n\\r\\ninterfa...\n      PUSH [tag] 63\t\t\tolidity 0.5.16;\\r\\n\\r\\ninterfa...\n      JUMPI \t\t\tolidity 0.5.16;\\r\\n\\r\\ninterfa...\n      DUP1 \t\t\ts\n      DUP3 \t\t\tn e\n      ADD \t\t\tns in exist\n      MLOAD \t\t\tf tokens in existe\n      DUP2 \t\t\tn\n      DUP5 \t\t\t am\n      ADD \t\t\t the amount\n      MSTORE \t\t\tReturns the amount of tokens i...\n      PUSH 20\t\t\t\\r\\n\n      DUP2 \t\t\t/\n      ADD \t\t\t\\r\\n  /**\\r\\n \n      SWAP1 \t\t\tP20 {\\r\\n  /**\\r\\n \n      POP \t\t\tP20 {\\r\\n  /**\\r\\n \n      PUSH [tag] 61\t\t\tolidity 0.5.16;\\r\\n\\r\\ninterfa...\n      JUMP \t\t\tolidity 0.5.16;\\r\\n\\r\\ninterfa...\n    tag 63\t\t\tolidity 0.5.16;\\r\\n\\r\\ninterfa...\n      JUMPDEST \t\t\tolidity 0.5.16;\\r\\n\\r\\ninterfa...\n      POP \t\t\tity 0.5.16;\\r\\n\\r\n      POP \t\t\tfunction symbol() external vie...\n      POP \t\t\tfunction symbol() external vie...\n      POP \t\t\tfunction symbol() external vie...\n      SWAP1 \t\t\tfunction symbol() external vie...\n      POP \t\t\tfunction symbol() external vie...\n      SWAP1 \t\t\tfunction symbol() external vie...\n      DUP2 \t\t\tfunction symbol() external vie...\n      ADD \t\t\tfunction symbol() external vie...\n      SWAP1 \t\t\tfunction symbol() external vie...\n      PUSH 1F\t\t\tfunction symbol() external vie...\n      AND \t\t\tfunction symbol() external vie...\n      DUP1 \t\t\tfunction symbol() external vie...\n      ISZERO \t\t\tfunction symbol() external vie...\n      PUSH [tag] 64\t\t\tfunction symbol() external vie...\n      JUMPI \t\t\tfunction symbol() external vie...\n      DUP1 \t\t\tfunction symbol() external vie...\n      DUP3 \t\t\tfunction symbol() external vie...\n      SUB \t\t\tfunction symbol() external vie...\n      DUP1 \t\t\tfunction symbol() external vie...\n      MLOAD \t\t\tfunction symbol() external vie...\n      PUSH 1\t\t\tfunction symbol() external vie...\n      DUP4 \t\t\tfunction symbol() external vie...\n      PUSH 20\t\t\tfunction symbol() external vie...\n      SUB \t\t\tfunction symbol() external vie...\n      PUSH 100\t\t\tfunction symbol() external vie...\n      EXP \t\t\tfunction symbol() external vie...\n      SUB \t\t\tfunction symbol() external vie...\n      NOT \t\t\tfunction symbol() external vie...\n      AND \t\t\tfunction symbol() external vie...\n      DUP2 \t\t\tfunction symbol() external vie...\n      MSTORE \t\t\tfunction symbol() external vie...\n      PUSH 20\t\t\tfunction symbol() external vie...\n      ADD \t\t\tfunction symbol() external vie...\n      SWAP2 \t\t\tfunction symbol() external vie...\n      POP \t\t\tfunction symbol() external vie...\n    tag 64\t\t\tfunction symbol() external vie...\n      JUMPDEST \t\t\tfunction symbol() external vie...\n      POP \t\t\tfunction symbol() external vie...\n      SWAP3 \t\t\tfunction symbol() external vie...\n      POP \t\t\tfunction symbol() external vie...\n      POP \t\t\tfunction symbol() external vie...\n      POP \t\t\tfunction symbol() external vie...\n      PUSH 40\t\t\tfunction symbol() external vie...\n      MLOAD \t\t\tfunction symbol() external vie...\n      DUP1 \t\t\tfunction symbol() external vie...\n      SWAP2 \t\t\tfunction symbol() external vie...\n      SUB \t\t\tfunction symbol() external vie...\n      SWAP1 \t\t\tfunction symbol() external vie...\n      RETURN \t\t\tfunction symbol() external vie...\n    tag 16\t\t\tfunction mint(uint256 amount) ...\n      JUMPDEST \t\t\tfunction mint(uint256 amount) ...\n      PUSH [tag] 65\t\t\tfunction mint(uint256 amount) ...\n      PUSH 4\t\t\tfunction mint(uint256 amount) ...\n      DUP1 \t\t\tfunction mint(uint256 amount) ...\n      CALLDATASIZE \t\t\tfunction mint(uint256 amount) ...\n      SUB \t\t\tfunction mint(uint256 amount) ...\n      PUSH 20\t\t\tty\n      DUP2 \t\t\toli\n      LT \t\t\ta solidity \n      ISZERO \t\t\tag\n      PUSH [tag] 66\t\t\tag\n      JUMPI \t\t\tag\n      PUSH 0\t\t\tt\n      DUP1 \t\t\t\\n\n      REVERT \t\t\t.16;\\r\\n\\r\\ninte\n    tag 66\t\t\tag\n      JUMPDEST \t\t\tag\n      DUP2 \t\t\tfunction mint(uint256 amount) ...\n      ADD \t\t\tfunction mint(uint256 amount) ...\n      SWAP1 \t\t\tfunction mint(uint256 amount) ...\n      DUP1 \t\t\tfunction mint(uint256 amount) ...\n      DUP1 \t\t\tfunction mint(uint256 amount) ...\n      CALLDATALOAD \t\t\tfunction mint(uint256 amount) ...\n      SWAP1 \t\t\tfunction mint(uint256 amount) ...\n      PUSH 20\t\t\tfunction mint(uint256 amount) ...\n      ADD \t\t\tfunction mint(uint256 amount) ...\n      SWAP1 \t\t\tfunction mint(uint256 amount) ...\n      SWAP3 \t\t\tfunction mint(uint256 amount) ...\n      SWAP2 \t\t\tfunction mint(uint256 amount) ...\n      SWAP1 \t\t\tfunction mint(uint256 amount) ...\n      POP \t\t\tfunction mint(uint256 amount) ...\n      POP \t\t\tfunction mint(uint256 amount) ...\n      POP \t\t\tfunction mint(uint256 amount) ...\n      PUSH [tag] 67\t\t\tfunction mint(uint256 amount) ...\n      JUMP [in]\t\t\tfunction mint(uint256 amount) ...\n    tag 65\t\t\tfunction mint(uint256 amount) ...\n      JUMPDEST \t\t\tfunction mint(uint256 amount) ...\n      PUSH 40\t\t\tfunction mint(uint256 amount) ...\n      MLOAD \t\t\tfunction mint(uint256 amount) ...\n      DUP1 \t\t\tfunction mint(uint256 amount) ...\n      DUP3 \t\t\tfunction mint(uint256 amount) ...\n      ISZERO \t\t\tfunction mint(uint256 amount) ...\n      ISZERO \t\t\tfunction mint(uint256 amount) ...\n      ISZERO \t\t\tfunction mint(uint256 amount) ...\n      ISZERO \t\t\tfunction mint(uint256 amount) ...\n      DUP2 \t\t\tfunction mint(uint256 amount) ...\n      MSTORE \t\t\tfunction mint(uint256 amount) ...\n      PUSH 20\t\t\tfunction mint(uint256 amount) ...\n      ADD \t\t\tfunction mint(uint256 amount) ...\n      SWAP2 \t\t\tfunction mint(uint256 amount) ...\n      POP \t\t\tfunction mint(uint256 amount) ...\n      POP \t\t\tfunction mint(uint256 amount) ...\n      PUSH 40\t\t\tfunction mint(uint256 amount) ...\n      MLOAD \t\t\tfunction mint(uint256 amount) ...\n      DUP1 \t\t\tfunction mint(uint256 amount) ...\n      SWAP2 \t\t\tfunction mint(uint256 amount) ...\n      SUB \t\t\tfunction mint(uint256 amount) ...\n      SWAP1 \t\t\tfunction mint(uint256 amount) ...\n      RETURN \t\t\tfunction mint(uint256 amount) ...\n    tag 17\t\t\tfunction decreaseAllowance(add...\n      JUMPDEST \t\t\tfunction decreaseAllowance(add...\n      PUSH [tag] 68\t\t\tfunction decreaseAllowance(add...\n      PUSH 4\t\t\tfunction decreaseAllowance(add...\n      DUP1 \t\t\tfunction decreaseAllowance(add...\n      CALLDATASIZE \t\t\tfunction decreaseAllowance(add...\n      SUB \t\t\tfunction decreaseAllowance(add...\n      PUSH 40\t\t\tty\n      DUP2 \t\t\toli\n      LT \t\t\ta solidity \n      ISZERO \t\t\tag\n      PUSH [tag] 69\t\t\tag\n      JUMPI \t\t\tag\n      PUSH 0\t\t\tt\n      DUP1 \t\t\t\\n\n      REVERT \t\t\t.16;\\r\\n\\r\\ninte\n    tag 69\t\t\tag\n      JUMPDEST \t\t\tag\n      DUP2 \t\t\tfunction decreaseAllowance(add...\n      ADD \t\t\tfunction decreaseAllowance(add...\n      SWAP1 \t\t\tfunction decreaseAllowance(add...\n      DUP1 \t\t\tfunction decreaseAllowance(add...\n      DUP1 \t\t\tfunction decreaseAllowance(add...\n      CALLDATALOAD \t\t\tfunction decreaseAllowance(add...\n      PUSH FFFFFFFFFFFFFFFFFFFFFFFFFFFFFFFFFFFFFFFF\t\t\tfunction decreaseAllowance(add...\n      AND \t\t\tfunction decreaseAllowance(add...\n      SWAP1 \t\t\tfunction decreaseAllowance(add...\n      PUSH 20\t\t\tfunction decreaseAllowance(add...\n      ADD \t\t\tfunction decreaseAllowance(add...\n      SWAP1 \t\t\tfunction decreaseAllowance(add...\n      SWAP3 \t\t\tfunction decreaseAllowance(add...\n      SWAP2 \t\t\tfunction decreaseAllowance(add...\n      SWAP1 \t\t\tfunction decreaseAllowance(add...\n      DUP1 \t\t\tfunction decreaseAllowance(add...\n      CALLDATALOAD \t\t\tfunction decreaseAllowance(add...\n      SWAP1 \t\t\tfunction decreaseAllowance(add...\n      PUSH 20\t\t\tfunction decreaseAllowance(add...\n      ADD \t\t\tfunction decreaseAllowance(add...\n      SWAP1 \t\t\tfunction decreaseAllowance(add...\n      SWAP3 \t\t\tfunction decreaseAllowance(add...\n      SWAP2 \t\t\tfunction decreaseAllowance(add...\n      SWAP1 \t\t\tfunction decreaseAllowance(add...\n      POP \t\t\tfunction decreaseAllowance(add...\n      POP \t\t\tfunction decreaseAllowance(add...\n      POP \t\t\tfunction decreaseAllowance(add...\n      PUSH [tag] 70\t\t\tfunction decreaseAllowance(add...\n      JUMP [in]\t\t\tfunction decreaseAllowance(add...\n    tag 68\t\t\tfunction decreaseAllowance(add...\n      JUMPDEST \t\t\tfunction decreaseAllowance(add...\n      PUSH 40\t\t\tfunction decreaseAllowance(add...\n      MLOAD \t\t\tfunction decreaseAllowance(add...\n      DUP1 \t\t\tfunction decreaseAllowance(add...\n      DUP3 \t\t\tfunction decreaseAllowance(add...\n      ISZERO \t\t\tfunction decreaseAllowance(add...\n      ISZERO \t\t\tfunction decreaseAllowance(add...\n      ISZERO \t\t\tfunction decreaseAllowance(add...\n      ISZERO \t\t\tfunction decreaseAllowance(add...\n      DUP2 \t\t\tfunction decreaseAllowance(add...\n      MSTORE \t\t\tfunction decreaseAllowance(add...\n      PUSH 20\t\t\tfunction decreaseAllowance(add...\n      ADD \t\t\tfunction decreaseAllowance(add...\n      SWAP2 \t\t\tfunction decreaseAllowance(add...\n      POP \t\t\tfunction decreaseAllowance(add...\n      POP \t\t\tfunction decreaseAllowance(add...\n      PUSH 40\t\t\tfunction decreaseAllowance(add...\n      MLOAD \t\t\tfunction decreaseAllowance(add...\n      DUP1 \t\t\tfunction decreaseAllowance(add...\n      SWAP2 \t\t\tfunction decreaseAllowance(add...\n      SUB \t\t\tfunction decreaseAllowance(add...\n      SWAP1 \t\t\tfunction decreaseAllowance(add...\n      RETURN \t\t\tfunction decreaseAllowance(add...\n    tag 18\t\t\tfunction transfer(address reci...\n      JUMPDEST \t\t\tfunction transfer(address reci...\n      PUSH [tag] 71\t\t\tfunction transfer(address reci...\n      PUSH 4\t\t\tfunction transfer(address reci...\n      DUP1 \t\t\tfunction transfer(address reci...\n      CALLDATASIZE \t\t\tfunction transfer(address reci...\n      SUB \t\t\tfunction transfer(address reci...\n      PUSH 40\t\t\tty\n      DUP2 \t\t\toli\n      LT \t\t\ta solidity \n      ISZERO \t\t\tag\n      PUSH [tag] 72\t\t\tag\n      JUMPI \t\t\tag\n      PUSH 0\t\t\tt\n      DUP1 \t\t\t\\n\n      REVERT \t\t\t.16;\\r\\n\\r\\ninte\n    tag 72\t\t\tag\n      JUMPDEST \t\t\tag\n      DUP2 \t\t\tfunction transfer(address reci...\n      ADD \t\t\tfunction transfer(address reci...\n      SWAP1 \t\t\tfunction transfer(address reci...\n      DUP1 \t\t\tfunction transfer(address reci...\n      DUP1 \t\t\tfunction transfer(address reci...\n      CALLDATALOAD \t\t\tfunction transfer(address reci...\n      PUSH FFFFFFFFFFFFFFFFFFFFFFFFFFFFFFFFFFFFFFFF\t\t\tfunction transfer(address reci...\n      AND \t\t\tfunction transfer(address reci...\n      SWAP1 \t\t\tfunction transfer(address reci...\n      PUSH 20\t\t\tfunction transfer(address reci...\n      ADD \t\t\tfunction transfer(address reci...\n      SWAP1 \t\t\tfunction transfer(address reci...\n      SWAP3 \t\t\tfunction transfer(address reci...\n      SWAP2 \t\t\tfunction transfer(address reci...\n      SWAP1 \t\t\tfunction transfer(address reci...\n      DUP1 \t\t\tfunction transfer(address reci...\n      CALLDATALOAD \t\t\tfunction transfer(address reci...\n      SWAP1 \t\t\tfunction transfer(address reci...\n      PUSH 20\t\t\tfunction transfer(address reci...\n      ADD \t\t\tfunction transfer(address reci...\n      SWAP1 \t\t\tfunction transfer(address reci...\n      SWAP3 \t\t\tfunction transfer(address reci...\n      SWAP2 \t\t\tfunction transfer(address reci...\n      SWAP1 \t\t\tfunction transfer(address reci...\n      POP \t\t\tfunction transfer(address reci...\n      POP \t\t\tfunction transfer(address reci...\n      POP \t\t\tfunction transfer(address reci...\n      PUSH [tag] 73\t\t\tfunction transfer(address reci...\n      JUMP [in]\t\t\tfunction transfer(address reci...\n    tag 71\t\t\tfunction transfer(address reci...\n      JUMPDEST \t\t\tfunction transfer(address reci...\n      PUSH 40\t\t\tfunction transfer(address reci...\n      MLOAD \t\t\tfunction transfer(address reci...\n      DUP1 \t\t\tfunction transfer(address reci...\n      DUP3 \t\t\tfunction transfer(address reci...\n      ISZERO \t\t\tfunction transfer(address reci...\n      ISZERO \t\t\tfunction transfer(address reci...\n      ISZERO \t\t\tfunction transfer(address reci...\n      ISZERO \t\t\tfunction transfer(address reci...\n      DUP2 \t\t\tfunction transfer(address reci...\n      MSTORE \t\t\tfunction transfer(address reci...\n      PUSH 20\t\t\tfunction transfer(address reci...\n      ADD \t\t\tfunction transfer(address reci...\n      SWAP2 \t\t\tfunction transfer(address reci...\n      POP \t\t\tfunction transfer(address reci...\n      POP \t\t\tfunction transfer(address reci...\n      PUSH 40\t\t\tfunction transfer(address reci...\n      MLOAD \t\t\tfunction transfer(address reci...\n      DUP1 \t\t\tfunction transfer(address reci...\n      SWAP2 \t\t\tfunction transfer(address reci...\n      SUB \t\t\tfunction transfer(address reci...\n      SWAP1 \t\t\tfunction transfer(address reci...\n      RETURN \t\t\tfunction transfer(address reci...\n    tag 19\t\t\tstring public _symbol\n      JUMPDEST \t\t\tstring public _symbol\n      PUSH [tag] 74\t\t\tstring public _symbol\n      PUSH [tag] 75\t\t\tstring public _symbol\n      JUMP [in]\t\t\tstring public _symbol\n    tag 74\t\t\tstring public _symbol\n      JUMPDEST \t\t\tstring public _symbol\n      PUSH 40\t\t\tstring public _symbol\n      MLOAD \t\t\tstring public _symbol\n      DUP1 \t\t\tstring public _symbol\n      DUP1 \t\t\tstring public _symbol\n      PUSH 20\t\t\tstring public _symbol\n      ADD \t\t\tstring public _symbol\n      DUP3 \t\t\tstring public _symbol\n      DUP2 \t\t\tstring public _symbol\n      SUB \t\t\tstring public _symbol\n      DUP3 \t\t\tstring public _symbol\n      MSTORE \t\t\tstring public _symbol\n      DUP4 \t\t\tstring public _symbol\n      DUP2 \t\t\tstring public _symbol\n      DUP2 \t\t\tstring public _symbol\n      MLOAD \t\t\tstring public _symbol\n      DUP2 \t\t\tstring public _symbol\n      MSTORE \t\t\tstring public _symbol\n      PUSH 20\t\t\tstring public _symbol\n      ADD \t\t\tstring public _symbol\n      SWAP2 \t\t\tstring public _symbol\n      POP \t\t\tstring public _symbol\n      DUP1 \t\t\tstring public _symbol\n      MLOAD \t\t\tstring public _symbol\n      SWAP1 \t\t\tstring public _symbol\n      PUSH 20\t\t\tstring public _symbol\n      ADD \t\t\tstring public _symbol\n      SWAP1 \t\t\tstring public _symbol\n      DUP1 \t\t\tstring public _symbol\n      DUP4 \t\t\tstring public _symbol\n      DUP4 \t\t\tstring public _symbol\n      PUSH 0\t\t\t\\r\n    tag 76\t\t\tolidity 0.5.16;\\r\\n\\r\\ninterfa...\n      JUMPDEST \t\t\tolidity 0.5.16;\\r\\n\\r\\ninterfa...\n      DUP4 \t\t\tace\n      DUP2 \t\t\te\n      LT \t\t\tinterface \n      ISZERO \t\t\tolidity 0.5.16;\\r\\n\\r\\ninterfa...\n      PUSH [tag] 78\t\t\tolidity 0.5.16;\\r\\n\\r\\ninterfa...\n      JUMPI \t\t\tolidity 0.5.16;\\r\\n\\r\\ninterfa...\n      DUP1 \t\t\ts\n      DUP3 \t\t\tn e\n      ADD \t\t\tns in exist\n      MLOAD \t\t\tf tokens in existe\n      DUP2 \t\t\tn\n      DUP5 \t\t\t am\n      ADD \t\t\t the amount\n      MSTORE \t\t\tReturns the amount of tokens i...\n      PUSH 20\t\t\t\\r\\n\n      DUP2 \t\t\t/\n      ADD \t\t\t\\r\\n  /**\\r\\n \n      SWAP1 \t\t\tP20 {\\r\\n  /**\\r\\n \n      POP \t\t\tP20 {\\r\\n  /**\\r\\n \n      PUSH [tag] 76\t\t\tolidity 0.5.16;\\r\\n\\r\\ninterfa...\n      JUMP \t\t\tolidity 0.5.16;\\r\\n\\r\\ninterfa...\n    tag 78\t\t\tolidity 0.5.16;\\r\\n\\r\\ninterfa...\n      JUMPDEST \t\t\tolidity 0.5.16;\\r\\n\\r\\ninterfa...\n      POP \t\t\tity 0.5.16;\\r\\n\\r\n      POP \t\t\tstring public _symbol\n      POP \t\t\tstring public _symbol\n      POP \t\t\tstring public _symbol\n      SWAP1 \t\t\tstring public _symbol\n      POP \t\t\tstring public _symbol\n      SWAP1 \t\t\tstring public _symbol\n      DUP2 \t\t\tstring public _symbol\n      ADD \t\t\tstring public _symbol\n      SWAP1 \t\t\tstring public _symbol\n      PUSH 1F\t\t\tstring public _symbol\n      AND \t\t\tstring public _symbol\n      DUP1 \t\t\tstring public _symbol\n      ISZERO \t\t\tstring public _symbol\n      PUSH [tag] 79\t\t\tstring public _symbol\n      JUMPI \t\t\tstring public _symbol\n      DUP1 \t\t\tstring public _symbol\n      DUP3 \t\t\tstring public _symbol\n      SUB \t\t\tstring public _symbol\n      DUP1 \t\t\tstring public _symbol\n      MLOAD \t\t\tstring public _symbol\n      PUSH 1\t\t\tstring public _symbol\n      DUP4 \t\t\tstring public _symbol\n      PUSH 20\t\t\tstring public _symbol\n      SUB \t\t\tstring public _symbol\n      PUSH 100\t\t\tstring public _symbol\n      EXP \t\t\tstring public _symbol\n      SUB \t\t\tstring public _symbol\n      NOT \t\t\tstring public _symbol\n      AND \t\t\tstring public _symbol\n      DUP2 \t\t\tstring public _symbol\n      MSTORE \t\t\tstring public _symbol\n      PUSH 20\t\t\tstring public _symbol\n      ADD \t\t\tstring public _symbol\n      SWAP2 \t\t\tstring public _symbol\n      POP \t\t\tstring public _symbol\n    tag 79\t\t\tstring public _symbol\n      JUMPDEST \t\t\tstring public _symbol\n      POP \t\t\tstring public _symbol\n      SWAP3 \t\t\tstring public _symbol\n      POP \t\t\tstring public _symbol\n      POP \t\t\tstring public _symbol\n      POP \t\t\tstring public _symbol\n      PUSH 40\t\t\tstring public _symbol\n      MLOAD \t\t\tstring public _symbol\n      DUP1 \t\t\tstring public _symbol\n      SWAP2 \t\t\tstring public _symbol\n      SUB \t\t\tstring public _symbol\n      SWAP1 \t\t\tstring public _symbol\n      RETURN \t\t\tstring public _symbol\n    tag 20\t\t\tstring public _name\n      JUMPDEST \t\t\tstring public _name\n      PUSH [tag] 80\t\t\tstring public _name\n      PUSH [tag] 81\t\t\tstring public _name\n      JUMP [in]\t\t\tstring public _name\n    tag 80\t\t\tstring public _name\n      JUMPDEST \t\t\tstring public _name\n      PUSH 40\t\t\tstring public _name\n      MLOAD \t\t\tstring public _name\n      DUP1 \t\t\tstring public _name\n      DUP1 \t\t\tstring public _name\n      PUSH 20\t\t\tstring public _name\n      ADD \t\t\tstring public _name\n      DUP3 \t\t\tstring public _name\n      DUP2 \t\t\tstring public _name\n      SUB \t\t\tstring public _name\n      DUP3 \t\t\tstring public _name\n      MSTORE \t\t\tstring public _name\n      DUP4 \t\t\tstring public _name\n      DUP2 \t\t\tstring public _name\n      DUP2 \t\t\tstring public _name\n      MLOAD \t\t\tstring public _name\n      DUP2 \t\t\tstring public _name\n      MSTORE \t\t\tstring public _name\n      PUSH 20\t\t\tstring public _name\n      ADD \t\t\tstring public _name\n      SWAP2 \t\t\tstring public _name\n      POP \t\t\tstring public _name\n      DUP1 \t\t\tstring public _name\n      MLOAD \t\t\tstring public _name\n      SWAP1 \t\t\tstring public _name\n      PUSH 20\t\t\tstring public _name\n      ADD \t\t\tstring public _name\n      SWAP1 \t\t\tstring public _name\n      DUP1 \t\t\tstring public _name\n      DUP4 \t\t\tstring public _name\n      DUP4 \t\t\tstring public _name\n      PUSH 0\t\t\t\\r\n    tag 82\t\t\tolidity 0.5.16;\\r\\n\\r\\ninterfa...\n      JUMPDEST \t\t\tolidity 0.5.16;\\r\\n\\r\\ninterfa...\n      DUP4 \t\t\tace\n      DUP2 \t\t\te\n      LT \t\t\tinterface \n      ISZERO \t\t\tolidity 0.5.16;\\r\\n\\r\\ninterfa...\n      PUSH [tag] 84\t\t\tolidity 0.5.16;\\r\\n\\r\\ninterfa...\n      JUMPI \t\t\tolidity 0.5.16;\\r\\n\\r\\ninterfa...\n      DUP1 \t\t\ts\n      DUP3 \t\t\tn e\n      ADD \t\t\tns in exist\n      MLOAD \t\t\tf tokens in existe\n      DUP2 \t\t\tn\n      DUP5 \t\t\t am\n      ADD \t\t\t the amount\n      MSTORE \t\t\tReturns the amount of tokens i...\n      PUSH 20\t\t\t\\r\\n\n      DUP2 \t\t\t/\n      ADD \t\t\t\\r\\n  /**\\r\\n \n      SWAP1 \t\t\tP20 {\\r\\n  /**\\r\\n \n      POP \t\t\tP20 {\\r\\n  /**\\r\\n \n      PUSH [tag] 82\t\t\tolidity 0.5.16;\\r\\n\\r\\ninterfa...\n      JUMP \t\t\tolidity 0.5.16;\\r\\n\\r\\ninterfa...\n    tag 84\t\t\tolidity 0.5.16;\\r\\n\\r\\ninterfa...\n      JUMPDEST \t\t\tolidity 0.5.16;\\r\\n\\r\\ninterfa...\n      POP \t\t\tity 0.5.16;\\r\\n\\r\n      POP \t\t\tstring public _name\n      POP \t\t\tstring public _name\n      POP \t\t\tstring public _name\n      SWAP1 \t\t\tstring public _name\n      POP \t\t\tstring public _name\n      SWAP1 \t\t\tstring public _name\n      DUP2 \t\t\tstring public _name\n      ADD \t\t\tstring public _name\n      SWAP1 \t\t\tstring public _name\n      PUSH 1F\t\t\tstring public _name\n      AND \t\t\tstring public _name\n      DUP1 \t\t\tstring public _name\n      ISZERO \t\t\tstring public _name\n      PUSH [tag] 85\t\t\tstring public _name\n      JUMPI \t\t\tstring public _name\n      DUP1 \t\t\tstring public _name\n      DUP3 \t\t\tstring public _name\n      SUB \t\t\tstring public _name\n      DUP1 \t\t\tstring public _name\n      MLOAD \t\t\tstring public _name\n      PUSH 1\t\t\tstring public _name\n      DUP4 \t\t\tstring public _name\n      PUSH 20\t\t\tstring public _name\n      SUB \t\t\tstring public _name\n      PUSH 100\t\t\tstring public _name\n      EXP \t\t\tstring public _name\n      SUB \t\t\tstring public _name\n      NOT \t\t\tstring public _name\n      AND \t\t\tstring public _name\n      DUP2 \t\t\tstring public _name\n      MSTORE \t\t\tstring public _name\n      PUSH 20\t\t\tstring public _name\n      ADD \t\t\tstring public _name\n      SWAP2 \t\t\tstring public _name\n      POP \t\t\tstring public _name\n    tag 85\t\t\tstring public _name\n      JUMPDEST \t\t\tstring public _name\n      POP \t\t\tstring public _name\n      SWAP3 \t\t\tstring public _name\n      POP \t\t\tstring public _name\n      POP \t\t\tstring public _name\n      POP \t\t\tstring public _name\n      PUSH 40\t\t\tstring public _name\n      MLOAD \t\t\tstring public _name\n      DUP1 \t\t\tstring public _name\n      SWAP2 \t\t\tstring public _name\n      SUB \t\t\tstring public _name\n      SWAP1 \t\t\tstring public _name\n      RETURN \t\t\tstring public _name\n    tag 21\t\t\tfunction allowance(address own...\n      JUMPDEST \t\t\tfunction allowance(address own...\n      PUSH [tag] 86\t\t\tfunction allowance(address own...\n      PUSH 4\t\t\tfunction allowance(address own...\n      DUP1 \t\t\tfunction allowance(address own...\n      CALLDATASIZE \t\t\tfunction allowance(address own...\n      SUB \t\t\tfunction allowance(address own...\n      PUSH 40\t\t\tty\n      DUP2 \t\t\toli\n      LT \t\t\ta solidity \n      ISZERO \t\t\tag\n      PUSH [tag] 87\t\t\tag\n      JUMPI \t\t\tag\n      PUSH 0\t\t\tt\n      DUP1 \t\t\t\\n\n      REVERT \t\t\t.16;\\r\\n\\r\\ninte\n    tag 87\t\t\tag\n      JUMPDEST \t\t\tag\n      DUP2 \t\t\tfunction allowance(address own...\n      ADD \t\t\tfunction allowance(address own...\n      SWAP1 \t\t\tfunction allowance(address own...\n      DUP1 \t\t\tfunction allowance(address own...\n      DUP1 \t\t\tfunction allowance(address own...\n      CALLDATALOAD \t\t\tfunction allowance(address own...\n      PUSH FFFFFFFFFFFFFFFFFFFFFFFFFFFFFFFFFFFFFFFF\t\t\tfunction allowance(address own...\n      AND \t\t\tfunction allowance(address own...\n      SWAP1 \t\t\tfunction allowance(address own...\n      PUSH 20\t\t\tfunction allowance(address own...\n      ADD \t\t\tfunction allowance(address own...\n      SWAP1 \t\t\tfunction allowance(address own...\n      SWAP3 \t\t\tfunction allowance(address own...\n      SWAP2 \t\t\tfunction allowance(address own...\n      SWAP1 \t\t\tfunction allowance(address own...\n      DUP1 \t\t\tfunction allowance(address own...\n      CALLDATALOAD \t\t\tfunction allowance(address own...\n      PUSH FFFFFFFFFFFFFFFFFFFFFFFFFFFFFFFFFFFFFFFF\t\t\tfunction allowance(address own...\n      AND \t\t\tfunction allowance(address own...\n      SWAP1 \t\t\tfunction allowance(address own...\n      PUSH 20\t\t\tfunction allowance(address own...\n      ADD \t\t\tfunction allowance(address own...\n      SWAP1 \t\t\tfunction allowance(address own...\n      SWAP3 \t\t\tfunction allowance(address own...\n      SWAP2 \t\t\tfunction allowance(address own...\n      SWAP1 \t\t\tfunction allowance(address own...\n      POP \t\t\tfunction allowance(address own...\n      POP \t\t\tfunction allowance(address own...\n      POP \t\t\tfunction allowance(address own...\n      PUSH [tag] 88\t\t\tfunction allowance(address own...\n      JUMP [in]\t\t\tfunction allowance(address own...\n    tag 86\t\t\tfunction allowance(address own...\n      JUMPDEST \t\t\tfunction allowance(address own...\n      PUSH 40\t\t\tfunction allowance(address own...\n      MLOAD \t\t\tfunction allowance(address own...\n      DUP1 \t\t\tfunction allowance(address own...\n      DUP3 \t\t\tfunction allowance(address own...\n      DUP2 \t\t\tfunction allowance(address own...\n      MSTORE \t\t\tfunction allowance(address own...\n      PUSH 20\t\t\tfunction allowance(address own...\n      ADD \t\t\tfunction allowance(address own...\n      SWAP2 \t\t\tfunction allowance(address own...\n      POP \t\t\tfunction allowance(address own...\n      POP \t\t\tfunction allowance(address own...\n      PUSH 40\t\t\tfunction allowance(address own...\n      MLOAD \t\t\tfunction allowance(address own...\n      DUP1 \t\t\tfunction allowance(address own...\n      SWAP2 \t\t\tfunction allowance(address own...\n      SUB \t\t\tfunction allowance(address own...\n      SWAP1 \t\t\tfunction allowance(address own...\n      RETURN \t\t\tfunction allowance(address own...\n    tag 22\t\t\tfunction transferOwnership(add...\n      JUMPDEST \t\t\tfunction transferOwnership(add...\n      PUSH [tag] 89\t\t\tfunction transferOwnership(add...\n      PUSH 4\t\t\tfunction transferOwnership(add...\n      DUP1 \t\t\tfunction transferOwnership(add...\n      CALLDATASIZE \t\t\tfunction transferOwnership(add...\n      SUB \t\t\tfunction transferOwnership(add...\n      PUSH 20\t\t\tty\n      DUP2 \t\t\toli\n      LT \t\t\ta solidity \n      ISZERO \t\t\tag\n      PUSH [tag] 90\t\t\tag\n      JUMPI \t\t\tag\n      PUSH 0\t\t\tt\n      DUP1 \t\t\t\\n\n      REVERT \t\t\t.16;\\r\\n\\r\\ninte\n    tag 90\t\t\tag\n      JUMPDEST \t\t\tag\n      DUP2 \t\t\tfunction transferOwnership(add...\n      ADD \t\t\tfunction transferOwnership(add...\n      SWAP1 \t\t\tfunction transferOwnership(add...\n      DUP1 \t\t\tfunction transferOwnership(add...\n      DUP1 \t\t\tfunction transferOwnership(add...\n      CALLDATALOAD \t\t\tfunction transferOwnership(add...\n      PUSH FFFFFFFFFFFFFFFFFFFFFFFFFFFFFFFFFFFFFFFF\t\t\tfunction transferOwnership(add...\n      AND \t\t\tfunction transferOwnership(add...\n      SWAP1 \t\t\tfunction transferOwnership(add...\n      PUSH 20\t\t\tfunction transferOwnership(add...\n      ADD \t\t\tfunction transferOwnership(add...\n      SWAP1 \t\t\tfunction transferOwnership(add...\n      SWAP3 \t\t\tfunction transferOwnership(add...\n      SWAP2 \t\t\tfunction transferOwnership(add...\n      SWAP1 \t\t\tfunction transferOwnership(add...\n      POP \t\t\tfunction transferOwnership(add...\n      POP \t\t\tfunction transferOwnership(add...\n      POP \t\t\tfunction transferOwnership(add...\n      PUSH [tag] 91\t\t\tfunction transferOwnership(add...\n      JUMP [in]\t\t\tfunction transferOwnership(add...\n    tag 89\t\t\tfunction transferOwnership(add...\n      JUMPDEST \t\t\tfunction transferOwnership(add...\n      STOP \t\t\tfunction transferOwnership(add...\n    tag 27\t\t\tfunction name() external view ...\n      JUMPDEST \t\t\tfunction name() external view ...\n      PUSH 60\t\t\tstring memory\n      PUSH 6\t\t\t_name\n      DUP1 \t\t\treturn _name\n      SLOAD \t\t\treturn _name\n      PUSH 1\t\t\treturn _name\n      DUP2 \t\t\treturn _name\n      PUSH 1\t\t\treturn _name\n      AND \t\t\treturn _name\n      ISZERO \t\t\treturn _name\n      PUSH 100\t\t\treturn _name\n      MUL \t\t\treturn _name\n      SUB \t\t\treturn _name\n      AND \t\t\treturn _name\n      PUSH 2\t\t\treturn _name\n      SWAP1 \t\t\treturn _name\n      DIV \t\t\treturn _name\n      DUP1 \t\t\treturn _name\n      PUSH 1F\t\t\treturn _name\n      ADD \t\t\treturn _name\n      PUSH 20\t\t\treturn _name\n      DUP1 \t\t\treturn _name\n      SWAP2 \t\t\treturn _name\n      DIV \t\t\treturn _name\n      MUL \t\t\treturn _name\n      PUSH 20\t\t\treturn _name\n      ADD \t\t\treturn _name\n      PUSH 40\t\t\treturn _name\n      MLOAD \t\t\treturn _name\n      SWAP1 \t\t\treturn _name\n      DUP2 \t\t\treturn _name\n      ADD \t\t\treturn _name\n      PUSH 40\t\t\treturn _name\n      MSTORE \t\t\treturn _name\n      DUP1 \t\t\treturn _name\n      SWAP3 \t\t\treturn _name\n      SWAP2 \t\t\treturn _name\n      SWAP1 \t\t\treturn _name\n      DUP2 \t\t\treturn _name\n      DUP2 \t\t\treturn _name\n      MSTORE \t\t\treturn _name\n      PUSH 20\t\t\treturn _name\n      ADD \t\t\treturn _name\n      DUP3 \t\t\treturn _name\n      DUP1 \t\t\treturn _name\n      SLOAD \t\t\treturn _name\n      PUSH 1\t\t\treturn _name\n      DUP2 \t\t\treturn _name\n      PUSH 1\t\t\treturn _name\n      AND \t\t\treturn _name\n      ISZERO \t\t\treturn _name\n      PUSH 100\t\t\treturn _name\n      MUL \t\t\treturn _name\n      SUB \t\t\treturn _name\n      AND \t\t\treturn _name\n      PUSH 2\t\t\treturn _name\n      SWAP1 \t\t\treturn _name\n      DIV \t\t\treturn _name\n      DUP1 \t\t\treturn _name\n      ISZERO \t\t\treturn _name\n      PUSH [tag] 93\t\t\treturn _name\n      JUMPI \t\t\treturn _name\n      DUP1 \t\t\treturn _name\n      PUSH 1F\t\t\treturn _name\n      LT \t\t\treturn _name\n      PUSH [tag] 94\t\t\treturn _name\n      JUMPI \t\t\treturn _name\n      PUSH 100\t\t\treturn _name\n      DUP1 \t\t\treturn _name\n      DUP4 \t\t\treturn _name\n      SLOAD \t\t\treturn _name\n      DIV \t\t\treturn _name\n      MUL \t\t\treturn _name\n      DUP4 \t\t\treturn _name\n      MSTORE \t\t\treturn _name\n      SWAP2 \t\t\treturn _name\n      PUSH 20\t\t\treturn _name\n      ADD \t\t\treturn _name\n      SWAP2 \t\t\treturn _name\n      PUSH [tag] 93\t\t\treturn _name\n      JUMP \t\t\treturn _name\n    tag 94\t\t\treturn _name\n      JUMPDEST \t\t\treturn _name\n      DUP3 \t\t\treturn _name\n      ADD \t\t\treturn _name\n      SWAP2 \t\t\treturn _name\n      SWAP1 \t\t\treturn _name\n      PUSH 0\t\t\treturn _name\n      MSTORE \t\t\treturn _name\n      PUSH 20\t\t\treturn _name\n      PUSH 0\t\t\treturn _name\n      KECCAK256 \t\t\treturn _name\n      SWAP1 \t\t\treturn _name\n    tag 95\t\t\treturn _name\n      JUMPDEST \t\t\treturn _name\n      DUP2 \t\t\treturn _name\n      SLOAD \t\t\treturn _name\n      DUP2 \t\t\treturn _name\n      MSTORE \t\t\treturn _name\n      SWAP1 \t\t\treturn _name\n      PUSH 1\t\t\treturn _name\n      ADD \t\t\treturn _name\n      SWAP1 \t\t\treturn _name\n      PUSH 20\t\t\treturn _name\n      ADD \t\t\treturn _name\n      DUP1 \t\t\treturn _name\n      DUP4 \t\t\treturn _name\n      GT \t\t\treturn _name\n      PUSH [tag] 95\t\t\treturn _name\n      JUMPI \t\t\treturn _name\n      DUP3 \t\t\treturn _name\n      SWAP1 \t\t\treturn _name\n      SUB \t\t\treturn _name\n      PUSH 1F\t\t\treturn _name\n      AND \t\t\treturn _name\n      DUP3 \t\t\treturn _name\n      ADD \t\t\treturn _name\n      SWAP2 \t\t\treturn _name\n    tag 93\t\t\treturn _name\n      JUMPDEST \t\t\treturn _name\n      POP \t\t\treturn _name\n      POP \t\t\treturn _name\n      POP \t\t\treturn _name\n      POP \t\t\treturn _name\n      POP \t\t\treturn _name\n      SWAP1 \t\t\treturn _name\n      POP \t\t\treturn _name\n      SWAP1 \t\t\tfunction name() external view ...\n      JUMP [out]\t\t\tfunction name() external view ...\n    tag 34\t\t\tfunction approve(address spend...\n      JUMPDEST \t\t\tfunction approve(address spend...\n      PUSH 0\t\t\tbool\n      PUSH [tag] 97\t\t\t_approve(_msgSender(), spender...\n      PUSH [tag] 98\t\t\t_msgSender()\n      PUSH [tag] 99\t\t\t_msgSender\n      JUMP [in]\t\t\t_msgSender()\n    tag 98\t\t\t_msgSender()\n      JUMPDEST \t\t\t_msgSender()\n      DUP5 \t\t\tspender\n      DUP5 \t\t\tamount\n      PUSH [tag] 100\t\t\t_approve\n      JUMP [in]\t\t\t_approve(_msgSender(), spender...\n    tag 97\t\t\t_approve(_msgSender(), spender...\n      JUMPDEST \t\t\t_approve(_msgSender(), spender...\n      PUSH 1\t\t\ttrue\n      SWAP1 \t\t\treturn true\n      POP \t\t\treturn true\n      SWAP3 \t\t\tfunction approve(address spend...\n      SWAP2 \t\t\tfunction approve(address spend...\n      POP \t\t\tfunction approve(address spend...\n      POP \t\t\tfunction approve(address spend...\n      JUMP [out]\t\t\tfunction approve(address spend...\n    tag 36\t\t\tfunction totalSupply() externa...\n      JUMPDEST \t\t\tfunction totalSupply() externa...\n      PUSH 0\t\t\tuint256\n      PUSH 3\t\t\t_totalSupply\n      SLOAD \t\t\t_totalSupply\n      SWAP1 \t\t\treturn _totalSupply\n      POP \t\t\treturn _totalSupply\n      SWAP1 \t\t\tfunction totalSupply() externa...\n      JUMP [out]\t\t\tfunction totalSupply() externa...\n    tag 39\t\t\tfunction transferFrom(address ...\n      JUMPDEST \t\t\tfunction transferFrom(address ...\n      PUSH 0\t\t\tbool\n      PUSH [tag] 103\t\t\t_transfer(sender, recipient, a...\n      DUP5 \t\t\tsender\n      DUP5 \t\t\trecipient\n      DUP5 \t\t\tamount\n      PUSH [tag] 104\t\t\t_transfer\n      JUMP [in]\t\t\t_transfer(sender, recipient, a...\n    tag 103\t\t\t_transfer(sender, recipient, a...\n      JUMPDEST \t\t\t_transfer(sender, recipient, a...\n      PUSH [tag] 105\t\t\t_approve(sender, _msgSender(),...\n      DUP5 \t\t\tsender\n      PUSH [tag] 106\t\t\t_msgSender()\n      PUSH [tag] 99\t\t\t_msgSender\n      JUMP [in]\t\t\t_msgSender()\n    tag 106\t\t\t_msgSender()\n      JUMPDEST \t\t\t_msgSender()\n      PUSH [tag] 107\t\t\t_allowances[sender][_msgSender...\n      DUP6 \t\t\tamount\n      PUSH 40\t\t\t_allowances[sender][_msgSender...\n      MLOAD \t\t\t_allowances[sender][_msgSender...\n      DUP1 \t\t\t_allowances[sender][_msgSender...\n      PUSH 60\t\t\t_allowances[sender][_msgSender...\n      ADD \t\t\t_allowances[sender][_msgSender...\n      PUSH 40\t\t\t_allowances[sender][_msgSender...\n      MSTORE \t\t\t_allowances[sender][_msgSender...\n      DUP1 \t\t\t_allowances[sender][_msgSender...\n      PUSH 28\t\t\t_allowances[sender][_msgSender...\n      DUP2 \t\t\t_allowances[sender][_msgSender...\n      MSTORE \t\t\t_allowances[sender][_msgSender...\n      PUSH 20\t\t\t_allowances[sender][_msgSender...\n      ADD \t\t\t_allowances[sender][_msgSender...\n      PUSH data 4F3506F4BA71C79C3CBD442A3AFEB30E9B27AF2D84E116A4385B34E267D2287E\t\t\t_allowances[sender][_msgSender...\n      PUSH 28\t\t\t_allowances[sender][_msgSender...\n      SWAP2 \t\t\t_allowances[sender][_msgSender...\n      CODECOPY \t\t\t_allowances[sender][_msgSender...\n      PUSH 2\t\t\t_allowances\n      PUSH 0\t\t\t_allowances[sender]\n      DUP12 \t\t\tsender\n      PUSH FFFFFFFFFFFFFFFFFFFFFFFFFFFFFFFFFFFFFFFF\t\t\t_allowances[sender]\n      AND \t\t\t_allowances[sender]\n      PUSH FFFFFFFFFFFFFFFFFFFFFFFFFFFFFFFFFFFFFFFF\t\t\t_allowances[sender]\n      AND \t\t\t_allowances[sender]\n      DUP2 \t\t\t_allowances[sender]\n      MSTORE \t\t\t_allowances[sender]\n      PUSH 20\t\t\t_allowances[sender]\n      ADD \t\t\t_allowances[sender]\n      SWAP1 \t\t\t_allowances[sender]\n      DUP2 \t\t\t_allowances[sender]\n      MSTORE \t\t\t_allowances[sender]\n      PUSH 20\t\t\t_allowances[sender]\n      ADD \t\t\t_allowances[sender]\n      PUSH 0\t\t\t_allowances[sender]\n      KECCAK256 \t\t\t_allowances[sender]\n      PUSH 0\t\t\t_allowances[sender][_msgSender...\n      PUSH [tag] 108\t\t\t_msgSender()\n      PUSH [tag] 99\t\t\t_msgSender\n      JUMP [in]\t\t\t_msgSender()\n    tag 108\t\t\t_msgSender()\n      JUMPDEST \t\t\t_msgSender()\n      PUSH FFFFFFFFFFFFFFFFFFFFFFFFFFFFFFFFFFFFFFFF\t\t\t_allowances[sender][_msgSender...\n      AND \t\t\t_allowances[sender][_msgSender...\n      PUSH FFFFFFFFFFFFFFFFFFFFFFFFFFFFFFFFFFFFFFFF\t\t\t_allowances[sender][_msgSender...\n      AND \t\t\t_allowances[sender][_msgSender...\n      DUP2 \t\t\t_allowances[sender][_msgSender...\n      MSTORE \t\t\t_allowances[sender][_msgSender...\n      PUSH 20\t\t\t_allowances[sender][_msgSender...\n      ADD \t\t\t_allowances[sender][_msgSender...\n      SWAP1 \t\t\t_allowances[sender][_msgSender...\n      DUP2 \t\t\t_allowances[sender][_msgSender...\n      MSTORE \t\t\t_allowances[sender][_msgSender...\n      PUSH 20\t\t\t_allowances[sender][_msgSender...\n      ADD \t\t\t_allowances[sender][_msgSender...\n      PUSH 0\t\t\t_allowances[sender][_msgSender...\n      KECCAK256 \t\t\t_allowances[sender][_msgSender...\n      SLOAD \t\t\t_allowances[sender][_msgSender...\n      PUSH [tag] 109\t\t\t_allowances[sender][_msgSender...\n      SWAP1 \t\t\t_allowances[sender][_msgSender...\n      SWAP3 \t\t\t_allowances[sender][_msgSender...\n      SWAP2 \t\t\t_allowances[sender][_msgSender...\n      SWAP1 \t\t\t_allowances[sender][_msgSender...\n      PUSH FFFFFFFF\t\t\t_allowances[sender][_msgSender...\n      AND \t\t\t_allowances[sender][_msgSender...\n      JUMP [in]\t\t\t_allowances[sender][_msgSender...\n    tag 107\t\t\t_allowances[sender][_msgSender...\n      JUMPDEST \t\t\t_allowances[sender][_msgSender...\n      PUSH [tag] 100\t\t\t_approve\n      JUMP [in]\t\t\t_approve(sender, _msgSender(),...\n    tag 105\t\t\t_approve(sender, _msgSender(),...\n      JUMPDEST \t\t\t_approve(sender, _msgSender(),...\n      PUSH 1\t\t\ttrue\n      SWAP1 \t\t\treturn true\n      POP \t\t\treturn true\n      SWAP4 \t\t\tfunction transferFrom(address ...\n      SWAP3 \t\t\tfunction transferFrom(address ...\n      POP \t\t\tfunction transferFrom(address ...\n      POP \t\t\tfunction transferFrom(address ...\n      POP \t\t\tfunction transferFrom(address ...\n      JUMP [out]\t\t\tfunction transferFrom(address ...\n    tag 41\t\t\tfunction decimals() external v...\n      JUMPDEST \t\t\tfunction decimals() external v...\n      PUSH 0\t\t\tuint8\n      PUSH 4\t\t\t_decimals\n      PUSH 0\t\t\t_decimals\n      SWAP1 \t\t\t_decimals\n      SLOAD \t\t\t_decimals\n      SWAP1 \t\t\t_decimals\n      PUSH 100\t\t\t_decimals\n      EXP \t\t\t_decimals\n      SWAP1 \t\t\t_decimals\n      DIV \t\t\t_decimals\n      PUSH FF\t\t\t_decimals\n      AND \t\t\t_decimals\n      SWAP1 \t\t\treturn _decimals\n      POP \t\t\treturn _decimals\n      SWAP1 \t\t\tfunction decimals() external v...\n      JUMP [out]\t\t\tfunction decimals() external v...\n    tag 43\t\t\tuint8 public _decimals\n      JUMPDEST \t\t\tuint8 public _decimals\n      PUSH 4\t\t\tuint8 public _decimals\n      PUSH 0\t\t\tuint8 public _decimals\n      SWAP1 \t\t\tuint8 public _decimals\n      SLOAD \t\t\tuint8 public _decimals\n      SWAP1 \t\t\tuint8 public _decimals\n      PUSH 100\t\t\tuint8 public _decimals\n      EXP \t\t\tuint8 public _decimals\n      SWAP1 \t\t\tuint8 public _decimals\n      DIV \t\t\tuint8 public _decimals\n      PUSH FF\t\t\tuint8 public _decimals\n      AND \t\t\tuint8 public _decimals\n      DUP2 \t\t\tuint8 public _decimals\n      JUMP [out]\t\t\tuint8 public _decimals\n    tag 46\t\t\tfunction increaseAllowance(add...\n      JUMPDEST \t\t\tfunction increaseAllowance(add...\n      PUSH 0\t\t\tbool\n      PUSH [tag] 112\t\t\t_approve(_msgSender(), spender...\n      PUSH [tag] 113\t\t\t_msgSender()\n      PUSH [tag] 99\t\t\t_msgSender\n      JUMP [in]\t\t\t_msgSender()\n    tag 113\t\t\t_msgSender()\n      JUMPDEST \t\t\t_msgSender()\n      DUP5 \t\t\tspender\n      PUSH [tag] 114\t\t\t_allowances[_msgSender()][spen...\n      DUP6 \t\t\taddedValue\n      PUSH 2\t\t\t_allowances\n      PUSH 0\t\t\t_allowances[_msgSender()]\n      PUSH [tag] 115\t\t\t_msgSender()\n      PUSH [tag] 99\t\t\t_msgSender\n      JUMP [in]\t\t\t_msgSender()\n    tag 115\t\t\t_msgSender()\n      JUMPDEST \t\t\t_msgSender()\n      PUSH FFFFFFFFFFFFFFFFFFFFFFFFFFFFFFFFFFFFFFFF\t\t\t_allowances[_msgSender()]\n      AND \t\t\t_allowances[_msgSender()]\n      PUSH FFFFFFFFFFFFFFFFFFFFFFFFFFFFFFFFFFFFFFFF\t\t\t_allowances[_msgSender()]\n      AND \t\t\t_allowances[_msgSender()]\n      DUP2 \t\t\t_allowances[_msgSender()]\n      MSTORE \t\t\t_allowances[_msgSender()]\n      PUSH 20\t\t\t_allowances[_msgSender()]\n      ADD \t\t\t_allowances[_msgSender()]\n      SWAP1 \t\t\t_allowances[_msgSender()]\n      DUP2 \t\t\t_allowances[_msgSender()]\n      MSTORE \t\t\t_allowances[_msgSender()]\n      PUSH 20\t\t\t_allowances[_msgSender()]\n      ADD \t\t\t_allowances[_msgSender()]\n      PUSH 0\t\t\t_allowances[_msgSender()]\n      KECCAK256 \t\t\t_allowances[_msgSender()]\n      PUSH 0\t\t\t_allowances[_msgSender()][spen...\n      DUP10 \t\t\tspender\n      PUSH FFFFFFFFFFFFFFFFFFFFFFFFFFFFFFFFFFFFFFFF\t\t\t_allowances[_msgSender()][spen...\n      AND \t\t\t_allowances[_msgSender()][spen...\n      PUSH FFFFFFFFFFFFFFFFFFFFFFFFFFFFFFFFFFFFFFFF\t\t\t_allowances[_msgSender()][spen...\n      AND \t\t\t_allowances[_msgSender()][spen...\n      DUP2 \t\t\t_allowances[_msgSender()][spen...\n      MSTORE \t\t\t_allowances[_msgSender()][spen...\n      PUSH 20\t\t\t_allowances[_msgSender()][spen...\n      ADD \t\t\t_allowances[_msgSender()][spen...\n      SWAP1 \t\t\t_allowances[_msgSender()][spen...\n      DUP2 \t\t\t_allowances[_msgSender()][spen...\n      MSTORE \t\t\t_allowances[_msgSender()][spen...\n      PUSH 20\t\t\t_allowances[_msgSender()][spen...\n      ADD \t\t\t_allowances[_msgSender()][spen...\n      PUSH 0\t\t\t_allowances[_msgSender()][spen...\n      KECCAK256 \t\t\t_allowances[_msgSender()][spen...\n      SLOAD \t\t\t_allowances[_msgSender()][spen...\n      PUSH [tag] 116\t\t\t_allowances[_msgSender()][spen...\n      SWAP1 \t\t\t_allowances[_msgSender()][spen...\n      SWAP2 \t\t\t_allowances[_msgSender()][spen...\n      SWAP1 \t\t\t_allowances[_msgSender()][spen...\n      PUSH FFFFFFFF\t\t\t_allowances[_msgSender()][spen...\n      AND \t\t\t_allowances[_msgSender()][spen...\n      JUMP [in]\t\t\t_allowances[_msgSender()][spen...\n    tag 114\t\t\t_allowances[_msgSender()][spen...\n      JUMPDEST \t\t\t_allowances[_msgSender()][spen...\n      PUSH [tag] 100\t\t\t_approve\n      JUMP [in]\t\t\t_approve(_msgSender(), spender...\n    tag 112\t\t\t_approve(_msgSender(), spender...\n      JUMPDEST \t\t\t_approve(_msgSender(), spender...\n      PUSH 1\t\t\ttrue\n      SWAP1 \t\t\treturn true\n      POP \t\t\treturn true\n      SWAP3 \t\t\tfunction increaseAllowance(add...\n      SWAP2 \t\t\tfunction increaseAllowance(add...\n      POP \t\t\tfunction increaseAllowance(add...\n      POP \t\t\tfunction increaseAllowance(add...\n      JUMP [out]\t\t\tfunction increaseAllowance(add...\n    tag 49\t\t\tfunction burn(uint256 amount) ...\n      JUMPDEST \t\t\tfunction burn(uint256 amount) ...\n      PUSH 0\t\t\tbool\n      PUSH [tag] 118\t\t\t_burn(_msgSender(), amount)\n      PUSH [tag] 119\t\t\t_msgSender()\n      PUSH [tag] 99\t\t\t_msgSender\n      JUMP [in]\t\t\t_msgSender()\n    tag 119\t\t\t_msgSender()\n      JUMPDEST \t\t\t_msgSender()\n      DUP4 \t\t\tamount\n      PUSH [tag] 120\t\t\t_burn\n      JUMP [in]\t\t\t_burn(_msgSender(), amount)\n    tag 118\t\t\t_burn(_msgSender(), amount)\n      JUMPDEST \t\t\t_burn(_msgSender(), amount)\n      PUSH 1\t\t\ttrue\n      SWAP1 \t\t\treturn true\n      POP \t\t\treturn true\n      SWAP2 \t\t\tfunction burn(uint256 amount) ...\n      SWAP1 \t\t\tfunction burn(uint256 amount) ...\n      POP \t\t\tfunction burn(uint256 amount) ...\n      JUMP [out]\t\t\tfunction burn(uint256 amount) ...\n    tag 52\t\t\tfunction balanceOf(address acc...\n      JUMPDEST \t\t\tfunction balanceOf(address acc...\n      PUSH 0\t\t\tuint256\n      PUSH 1\t\t\t_balances\n      PUSH 0\t\t\t_balances[account]\n      DUP4 \t\t\taccount\n      PUSH FFFFFFFFFFFFFFFFFFFFFFFFFFFFFFFFFFFFFFFF\t\t\t_balances[account]\n      AND \t\t\t_balances[account]\n      PUSH FFFFFFFFFFFFFFFFFFFFFFFFFFFFFFFFFFFFFFFF\t\t\t_balances[account]\n      AND \t\t\t_balances[account]\n      DUP2 \t\t\t_balances[account]\n      MSTORE \t\t\t_balances[account]\n      PUSH 20\t\t\t_balances[account]\n      ADD \t\t\t_balances[account]\n      SWAP1 \t\t\t_balances[account]\n      DUP2 \t\t\t_balances[account]\n      MSTORE \t\t\t_balances[account]\n      PUSH 20\t\t\t_balances[account]\n      ADD \t\t\t_balances[account]\n      PUSH 0\t\t\t_balances[account]\n      KECCAK256 \t\t\t_balances[account]\n      SLOAD \t\t\t_balances[account]\n      SWAP1 \t\t\treturn _balances[account]\n      POP \t\t\treturn _balances[account]\n      SWAP2 \t\t\tfunction balanceOf(address acc...\n      SWAP1 \t\t\tfunction balanceOf(address acc...\n      POP \t\t\tfunction balanceOf(address acc...\n      JUMP [out]\t\t\tfunction balanceOf(address acc...\n    tag 54\t\t\tfunction renounceOwnership() p...\n      JUMPDEST \t\t\tfunction renounceOwnership() p...\n      PUSH [tag] 123\t\t\t_msgSender()\n      PUSH [tag] 99\t\t\t_msgSender\n      JUMP [in]\t\t\t_msgSender()\n    tag 123\t\t\t_msgSender()\n      JUMPDEST \t\t\t_msgSender()\n      PUSH FFFFFFFFFFFFFFFFFFFFFFFFFFFFFFFFFFFFFFFF\t\t\t_owner == _msgSender()\n      AND \t\t\t_owner == _msgSender()\n      PUSH 0\t\t\t_owner\n      DUP1 \t\t\t_owner\n      SWAP1 \t\t\t_owner\n      SLOAD \t\t\t_owner\n      SWAP1 \t\t\t_owner\n      PUSH 100\t\t\t_owner\n      EXP \t\t\t_owner\n      SWAP1 \t\t\t_owner\n      DIV \t\t\t_owner\n      PUSH FFFFFFFFFFFFFFFFFFFFFFFFFFFFFFFFFFFFFFFF\t\t\t_owner\n      AND \t\t\t_owner\n      PUSH FFFFFFFFFFFFFFFFFFFFFFFFFFFFFFFFFFFFFFFF\t\t\t_owner == _msgSender()\n      AND \t\t\t_owner == _msgSender()\n      EQ \t\t\t_owner == _msgSender()\n      PUSH [tag] 124\t\t\trequire(_owner == _msgSender()...\n      JUMPI \t\t\trequire(_owner == _msgSender()...\n      PUSH 40\t\t\trequire(_owner == _msgSender()...\n      MLOAD \t\t\trequire(_owner == _msgSender()...\n      PUSH 8C379A000000000000000000000000000000000000000000000000000000000\t\t\trequire(_owner == _msgSender()...\n      DUP2 \t\t\trequire(_owner == _msgSender()...\n      MSTORE \t\t\trequire(_owner == _msgSender()...\n      PUSH 4\t\t\trequire(_owner == _msgSender()...\n      ADD \t\t\trequire(_owner == _msgSender()...\n      DUP1 \t\t\trequire(_owner == _msgSender()...\n      DUP1 \t\t\trequire(_owner == _msgSender()...\n      PUSH 20\t\t\trequire(_owner == _msgSender()...\n      ADD \t\t\trequire(_owner == _msgSender()...\n      DUP3 \t\t\trequire(_owner == _msgSender()...\n      DUP2 \t\t\trequire(_owner == _msgSender()...\n      SUB \t\t\trequire(_owner == _msgSender()...\n      DUP3 \t\t\trequire(_owner == _msgSender()...\n      MSTORE \t\t\trequire(_owner == _msgSender()...\n      PUSH 20\t\t\trequire(_owner == _msgSender()...\n      DUP2 \t\t\trequire(_owner == _msgSender()...\n      MSTORE \t\t\trequire(_owner == _msgSender()...\n      PUSH 20\t\t\trequire(_owner == _msgSender()...\n      ADD \t\t\trequire(_owner == _msgSender()...\n      DUP1 \t\t\trequire(_owner == _msgSender()...\n      PUSH 4F776E61626C653A2063616C6C6572206973206E6F7420746865206F776E6572\t\t\trequire(_owner == _msgSender()...\n      DUP2 \t\t\trequire(_owner == _msgSender()...\n      MSTORE \t\t\trequire(_owner == _msgSender()...\n      POP \t\t\trequire(_owner == _msgSender()...\n      PUSH 20\t\t\trequire(_owner == _msgSender()...\n      ADD \t\t\trequire(_owner == _msgSender()...\n      SWAP2 \t\t\trequire(_owner == _msgSender()...\n      POP \t\t\trequire(_owner == _msgSender()...\n      POP \t\t\trequire(_owner == _msgSender()...\n      PUSH 40\t\t\trequire(_owner == _msgSender()...\n      MLOAD \t\t\trequire(_owner == _msgSender()...\n      DUP1 \t\t\trequire(_owner == _msgSender()...\n      SWAP2 \t\t\trequire(_owner == _msgSender()...\n      SUB \t\t\trequire(_owner == _msgSender()...\n      SWAP1 \t\t\trequire(_owner == _msgSender()...\n      REVERT \t\t\trequire(_owner == _msgSender()...\n    tag 124\t\t\trequire(_owner == _msgSender()...\n      JUMPDEST \t\t\trequire(_owner == _msgSender()...\n      PUSH 0\t\t\t0\n      PUSH FFFFFFFFFFFFFFFFFFFFFFFFFFFFFFFFFFFFFFFF\t\t\tOwnershipTransferred(_owner, a...\n      AND \t\t\tOwnershipTransferred(_owner, a...\n      PUSH 0\t\t\t_owner\n      DUP1 \t\t\t_owner\n      SWAP1 \t\t\t_owner\n      SLOAD \t\t\t_owner\n      SWAP1 \t\t\t_owner\n      PUSH 100\t\t\t_owner\n      EXP \t\t\t_owner\n      SWAP1 \t\t\t_owner\n      DIV \t\t\t_owner\n      PUSH FFFFFFFFFFFFFFFFFFFFFFFFFFFFFFFFFFFFFFFF\t\t\t_owner\n      AND \t\t\t_owner\n      PUSH FFFFFFFFFFFFFFFFFFFFFFFFFFFFFFFFFFFFFFFF\t\t\tOwnershipTransferred(_owner, a...\n      AND \t\t\tOwnershipTransferred(_owner, a...\n      PUSH 8BE0079C531659141344CD1FD0A4F28419497F9722A3DAAFE3B4186F6B6457E0\t\t\tOwnershipTransferred(_owner, a...\n      PUSH 40\t\t\tOwnershipTransferred(_owner, a...\n      MLOAD \t\t\tOwnershipTransferred(_owner, a...\n      PUSH 40\t\t\tOwnershipTransferred(_owner, a...\n      MLOAD \t\t\tOwnershipTransferred(_owner, a...\n      DUP1 \t\t\tOwnershipTransferred(_owner, a...\n      SWAP2 \t\t\tOwnershipTransferred(_owner, a...\n      SUB \t\t\tOwnershipTransferred(_owner, a...\n      SWAP1 \t\t\tOwnershipTransferred(_owner, a...\n      LOG3 \t\t\tOwnershipTransferred(_owner, a...\n      PUSH 0\t\t\t0\n      DUP1 \t\t\t_owner\n      PUSH 0\t\t\t_owner\n      PUSH 100\t\t\t_owner = address(0)\n      EXP \t\t\t_owner = address(0)\n      DUP2 \t\t\t_owner = address(0)\n      SLOAD \t\t\t_owner = address(0)\n      DUP2 \t\t\t_owner = address(0)\n      PUSH FFFFFFFFFFFFFFFFFFFFFFFFFFFFFFFFFFFFFFFF\t\t\t_owner = address(0)\n      MUL \t\t\t_owner = address(0)\n      NOT \t\t\t_owner = address(0)\n      AND \t\t\t_owner = address(0)\n      SWAP1 \t\t\t_owner = address(0)\n      DUP4 \t\t\t_owner = address(0)\n      PUSH FFFFFFFFFFFFFFFFFFFFFFFFFFFFFFFFFFFFFFFF\t\t\t_owner = address(0)\n      AND \t\t\t_owner = address(0)\n      MUL \t\t\t_owner = address(0)\n      OR \t\t\t_owner = address(0)\n      SWAP1 \t\t\t_owner = address(0)\n      SSTORE \t\t\t_owner = address(0)\n      POP \t\t\t_owner = address(0)\n      JUMP [out]\t\t\tfunction renounceOwnership() p...\n    tag 56\t\t\tfunction getOwner() external v...\n      JUMPDEST \t\t\tfunction getOwner() external v...\n      PUSH 0\t\t\taddress\n      PUSH [tag] 127\t\t\towner()\n      PUSH [tag] 58\t\t\towner\n      JUMP [in]\t\t\towner()\n    tag 127\t\t\towner()\n      JUMPDEST \t\t\towner()\n      SWAP1 \t\t\treturn owner()\n      POP \t\t\treturn owner()\n      SWAP1 \t\t\tfunction getOwner() external v...\n      JUMP [out]\t\t\tfunction getOwner() external v...\n    tag 58\t\t\tfunction owner() public view r...\n      JUMPDEST \t\t\tfunction owner() public view r...\n      PUSH 0\t\t\taddress\n      DUP1 \t\t\t_owner\n      PUSH 0\t\t\t_owner\n      SWAP1 \t\t\t_owner\n      SLOAD \t\t\t_owner\n      SWAP1 \t\t\t_owner\n      PUSH 100\t\t\t_owner\n      EXP \t\t\t_owner\n      SWAP1 \t\t\t_owner\n      DIV \t\t\t_owner\n      PUSH FFFFFFFFFFFFFFFFFFFFFFFFFFFFFFFFFFFFFFFF\t\t\t_owner\n      AND \t\t\t_owner\n      SWAP1 \t\t\treturn _owner\n      POP \t\t\treturn _owner\n      SWAP1 \t\t\tfunction owner() public view r...\n      JUMP [out]\t\t\tfunction owner() public view r...\n    tag 60\t\t\tfunction symbol() external vie...\n      JUMPDEST \t\t\tfunction symbol() external vie...\n      PUSH 60\t\t\tstring memory\n      PUSH 5\t\t\t_symbol\n      DUP1 \t\t\treturn _symbol\n      SLOAD \t\t\treturn _symbol\n      PUSH 1\t\t\treturn _symbol\n      DUP2 \t\t\treturn _symbol\n      PUSH 1\t\t\treturn _symbol\n      AND \t\t\treturn _symbol\n      ISZERO \t\t\treturn _symbol\n      PUSH 100\t\t\treturn _symbol\n      MUL \t\t\treturn _symbol\n      SUB \t\t\treturn _symbol\n      AND \t\t\treturn _symbol\n      PUSH 2\t\t\treturn _symbol\n      SWAP1 \t\t\treturn _symbol\n      DIV \t\t\treturn _symbol\n      DUP1 \t\t\treturn _symbol\n      PUSH 1F\t\t\treturn _symbol\n      ADD \t\t\treturn _symbol\n      PUSH 20\t\t\treturn _symbol\n      DUP1 \t\t\treturn _symbol\n      SWAP2 \t\t\treturn _symbol\n      DIV \t\t\treturn _symbol\n      MUL \t\t\treturn _symbol\n      PUSH 20\t\t\treturn _symbol\n      ADD \t\t\treturn _symbol\n      PUSH 40\t\t\treturn _symbol\n      MLOAD \t\t\treturn _symbol\n      SWAP1 \t\t\treturn _symbol\n      DUP2 \t\t\treturn _symbol\n      ADD \t\t\treturn _symbol\n      PUSH 40\t\t\treturn _symbol\n      MSTORE \t\t\treturn _symbol\n      DUP1 \t\t\treturn _symbol\n      SWAP3 \t\t\treturn _symbol\n      SWAP2 \t\t\treturn _symbol\n      SWAP1 \t\t\treturn _symbol\n      DUP2 \t\t\treturn _symbol\n      DUP2 \t\t\treturn _symbol\n      MSTORE \t\t\treturn _symbol\n      PUSH 20\t\t\treturn _symbol\n      ADD \t\t\treturn _symbol\n      DUP3 \t\t\treturn _symbol\n      DUP1 \t\t\treturn _symbol\n      SLOAD \t\t\treturn _symbol\n      PUSH 1\t\t\treturn _symbol\n      DUP2 \t\t\treturn _symbol\n      PUSH 1\t\t\treturn _symbol\n      AND \t\t\treturn _symbol\n      ISZERO \t\t\treturn _symbol\n      PUSH 100\t\t\treturn _symbol\n      MUL \t\t\treturn _symbol\n      SUB \t\t\treturn _symbol\n      AND \t\t\treturn _symbol\n      PUSH 2\t\t\treturn _symbol\n      SWAP1 \t\t\treturn _symbol\n      DIV \t\t\treturn _symbol\n      DUP1 \t\t\treturn _symbol\n      ISZERO \t\t\treturn _symbol\n      PUSH [tag] 130\t\t\treturn _symbol\n      JUMPI \t\t\treturn _symbol\n      DUP1 \t\t\treturn _symbol\n      PUSH 1F\t\t\treturn _symbol\n      LT \t\t\treturn _symbol\n      PUSH [tag] 131\t\t\treturn _symbol\n      JUMPI \t\t\treturn _symbol\n      PUSH 100\t\t\treturn _symbol\n      DUP1 \t\t\treturn _symbol\n      DUP4 \t\t\treturn _symbol\n      SLOAD \t\t\treturn _symbol\n      DIV \t\t\treturn _symbol\n      MUL \t\t\treturn _symbol\n      DUP4 \t\t\treturn _symbol\n      MSTORE \t\t\treturn _symbol\n      SWAP2 \t\t\treturn _symbol\n      PUSH 20\t\t\treturn _symbol\n      ADD \t\t\treturn _symbol\n      SWAP2 \t\t\treturn _symbol\n      PUSH [tag] 130\t\t\treturn _symbol\n      JUMP \t\t\treturn _symbol\n    tag 131\t\t\treturn _symbol\n      JUMPDEST \t\t\treturn _symbol\n      DUP3 \t\t\treturn _symbol\n      ADD \t\t\treturn _symbol\n      SWAP2 \t\t\treturn _symbol\n      SWAP1 \t\t\treturn _symbol\n      PUSH 0\t\t\treturn _symbol\n      MSTORE \t\t\treturn _symbol\n      PUSH 20\t\t\treturn _symbol\n      PUSH 0\t\t\treturn _symbol\n      KECCAK256 \t\t\treturn _symbol\n      SWAP1 \t\t\treturn _symbol\n    tag 132\t\t\treturn _symbol\n      JUMPDEST \t\t\treturn _symbol\n      DUP2 \t\t\treturn _symbol\n      SLOAD \t\t\treturn _symbol\n      DUP2 \t\t\treturn _symbol\n      MSTORE \t\t\treturn _symbol\n      SWAP1 \t\t\treturn _symbol\n      PUSH 1\t\t\treturn _symbol\n      ADD \t\t\treturn _symbol\n      SWAP1 \t\t\treturn _symbol\n      PUSH 20\t\t\treturn _symbol\n      ADD \t\t\treturn _symbol\n      DUP1 \t\t\treturn _symbol\n      DUP4 \t\t\treturn _symbol\n      GT \t\t\treturn _symbol\n      PUSH [tag] 132\t\t\treturn _symbol\n      JUMPI \t\t\treturn _symbol\n      DUP3 \t\t\treturn _symbol\n      SWAP1 \t\t\treturn _symbol\n      SUB \t\t\treturn _symbol\n      PUSH 1F\t\t\treturn _symbol\n      AND \t\t\treturn _symbol\n      DUP3 \t\t\treturn _symbol\n      ADD \t\t\treturn _symbol\n      SWAP2 \t\t\treturn _symbol\n    tag 130\t\t\treturn _symbol\n      JUMPDEST \t\t\treturn _symbol\n      POP \t\t\treturn _symbol\n      POP \t\t\treturn _symbol\n      POP \t\t\treturn _symbol\n      POP \t\t\treturn _symbol\n      POP \t\t\treturn _symbol\n      SWAP1 \t\t\treturn _symbol\n      POP \t\t\treturn _symbol\n      SWAP1 \t\t\tfunction symbol() external vie...\n      JUMP [out]\t\t\tfunction symbol() external vie...\n    tag 67\t\t\tfunction mint(uint256 amount) ...\n      JUMPDEST \t\t\tfunction mint(uint256 amount) ...\n      PUSH 0\t\t\tbool\n      PUSH [tag] 134\t\t\t_msgSender()\n      PUSH [tag] 99\t\t\t_msgSender\n      JUMP [in]\t\t\t_msgSender()\n    tag 134\t\t\t_msgSender()\n      JUMPDEST \t\t\t_msgSender()\n      PUSH FFFFFFFFFFFFFFFFFFFFFFFFFFFFFFFFFFFFFFFF\t\t\t_owner == _msgSender()\n      AND \t\t\t_owner == _msgSender()\n      PUSH 0\t\t\t_owner\n      DUP1 \t\t\t_owner\n      SWAP1 \t\t\t_owner\n      SLOAD \t\t\t_owner\n      SWAP1 \t\t\t_owner\n      PUSH 100\t\t\t_owner\n      EXP \t\t\t_owner\n      SWAP1 \t\t\t_owner\n      DIV \t\t\t_owner\n      PUSH FFFFFFFFFFFFFFFFFFFFFFFFFFFFFFFFFFFFFFFF\t\t\t_owner\n      AND \t\t\t_owner\n      PUSH FFFFFFFFFFFFFFFFFFFFFFFFFFFFFFFFFFFFFFFF\t\t\t_owner == _msgSender()\n      AND \t\t\t_owner == _msgSender()\n      EQ \t\t\t_owner == _msgSender()\n      PUSH [tag] 135\t\t\trequire(_owner == _msgSender()...\n      JUMPI \t\t\trequire(_owner == _msgSender()...\n      PUSH 40\t\t\trequire(_owner == _msgSender()...\n      MLOAD \t\t\trequire(_owner == _msgSender()...\n      PUSH 8C379A000000000000000000000000000000000000000000000000000000000\t\t\trequire(_owner == _msgSender()...\n      DUP2 \t\t\trequire(_owner == _msgSender()...\n      MSTORE \t\t\trequire(_owner == _msgSender()...\n      PUSH 4\t\t\trequire(_owner == _msgSender()...\n      ADD \t\t\trequire(_owner == _msgSender()...\n      DUP1 \t\t\trequire(_owner == _msgSender()...\n      DUP1 \t\t\trequire(_owner == _msgSender()...\n      PUSH 20\t\t\trequire(_owner == _msgSender()...\n      ADD \t\t\trequire(_owner == _msgSender()...\n      DUP3 \t\t\trequire(_owner == _msgSender()...\n      DUP2 \t\t\trequire(_owner == _msgSender()...\n      SUB \t\t\trequire(_owner == _msgSender()...\n      DUP3 \t\t\trequire(_owner == _msgSender()...\n      MSTORE \t\t\trequire(_owner == _msgSender()...\n      PUSH 20\t\t\trequire(_owner == _msgSender()...\n      DUP2 \t\t\trequire(_owner == _msgSender()...\n      MSTORE \t\t\trequire(_owner == _msgSender()...\n      PUSH 20\t\t\trequire(_owner == _msgSender()...\n      ADD \t\t\trequire(_owner == _msgSender()...\n      DUP1 \t\t\trequire(_owner == _msgSender()...\n      PUSH 4F776E61626C653A2063616C6C6572206973206E6F7420746865206F776E6572\t\t\trequire(_owner == _msgSender()...\n      DUP2 \t\t\trequire(_owner == _msgSender()...\n      MSTORE \t\t\trequire(_owner == _msgSender()...\n      POP \t\t\trequire(_owner == _msgSender()...\n      PUSH 20\t\t\trequire(_owner == _msgSender()...\n      ADD \t\t\trequire(_owner == _msgSender()...\n      SWAP2 \t\t\trequire(_owner == _msgSender()...\n      POP \t\t\trequire(_owner == _msgSender()...\n      POP \t\t\trequire(_owner == _msgSender()...\n      PUSH 40\t\t\trequire(_owner == _msgSender()...\n      MLOAD \t\t\trequire(_owner == _msgSender()...\n      DUP1 \t\t\trequire(_owner == _msgSender()...\n      SWAP2 \t\t\trequire(_owner == _msgSender()...\n      SUB \t\t\trequire(_owner == _msgSender()...\n      SWAP1 \t\t\trequire(_owner == _msgSender()...\n      REVERT \t\t\trequire(_owner == _msgSender()...\n    tag 135\t\t\trequire(_owner == _msgSender()...\n      JUMPDEST \t\t\trequire(_owner == _msgSender()...\n      PUSH [tag] 137\t\t\t_mint(_msgSender(), amount)\n      PUSH [tag] 138\t\t\t_msgSender()\n      PUSH [tag] 99\t\t\t_msgSender\n      JUMP [in]\t\t\t_msgSender()\n    tag 138\t\t\t_msgSender()\n      JUMPDEST \t\t\t_msgSender()\n      DUP4 \t\t\tamount\n      PUSH [tag] 139\t\t\t_mint\n      JUMP [in]\t\t\t_mint(_msgSender(), amount)\n    tag 137\t\t\t_mint(_msgSender(), amount)\n      JUMPDEST \t\t\t_mint(_msgSender(), amount)\n      PUSH 1\t\t\ttrue\n      SWAP1 \t\t\treturn true\n      POP \t\t\treturn true\n      SWAP2 \t\t\tfunction mint(uint256 amount) ...\n      SWAP1 \t\t\tfunction mint(uint256 amount) ...\n      POP \t\t\tfunction mint(uint256 amount) ...\n      JUMP [out]\t\t\tfunction mint(uint256 amount) ...\n    tag 70\t\t\tfunction decreaseAllowance(add...\n      JUMPDEST \t\t\tfunction decreaseAllowance(add...\n      PUSH 0\t\t\tbool\n      PUSH [tag] 141\t\t\t_approve(_msgSender(), spender...\n      PUSH [tag] 142\t\t\t_msgSender()\n      PUSH [tag] 99\t\t\t_msgSender\n      JUMP [in]\t\t\t_msgSender()\n    tag 142\t\t\t_msgSender()\n      JUMPDEST \t\t\t_msgSender()\n      DUP5 \t\t\tspender\n      PUSH [tag] 143\t\t\t_allowances[_msgSender()][spen...\n      DUP6 \t\t\tsubtractedValue\n      PUSH 40\t\t\t_allowances[_msgSender()][spen...\n      MLOAD \t\t\t_allowances[_msgSender()][spen...\n      DUP1 \t\t\t_allowances[_msgSender()][spen...\n      PUSH 60\t\t\t_allowances[_msgSender()][spen...\n      ADD \t\t\t_allowances[_msgSender()][spen...\n      PUSH 40\t\t\t_allowances[_msgSender()][spen...\n      MSTORE \t\t\t_allowances[_msgSender()][spen...\n      DUP1 \t\t\t_allowances[_msgSender()][spen...\n      PUSH 25\t\t\t_allowances[_msgSender()][spen...\n      DUP2 \t\t\t_allowances[_msgSender()][spen...\n      MSTORE \t\t\t_allowances[_msgSender()][spen...\n      PUSH 20\t\t\t_allowances[_msgSender()][spen...\n      ADD \t\t\t_allowances[_msgSender()][spen...\n      PUSH data B7060B3538DCD3DDC8A941C91636A8115A1AA46914747FD9809D543BBB46CD22\t\t\t_allowances[_msgSender()][spen...\n      PUSH 25\t\t\t_allowances[_msgSender()][spen...\n      SWAP2 \t\t\t_allowances[_msgSender()][spen...\n      CODECOPY \t\t\t_allowances[_msgSender()][spen...\n      PUSH 2\t\t\t_allowances\n      PUSH 0\t\t\t_allowances[_msgSender()]\n      PUSH [tag] 144\t\t\t_msgSender()\n      PUSH [tag] 99\t\t\t_msgSender\n      JUMP [in]\t\t\t_msgSender()\n    tag 144\t\t\t_msgSender()\n      JUMPDEST \t\t\t_msgSender()\n      PUSH FFFFFFFFFFFFFFFFFFFFFFFFFFFFFFFFFFFFFFFF\t\t\t_allowances[_msgSender()]\n      AND \t\t\t_allowances[_msgSender()]\n      PUSH FFFFFFFFFFFFFFFFFFFFFFFFFFFFFFFFFFFFFFFF\t\t\t_allowances[_msgSender()]\n      AND \t\t\t_allowances[_msgSender()]\n      DUP2 \t\t\t_allowances[_msgSender()]\n      MSTORE \t\t\t_allowances[_msgSender()]\n      PUSH 20\t\t\t_allowances[_msgSender()]\n      ADD \t\t\t_allowances[_msgSender()]\n      SWAP1 \t\t\t_allowances[_msgSender()]\n      DUP2 \t\t\t_allowances[_msgSender()]\n      MSTORE \t\t\t_allowances[_msgSender()]\n      PUSH 20\t\t\t_allowances[_msgSender()]\n      ADD \t\t\t_allowances[_msgSender()]\n      PUSH 0\t\t\t_allowances[_msgSender()]\n      KECCAK256 \t\t\t_allowances[_msgSender()]\n      PUSH 0\t\t\t_allowances[_msgSender()][spen...\n      DUP11 \t\t\tspender\n      PUSH FFFFFFFFFFFFFFFFFFFFFFFFFFFFFFFFFFFFFFFF\t\t\t_allowances[_msgSender()][spen...\n      AND \t\t\t_allowances[_msgSender()][spen...\n      PUSH FFFFFFFFFFFFFFFFFFFFFFFFFFFFFFFFFFFFFFFF\t\t\t_allowances[_msgSender()][spen...\n      AND \t\t\t_allowances[_msgSender()][spen...\n      DUP2 \t\t\t_allowances[_msgSender()][spen...\n      MSTORE \t\t\t_allowances[_msgSender()][spen...\n      PUSH 20\t\t\t_allowances[_msgSender()][spen...\n      ADD \t\t\t_allowances[_msgSender()][spen...\n      SWAP1 \t\t\t_allowances[_msgSender()][spen...\n      DUP2 \t\t\t_allowances[_msgSender()][spen...\n      MSTORE \t\t\t_allowances[_msgSender()][spen...\n      PUSH 20\t\t\t_allowances[_msgSender()][spen...\n      ADD \t\t\t_allowances[_msgSender()][spen...\n      PUSH 0\t\t\t_allowances[_msgSender()][spen...\n      KECCAK256 \t\t\t_allowances[_msgSender()][spen...\n      SLOAD \t\t\t_allowances[_msgSender()][spen...\n      PUSH [tag] 109\t\t\t_allowances[_msgSender()][spen...\n      SWAP1 \t\t\t_allowances[_msgSender()][spen...\n      SWAP3 \t\t\t_allowances[_msgSender()][spen...\n      SWAP2 \t\t\t_allowances[_msgSender()][spen...\n      SWAP1 \t\t\t_allowances[_msgSender()][spen...\n      PUSH FFFFFFFF\t\t\t_allowances[_msgSender()][spen...\n      AND \t\t\t_allowances[_msgSender()][spen...\n      JUMP [in]\t\t\t_allowances[_msgSender()][spen...\n    tag 143\t\t\t_allowances[_msgSender()][spen...\n      JUMPDEST \t\t\t_allowances[_msgSender()][spen...\n      PUSH [tag] 100\t\t\t_approve\n      JUMP [in]\t\t\t_approve(_msgSender(), spender...\n    tag 141\t\t\t_approve(_msgSender(), spender...\n      JUMPDEST \t\t\t_approve(_msgSender(), spender...\n      PUSH 1\t\t\ttrue\n      SWAP1 \t\t\treturn true\n      POP \t\t\treturn true\n      SWAP3 \t\t\tfunction decreaseAllowance(add...\n      SWAP2 \t\t\tfunction decreaseAllowance(add...\n      POP \t\t\tfunction decreaseAllowance(add...\n      POP \t\t\tfunction decreaseAllowance(add...\n      JUMP [out]\t\t\tfunction decreaseAllowance(add...\n    tag 73\t\t\tfunction transfer(address reci...\n      JUMPDEST \t\t\tfunction transfer(address reci...\n      PUSH 0\t\t\tbool\n      PUSH [tag] 146\t\t\t_transfer(_msgSender(), recipi...\n      PUSH [tag] 147\t\t\t_msgSender()\n      PUSH [tag] 99\t\t\t_msgSender\n      JUMP [in]\t\t\t_msgSender()\n    tag 147\t\t\t_msgSender()\n      JUMPDEST \t\t\t_msgSender()\n      DUP5 \t\t\trecipient\n      DUP5 \t\t\tamount\n      PUSH [tag] 104\t\t\t_transfer\n      JUMP [in]\t\t\t_transfer(_msgSender(), recipi...\n    tag 146\t\t\t_transfer(_msgSender(), recipi...\n      JUMPDEST \t\t\t_transfer(_msgSender(), recipi...\n      PUSH 1\t\t\ttrue\n      SWAP1 \t\t\treturn true\n      POP \t\t\treturn true\n      SWAP3 \t\t\tfunction transfer(address reci...\n      SWAP2 \t\t\tfunction transfer(address reci...\n      POP \t\t\tfunction transfer(address reci...\n      POP \t\t\tfunction transfer(address reci...\n      JUMP [out]\t\t\tfunction transfer(address reci...\n    tag 75\t\t\tstring public _symbol\n      JUMPDEST \t\t\tstring public _symbol\n      PUSH 5\t\t\tstring public _symbol\n      DUP1 \t\t\tstring public _symbol\n      SLOAD \t\t\tstring public _symbol\n      PUSH 1\t\t\tstring public _symbol\n      DUP2 \t\t\tstring public _symbol\n      PUSH 1\t\t\tstring public _symbol\n      AND \t\t\tstring public _symbol\n      ISZERO \t\t\tstring public _symbol\n      PUSH 100\t\t\tstring public _symbol\n      MUL \t\t\tstring public _symbol\n      SUB \t\t\tstring public _symbol\n      AND \t\t\tstring public _symbol\n      PUSH 2\t\t\tstring public _symbol\n      SWAP1 \t\t\tstring public _symbol\n      DIV \t\t\tstring public _symbol\n      DUP1 \t\t\tstring public _symbol\n      PUSH 1F\t\t\tstring public _symbol\n      ADD \t\t\tstring public _symbol\n      PUSH 20\t\t\tstring public _symbol\n      DUP1 \t\t\tstring public _symbol\n      SWAP2 \t\t\tstring public _symbol\n      DIV \t\t\tstring public _symbol\n      MUL \t\t\tstring public _symbol\n      PUSH 20\t\t\tstring public _symbol\n      ADD \t\t\tstring public _symbol\n      PUSH 40\t\t\tstring public _symbol\n      MLOAD \t\t\tstring public _symbol\n      SWAP1 \t\t\tstring public _symbol\n      DUP2 \t\t\tstring public _symbol\n      ADD \t\t\tstring public _symbol\n      PUSH 40\t\t\tstring public _symbol\n      MSTORE \t\t\tstring public _symbol\n      DUP1 \t\t\tstring public _symbol\n      SWAP3 \t\t\tstring public _symbol\n      SWAP2 \t\t\tstring public _symbol\n      SWAP1 \t\t\tstring public _symbol\n      DUP2 \t\t\tstring public _symbol\n      DUP2 \t\t\tstring public _symbol\n      MSTORE \t\t\tstring public _symbol\n      PUSH 20\t\t\tstring public _symbol\n      ADD \t\t\tstring public _symbol\n      DUP3 \t\t\tstring public _symbol\n      DUP1 \t\t\tstring public _symbol\n      SLOAD \t\t\tstring public _symbol\n      PUSH 1\t\t\tstring public _symbol\n      DUP2 \t\t\tstring public _symbol\n      PUSH 1\t\t\tstring public _symbol\n      AND \t\t\tstring public _symbol\n      ISZERO \t\t\tstring public _symbol\n      PUSH 100\t\t\tstring public _symbol\n      MUL \t\t\tstring public _symbol\n      SUB \t\t\tstring public _symbol\n      AND \t\t\tstring public _symbol\n      PUSH 2\t\t\tstring public _symbol\n      SWAP1 \t\t\tstring public _symbol\n      DIV \t\t\tstring public _symbol\n      DUP1 \t\t\tstring public _symbol\n      ISZERO \t\t\tstring public _symbol\n      PUSH [tag] 148\t\t\tstring public _symbol\n      JUMPI \t\t\tstring public _symbol\n      DUP1 \t\t\tstring public _symbol\n      PUSH 1F\t\t\tstring public _symbol\n      LT \t\t\tstring public _symbol\n      PUSH [tag] 149\t\t\tstring public _symbol\n      JUMPI \t\t\tstring public _symbol\n      PUSH 100\t\t\tstring public _symbol\n      DUP1 \t\t\tstring public _symbol\n      DUP4 \t\t\tstring public _symbol\n      SLOAD \t\t\tstring public _symbol\n      DIV \t\t\tstring public _symbol\n      MUL \t\t\tstring public _symbol\n      DUP4 \t\t\tstring public _symbol\n      MSTORE \t\t\tstring public _symbol\n      SWAP2 \t\t\tstring public _symbol\n      PUSH 20\t\t\tstring public _symbol\n      ADD \t\t\tstring public _symbol\n      SWAP2 \t\t\tstring public _symbol\n      PUSH [tag] 148\t\t\tstring public _symbol\n      JUMP \t\t\tstring public _symbol\n    tag 149\t\t\tstring public _symbol\n      JUMPDEST \t\t\tstring public _symbol\n      DUP3 \t\t\tstring public _symbol\n      ADD \t\t\tstring public _symbol\n      SWAP2 \t\t\tstring public _symbol\n      SWAP1 \t\t\tstring public _symbol\n      PUSH 0\t\t\tstring public _symbol\n      MSTORE \t\t\tstring public _symbol\n      PUSH 20\t\t\tstring public _symbol\n      PUSH 0\t\t\tstring public _symbol\n      KECCAK256 \t\t\tstring public _symbol\n      SWAP1 \t\t\tstring public _symbol\n    tag 150\t\t\tstring public _symbol\n      JUMPDEST \t\t\tstring public _symbol\n      DUP2 \t\t\tstring public _symbol\n      SLOAD \t\t\tstring public _symbol\n      DUP2 \t\t\tstring public _symbol\n      MSTORE \t\t\tstring public _symbol\n      SWAP1 \t\t\tstring public _symbol\n      PUSH 1\t\t\tstring public _symbol\n      ADD \t\t\tstring public _symbol\n      SWAP1 \t\t\tstring public _symbol\n      PUSH 20\t\t\tstring public _symbol\n      ADD \t\t\tstring public _symbol\n      DUP1 \t\t\tstring public _symbol\n      DUP4 \t\t\tstring public _symbol\n      GT \t\t\tstring public _symbol\n      PUSH [tag] 150\t\t\tstring public _symbol\n      JUMPI \t\t\tstring public _symbol\n      DUP3 \t\t\tstring public _symbol\n      SWAP1 \t\t\tstring public _symbol\n      SUB \t\t\tstring public _symbol\n      PUSH 1F\t\t\tstring public _symbol\n      AND \t\t\tstring public _symbol\n      DUP3 \t\t\tstring public _symbol\n      ADD \t\t\tstring public _symbol\n      SWAP2 \t\t\tstring public _symbol\n    tag 148\t\t\tstring public _symbol\n      JUMPDEST \t\t\tstring public _symbol\n      POP \t\t\tstring public _symbol\n      POP \t\t\tstring public _symbol\n      POP \t\t\tstring public _symbol\n      POP \t\t\tstring public _symbol\n      POP \t\t\tstring public _symbol\n      DUP2 \t\t\tstring public _symbol\n      JUMP [out]\t\t\tstring public _symbol\n    tag 81\t\t\tstring public _name\n      JUMPDEST \t\t\tstring public _name\n      PUSH 6\t\t\tstring public _name\n      DUP1 \t\t\tstring public _name\n      SLOAD \t\t\tstring public _name\n      PUSH 1\t\t\tstring public _name\n      DUP2 \t\t\tstring public _name\n      PUSH 1\t\t\tstring public _name\n      AND \t\t\tstring public _name\n      ISZERO \t\t\tstring public _name\n      PUSH 100\t\t\tstring public _name\n      MUL \t\t\tstring public _name\n      SUB \t\t\tstring public _name\n      AND \t\t\tstring public _name\n      PUSH 2\t\t\tstring public _name\n      SWAP1 \t\t\tstring public _name\n      DIV \t\t\tstring public _name\n      DUP1 \t\t\tstring public _name\n      PUSH 1F\t\t\tstring public _name\n      ADD \t\t\tstring public _name\n      PUSH 20\t\t\tstring public _name\n      DUP1 \t\t\tstring public _name\n      SWAP2 \t\t\tstring public _name\n      DIV \t\t\tstring public _name\n      MUL \t\t\tstring public _name\n      PUSH 20\t\t\tstring public _name\n      ADD \t\t\tstring public _name\n      PUSH 40\t\t\tstring public _name\n      MLOAD \t\t\tstring public _name\n      SWAP1 \t\t\tstring public _name\n      DUP2 \t\t\tstring public _name\n      ADD \t\t\tstring public _name\n      PUSH 40\t\t\tstring public _name\n      MSTORE \t\t\tstring public _name\n      DUP1 \t\t\tstring public _name\n      SWAP3 \t\t\tstring public _name\n      SWAP2 \t\t\tstring public _name\n      SWAP1 \t\t\tstring public _name\n      DUP2 \t\t\tstring public _name\n      DUP2 \t\t\tstring public _name\n      MSTORE \t\t\tstring public _name\n      PUSH 20\t\t\tstring public _name\n      ADD \t\t\tstring public _name\n      DUP3 \t\t\tstring public _name\n      DUP1 \t\t\tstring public _name\n      SLOAD \t\t\tstring public _name\n      PUSH 1\t\t\tstring public _name\n      DUP2 \t\t\tstring public _name\n      PUSH 1\t\t\tstring public _name\n      AND \t\t\tstring public _name\n      ISZERO \t\t\tstring public _name\n      PUSH 100\t\t\tstring public _name\n      MUL \t\t\tstring public _name\n      SUB \t\t\tstring public _name\n      AND \t\t\tstring public _name\n      PUSH 2\t\t\tstring public _name\n      SWAP1 \t\t\tstring public _name\n      DIV \t\t\tstring public _name\n      DUP1 \t\t\tstring public _name\n      ISZERO \t\t\tstring public _name\n      PUSH [tag] 151\t\t\tstring public _name\n      JUMPI \t\t\tstring public _name\n      DUP1 \t\t\tstring public _name\n      PUSH 1F\t\t\tstring public _name\n      LT \t\t\tstring public _name\n      PUSH [tag] 152\t\t\tstring public _name\n      JUMPI \t\t\tstring public _name\n      PUSH 100\t\t\tstring public _name\n      DUP1 \t\t\tstring public _name\n      DUP4 \t\t\tstring public _name\n      SLOAD \t\t\tstring public _name\n      DIV \t\t\tstring public _name\n      MUL \t\t\tstring public _name\n      DUP4 \t\t\tstring public _name\n      MSTORE \t\t\tstring public _name\n      SWAP2 \t\t\tstring public _name\n      PUSH 20\t\t\tstring public _name\n      ADD \t\t\tstring public _name\n      SWAP2 \t\t\tstring public _name\n      PUSH [tag] 151\t\t\tstring public _name\n      JUMP \t\t\tstring public _name\n    tag 152\t\t\tstring public _name\n      JUMPDEST \t\t\tstring public _name\n      DUP3 \t\t\tstring public _name\n      ADD \t\t\tstring public _name\n      SWAP2 \t\t\tstring public _name\n      SWAP1 \t\t\tstring public _name\n      PUSH 0\t\t\tstring public _name\n      MSTORE \t\t\tstring public _name\n      PUSH 20\t\t\tstring public _name\n      PUSH 0\t\t\tstring public _name\n      KECCAK256 \t\t\tstring public _name\n      SWAP1 \t\t\tstring public _name\n    tag 153\t\t\tstring public _name\n      JUMPDEST \t\t\tstring public _name\n      DUP2 \t\t\tstring public _name\n      SLOAD \t\t\tstring public _name\n      DUP2 \t\t\tstring public _name\n      MSTORE \t\t\tstring public _name\n      SWAP1 \t\t\tstring public _name\n      PUSH 1\t\t\tstring public _name\n      ADD \t\t\tstring public _name\n      SWAP1 \t\t\tstring public _name\n      PUSH 20\t\t\tstring public _name\n      ADD \t\t\tstring public _name\n      DUP1 \t\t\tstring public _name\n      DUP4 \t\t\tstring public _name\n      GT \t\t\tstring public _name\n      PUSH [tag] 153\t\t\tstring public _name\n      JUMPI \t\t\tstring public _name\n      DUP3 \t\t\tstring public _name\n      SWAP1 \t\t\tstring public _name\n      SUB \t\t\tstring public _name\n      PUSH 1F\t\t\tstring public _name\n      AND \t\t\tstring public _name\n      DUP3 \t\t\tstring public _name\n      ADD \t\t\tstring public _name\n      SWAP2 \t\t\tstring public _name\n    tag 151\t\t\tstring public _name\n      JUMPDEST \t\t\tstring public _name\n      POP \t\t\tstring public _name\n      POP \t\t\tstring public _name\n      POP \t\t\tstring public _name\n      POP \t\t\tstring public _name\n      POP \t\t\tstring public _name\n      DUP2 \t\t\tstring public _name\n      JUMP [out]\t\t\tstring public _name\n    tag 88\t\t\tfunction allowance(address own...\n      JUMPDEST \t\t\tfunction allowance(address own...\n      PUSH 0\t\t\tuint256\n      PUSH 2\t\t\t_allowances\n      PUSH 0\t\t\t_allowances[owner]\n      DUP5 \t\t\towner\n      PUSH FFFFFFFFFFFFFFFFFFFFFFFFFFFFFFFFFFFFFFFF\t\t\t_allowances[owner]\n      AND \t\t\t_allowances[owner]\n      PUSH FFFFFFFFFFFFFFFFFFFFFFFFFFFFFFFFFFFFFFFF\t\t\t_allowances[owner]\n      AND \t\t\t_allowances[owner]\n      DUP2 \t\t\t_allowances[owner]\n      MSTORE \t\t\t_allowances[owner]\n      PUSH 20\t\t\t_allowances[owner]\n      ADD \t\t\t_allowances[owner]\n      SWAP1 \t\t\t_allowances[owner]\n      DUP2 \t\t\t_allowances[owner]\n      MSTORE \t\t\t_allowances[owner]\n      PUSH 20\t\t\t_allowances[owner]\n      ADD \t\t\t_allowances[owner]\n      PUSH 0\t\t\t_allowances[owner]\n      KECCAK256 \t\t\t_allowances[owner]\n      PUSH 0\t\t\t_allowances[owner][spender]\n      DUP4 \t\t\tspender\n      PUSH FFFFFFFFFFFFFFFFFFFFFFFFFFFFFFFFFFFFFFFF\t\t\t_allowances[owner][spender]\n      AND \t\t\t_allowances[owner][spender]\n      PUSH FFFFFFFFFFFFFFFFFFFFFFFFFFFFFFFFFFFFFFFF\t\t\t_allowances[owner][spender]\n      AND \t\t\t_allowances[owner][spender]\n      DUP2 \t\t\t_allowances[owner][spender]\n      MSTORE \t\t\t_allowances[owner][spender]\n      PUSH 20\t\t\t_allowances[owner][spender]\n      ADD \t\t\t_allowances[owner][spender]\n      SWAP1 \t\t\t_allowances[owner][spender]\n      DUP2 \t\t\t_allowances[owner][spender]\n      MSTORE \t\t\t_allowances[owner][spender]\n      PUSH 20\t\t\t_allowances[owner][spender]\n      ADD \t\t\t_allowances[owner][spender]\n      PUSH 0\t\t\t_allowances[owner][spender]\n      KECCAK256 \t\t\t_allowances[owner][spender]\n      SLOAD \t\t\t_allowances[owner][spender]\n      SWAP1 \t\t\treturn _allowances[owner][spen...\n      POP \t\t\treturn _allowances[owner][spen...\n      SWAP3 \t\t\tfunction allowance(address own...\n      SWAP2 \t\t\tfunction allowance(address own...\n      POP \t\t\tfunction allowance(address own...\n      POP \t\t\tfunction allowance(address own...\n      JUMP [out]\t\t\tfunction allowance(address own...\n    tag 91\t\t\tfunction transferOwnership(add...\n      JUMPDEST \t\t\tfunction transferOwnership(add...\n      PUSH [tag] 156\t\t\t_msgSender()\n      PUSH [tag] 99\t\t\t_msgSender\n      JUMP [in]\t\t\t_msgSender()\n    tag 156\t\t\t_msgSender()\n      JUMPDEST \t\t\t_msgSender()\n      PUSH FFFFFFFFFFFFFFFFFFFFFFFFFFFFFFFFFFFFFFFF\t\t\t_owner == _msgSender()\n      AND \t\t\t_owner == _msgSender()\n      PUSH 0\t\t\t_owner\n      DUP1 \t\t\t_owner\n      SWAP1 \t\t\t_owner\n      SLOAD \t\t\t_owner\n      SWAP1 \t\t\t_owner\n      PUSH 100\t\t\t_owner\n      EXP \t\t\t_owner\n      SWAP1 \t\t\t_owner\n      DIV \t\t\t_owner\n      PUSH FFFFFFFFFFFFFFFFFFFFFFFFFFFFFFFFFFFFFFFF\t\t\t_owner\n      AND \t\t\t_owner\n      PUSH FFFFFFFFFFFFFFFFFFFFFFFFFFFFFFFFFFFFFFFF\t\t\t_owner == _msgSender()\n      AND \t\t\t_owner == _msgSender()\n      EQ \t\t\t_owner == _msgSender()\n      PUSH [tag] 157\t\t\trequire(_owner == _msgSender()...\n      JUMPI \t\t\trequire(_owner == _msgSender()...\n      PUSH 40\t\t\trequire(_owner == _msgSender()...\n      MLOAD \t\t\trequire(_owner == _msgSender()...\n      PUSH 8C379A000000000000000000000000000000000000000000000000000000000\t\t\trequire(_owner == _msgSender()...\n      DUP2 \t\t\trequire(_owner == _msgSender()...\n      MSTORE \t\t\trequire(_owner == _msgSender()...\n      PUSH 4\t\t\trequire(_owner == _msgSender()...\n      ADD \t\t\trequire(_owner == _msgSender()...\n      DUP1 \t\t\trequire(_owner == _msgSender()...\n      DUP1 \t\t\trequire(_owner == _msgSender()...\n      PUSH 20\t\t\trequire(_owner == _msgSender()...\n      ADD \t\t\trequire(_owner == _msgSender()...\n      DUP3 \t\t\trequire(_owner == _msgSender()...\n      DUP2 \t\t\trequire(_owner == _msgSender()...\n      SUB \t\t\trequire(_owner == _msgSender()...\n      DUP3 \t\t\trequire(_owner == _msgSender()...\n      MSTORE \t\t\trequire(_owner == _msgSender()...\n      PUSH 20\t\t\trequire(_owner == _msgSender()...\n      DUP2 \t\t\trequire(_owner == _msgSender()...\n      MSTORE \t\t\trequire(_owner == _msgSender()...\n      PUSH 20\t\t\trequire(_owner == _msgSender()...\n      ADD \t\t\trequire(_owner == _msgSender()...\n      DUP1 \t\t\trequire(_owner == _msgSender()...\n      PUSH 4F776E61626C653A2063616C6C6572206973206E6F7420746865206F776E6572\t\t\trequire(_owner == _msgSender()...\n      DUP2 \t\t\trequire(_owner == _msgSender()...\n      MSTORE \t\t\trequire(_owner == _msgSender()...\n      POP \t\t\trequire(_owner == _msgSender()...\n      PUSH 20\t\t\trequire(_owner == _msgSender()...\n      ADD \t\t\trequire(_owner == _msgSender()...\n      SWAP2 \t\t\trequire(_owner == _msgSender()...\n      POP \t\t\trequire(_owner == _msgSender()...\n      POP \t\t\trequire(_owner == _msgSender()...\n      PUSH 40\t\t\trequire(_owner == _msgSender()...\n      MLOAD \t\t\trequire(_owner == _msgSender()...\n      DUP1 \t\t\trequire(_owner == _msgSender()...\n      SWAP2 \t\t\trequire(_owner == _msgSender()...\n      SUB \t\t\trequire(_owner == _msgSender()...\n      SWAP1 \t\t\trequire(_owner == _msgSender()...\n      REVERT \t\t\trequire(_owner == _msgSender()...\n    tag 157\t\t\trequire(_owner == _msgSender()...\n      JUMPDEST \t\t\trequire(_owner == _msgSender()...\n      PUSH [tag] 159\t\t\t_transferOwnership(newOwner)\n      DUP2 \t\t\tnewOwner\n      PUSH [tag] 160\t\t\t_transferOwnership\n      JUMP [in]\t\t\t_transferOwnership(newOwner)\n    tag 159\t\t\t_transferOwnership(newOwner)\n      JUMPDEST \t\t\t_transferOwnership(newOwner)\n      POP \t\t\tfunction transferOwnership(add...\n      JUMP [out]\t\t\tfunction transferOwnership(add...\n    tag 99\t\t\tfunction _msgSender() internal...\n      JUMPDEST \t\t\tfunction _msgSender() internal...\n      PUSH 0\t\t\taddress payable\n      CALLER \t\t\tmsg.sender\n      SWAP1 \t\t\treturn msg.sender\n      POP \t\t\treturn msg.sender\n      SWAP1 \t\t\tfunction _msgSender() internal...\n      JUMP [out]\t\t\tfunction _msgSender() internal...\n    tag 100\t\t\tfunction _approve(address owne...\n      JUMPDEST \t\t\tfunction _approve(address owne...\n      PUSH 0\t\t\t0\n      PUSH FFFFFFFFFFFFFFFFFFFFFFFFFFFFFFFFFFFFFFFF\t\t\towner != address(0)\n      AND \t\t\towner != address(0)\n      DUP4 \t\t\towner\n      PUSH FFFFFFFFFFFFFFFFFFFFFFFFFFFFFFFFFFFFFFFF\t\t\towner != address(0)\n      AND \t\t\towner != address(0)\n      EQ \t\t\towner != address(0)\n      ISZERO \t\t\towner != address(0)\n      PUSH [tag] 163\t\t\trequire(owner != address(0), \"...\n      JUMPI \t\t\trequire(owner != address(0), \"...\n      PUSH 40\t\t\trequire(owner != address(0), \"...\n      MLOAD \t\t\trequire(owner != address(0), \"...\n      PUSH 8C379A000000000000000000000000000000000000000000000000000000000\t\t\trequire(owner != address(0), \"...\n      DUP2 \t\t\trequire(owner != address(0), \"...\n      MSTORE \t\t\trequire(owner != address(0), \"...\n      PUSH 4\t\t\trequire(owner != address(0), \"...\n      ADD \t\t\trequire(owner != address(0), \"...\n      DUP1 \t\t\trequire(owner != address(0), \"...\n      DUP1 \t\t\trequire(owner != address(0), \"...\n      PUSH 20\t\t\trequire(owner != address(0), \"...\n      ADD \t\t\trequire(owner != address(0), \"...\n      DUP3 \t\t\trequire(owner != address(0), \"...\n      DUP2 \t\t\trequire(owner != address(0), \"...\n      SUB \t\t\trequire(owner != address(0), \"...\n      DUP3 \t\t\trequire(owner != address(0), \"...\n      MSTORE \t\t\trequire(owner != address(0), \"...\n      PUSH 24\t\t\trequire(owner != address(0), \"...\n      DUP2 \t\t\trequire(owner != address(0), \"...\n      MSTORE \t\t\trequire(owner != address(0), \"...\n      PUSH 20\t\t\trequire(owner != address(0), \"...\n      ADD \t\t\trequire(owner != address(0), \"...\n      DUP1 \t\t\trequire(owner != address(0), \"...\n      PUSH data 1441CFBEF485DE93BEDECC35B3D10FA2992DB382C4C9C583A6E423A140ABE4A4\t\t\trequire(owner != address(0), \"...\n      PUSH 24\t\t\trequire(owner != address(0), \"...\n      SWAP2 \t\t\trequire(owner != address(0), \"...\n      CODECOPY \t\t\trequire(owner != address(0), \"...\n      PUSH 40\t\t\trequire(owner != address(0), \"...\n      ADD \t\t\trequire(owner != address(0), \"...\n      SWAP2 \t\t\trequire(owner != address(0), \"...\n      POP \t\t\trequire(owner != address(0), \"...\n      POP \t\t\trequire(owner != address(0), \"...\n      PUSH 40\t\t\trequire(owner != address(0), \"...\n      MLOAD \t\t\trequire(owner != address(0), \"...\n      DUP1 \t\t\trequire(owner != address(0), \"...\n      SWAP2 \t\t\trequire(owner != address(0), \"...\n      SUB \t\t\trequire(owner != address(0), \"...\n      SWAP1 \t\t\trequire(owner != address(0), \"...\n      REVERT \t\t\trequire(owner != address(0), \"...\n    tag 163\t\t\trequire(owner != address(0), \"...\n      JUMPDEST \t\t\trequire(owner != address(0), \"...\n      PUSH 0\t\t\t0\n      PUSH FFFFFFFFFFFFFFFFFFFFFFFFFFFFFFFFFFFFFFFF\t\t\tspender != address(0)\n      AND \t\t\tspender != address(0)\n      DUP3 \t\t\tspender\n      PUSH FFFFFFFFFFFFFFFFFFFFFFFFFFFFFFFFFFFFFFFF\t\t\tspender != address(0)\n      AND \t\t\tspender != address(0)\n      EQ \t\t\tspender != address(0)\n      ISZERO \t\t\tspender != address(0)\n      PUSH [tag] 164\t\t\trequire(spender != address(0),...\n      JUMPI \t\t\trequire(spender != address(0),...\n      PUSH 40\t\t\trequire(spender != address(0),...\n      MLOAD \t\t\trequire(spender != address(0),...\n      PUSH 8C379A000000000000000000000000000000000000000000000000000000000\t\t\trequire(spender != address(0),...\n      DUP2 \t\t\trequire(spender != address(0),...\n      MSTORE \t\t\trequire(spender != address(0),...\n      PUSH 4\t\t\trequire(spender != address(0),...\n      ADD \t\t\trequire(spender != address(0),...\n      DUP1 \t\t\trequire(spender != address(0),...\n      DUP1 \t\t\trequire(spender != address(0),...\n      PUSH 20\t\t\trequire(spender != address(0),...\n      ADD \t\t\trequire(spender != address(0),...\n      DUP3 \t\t\trequire(spender != address(0),...\n      DUP2 \t\t\trequire(spender != address(0),...\n      SUB \t\t\trequire(spender != address(0),...\n      DUP3 \t\t\trequire(spender != address(0),...\n      MSTORE \t\t\trequire(spender != address(0),...\n      PUSH 22\t\t\trequire(spender != address(0),...\n      DUP2 \t\t\trequire(spender != address(0),...\n      MSTORE \t\t\trequire(spender != address(0),...\n      PUSH 20\t\t\trequire(spender != address(0),...\n      ADD \t\t\trequire(spender != address(0),...\n      DUP1 \t\t\trequire(spender != address(0),...\n      PUSH data F10E7571E18B354270DEE950932FB6A745EFC79414B2B2556185A4ED6A1AF0D5\t\t\trequire(spender != address(0),...\n      PUSH 22\t\t\trequire(spender != address(0),...\n      SWAP2 \t\t\trequire(spender != address(0),...\n      CODECOPY \t\t\trequire(spender != address(0),...\n      PUSH 40\t\t\trequire(spender != address(0),...\n      ADD \t\t\trequire(spender != address(0),...\n      SWAP2 \t\t\trequire(spender != address(0),...\n      POP \t\t\trequire(spender != address(0),...\n      POP \t\t\trequire(spender != address(0),...\n      PUSH 40\t\t\trequire(spender != address(0),...\n      MLOAD \t\t\trequire(spender != address(0),...\n      DUP1 \t\t\trequire(spender != address(0),...\n      SWAP2 \t\t\trequire(spender != address(0),...\n      SUB \t\t\trequire(spender != address(0),...\n      SWAP1 \t\t\trequire(spender != address(0),...\n      REVERT \t\t\trequire(spender != address(0),...\n    tag 164\t\t\trequire(spender != address(0),...\n      JUMPDEST \t\t\trequire(spender != address(0),...\n      DUP1 \t\t\tamount\n      PUSH 2\t\t\t_allowances\n      PUSH 0\t\t\t_allowances[owner]\n      DUP6 \t\t\towner\n      PUSH FFFFFFFFFFFFFFFFFFFFFFFFFFFFFFFFFFFFFFFF\t\t\t_allowances[owner]\n      AND \t\t\t_allowances[owner]\n      PUSH FFFFFFFFFFFFFFFFFFFFFFFFFFFFFFFFFFFFFFFF\t\t\t_allowances[owner]\n      AND \t\t\t_allowances[owner]\n      DUP2 \t\t\t_allowances[owner]\n      MSTORE \t\t\t_allowances[owner]\n      PUSH 20\t\t\t_allowances[owner]\n      ADD \t\t\t_allowances[owner]\n      SWAP1 \t\t\t_allowances[owner]\n      DUP2 \t\t\t_allowances[owner]\n      MSTORE \t\t\t_allowances[owner]\n      PUSH 20\t\t\t_allowances[owner]\n      ADD \t\t\t_allowances[owner]\n      PUSH 0\t\t\t_allowances[owner]\n      KECCAK256 \t\t\t_allowances[owner]\n      PUSH 0\t\t\t_allowances[owner][spender]\n      DUP5 \t\t\tspender\n      PUSH FFFFFFFFFFFFFFFFFFFFFFFFFFFFFFFFFFFFFFFF\t\t\t_allowances[owner][spender]\n      AND \t\t\t_allowances[owner][spender]\n      PUSH FFFFFFFFFFFFFFFFFFFFFFFFFFFFFFFFFFFFFFFF\t\t\t_allowances[owner][spender]\n      AND \t\t\t_allowances[owner][spender]\n      DUP2 \t\t\t_allowances[owner][spender]\n      MSTORE \t\t\t_allowances[owner][spender]\n      PUSH 20\t\t\t_allowances[owner][spender]\n      ADD \t\t\t_allowances[owner][spender]\n      SWAP1 \t\t\t_allowances[owner][spender]\n      DUP2 \t\t\t_allowances[owner][spender]\n      MSTORE \t\t\t_allowances[owner][spender]\n      PUSH 20\t\t\t_allowances[owner][spender]\n      ADD \t\t\t_allowances[owner][spender]\n      PUSH 0\t\t\t_allowances[owner][spender]\n      KECCAK256 \t\t\t_allowances[owner][spender]\n      DUP2 \t\t\t_allowances[owner][spender] = ...\n      SWAP1 \t\t\t_allowances[owner][spender] = ...\n      SSTORE \t\t\t_allowances[owner][spender] = ...\n      POP \t\t\t_allowances[owner][spender] = ...\n      DUP2 \t\t\tspender\n      PUSH FFFFFFFFFFFFFFFFFFFFFFFFFFFFFFFFFFFFFFFF\t\t\tApproval(owner, spender, amoun...\n      AND \t\t\tApproval(owner, spender, amoun...\n      DUP4 \t\t\towner\n      PUSH FFFFFFFFFFFFFFFFFFFFFFFFFFFFFFFFFFFFFFFF\t\t\tApproval(owner, spender, amoun...\n      AND \t\t\tApproval(owner, spender, amoun...\n      PUSH 8C5BE1E5EBEC7D5BD14F71427D1E84F3DD0314C0F7B2291E5B200AC8C7C3B925\t\t\tApproval(owner, spender, amoun...\n      DUP4 \t\t\tamount\n      PUSH 40\t\t\tApproval(owner, spender, amoun...\n      MLOAD \t\t\tApproval(owner, spender, amoun...\n      DUP1 \t\t\tApproval(owner, spender, amoun...\n      DUP3 \t\t\tApproval(owner, spender, amoun...\n      DUP2 \t\t\tApproval(owner, spender, amoun...\n      MSTORE \t\t\tApproval(owner, spender, amoun...\n      PUSH 20\t\t\tApproval(owner, spender, amoun...\n      ADD \t\t\tApproval(owner, spender, amoun...\n      SWAP2 \t\t\tApproval(owner, spender, amoun...\n      POP \t\t\tApproval(owner, spender, amoun...\n      POP \t\t\tApproval(owner, spender, amoun...\n      PUSH 40\t\t\tApproval(owner, spender, amoun...\n      MLOAD \t\t\tApproval(owner, spender, amoun...\n      DUP1 \t\t\tApproval(owner, spender, amoun...\n      SWAP2 \t\t\tApproval(owner, spender, amoun...\n      SUB \t\t\tApproval(owner, spender, amoun...\n      SWAP1 \t\t\tApproval(owner, spender, amoun...\n      LOG3 \t\t\tApproval(owner, spender, amoun...\n      POP \t\t\tfunction _approve(address owne...\n      POP \t\t\tfunction _approve(address owne...\n      POP \t\t\tfunction _approve(address owne...\n      JUMP [out]\t\t\tfunction _approve(address owne...\n    tag 104\t\t\tfunction _transfer(address sen...\n      JUMPDEST \t\t\tfunction _transfer(address sen...\n      PUSH 0\t\t\t0\n      PUSH FFFFFFFFFFFFFFFFFFFFFFFFFFFFFFFFFFFFFFFF\t\t\tsender != address(0)\n      AND \t\t\tsender != address(0)\n      DUP4 \t\t\tsender\n      PUSH FFFFFFFFFFFFFFFFFFFFFFFFFFFFFFFFFFFFFFFF\t\t\tsender != address(0)\n      AND \t\t\tsender != address(0)\n      EQ \t\t\tsender != address(0)\n      ISZERO \t\t\tsender != address(0)\n      PUSH [tag] 166\t\t\trequire(sender != address(0), ...\n      JUMPI \t\t\trequire(sender != address(0), ...\n      PUSH 40\t\t\trequire(sender != address(0), ...\n      MLOAD \t\t\trequire(sender != address(0), ...\n      PUSH 8C379A000000000000000000000000000000000000000000000000000000000\t\t\trequire(sender != address(0), ...\n      DUP2 \t\t\trequire(sender != address(0), ...\n      MSTORE \t\t\trequire(sender != address(0), ...\n      PUSH 4\t\t\trequire(sender != address(0), ...\n      ADD \t\t\trequire(sender != address(0), ...\n      DUP1 \t\t\trequire(sender != address(0), ...\n      DUP1 \t\t\trequire(sender != address(0), ...\n      PUSH 20\t\t\trequire(sender != address(0), ...\n      ADD \t\t\trequire(sender != address(0), ...\n      DUP3 \t\t\trequire(sender != address(0), ...\n      DUP2 \t\t\trequire(sender != address(0), ...\n      SUB \t\t\trequire(sender != address(0), ...\n      DUP3 \t\t\trequire(sender != address(0), ...\n      MSTORE \t\t\trequire(sender != address(0), ...\n      PUSH 25\t\t\trequire(sender != address(0), ...\n      DUP2 \t\t\trequire(sender != address(0), ...\n      MSTORE \t\t\trequire(sender != address(0), ...\n      PUSH 20\t\t\trequire(sender != address(0), ...\n      ADD \t\t\trequire(sender != address(0), ...\n      DUP1 \t\t\trequire(sender != address(0), ...\n      PUSH data D26CF302D50B28DE74BE656B11D67092B32131E5712D1BCF08C4E976DACDA57\t\t\trequire(sender != address(0), ...\n      PUSH 25\t\t\trequire(sender != address(0), ...\n      SWAP2 \t\t\trequire(sender != address(0), ...\n      CODECOPY \t\t\trequire(sender != address(0), ...\n      PUSH 40\t\t\trequire(sender != address(0), ...\n      ADD \t\t\trequire(sender != address(0), ...\n      SWAP2 \t\t\trequire(sender != address(0), ...\n      POP \t\t\trequire(sender != address(0), ...\n      POP \t\t\trequire(sender != address(0), ...\n      PUSH 40\t\t\trequire(sender != address(0), ...\n      MLOAD \t\t\trequire(sender != address(0), ...\n      DUP1 \t\t\trequire(sender != address(0), ...\n      SWAP2 \t\t\trequire(sender != address(0), ...\n      SUB \t\t\trequire(sender != address(0), ...\n      SWAP1 \t\t\trequire(sender != address(0), ...\n      REVERT \t\t\trequire(sender != address(0), ...\n    tag 166\t\t\trequire(sender != address(0), ...\n      JUMPDEST \t\t\trequire(sender != address(0), ...\n      PUSH 0\t\t\t0\n      PUSH FFFFFFFFFFFFFFFFFFFFFFFFFFFFFFFFFFFFFFFF\t\t\trecipient != address(0)\n      AND \t\t\trecipient != address(0)\n      DUP3 \t\t\trecipient\n      PUSH FFFFFFFFFFFFFFFFFFFFFFFFFFFFFFFFFFFFFFFF\t\t\trecipient != address(0)\n      AND \t\t\trecipient != address(0)\n      EQ \t\t\trecipient != address(0)\n      ISZERO \t\t\trecipient != address(0)\n      PUSH [tag] 167\t\t\trequire(recipient != address(0...\n      JUMPI \t\t\trequire(recipient != address(0...\n      PUSH 40\t\t\trequire(recipient != address(0...\n      MLOAD \t\t\trequire(recipient != address(0...\n      PUSH 8C379A000000000000000000000000000000000000000000000000000000000\t\t\trequire(recipient != address(0...\n      DUP2 \t\t\trequire(recipient != address(0...\n      MSTORE \t\t\trequire(recipient != address(0...\n      PUSH 4\t\t\trequire(recipient != address(0...\n      ADD \t\t\trequire(recipient != address(0...\n      DUP1 \t\t\trequire(recipient != address(0...\n      DUP1 \t\t\trequire(recipient != address(0...\n      PUSH 20\t\t\trequire(recipient != address(0...\n      ADD \t\t\trequire(recipient != address(0...\n      DUP3 \t\t\trequire(recipient != address(0...\n      DUP2 \t\t\trequire(recipient != address(0...\n      SUB \t\t\trequire(recipient != address(0...\n      DUP3 \t\t\trequire(recipient != address(0...\n      MSTORE \t\t\trequire(recipient != address(0...\n      PUSH 23\t\t\trequire(recipient != address(0...\n      DUP2 \t\t\trequire(recipient != address(0...\n      MSTORE \t\t\trequire(recipient != address(0...\n      PUSH 20\t\t\trequire(recipient != address(0...\n      ADD \t\t\trequire(recipient != address(0...\n      DUP1 \t\t\trequire(recipient != address(0...\n      PUSH data ADE9EFCB59E42E439FFE61509B352B1AF56D64CCB68D80B039B7B69578F371D2\t\t\trequire(recipient != address(0...\n      PUSH 23\t\t\trequire(recipient != address(0...\n      SWAP2 \t\t\trequire(recipient != address(0...\n      CODECOPY \t\t\trequire(recipient != address(0...\n      PUSH 40\t\t\trequire(recipient != address(0...\n      ADD \t\t\trequire(recipient != address(0...\n      SWAP2 \t\t\trequire(recipient != address(0...\n      POP \t\t\trequire(recipient != address(0...\n      POP \t\t\trequire(recipient != address(0...\n      PUSH 40\t\t\trequire(recipient != address(0...\n      MLOAD \t\t\trequire(recipient != address(0...\n      DUP1 \t\t\trequire(recipient != address(0...\n      SWAP2 \t\t\trequire(recipient != address(0...\n      SUB \t\t\trequire(recipient != address(0...\n      SWAP1 \t\t\trequire(recipient != address(0...\n      REVERT \t\t\trequire(recipient != address(0...\n    tag 167\t\t\trequire(recipient != address(0...\n      JUMPDEST \t\t\trequire(recipient != address(0...\n      PUSH [tag] 168\t\t\t_balances[sender].sub(amount, ...\n      DUP2 \t\t\tamount\n      PUSH 40\t\t\t_balances[sender].sub(amount, ...\n      MLOAD \t\t\t_balances[sender].sub(amount, ...\n      DUP1 \t\t\t_balances[sender].sub(amount, ...\n      PUSH 60\t\t\t_balances[sender].sub(amount, ...\n      ADD \t\t\t_balances[sender].sub(amount, ...\n      PUSH 40\t\t\t_balances[sender].sub(amount, ...\n      MSTORE \t\t\t_balances[sender].sub(amount, ...\n      DUP1 \t\t\t_balances[sender].sub(amount, ...\n      PUSH 26\t\t\t_balances[sender].sub(amount, ...\n      DUP2 \t\t\t_balances[sender].sub(amount, ...\n      MSTORE \t\t\t_balances[sender].sub(amount, ...\n      PUSH 20\t\t\t_balances[sender].sub(amount, ...\n      ADD \t\t\t_balances[sender].sub(amount, ...\n      PUSH data A91EFD7A65EF5B4AE4D6568D674798B78A5A89184DD296C100513251C22D3E73\t\t\t_balances[sender].sub(amount, ...\n      PUSH 26\t\t\t_balances[sender].sub(amount, ...\n      SWAP2 \t\t\t_balances[sender].sub(amount, ...\n      CODECOPY \t\t\t_balances[sender].sub(amount, ...\n      PUSH 1\t\t\t_balances\n      PUSH 0\t\t\t_balances[sender]\n      DUP8 \t\t\tsender\n      PUSH FFFFFFFFFFFFFFFFFFFFFFFFFFFFFFFFFFFFFFFF\t\t\t_balances[sender]\n      AND \t\t\t_balances[sender]\n      PUSH FFFFFFFFFFFFFFFFFFFFFFFFFFFFFFFFFFFFFFFF\t\t\t_balances[sender]\n      AND \t\t\t_balances[sender]\n      DUP2 \t\t\t_balances[sender]\n      MSTORE \t\t\t_balances[sender]\n      PUSH 20\t\t\t_balances[sender]\n      ADD \t\t\t_balances[sender]\n      SWAP1 \t\t\t_balances[sender]\n      DUP2 \t\t\t_balances[sender]\n      MSTORE \t\t\t_balances[sender]\n      PUSH 20\t\t\t_balances[sender]\n      ADD \t\t\t_balances[sender]\n      PUSH 0\t\t\t_balances[sender]\n      KECCAK256 \t\t\t_balances[sender]\n      SLOAD \t\t\t_balances[sender]\n      PUSH [tag] 109\t\t\t_balances[sender].sub\n      SWAP1 \t\t\t_balances[sender].sub\n      SWAP3 \t\t\t_balances[sender].sub(amount, ...\n      SWAP2 \t\t\t_balances[sender].sub(amount, ...\n      SWAP1 \t\t\t_balances[sender].sub(amount, ...\n      PUSH FFFFFFFF\t\t\t_balances[sender].sub(amount, ...\n      AND \t\t\t_balances[sender].sub(amount, ...\n      JUMP [in]\t\t\t_balances[sender].sub(amount, ...\n    tag 168\t\t\t_balances[sender].sub(amount, ...\n      JUMPDEST \t\t\t_balances[sender].sub(amount, ...\n      PUSH 1\t\t\t_balances\n      PUSH 0\t\t\t_balances[sender]\n      DUP6 \t\t\tsender\n      PUSH FFFFFFFFFFFFFFFFFFFFFFFFFFFFFFFFFFFFFFFF\t\t\t_balances[sender]\n      AND \t\t\t_balances[sender]\n      PUSH FFFFFFFFFFFFFFFFFFFFFFFFFFFFFFFFFFFFFFFF\t\t\t_balances[sender]\n      AND \t\t\t_balances[sender]\n      DUP2 \t\t\t_balances[sender]\n      MSTORE \t\t\t_balances[sender]\n      PUSH 20\t\t\t_balances[sender]\n      ADD \t\t\t_balances[sender]\n      SWAP1 \t\t\t_balances[sender]\n      DUP2 \t\t\t_balances[sender]\n      MSTORE \t\t\t_balances[sender]\n      PUSH 20\t\t\t_balances[sender]\n      ADD \t\t\t_balances[sender]\n      PUSH 0\t\t\t_balances[sender]\n      KECCAK256 \t\t\t_balances[sender]\n      DUP2 \t\t\t_balances[sender] = _balances[...\n      SWAP1 \t\t\t_balances[sender] = _balances[...\n      SSTORE \t\t\t_balances[sender] = _balances[...\n      POP \t\t\t_balances[sender] = _balances[...\n      PUSH [tag] 169\t\t\t_balances[recipient].add(amoun...\n      DUP2 \t\t\tamount\n      PUSH 1\t\t\t_balances\n      PUSH 0\t\t\t_balances[recipient]\n      DUP6 \t\t\trecipient\n      PUSH FFFFFFFFFFFFFFFFFFFFFFFFFFFFFFFFFFFFFFFF\t\t\t_balances[recipient]\n      AND \t\t\t_balances[recipient]\n      PUSH FFFFFFFFFFFFFFFFFFFFFFFFFFFFFFFFFFFFFFFF\t\t\t_balances[recipient]\n      AND \t\t\t_balances[recipient]\n      DUP2 \t\t\t_balances[recipient]\n      MSTORE \t\t\t_balances[recipient]\n      PUSH 20\t\t\t_balances[recipient]\n      ADD \t\t\t_balances[recipient]\n      SWAP1 \t\t\t_balances[recipient]\n      DUP2 \t\t\t_balances[recipient]\n      MSTORE \t\t\t_balances[recipient]\n      PUSH 20\t\t\t_balances[recipient]\n      ADD \t\t\t_balances[recipient]\n      PUSH 0\t\t\t_balances[recipient]\n      KECCAK256 \t\t\t_balances[recipient]\n      SLOAD \t\t\t_balances[recipient]\n      PUSH [tag] 116\t\t\t_balances[recipient].add\n      SWAP1 \t\t\t_balances[recipient].add\n      SWAP2 \t\t\t_balances[recipient].add(amoun...\n      SWAP1 \t\t\t_balances[recipient].add(amoun...\n      PUSH FFFFFFFF\t\t\t_balances[recipient].add(amoun...\n      AND \t\t\t_balances[recipient].add(amoun...\n      JUMP [in]\t\t\t_balances[recipient].add(amoun...\n    tag 169\t\t\t_balances[recipient].add(amoun...\n      JUMPDEST \t\t\t_balances[recipient].add(amoun...\n      PUSH 1\t\t\t_balances\n      PUSH 0\t\t\t_balances[recipient]\n      DUP5 \t\t\trecipient\n      PUSH FFFFFFFFFFFFFFFFFFFFFFFFFFFFFFFFFFFFFFFF\t\t\t_balances[recipient]\n      AND \t\t\t_balances[recipient]\n      PUSH FFFFFFFFFFFFFFFFFFFFFFFFFFFFFFFFFFFFFFFF\t\t\t_balances[recipient]\n      AND \t\t\t_balances[recipient]\n      DUP2 \t\t\t_balances[recipient]\n      MSTORE \t\t\t_balances[recipient]\n      PUSH 20\t\t\t_balances[recipient]\n      ADD \t\t\t_balances[recipient]\n      SWAP1 \t\t\t_balances[recipient]\n      DUP2 \t\t\t_balances[recipient]\n      MSTORE \t\t\t_balances[recipient]\n      PUSH 20\t\t\t_balances[recipient]\n      ADD \t\t\t_balances[recipient]\n      PUSH 0\t\t\t_balances[recipient]\n      KECCAK256 \t\t\t_balances[recipient]\n      DUP2 \t\t\t_balances[recipient] = _balanc...\n      SWAP1 \t\t\t_balances[recipient] = _balanc...\n      SSTORE \t\t\t_balances[recipient] = _balanc...\n      POP \t\t\t_balances[recipient] = _balanc...\n      DUP2 \t\t\trecipient\n      PUSH FFFFFFFFFFFFFFFFFFFFFFFFFFFFFFFFFFFFFFFF\t\t\tTransfer(sender, recipient, am...\n      AND \t\t\tTransfer(sender, recipient, am...\n      DUP4 \t\t\tsender\n      PUSH FFFFFFFFFFFFFFFFFFFFFFFFFFFFFFFFFFFFFFFF\t\t\tTransfer(sender, recipient, am...\n      AND \t\t\tTransfer(sender, recipient, am...\n      PUSH DDF252AD1BE2C89B69C2B068FC378DAA952BA7F163C4A11628F55A4DF523B3EF\t\t\tTransfer(sender, recipient, am...\n      DUP4 \t\t\tamount\n      PUSH 40\t\t\tTransfer(sender, recipient, am...\n      MLOAD \t\t\tTransfer(sender, recipient, am...\n      DUP1 \t\t\tTransfer(sender, recipient, am...\n      DUP3 \t\t\tTransfer(sender, recipient, am...\n      DUP2 \t\t\tTransfer(sender, recipient, am...\n      MSTORE \t\t\tTransfer(sender, recipient, am...\n      PUSH 20\t\t\tTransfer(sender, recipient, am...\n      ADD \t\t\tTransfer(sender, recipient, am...\n      SWAP2 \t\t\tTransfer(sender, recipient, am...\n      POP \t\t\tTransfer(sender, recipient, am...\n      POP \t\t\tTransfer(sender, recipient, am...\n      PUSH 40\t\t\tTransfer(sender, recipient, am...\n      MLOAD \t\t\tTransfer(sender, recipient, am...\n      DUP1 \t\t\tTransfer(sender, recipient, am...\n      SWAP2 \t\t\tTransfer(sender, recipient, am...\n      SUB \t\t\tTransfer(sender, recipient, am...\n      SWAP1 \t\t\tTransfer(sender, recipient, am...\n      LOG3 \t\t\tTransfer(sender, recipient, am...\n      POP \t\t\tfunction _transfer(address sen...\n      POP \t\t\tfunction _transfer(address sen...\n      POP \t\t\tfunction _transfer(address sen...\n      JUMP [out]\t\t\tfunction _transfer(address sen...\n    tag 109\t\t\tfunction sub(uint256 a, uint25...\n      JUMPDEST \t\t\tfunction sub(uint256 a, uint25...\n      PUSH 0\t\t\tuint256\n      DUP4 \t\t\ta\n      DUP4 \t\t\tb\n      GT \t\t\tb <= a\n      ISZERO \t\t\tb <= a\n      DUP3 \t\t\terrorMessage\n      SWAP1 \t\t\trequire(b <= a, errorMessage)\n      PUSH [tag] 171\t\t\trequire(b <= a, errorMessage)\n      JUMPI \t\t\trequire(b <= a, errorMessage)\n      PUSH 40\t\t\trequire(b <= a, errorMessage)\n      MLOAD \t\t\trequire(b <= a, errorMessage)\n      PUSH 8C379A000000000000000000000000000000000000000000000000000000000\t\t\trequire(b <= a, errorMessage)\n      DUP2 \t\t\trequire(b <= a, errorMessage)\n      MSTORE \t\t\trequire(b <= a, errorMessage)\n      PUSH 4\t\t\trequire(b <= a, errorMessage)\n      ADD \t\t\trequire(b <= a, errorMessage)\n      DUP1 \t\t\trequire(b <= a, errorMessage)\n      DUP1 \t\t\trequire(b <= a, errorMessage)\n      PUSH 20\t\t\trequire(b <= a, errorMessage)\n      ADD \t\t\trequire(b <= a, errorMessage)\n      DUP3 \t\t\trequire(b <= a, errorMessage)\n      DUP2 \t\t\trequire(b <= a, errorMessage)\n      SUB \t\t\trequire(b <= a, errorMessage)\n      DUP3 \t\t\trequire(b <= a, errorMessage)\n      MSTORE \t\t\trequire(b <= a, errorMessage)\n      DUP4 \t\t\trequire(b <= a, errorMessage)\n      DUP2 \t\t\trequire(b <= a, errorMessage)\n      DUP2 \t\t\trequire(b <= a, errorMessage)\n      MLOAD \t\t\trequire(b <= a, errorMessage)\n      DUP2 \t\t\trequire(b <= a, errorMessage)\n      MSTORE \t\t\trequire(b <= a, errorMessage)\n      PUSH 20\t\t\trequire(b <= a, errorMessage)\n      ADD \t\t\trequire(b <= a, errorMessage)\n      SWAP2 \t\t\trequire(b <= a, errorMessage)\n      POP \t\t\trequire(b <= a, errorMessage)\n      DUP1 \t\t\trequire(b <= a, errorMessage)\n      MLOAD \t\t\trequire(b <= a, errorMessage)\n      SWAP1 \t\t\trequire(b <= a, errorMessage)\n      PUSH 20\t\t\trequire(b <= a, errorMessage)\n      ADD \t\t\trequire(b <= a, errorMessage)\n      SWAP1 \t\t\trequire(b <= a, errorMessage)\n      DUP1 \t\t\trequire(b <= a, errorMessage)\n      DUP4 \t\t\trequire(b <= a, errorMessage)\n      DUP4 \t\t\trequire(b <= a, errorMessage)\n      PUSH 0\t\t\t\\r\n    tag 172\t\t\tolidity 0.5.16;\\r\\n\\r\\ninterfa...\n      JUMPDEST \t\t\tolidity 0.5.16;\\r\\n\\r\\ninterfa...\n      DUP4 \t\t\tace\n      DUP2 \t\t\te\n      LT \t\t\tinterface \n      ISZERO \t\t\tolidity 0.5.16;\\r\\n\\r\\ninterfa...\n      PUSH [tag] 174\t\t\tolidity 0.5.16;\\r\\n\\r\\ninterfa...\n      JUMPI \t\t\tolidity 0.5.16;\\r\\n\\r\\ninterfa...\n      DUP1 \t\t\ts\n      DUP3 \t\t\tn e\n      ADD \t\t\tns in exist\n      MLOAD \t\t\tf tokens in existe\n      DUP2 \t\t\tn\n      DUP5 \t\t\t am\n      ADD \t\t\t the amount\n      MSTORE \t\t\tReturns the amount of tokens i...\n      PUSH 20\t\t\t\\r\\n\n      DUP2 \t\t\t/\n      ADD \t\t\t\\r\\n  /**\\r\\n \n      SWAP1 \t\t\tP20 {\\r\\n  /**\\r\\n \n      POP \t\t\tP20 {\\r\\n  /**\\r\\n \n      PUSH [tag] 172\t\t\tolidity 0.5.16;\\r\\n\\r\\ninterfa...\n      JUMP \t\t\tolidity 0.5.16;\\r\\n\\r\\ninterfa...\n    tag 174\t\t\tolidity 0.5.16;\\r\\n\\r\\ninterfa...\n      JUMPDEST \t\t\tolidity 0.5.16;\\r\\n\\r\\ninterfa...\n      POP \t\t\tity 0.5.16;\\r\\n\\r\n      POP \t\t\trequire(b <= a, errorMessage)\n      POP \t\t\trequire(b <= a, errorMessage)\n      POP \t\t\trequire(b <= a, errorMessage)\n      SWAP1 \t\t\trequire(b <= a, errorMessage)\n      POP \t\t\trequire(b <= a, errorMessage)\n      SWAP1 \t\t\trequire(b <= a, errorMessage)\n      DUP2 \t\t\trequire(b <= a, errorMessage)\n      ADD \t\t\trequire(b <= a, errorMessage)\n      SWAP1 \t\t\trequire(b <= a, errorMessage)\n      PUSH 1F\t\t\trequire(b <= a, errorMessage)\n      AND \t\t\trequire(b <= a, errorMessage)\n      DUP1 \t\t\trequire(b <= a, errorMessage)\n      ISZERO \t\t\trequire(b <= a, errorMessage)\n      PUSH [tag] 175\t\t\trequire(b <= a, errorMessage)\n      JUMPI \t\t\trequire(b <= a, errorMessage)\n      DUP1 \t\t\trequire(b <= a, errorMessage)\n      DUP3 \t\t\trequire(b <= a, errorMessage)\n      SUB \t\t\trequire(b <= a, errorMessage)\n      DUP1 \t\t\trequire(b <= a, errorMessage)\n      MLOAD \t\t\trequire(b <= a, errorMessage)\n      PUSH 1\t\t\trequire(b <= a, errorMessage)\n      DUP4 \t\t\trequire(b <= a, errorMessage)\n      PUSH 20\t\t\trequire(b <= a, errorMessage)\n      SUB \t\t\trequire(b <= a, errorMessage)\n      PUSH 100\t\t\trequire(b <= a, errorMessage)\n      EXP \t\t\trequire(b <= a, errorMessage)\n      SUB \t\t\trequire(b <= a, errorMessage)\n      NOT \t\t\trequire(b <= a, errorMessage)\n      AND \t\t\trequire(b <= a, errorMessage)\n      DUP2 \t\t\trequire(b <= a, errorMessage)\n      MSTORE \t\t\trequire(b <= a, errorMessage)\n      PUSH 20\t\t\trequire(b <= a, errorMessage)\n      ADD \t\t\trequire(b <= a, errorMessage)\n      SWAP2 \t\t\trequire(b <= a, errorMessage)\n      POP \t\t\trequire(b <= a, errorMessage)\n    tag 175\t\t\trequire(b <= a, errorMessage)\n      JUMPDEST \t\t\trequire(b <= a, errorMessage)\n      POP \t\t\trequire(b <= a, errorMessage)\n      SWAP3 \t\t\trequire(b <= a, errorMessage)\n      POP \t\t\trequire(b <= a, errorMessage)\n      POP \t\t\trequire(b <= a, errorMessage)\n      POP \t\t\trequire(b <= a, errorMessage)\n      PUSH 40\t\t\trequire(b <= a, errorMessage)\n      MLOAD \t\t\trequire(b <= a, errorMessage)\n      DUP1 \t\t\trequire(b <= a, errorMessage)\n      SWAP2 \t\t\trequire(b <= a, errorMessage)\n      SUB \t\t\trequire(b <= a, errorMessage)\n      SWAP1 \t\t\trequire(b <= a, errorMessage)\n      REVERT \t\t\trequire(b <= a, errorMessage)\n    tag 171\t\t\trequire(b <= a, errorMessage)\n      JUMPDEST \t\t\trequire(b <= a, errorMessage)\n      POP \t\t\trequire(b <= a, errorMessage)\n      PUSH 0\t\t\tuint256 c\n      DUP4 \t\t\tb\n      DUP6 \t\t\ta\n      SUB \t\t\ta - b\n      SWAP1 \t\t\tuint256 c = a - b\n      POP \t\t\tuint256 c = a - b\n      DUP1 \t\t\tc\n      SWAP2 \t\t\treturn c\n      POP \t\t\treturn c\n      POP \t\t\treturn c\n      SWAP4 \t\t\tfunction sub(uint256 a, uint25...\n      SWAP3 \t\t\tfunction sub(uint256 a, uint25...\n      POP \t\t\tfunction sub(uint256 a, uint25...\n      POP \t\t\tfunction sub(uint256 a, uint25...\n      POP \t\t\tfunction sub(uint256 a, uint25...\n      JUMP [out]\t\t\tfunction sub(uint256 a, uint25...\n    tag 116\t\t\tfunction add(uint256 a, uint25...\n      JUMPDEST \t\t\tfunction add(uint256 a, uint25...\n      PUSH 0\t\t\tuint256\n      DUP1 \t\t\tuint256 c\n      DUP3 \t\t\tb\n      DUP5 \t\t\ta\n      ADD \t\t\ta + b\n      SWAP1 \t\t\tuint256 c = a + b\n      POP \t\t\tuint256 c = a + b\n      DUP4 \t\t\ta\n      DUP2 \t\t\tc\n      LT \t\t\tc >= a\n      ISZERO \t\t\tc >= a\n      PUSH [tag] 177\t\t\trequire(c >= a, \"SafeMath: add...\n      JUMPI \t\t\trequire(c >= a, \"SafeMath: add...\n      PUSH 40\t\t\trequire(c >= a, \"SafeMath: add...\n      MLOAD \t\t\trequire(c >= a, \"SafeMath: add...\n      PUSH 8C379A000000000000000000000000000000000000000000000000000000000\t\t\trequire(c >= a, \"SafeMath: add...\n      DUP2 \t\t\trequire(c >= a, \"SafeMath: add...\n      MSTORE \t\t\trequire(c >= a, \"SafeMath: add...\n      PUSH 4\t\t\trequire(c >= a, \"SafeMath: add...\n      ADD \t\t\trequire(c >= a, \"SafeMath: add...\n      DUP1 \t\t\trequire(c >= a, \"SafeMath: add...\n      DUP1 \t\t\trequire(c >= a, \"SafeMath: add...\n      PUSH 20\t\t\trequire(c >= a, \"SafeMath: add...\n      ADD \t\t\trequire(c >= a, \"SafeMath: add...\n      DUP3 \t\t\trequire(c >= a, \"SafeMath: add...\n      DUP2 \t\t\trequire(c >= a, \"SafeMath: add...\n      SUB \t\t\trequire(c >= a, \"SafeMath: add...\n      DUP3 \t\t\trequire(c >= a, \"SafeMath: add...\n      MSTORE \t\t\trequire(c >= a, \"SafeMath: add...\n      PUSH 1B\t\t\trequire(c >= a, \"SafeMath: add...\n      DUP2 \t\t\trequire(c >= a, \"SafeMath: add...\n      MSTORE \t\t\trequire(c >= a, \"SafeMath: add...\n      PUSH 20\t\t\trequire(c >= a, \"SafeMath: add...\n      ADD \t\t\trequire(c >= a, \"SafeMath: add...\n      DUP1 \t\t\trequire(c >= a, \"SafeMath: add...\n      PUSH 536166654D6174683A206164646974696F6E206F766572666C6F770000000000\t\t\trequire(c >= a, \"SafeMath: add...\n      DUP2 \t\t\trequire(c >= a, \"SafeMath: add...\n      MSTORE \t\t\trequire(c >= a, \"SafeMath: add...\n      POP \t\t\trequire(c >= a, \"SafeMath: add...\n      PUSH 20\t\t\trequire(c >= a, \"SafeMath: add...\n      ADD \t\t\trequire(c >= a, \"SafeMath: add...\n      SWAP2 \t\t\trequire(c >= a, \"SafeMath: add...\n      POP \t\t\trequire(c >= a, \"SafeMath: add...\n      POP \t\t\trequire(c >= a, \"SafeMath: add...\n      PUSH 40\t\t\trequire(c >= a, \"SafeMath: add...\n      MLOAD \t\t\trequire(c >= a, \"SafeMath: add...\n      DUP1 \t\t\trequire(c >= a, \"SafeMath: add...\n      SWAP2 \t\t\trequire(c >= a, \"SafeMath: add...\n      SUB \t\t\trequire(c >= a, \"SafeMath: add...\n      SWAP1 \t\t\trequire(c >= a, \"SafeMath: add...\n      REVERT \t\t\trequire(c >= a, \"SafeMath: add...\n    tag 177\t\t\trequire(c >= a, \"SafeMath: add...\n      JUMPDEST \t\t\trequire(c >= a, \"SafeMath: add...\n      DUP1 \t\t\tc\n      SWAP2 \t\t\treturn c\n      POP \t\t\treturn c\n      POP \t\t\treturn c\n      SWAP3 \t\t\tfunction add(uint256 a, uint25...\n      SWAP2 \t\t\tfunction add(uint256 a, uint25...\n      POP \t\t\tfunction add(uint256 a, uint25...\n      POP \t\t\tfunction add(uint256 a, uint25...\n      JUMP [out]\t\t\tfunction add(uint256 a, uint25...\n    tag 120\t\t\tfunction _burn(address account...\n      JUMPDEST \t\t\tfunction _burn(address account...\n      PUSH 0\t\t\t0\n      PUSH FFFFFFFFFFFFFFFFFFFFFFFFFFFFFFFFFFFFFFFF\t\t\taccount != address(0)\n      AND \t\t\taccount != address(0)\n      DUP3 \t\t\taccount\n      PUSH FFFFFFFFFFFFFFFFFFFFFFFFFFFFFFFFFFFFFFFF\t\t\taccount != address(0)\n      AND \t\t\taccount != address(0)\n      EQ \t\t\taccount != address(0)\n      ISZERO \t\t\taccount != address(0)\n      PUSH [tag] 179\t\t\trequire(account != address(0),...\n      JUMPI \t\t\trequire(account != address(0),...\n      PUSH 40\t\t\trequire(account != address(0),...\n      MLOAD \t\t\trequire(account != address(0),...\n      PUSH 8C379A000000000000000000000000000000000000000000000000000000000\t\t\trequire(account != address(0),...\n      DUP2 \t\t\trequire(account != address(0),...\n      MSTORE \t\t\trequire(account != address(0),...\n      PUSH 4\t\t\trequire(account != address(0),...\n      ADD \t\t\trequire(account != address(0),...\n      DUP1 \t\t\trequire(account != address(0),...\n      DUP1 \t\t\trequire(account != address(0),...\n      PUSH 20\t\t\trequire(account != address(0),...\n      ADD \t\t\trequire(account != address(0),...\n      DUP3 \t\t\trequire(account != address(0),...\n      DUP2 \t\t\trequire(account != address(0),...\n      SUB \t\t\trequire(account != address(0),...\n      DUP3 \t\t\trequire(account != address(0),...\n      MSTORE \t\t\trequire(account != address(0),...\n      PUSH 21\t\t\trequire(account != address(0),...\n      DUP2 \t\t\trequire(account != address(0),...\n      MSTORE \t\t\trequire(account != address(0),...\n      PUSH 20\t\t\trequire(account != address(0),...\n      ADD \t\t\trequire(account != address(0),...\n      DUP1 \t\t\trequire(account != address(0),...\n      PUSH data B81EDBF10508D9B81724F18FF8F3D8BFBA9790734CE1F1C54DFE1030B4914855\t\t\trequire(account != address(0),...\n      PUSH 21\t\t\trequire(account != address(0),...\n      SWAP2 \t\t\trequire(account != address(0),...\n      CODECOPY \t\t\trequire(account != address(0),...\n      PUSH 40\t\t\trequire(account != address(0),...\n      ADD \t\t\trequire(account != address(0),...\n      SWAP2 \t\t\trequire(account != address(0),...\n      POP \t\t\trequire(account != address(0),...\n      POP \t\t\trequire(account != address(0),...\n      PUSH 40\t\t\trequire(account != address(0),...\n      MLOAD \t\t\trequire(account != address(0),...\n      DUP1 \t\t\trequire(account != address(0),...\n      SWAP2 \t\t\trequire(account != address(0),...\n      SUB \t\t\trequire(account != address(0),...\n      SWAP1 \t\t\trequire(account != address(0),...\n      REVERT \t\t\trequire(account != address(0),...\n    tag 179\t\t\trequire(account != address(0),...\n      JUMPDEST \t\t\trequire(account != address(0),...\n      PUSH [tag] 180\t\t\t_balances[account].sub(amount,...\n      DUP2 \t\t\tamount\n      PUSH 40\t\t\t_balances[account].sub(amount,...\n      MLOAD \t\t\t_balances[account].sub(amount,...\n      DUP1 \t\t\t_balances[account].sub(amount,...\n      PUSH 60\t\t\t_balances[account].sub(amount,...\n      ADD \t\t\t_balances[account].sub(amount,...\n      PUSH 40\t\t\t_balances[account].sub(amount,...\n      MSTORE \t\t\t_balances[account].sub(amount,...\n      DUP1 \t\t\t_balances[account].sub(amount,...\n      PUSH 22\t\t\t_balances[account].sub(amount,...\n      DUP2 \t\t\t_balances[account].sub(amount,...\n      MSTORE \t\t\t_balances[account].sub(amount,...\n      PUSH 20\t\t\t_balances[account].sub(amount,...\n      ADD \t\t\t_balances[account].sub(amount,...\n      PUSH data DEAA84B30175FD0578812C46240362B7914652A35E6707AD7E1556891E4AE032\t\t\t_balances[account].sub(amount,...\n      PUSH 22\t\t\t_balances[account].sub(amount,...\n      SWAP2 \t\t\t_balances[account].sub(amount,...\n      CODECOPY \t\t\t_balances[account].sub(amount,...\n      PUSH 1\t\t\t_balances\n      PUSH 0\t\t\t_balances[account]\n      DUP7 \t\t\taccount\n      PUSH FFFFFFFFFFFFFFFFFFFFFFFFFFFFFFFFFFFFFFFF\t\t\t_balances[account]\n      AND \t\t\t_balances[account]\n      PUSH FFFFFFFFFFFFFFFFFFFFFFFFFFFFFFFFFFFFFFFF\t\t\t_balances[account]\n      AND \t\t\t_balances[account]\n      DUP2 \t\t\t_balances[account]\n      MSTORE \t\t\t_balances[account]\n      PUSH 20\t\t\t_balances[account]\n      ADD \t\t\t_balances[account]\n      SWAP1 \t\t\t_balances[account]\n      DUP2 \t\t\t_balances[account]\n      MSTORE \t\t\t_balances[account]\n      PUSH 20\t\t\t_balances[account]\n      ADD \t\t\t_balances[account]\n      PUSH 0\t\t\t_balances[account]\n      KECCAK256 \t\t\t_balances[account]\n      SLOAD \t\t\t_balances[account]\n      PUSH [tag] 109\t\t\t_balances[account].sub\n      SWAP1 \t\t\t_balances[account].sub\n      SWAP3 \t\t\t_balances[account].sub(amount,...\n      SWAP2 \t\t\t_balances[account].sub(amount,...\n      SWAP1 \t\t\t_balances[account].sub(amount,...\n      PUSH FFFFFFFF\t\t\t_balances[account].sub(amount,...\n      AND \t\t\t_balances[account].sub(amount,...\n      JUMP [in]\t\t\t_balances[account].sub(amount,...\n    tag 180\t\t\t_balances[account].sub(amount,...\n      JUMPDEST \t\t\t_balances[account].sub(amount,...\n      PUSH 1\t\t\t_balances\n      PUSH 0\t\t\t_balances[account]\n      DUP5 \t\t\taccount\n      PUSH FFFFFFFFFFFFFFFFFFFFFFFFFFFFFFFFFFFFFFFF\t\t\t_balances[account]\n      AND \t\t\t_balances[account]\n      PUSH FFFFFFFFFFFFFFFFFFFFFFFFFFFFFFFFFFFFFFFF\t\t\t_balances[account]\n      AND \t\t\t_balances[account]\n      DUP2 \t\t\t_balances[account]\n      MSTORE \t\t\t_balances[account]\n      PUSH 20\t\t\t_balances[account]\n      ADD \t\t\t_balances[account]\n      SWAP1 \t\t\t_balances[account]\n      DUP2 \t\t\t_balances[account]\n      MSTORE \t\t\t_balances[account]\n      PUSH 20\t\t\t_balances[account]\n      ADD \t\t\t_balances[account]\n      PUSH 0\t\t\t_balances[account]\n      KECCAK256 \t\t\t_balances[account]\n      DUP2 \t\t\t_balances[account] = _balances...\n      SWAP1 \t\t\t_balances[account] = _balances...\n      SSTORE \t\t\t_balances[account] = _balances...\n      POP \t\t\t_balances[account] = _balances...\n      PUSH [tag] 181\t\t\t_totalSupply.sub(amount)\n      DUP2 \t\t\tamount\n      PUSH 3\t\t\t_totalSupply\n      SLOAD \t\t\t_totalSupply\n      PUSH [tag] 182\t\t\t_totalSupply.sub\n      SWAP1 \t\t\t_totalSupply.sub\n      SWAP2 \t\t\t_totalSupply.sub(amount)\n      SWAP1 \t\t\t_totalSupply.sub(amount)\n      PUSH FFFFFFFF\t\t\t_totalSupply.sub(amount)\n      AND \t\t\t_totalSupply.sub(amount)\n      JUMP [in]\t\t\t_totalSupply.sub(amount)\n    tag 181\t\t\t_totalSupply.sub(amount)\n      JUMPDEST \t\t\t_totalSupply.sub(amount)\n      PUSH 3\t\t\t_totalSupply\n      DUP2 \t\t\t_totalSupply = _totalSupply.su...\n      SWAP1 \t\t\t_totalSupply = _totalSupply.su...\n      SSTORE \t\t\t_totalSupply = _totalSupply.su...\n      POP \t\t\t_totalSupply = _totalSupply.su...\n      PUSH 0\t\t\t0\n      PUSH FFFFFFFFFFFFFFFFFFFFFFFFFFFFFFFFFFFFFFFF\t\t\tTransfer(account, address(0), ...\n      AND \t\t\tTransfer(account, address(0), ...\n      DUP3 \t\t\taccount\n      PUSH FFFFFFFFFFFFFFFFFFFFFFFFFFFFFFFFFFFFFFFF\t\t\tTransfer(account, address(0), ...\n      AND \t\t\tTransfer(account, address(0), ...\n      PUSH DDF252AD1BE2C89B69C2B068FC378DAA952BA7F163C4A11628F55A4DF523B3EF\t\t\tTransfer(account, address(0), ...\n      DUP4 \t\t\tamount\n      PUSH 40\t\t\tTransfer(account, address(0), ...\n      MLOAD \t\t\tTransfer(account, address(0), ...\n      DUP1 \t\t\tTransfer(account, address(0), ...\n      DUP3 \t\t\tTransfer(account, address(0), ...\n      DUP2 \t\t\tTransfer(account, address(0), ...\n      MSTORE \t\t\tTransfer(account, address(0), ...\n      PUSH 20\t\t\tTransfer(account, address(0), ...\n      ADD \t\t\tTransfer(account, address(0), ...\n      SWAP2 \t\t\tTransfer(account, address(0), ...\n      POP \t\t\tTransfer(account, address(0), ...\n      POP \t\t\tTransfer(account, address(0), ...\n      PUSH 40\t\t\tTransfer(account, address(0), ...\n      MLOAD \t\t\tTransfer(account, address(0), ...\n      DUP1 \t\t\tTransfer(account, address(0), ...\n      SWAP2 \t\t\tTransfer(account, address(0), ...\n      SUB \t\t\tTransfer(account, address(0), ...\n      SWAP1 \t\t\tTransfer(account, address(0), ...\n      LOG3 \t\t\tTransfer(account, address(0), ...\n      POP \t\t\tfunction _burn(address account...\n      POP \t\t\tfunction _burn(address account...\n      JUMP [out]\t\t\tfunction _burn(address account...\n    tag 139\t\t\tfunction _mint(address account...\n      JUMPDEST \t\t\tfunction _mint(address account...\n      PUSH 0\t\t\t0\n      PUSH FFFFFFFFFFFFFFFFFFFFFFFFFFFFFFFFFFFFFFFF\t\t\taccount != address(0)\n      AND \t\t\taccount != address(0)\n      DUP3 \t\t\taccount\n      PUSH FFFFFFFFFFFFFFFFFFFFFFFFFFFFFFFFFFFFFFFF\t\t\taccount != address(0)\n      AND \t\t\taccount != address(0)\n      EQ \t\t\taccount != address(0)\n      ISZERO \t\t\taccount != address(0)\n      PUSH [tag] 184\t\t\trequire(account != address(0),...\n      JUMPI \t\t\trequire(account != address(0),...\n      PUSH 40\t\t\trequire(account != address(0),...\n      MLOAD \t\t\trequire(account != address(0),...\n      PUSH 8C379A000000000000000000000000000000000000000000000000000000000\t\t\trequire(account != address(0),...\n      DUP2 \t\t\trequire(account != address(0),...\n      MSTORE \t\t\trequire(account != address(0),...\n      PUSH 4\t\t\trequire(account != address(0),...\n      ADD \t\t\trequire(account != address(0),...\n      DUP1 \t\t\trequire(account != address(0),...\n      DUP1 \t\t\trequire(account != address(0),...\n      PUSH 20\t\t\trequire(account != address(0),...\n      ADD \t\t\trequire(account != address(0),...\n      DUP3 \t\t\trequire(account != address(0),...\n      DUP2 \t\t\trequire(account != address(0),...\n      SUB \t\t\trequire(account != address(0),...\n      DUP3 \t\t\trequire(account != address(0),...\n      MSTORE \t\t\trequire(account != address(0),...\n      PUSH 1F\t\t\trequire(account != address(0),...\n      DUP2 \t\t\trequire(account != address(0),...\n      MSTORE \t\t\trequire(account != address(0),...\n      PUSH 20\t\t\trequire(account != address(0),...\n      ADD \t\t\trequire(account != address(0),...\n      DUP1 \t\t\trequire(account != address(0),...\n      PUSH 42455032303A206D696E7420746F20746865207A65726F206164647265737300\t\t\trequire(account != address(0),...\n      DUP2 \t\t\trequire(account != address(0),...\n      MSTORE \t\t\trequire(account != address(0),...\n      POP \t\t\trequire(account != address(0),...\n      PUSH 20\t\t\trequire(account != address(0),...\n      ADD \t\t\trequire(account != address(0),...\n      SWAP2 \t\t\trequire(account != address(0),...\n      POP \t\t\trequire(account != address(0),...\n      POP \t\t\trequire(account != address(0),...\n      PUSH 40\t\t\trequire(account != address(0),...\n      MLOAD \t\t\trequire(account != address(0),...\n      DUP1 \t\t\trequire(account != address(0),...\n      SWAP2 \t\t\trequire(account != address(0),...\n      SUB \t\t\trequire(account != address(0),...\n      SWAP1 \t\t\trequire(account != address(0),...\n      REVERT \t\t\trequire(account != address(0),...\n    tag 184\t\t\trequire(account != address(0),...\n      JUMPDEST \t\t\trequire(account != address(0),...\n      PUSH [tag] 185\t\t\t_totalSupply.add(amount)\n      DUP2 \t\t\tamount\n      PUSH 3\t\t\t_totalSupply\n      SLOAD \t\t\t_totalSupply\n      PUSH [tag] 116\t\t\t_totalSupply.add\n      SWAP1 \t\t\t_totalSupply.add\n      SWAP2 \t\t\t_totalSupply.add(amount)\n      SWAP1 \t\t\t_totalSupply.add(amount)\n      PUSH FFFFFFFF\t\t\t_totalSupply.add(amount)\n      AND \t\t\t_totalSupply.add(amount)\n      JUMP [in]\t\t\t_totalSupply.add(amount)\n    tag 185\t\t\t_totalSupply.add(amount)\n      JUMPDEST \t\t\t_totalSupply.add(amount)\n      PUSH 3\t\t\t_totalSupply\n      DUP2 \t\t\t_totalSupply = _totalSupply.ad...\n      SWAP1 \t\t\t_totalSupply = _totalSupply.ad...\n      SSTORE \t\t\t_totalSupply = _totalSupply.ad...\n      POP \t\t\t_totalSupply = _totalSupply.ad...\n      PUSH [tag] 186\t\t\t_balances[account].add(amount)\n      DUP2 \t\t\tamount\n      PUSH 1\t\t\t_balances\n      PUSH 0\t\t\t_balances[account]\n      DUP6 \t\t\taccount\n      PUSH FFFFFFFFFFFFFFFFFFFFFFFFFFFFFFFFFFFFFFFF\t\t\t_balances[account]\n      AND \t\t\t_balances[account]\n      PUSH FFFFFFFFFFFFFFFFFFFFFFFFFFFFFFFFFFFFFFFF\t\t\t_balances[account]\n      AND \t\t\t_balances[account]\n      DUP2 \t\t\t_balances[account]\n      MSTORE \t\t\t_balances[account]\n      PUSH 20\t\t\t_balances[account]\n      ADD \t\t\t_balances[account]\n      SWAP1 \t\t\t_balances[account]\n      DUP2 \t\t\t_balances[account]\n      MSTORE \t\t\t_balances[account]\n      PUSH 20\t\t\t_balances[account]\n      ADD \t\t\t_balances[account]\n      PUSH 0\t\t\t_balances[account]\n      KECCAK256 \t\t\t_balances[account]\n      SLOAD \t\t\t_balances[account]\n      PUSH [tag] 116\t\t\t_balances[account].add\n      SWAP1 \t\t\t_balances[account].add\n      SWAP2 \t\t\t_balances[account].add(amount)\n      SWAP1 \t\t\t_balances[account].add(amount)\n      PUSH FFFFFFFF\t\t\t_balances[account].add(amount)\n      AND \t\t\t_balances[account].add(amount)\n      JUMP [in]\t\t\t_balances[account].add(amount)\n    tag 186\t\t\t_balances[account].add(amount)\n      JUMPDEST \t\t\t_balances[account].add(amount)\n      PUSH 1\t\t\t_balances\n      PUSH 0\t\t\t_balances[account]\n      DUP5 \t\t\taccount\n      PUSH FFFFFFFFFFFFFFFFFFFFFFFFFFFFFFFFFFFFFFFF\t\t\t_balances[account]\n      AND \t\t\t_balances[account]\n      PUSH FFFFFFFFFFFFFFFFFFFFFFFFFFFFFFFFFFFFFFFF\t\t\t_balances[account]\n      AND \t\t\t_balances[account]\n      DUP2 \t\t\t_balances[account]\n      MSTORE \t\t\t_balances[account]\n      PUSH 20\t\t\t_balances[account]\n      ADD \t\t\t_balances[account]\n      SWAP1 \t\t\t_balances[account]\n      DUP2 \t\t\t_balances[account]\n      MSTORE \t\t\t_balances[account]\n      PUSH 20\t\t\t_balances[account]\n      ADD \t\t\t_balances[account]\n      PUSH 0\t\t\t_balances[account]\n      KECCAK256 \t\t\t_balances[account]\n      DUP2 \t\t\t_balances[account] = _balances...\n      SWAP1 \t\t\t_balances[account] = _balances...\n      SSTORE \t\t\t_balances[account] = _balances...\n      POP \t\t\t_balances[account] = _balances...\n      DUP2 \t\t\taccount\n      PUSH FFFFFFFFFFFFFFFFFFFFFFFFFFFFFFFFFFFFFFFF\t\t\tTransfer(address(0), account, ...\n      AND \t\t\tTransfer(address(0), account, ...\n      PUSH 0\t\t\t0\n      PUSH FFFFFFFFFFFFFFFFFFFFFFFFFFFFFFFFFFFFFFFF\t\t\tTransfer(address(0), account, ...\n      AND \t\t\tTransfer(address(0), account, ...\n      PUSH DDF252AD1BE2C89B69C2B068FC378DAA952BA7F163C4A11628F55A4DF523B3EF\t\t\tTransfer(address(0), account, ...\n      DUP4 \t\t\tamount\n      PUSH 40\t\t\tTransfer(address(0), account, ...\n      MLOAD \t\t\tTransfer(address(0), account, ...\n      DUP1 \t\t\tTransfer(address(0), account, ...\n      DUP3 \t\t\tTransfer(address(0), account, ...\n      DUP2 \t\t\tTransfer(address(0), account, ...\n      MSTORE \t\t\tTransfer(address(0), account, ...\n      PUSH 20\t\t\tTransfer(address(0), account, ...\n      ADD \t\t\tTransfer(address(0), account, ...\n      SWAP2 \t\t\tTransfer(address(0), account, ...\n      POP \t\t\tTransfer(address(0), account, ...\n      POP \t\t\tTransfer(address(0), account, ...\n      PUSH 40\t\t\tTransfer(address(0), account, ...\n      MLOAD \t\t\tTransfer(address(0), account, ...\n      DUP1 \t\t\tTransfer(address(0), account, ...\n      SWAP2 \t\t\tTransfer(address(0), account, ...\n      SUB \t\t\tTransfer(address(0), account, ...\n      SWAP1 \t\t\tTransfer(address(0), account, ...\n      LOG3 \t\t\tTransfer(address(0), account, ...\n      POP \t\t\tfunction _mint(address account...\n      POP \t\t\tfunction _mint(address account...\n      JUMP [out]\t\t\tfunction _mint(address account...\n    tag 160\t\t\tfunction _transferOwnership(ad...\n      JUMPDEST \t\t\tfunction _transferOwnership(ad...\n      PUSH 0\t\t\t0\n      PUSH FFFFFFFFFFFFFFFFFFFFFFFFFFFFFFFFFFFFFFFF\t\t\tnewOwner != address(0)\n      AND \t\t\tnewOwner != address(0)\n      DUP2 \t\t\tnewOwner\n      PUSH FFFFFFFFFFFFFFFFFFFFFFFFFFFFFFFFFFFFFFFF\t\t\tnewOwner != address(0)\n      AND \t\t\tnewOwner != address(0)\n      EQ \t\t\tnewOwner != address(0)\n      ISZERO \t\t\tnewOwner != address(0)\n      PUSH [tag] 188\t\t\trequire(newOwner != address(0)...\n      JUMPI \t\t\trequire(newOwner != address(0)...\n      PUSH 40\t\t\trequire(newOwner != address(0)...\n      MLOAD \t\t\trequire(newOwner != address(0)...\n      PUSH 8C379A000000000000000000000000000000000000000000000000000000000\t\t\trequire(newOwner != address(0)...\n      DUP2 \t\t\trequire(newOwner != address(0)...\n      MSTORE \t\t\trequire(newOwner != address(0)...\n      PUSH 4\t\t\trequire(newOwner != address(0)...\n      ADD \t\t\trequire(newOwner != address(0)...\n      DUP1 \t\t\trequire(newOwner != address(0)...\n      DUP1 \t\t\trequire(newOwner != address(0)...\n      PUSH 20\t\t\trequire(newOwner != address(0)...\n      ADD \t\t\trequire(newOwner != address(0)...\n      DUP3 \t\t\trequire(newOwner != address(0)...\n      DUP2 \t\t\trequire(newOwner != address(0)...\n      SUB \t\t\trequire(newOwner != address(0)...\n      DUP3 \t\t\trequire(newOwner != address(0)...\n      MSTORE \t\t\trequire(newOwner != address(0)...\n      PUSH 26\t\t\trequire(newOwner != address(0)...\n      DUP2 \t\t\trequire(newOwner != address(0)...\n      MSTORE \t\t\trequire(newOwner != address(0)...\n      PUSH 20\t\t\trequire(newOwner != address(0)...\n      ADD \t\t\trequire(newOwner != address(0)...\n      DUP1 \t\t\trequire(newOwner != address(0)...\n      PUSH data 245F15FF17F551913A7A18385165551503906A406F905AC1C2437281A7CD0CFE\t\t\trequire(newOwner != address(0)...\n      PUSH 26\t\t\trequire(newOwner != address(0)...\n      SWAP2 \t\t\trequire(newOwner != address(0)...\n      CODECOPY \t\t\trequire(newOwner != address(0)...\n      PUSH 40\t\t\trequire(newOwner != address(0)...\n      ADD \t\t\trequire(newOwner != address(0)...\n      SWAP2 \t\t\trequire(newOwner != address(0)...\n      POP \t\t\trequire(newOwner != address(0)...\n      POP \t\t\trequire(newOwner != address(0)...\n      PUSH 40\t\t\trequire(newOwner != address(0)...\n      MLOAD \t\t\trequire(newOwner != address(0)...\n      DUP1 \t\t\trequire(newOwner != address(0)...\n      SWAP2 \t\t\trequire(newOwner != address(0)...\n      SUB \t\t\trequire(newOwner != address(0)...\n      SWAP1 \t\t\trequire(newOwner != address(0)...\n      REVERT \t\t\trequire(newOwner != address(0)...\n    tag 188\t\t\trequire(newOwner != address(0)...\n      JUMPDEST \t\t\trequire(newOwner != address(0)...\n      DUP1 \t\t\tnewOwner\n      PUSH FFFFFFFFFFFFFFFFFFFFFFFFFFFFFFFFFFFFFFFF\t\t\tOwnershipTransferred(_owner, n...\n      AND \t\t\tOwnershipTransferred(_owner, n...\n      PUSH 0\t\t\t_owner\n      DUP1 \t\t\t_owner\n      SWAP1 \t\t\t_owner\n      SLOAD \t\t\t_owner\n      SWAP1 \t\t\t_owner\n      PUSH 100\t\t\t_owner\n      EXP \t\t\t_owner\n      SWAP1 \t\t\t_owner\n      DIV \t\t\t_owner\n      PUSH FFFFFFFFFFFFFFFFFFFFFFFFFFFFFFFFFFFFFFFF\t\t\t_owner\n      AND \t\t\t_owner\n      PUSH FFFFFFFFFFFFFFFFFFFFFFFFFFFFFFFFFFFFFFFF\t\t\tOwnershipTransferred(_owner, n...\n      AND \t\t\tOwnershipTransferred(_owner, n...\n      PUSH 8BE0079C531659141344CD1FD0A4F28419497F9722A3DAAFE3B4186F6B6457E0\t\t\tOwnershipTransferred(_owner, n...\n      PUSH 40\t\t\tOwnershipTransferred(_owner, n...\n      MLOAD \t\t\tOwnershipTransferred(_owner, n...\n      PUSH 40\t\t\tOwnershipTransferred(_owner, n...\n      MLOAD \t\t\tOwnershipTransferred(_owner, n...\n      DUP1 \t\t\tOwnershipTransferred(_owner, n...\n      SWAP2 \t\t\tOwnershipTransferred(_owner, n...\n      SUB \t\t\tOwnershipTransferred(_owner, n...\n      SWAP1 \t\t\tOwnershipTransferred(_owner, n...\n      LOG3 \t\t\tOwnershipTransferred(_owner, n...\n      DUP1 \t\t\tnewOwner\n      PUSH 0\t\t\t_owner\n      DUP1 \t\t\t_owner\n      PUSH 100\t\t\t_owner = newOwner\n      EXP \t\t\t_owner = newOwner\n      DUP2 \t\t\t_owner = newOwner\n      SLOAD \t\t\t_owner = newOwner\n      DUP2 \t\t\t_owner = newOwner\n      PUSH FFFFFFFFFFFFFFFFFFFFFFFFFFFFFFFFFFFFFFFF\t\t\t_owner = newOwner\n      MUL \t\t\t_owner = newOwner\n      NOT \t\t\t_owner = newOwner\n      AND \t\t\t_owner = newOwner\n      SWAP1 \t\t\t_owner = newOwner\n      DUP4 \t\t\t_owner = newOwner\n      PUSH FFFFFFFFFFFFFFFFFFFFFFFFFFFFFFFFFFFFFFFF\t\t\t_owner = newOwner\n      AND \t\t\t_owner = newOwner\n      MUL \t\t\t_owner = newOwner\n      OR \t\t\t_owner = newOwner\n      SWAP1 \t\t\t_owner = newOwner\n      SSTORE \t\t\t_owner = newOwner\n      POP \t\t\t_owner = newOwner\n      POP \t\t\tfunction _transferOwnership(ad...\n      JUMP [out]\t\t\tfunction _transferOwnership(ad...\n    tag 182\t\t\tfunction sub(uint256 a, uint25...\n      JUMPDEST \t\t\tfunction sub(uint256 a, uint25...\n      PUSH 0\t\t\tuint256\n      PUSH [tag] 190\t\t\tsub(a, b, \"SafeMath: subtracti...\n      DUP4 \t\t\ta\n      DUP4 \t\t\tb\n      PUSH 40\t\t\tsub(a, b, \"SafeMath: subtracti...\n      MLOAD \t\t\tsub(a, b, \"SafeMath: subtracti...\n      DUP1 \t\t\tsub(a, b, \"SafeMath: subtracti...\n      PUSH 40\t\t\tsub(a, b, \"SafeMath: subtracti...\n      ADD \t\t\tsub(a, b, \"SafeMath: subtracti...\n      PUSH 40\t\t\tsub(a, b, \"SafeMath: subtracti...\n      MSTORE \t\t\tsub(a, b, \"SafeMath: subtracti...\n      DUP1 \t\t\tsub(a, b, \"SafeMath: subtracti...\n      PUSH 1E\t\t\tsub(a, b, \"SafeMath: subtracti...\n      DUP2 \t\t\tsub(a, b, \"SafeMath: subtracti...\n      MSTORE \t\t\tsub(a, b, \"SafeMath: subtracti...\n      PUSH 20\t\t\tsub(a, b, \"SafeMath: subtracti...\n      ADD \t\t\tsub(a, b, \"SafeMath: subtracti...\n      PUSH 536166654D6174683A207375627472616374696F6E206F766572666C6F770000\t\t\tsub(a, b, \"SafeMath: subtracti...\n      DUP2 \t\t\tsub(a, b, \"SafeMath: subtracti...\n      MSTORE \t\t\tsub(a, b, \"SafeMath: subtracti...\n      POP \t\t\tsub(a, b, \"SafeMath: subtracti...\n      PUSH [tag] 109\t\t\tsub\n      JUMP [in]\t\t\tsub(a, b, \"SafeMath: subtracti...\n    tag 190\t\t\tsub(a, b, \"SafeMath: subtracti...\n      JUMPDEST \t\t\tsub(a, b, \"SafeMath: subtracti...\n      SWAP1 \t\t\treturn sub(a, b, \"SafeMath: su...\n      POP \t\t\treturn sub(a, b, \"SafeMath: su...\n      SWAP3 \t\t\tfunction sub(uint256 a, uint25...\n      SWAP2 \t\t\tfunction sub(uint256 a, uint25...\n      POP \t\t\tfunction sub(uint256 a, uint25...\n      POP \t\t\tfunction sub(uint256 a, uint25...\n      JUMP [out]\t\t\tfunction sub(uint256 a, uint25...\n    .data\n      1441CFBEF485DE93BEDECC35B3D10FA2992DB382C4C9C583A6E423A140ABE4A4:\n        42455032303a20617070726f76652066726f6d20746865207a65726f2061646472657373\n      245F15FF17F551913A7A18385165551503906A406F905AC1C2437281A7CD0CFE:\n        4f776e61626c653a206e6577206f776e657220697320746865207a65726f2061646472657373\n      4F3506F4BA71C79C3CBD442A3AFEB30E9B27AF2D84E116A4385B34E267D2287E:\n        42455032303a207472616e7366657220616d6f756e74206578636565647320616c6c6f77616e6365\n      A91EFD7A65EF5B4AE4D6568D674798B78A5A89184DD296C100513251C22D3E73:\n        42455032303a207472616e7366657220616d6f756e7420657863656564732062616c616e6365\n      ADE9EFCB59E42E439FFE61509B352B1AF56D64CCB68D80B039B7B69578F371D2:\n        42455032303a207472616e7366657220746f20746865207a65726f2061646472657373\n      B7060B3538DCD3DDC8A941C91636A8115A1AA46914747FD9809D543BBB46CD22:\n        42455032303a2064656372656173656420616c6c6f77616e63652062656c6f77207a65726f\n      B81EDBF10508D9B81724F18FF8F3D8BFBA9790734CE1F1C54DFE1030B4914855:\n        42455032303a206275726e2066726f6d20746865207a65726f2061646472657373\n      D26CF302D50B28DE74BE656B11D67092B32131E5712D1BCF08C4E976DACDA57:\n        42455032303a207472616e736665722066726f6d20746865207a65726f2061646472657373\n      DEAA84B30175FD0578812C46240362B7914652A35E6707AD7E1556891E4AE032:\n        42455032303a206275726e20616d6f756e7420657863656564732062616c616e6365\n      F10E7571E18B354270DEE950932FB6A745EFC79414B2B2556185A4ED6A1AF0D5:\n        42455032303a20617070726f766520746f20746865207a65726f2061646472657373\n"
}